{
	"contracts/acs.sol": {
		"ControlFlow": {
			"abi": [
				{
					"inputs": [
						{
							"internalType": "uint256",
							"name": "_number",
							"type": "uint256"
						}
					],
					"name": "addNumber",
					"outputs": [],
					"stateMutability": "nonpayable",
					"type": "function"
				},
				{
					"inputs": [
						{
							"internalType": "uint256",
							"name": "_value",
							"type": "uint256"
						}
					],
					"name": "checkValue",
					"outputs": [
						{
							"internalType": "string",
							"name": "",
							"type": "string"
						}
					],
					"stateMutability": "pure",
					"type": "function"
				},
				{
					"inputs": [
						{
							"internalType": "uint256",
							"name": "_number",
							"type": "uint256"
						}
					],
					"name": "findFirstMultipleOf",
					"outputs": [
						{
							"internalType": "uint256",
							"name": "",
							"type": "uint256"
						}
					],
					"stateMutability": "view",
					"type": "function"
				},
				{
					"inputs": [
						{
							"internalType": "uint256",
							"name": "_number",
							"type": "uint256"
						}
					],
					"name": "isEven",
					"outputs": [
						{
							"internalType": "string",
							"name": "",
							"type": "string"
						}
					],
					"stateMutability": "pure",
					"type": "function"
				},
				{
					"inputs": [
						{
							"internalType": "uint256",
							"name": "",
							"type": "uint256"
						}
					],
					"name": "numbers",
					"outputs": [
						{
							"internalType": "uint256",
							"name": "",
							"type": "uint256"
						}
					],
					"stateMutability": "view",
					"type": "function"
				},
				{
					"inputs": [],
					"name": "sumArray",
					"outputs": [
						{
							"internalType": "uint256",
							"name": "",
							"type": "uint256"
						}
					],
					"stateMutability": "view",
					"type": "function"
				}
			],
			"devdoc": {
				"kind": "dev",
				"methods": {},
				"version": 1
			},
			"evm": {
				"assembly": "    /* \"contracts/acs.sol\":61:1756  contract ControlFlow {... */\n  mstore(0x40, 0x80)\n  callvalue\n  dup1\n  iszero\n  tag_1\n  jumpi\n  0x00\n  dup1\n  revert\ntag_1:\n  pop\n  dataSize(sub_0)\n  dup1\n  dataOffset(sub_0)\n  0x00\n  codecopy\n  0x00\n  return\nstop\n\nsub_0: assembly {\n        /* \"contracts/acs.sol\":61:1756  contract ControlFlow {... */\n      mstore(0x40, 0x80)\n      callvalue\n      dup1\n      iszero\n      tag_1\n      jumpi\n      0x00\n      dup1\n      revert\n    tag_1:\n      pop\n      jumpi(tag_2, lt(calldatasize, 0x04))\n      shr(0xe0, calldataload(0x00))\n      dup1\n      0x18db62fb\n      eq\n      tag_3\n      jumpi\n      dup1\n      0x2a2e1320\n      eq\n      tag_4\n      jumpi\n      dup1\n      0x81d73423\n      eq\n      tag_5\n      jumpi\n      dup1\n      0xd39fa233\n      eq\n      tag_6\n      jumpi\n      dup1\n      0xd4b87c02\n      eq\n      tag_7\n      jumpi\n      dup1\n      0xfce68023\n      eq\n      tag_8\n      jumpi\n    tag_2:\n      0x00\n      dup1\n      revert\n        /* \"contracts/acs.sol\":196:516  function checkValue(uint256 _value) public pure returns (string memory) {... */\n    tag_3:\n      tag_9\n      0x04\n      dup1\n      calldatasize\n      sub\n      dup2\n      add\n      swap1\n      tag_10\n      swap2\n      swap1\n      tag_11\n      jump\t// in\n    tag_10:\n      tag_12\n      jump\t// in\n    tag_9:\n      mload(0x40)\n      tag_13\n      swap2\n      swap1\n      tag_14\n      jump\t// in\n    tag_13:\n      mload(0x40)\n      dup1\n      swap2\n      sub\n      swap1\n      return\n        /* \"contracts/acs.sol\":561:762  function isEven(uint256 _number) public pure returns (string memory) {... */\n    tag_4:\n      tag_15\n      0x04\n      dup1\n      calldatasize\n      sub\n      dup2\n      add\n      swap1\n      tag_16\n      swap2\n      swap1\n      tag_11\n      jump\t// in\n    tag_16:\n      tag_17\n      jump\t// in\n    tag_15:\n      mload(0x40)\n      tag_18\n      swap2\n      swap1\n      tag_14\n      jump\t// in\n    tag_18:\n      mload(0x40)\n      dup1\n      swap2\n      sub\n      swap1\n      return\n        /* \"contracts/acs.sol\":799:1022  function sumArray() public view returns (uint256) {... */\n    tag_5:\n      tag_19\n      tag_20\n      jump\t// in\n    tag_19:\n      mload(0x40)\n      tag_21\n      swap2\n      swap1\n      tag_22\n      jump\t// in\n    tag_21:\n      mload(0x40)\n      dup1\n      swap2\n      sub\n      swap1\n      return\n        /* \"contracts/acs.sol\":113:137  uint256[] public numbers */\n    tag_6:\n      tag_23\n      0x04\n      dup1\n      calldatasize\n      sub\n      dup2\n      add\n      swap1\n      tag_24\n      swap2\n      swap1\n      tag_11\n      jump\t// in\n    tag_24:\n      tag_25\n      jump\t// in\n    tag_23:\n      mload(0x40)\n      tag_26\n      swap2\n      swap1\n      tag_22\n      jump\t// in\n    tag_26:\n      mload(0x40)\n      dup1\n      swap2\n      sub\n      swap1\n      return\n        /* \"contracts/acs.sol\":1087:1614  function findFirstMultipleOf(uint256 _number) public view returns (uint256) {... */\n    tag_7:\n      tag_27\n      0x04\n      dup1\n      calldatasize\n      sub\n      dup2\n      add\n      swap1\n      tag_28\n      swap2\n      swap1\n      tag_11\n      jump\t// in\n    tag_28:\n      tag_29\n      jump\t// in\n    tag_27:\n      mload(0x40)\n      tag_30\n      swap2\n      swap1\n      tag_22\n      jump\t// in\n    tag_30:\n      mload(0x40)\n      dup1\n      swap2\n      sub\n      swap1\n      return\n        /* \"contracts/acs.sol\":1670:1753  function addNumber(uint256 _number) public {... */\n    tag_8:\n      tag_31\n      0x04\n      dup1\n      calldatasize\n      sub\n      dup2\n      add\n      swap1\n      tag_32\n      swap2\n      swap1\n      tag_11\n      jump\t// in\n    tag_32:\n      tag_33\n      jump\t// in\n    tag_31:\n      stop\n        /* \"contracts/acs.sol\":196:516  function checkValue(uint256 _value) public pure returns (string memory) {... */\n    tag_12:\n        /* \"contracts/acs.sol\":253:266  string memory */\n      0x60\n        /* \"contracts/acs.sol\":324:327  100 */\n      0x64\n        /* \"contracts/acs.sol\":315:321  _value */\n      dup3\n        /* \"contracts/acs.sol\":315:327  _value > 100 */\n      gt\n        /* \"contracts/acs.sol\":311:509  if (_value > 100) {... */\n      iszero\n      tag_35\n      jumpi\n        /* \"contracts/acs.sol\":344:369  return \"Greater than 100\" */\n      mload(0x40)\n      dup1\n      0x40\n      add\n      0x40\n      mstore\n      dup1\n      0x10\n      dup2\n      mstore\n      0x20\n      add\n      0x47726561746572207468616e2031303000000000000000000000000000000000\n      dup2\n      mstore\n      pop\n      swap1\n      pop\n      jump(tag_34)\n        /* \"contracts/acs.sol\":311:509  if (_value > 100) {... */\n    tag_35:\n        /* \"contracts/acs.sol\":401:404  100 */\n      0x64\n        /* \"contracts/acs.sol\":391:397  _value */\n      dup3\n        /* \"contracts/acs.sol\":391:404  _value == 100 */\n      sub\n        /* \"contracts/acs.sol\":387:509  if (_value == 100) {... */\n      tag_37\n      jumpi\n        /* \"contracts/acs.sol\":421:442  return \"Equal to 100\" */\n      mload(0x40)\n      dup1\n      0x40\n      add\n      0x40\n      mstore\n      dup1\n      0x0c\n      dup2\n      mstore\n      0x20\n      add\n      0x457175616c20746f203130300000000000000000000000000000000000000000\n      dup2\n      mstore\n      pop\n      swap1\n      pop\n      jump(tag_34)\n        /* \"contracts/acs.sol\":387:509  if (_value == 100) {... */\n    tag_37:\n        /* \"contracts/acs.sol\":475:497  return \"Less than 100\" */\n      mload(0x40)\n      dup1\n      0x40\n      add\n      0x40\n      mstore\n      dup1\n      0x0d\n      dup2\n      mstore\n      0x20\n      add\n      0x4c657373207468616e2031303000000000000000000000000000000000000000\n      dup2\n      mstore\n      pop\n      swap1\n      pop\n        /* \"contracts/acs.sol\":196:516  function checkValue(uint256 _value) public pure returns (string memory) {... */\n    tag_34:\n      swap2\n      swap1\n      pop\n      jump\t// out\n        /* \"contracts/acs.sol\":561:762  function isEven(uint256 _number) public pure returns (string memory) {... */\n    tag_17:\n        /* \"contracts/acs.sol\":615:628  string memory */\n      0x60\n        /* \"contracts/acs.sol\":736:737  0 */\n      0x00\n        /* \"contracts/acs.sol\":731:732  2 */\n      0x02\n        /* \"contracts/acs.sol\":721:728  _number */\n      dup4\n        /* \"contracts/acs.sol\":721:732  _number % 2 */\n      tag_40\n      swap2\n      swap1\n      tag_41\n      jump\t// in\n    tag_40:\n        /* \"contracts/acs.sol\":721:737  _number % 2 == 0 */\n      eq\n        /* \"contracts/acs.sol\":721:754  _number % 2 == 0 ? \"Even\" : \"Odd\" */\n      tag_42\n      jumpi\n      mload(0x40)\n      dup1\n      0x40\n      add\n      0x40\n      mstore\n      dup1\n      0x03\n      dup2\n      mstore\n      0x20\n      add\n      0x4f64640000000000000000000000000000000000000000000000000000000000\n      dup2\n      mstore\n      pop\n      jump(tag_43)\n    tag_42:\n      mload(0x40)\n      dup1\n      0x40\n      add\n      0x40\n      mstore\n      dup1\n      0x04\n      dup2\n      mstore\n      0x20\n      add\n      0x4576656e00000000000000000000000000000000000000000000000000000000\n      dup2\n      mstore\n      pop\n    tag_43:\n        /* \"contracts/acs.sol\":714:754  return _number % 2 == 0 ? \"Even\" : \"Odd\" */\n      swap1\n      pop\n        /* \"contracts/acs.sol\":561:762  function isEven(uint256 _number) public pure returns (string memory) {... */\n      swap2\n      swap1\n      pop\n      jump\t// out\n        /* \"contracts/acs.sol\":799:1022  function sumArray() public view returns (uint256) {... */\n    tag_20:\n        /* \"contracts/acs.sol\":840:847  uint256 */\n      0x00\n        /* \"contracts/acs.sol\":860:871  uint256 sum */\n      dup1\n        /* \"contracts/acs.sol\":874:875  0 */\n      0x00\n        /* \"contracts/acs.sol\":860:875  uint256 sum = 0 */\n      swap1\n      pop\n        /* \"contracts/acs.sol\":900:909  uint256 i */\n      0x00\n        /* \"contracts/acs.sol\":896:984  for(uint256 i = 0; i < numbers.length; i++) {... */\n    tag_45:\n        /* \"contracts/acs.sol\":919:926  numbers */\n      0x00\n        /* \"contracts/acs.sol\":919:933  numbers.length */\n      dup1\n      sload\n      swap1\n      pop\n        /* \"contracts/acs.sol\":915:916  i */\n      dup2\n        /* \"contracts/acs.sol\":915:933  i < numbers.length */\n      lt\n        /* \"contracts/acs.sol\":896:984  for(uint256 i = 0; i < numbers.length; i++) {... */\n      iszero\n      tag_46\n      jumpi\n        /* \"contracts/acs.sol\":962:969  numbers */\n      0x00\n        /* \"contracts/acs.sol\":970:971  i */\n      dup2\n        /* \"contracts/acs.sol\":962:972  numbers[i] */\n      dup2\n      sload\n      dup2\n      lt\n      tag_48\n      jumpi\n      tag_49\n      tag_50\n      jump\t// in\n    tag_49:\n    tag_48:\n      swap1\n      0x00\n      mstore\n      keccak256(0x00, 0x20)\n      add\n      sload\n        /* \"contracts/acs.sol\":955:972  sum += numbers[i] */\n      dup3\n      tag_52\n      swap2\n      swap1\n      tag_53\n      jump\t// in\n    tag_52:\n      swap2\n      pop\n        /* \"contracts/acs.sol\":935:938  i++ */\n      dup1\n      dup1\n      tag_54\n      swap1\n      tag_55\n      jump\t// in\n    tag_54:\n      swap2\n      pop\n      pop\n        /* \"contracts/acs.sol\":896:984  for(uint256 i = 0; i < numbers.length; i++) {... */\n      jump(tag_45)\n    tag_46:\n      pop\n        /* \"contracts/acs.sol\":1011:1014  sum */\n      dup1\n        /* \"contracts/acs.sol\":1004:1014  return sum */\n      swap2\n      pop\n      pop\n        /* \"contracts/acs.sol\":799:1022  function sumArray() public view returns (uint256) {... */\n      swap1\n      jump\t// out\n        /* \"contracts/acs.sol\":113:137  uint256[] public numbers */\n    tag_25:\n      0x00\n      dup2\n      dup2\n      sload\n      dup2\n      lt\n      tag_56\n      jumpi\n      0x00\n      dup1\n      revert\n    tag_56:\n      swap1\n      0x00\n      mstore\n      keccak256(0x00, 0x20)\n      add\n      0x00\n      swap2\n      pop\n      swap1\n      pop\n      sload\n      dup2\n      jump\t// out\n        /* \"contracts/acs.sol\":1087:1614  function findFirstMultipleOf(uint256 _number) public view returns (uint256) {... */\n    tag_29:\n        /* \"contracts/acs.sol\":1154:1161  uint256 */\n      0x00\n        /* \"contracts/acs.sol\":1174:1183  uint256 i */\n      dup1\n        /* \"contracts/acs.sol\":1186:1187  0 */\n      0x00\n        /* \"contracts/acs.sol\":1174:1187  uint256 i = 0 */\n      swap1\n      pop\n        /* \"contracts/acs.sol\":1208:1544  while(i < numbers.length) {... */\n    tag_59:\n        /* \"contracts/acs.sol\":1218:1225  numbers */\n      0x00\n        /* \"contracts/acs.sol\":1218:1232  numbers.length */\n      dup1\n      sload\n      swap1\n      pop\n        /* \"contracts/acs.sol\":1214:1215  i */\n      dup2\n        /* \"contracts/acs.sol\":1214:1232  i < numbers.length */\n      lt\n        /* \"contracts/acs.sol\":1208:1544  while(i < numbers.length) {... */\n      iszero\n      tag_60\n      jumpi\n        /* \"contracts/acs.sol\":1302:1303  0 */\n      0x00\n        /* \"contracts/acs.sol\":1288:1295  numbers */\n      dup1\n        /* \"contracts/acs.sol\":1296:1297  i */\n      dup3\n        /* \"contracts/acs.sol\":1288:1298  numbers[i] */\n      dup2\n      sload\n      dup2\n      lt\n      tag_61\n      jumpi\n      tag_62\n      tag_50\n      jump\t// in\n    tag_62:\n    tag_61:\n      swap1\n      0x00\n      mstore\n      keccak256(0x00, 0x20)\n      add\n      sload\n        /* \"contracts/acs.sol\":1288:1303  numbers[i] == 0 */\n      sub\n        /* \"contracts/acs.sol\":1285:1370  if(numbers[i] == 0) {... */\n      tag_64\n      jumpi\n        /* \"contracts/acs.sol\":1324:1327  i++ */\n      dup1\n      dup1\n      tag_65\n      swap1\n      tag_55\n      jump\t// in\n    tag_65:\n      swap2\n      pop\n      pop\n        /* \"contracts/acs.sol\":1346:1354  continue */\n      jump(tag_59)\n        /* \"contracts/acs.sol\":1285:1370  if(numbers[i] == 0) {... */\n    tag_64:\n        /* \"contracts/acs.sol\":1458:1459  0 */\n      0x00\n        /* \"contracts/acs.sol\":1447:1454  _number */\n      dup4\n        /* \"contracts/acs.sol\":1434:1441  numbers */\n      0x00\n        /* \"contracts/acs.sol\":1442:1443  i */\n      dup4\n        /* \"contracts/acs.sol\":1434:1444  numbers[i] */\n      dup2\n      sload\n      dup2\n      lt\n      tag_66\n      jumpi\n      tag_67\n      tag_50\n      jump\t// in\n    tag_67:\n    tag_66:\n      swap1\n      0x00\n      mstore\n      keccak256(0x00, 0x20)\n      add\n      sload\n        /* \"contracts/acs.sol\":1434:1454  numbers[i] % _number */\n      tag_69\n      swap2\n      swap1\n      tag_41\n      jump\t// in\n    tag_69:\n        /* \"contracts/acs.sol\":1434:1459  numbers[i] % _number == 0 */\n      sub\n        /* \"contracts/acs.sol\":1431:1501  if(numbers[i] % _number == 0) {... */\n      iszero\n        /* \"contracts/acs.sol\":1480:1485  break */\n      tag_60\n        /* \"contracts/acs.sol\":1431:1501  if(numbers[i] % _number == 0) {... */\n      jumpi\n        /* \"contracts/acs.sol\":1529:1532  i++ */\n      dup1\n      dup1\n      tag_71\n      swap1\n      tag_55\n      jump\t// in\n    tag_71:\n      swap2\n      pop\n      pop\n        /* \"contracts/acs.sol\":1208:1544  while(i < numbers.length) {... */\n      jump(tag_59)\n    tag_60:\n        /* \"contracts/acs.sol\":1575:1582  numbers */\n      0x00\n        /* \"contracts/acs.sol\":1575:1589  numbers.length */\n      dup1\n      sload\n      swap1\n      pop\n        /* \"contracts/acs.sol\":1571:1572  i */\n      dup2\n        /* \"contracts/acs.sol\":1571:1589  i < numbers.length */\n      lt\n        /* \"contracts/acs.sol\":1571:1606  i < numbers.length ? numbers[i] : 0 */\n      tag_72\n      jumpi\n        /* \"contracts/acs.sol\":1605:1606  0 */\n      0x00\n        /* \"contracts/acs.sol\":1571:1606  i < numbers.length ? numbers[i] : 0 */\n      jump(tag_73)\n    tag_72:\n        /* \"contracts/acs.sol\":1592:1599  numbers */\n      0x00\n        /* \"contracts/acs.sol\":1600:1601  i */\n      dup2\n        /* \"contracts/acs.sol\":1592:1602  numbers[i] */\n      dup2\n      sload\n      dup2\n      lt\n      tag_74\n      jumpi\n      tag_75\n      tag_50\n      jump\t// in\n    tag_75:\n    tag_74:\n      swap1\n      0x00\n      mstore\n      keccak256(0x00, 0x20)\n      add\n      sload\n        /* \"contracts/acs.sol\":1571:1606  i < numbers.length ? numbers[i] : 0 */\n    tag_73:\n        /* \"contracts/acs.sol\":1564:1606  return i < numbers.length ? numbers[i] : 0 */\n      swap2\n      pop\n      pop\n        /* \"contracts/acs.sol\":1087:1614  function findFirstMultipleOf(uint256 _number) public view returns (uint256) {... */\n      swap2\n      swap1\n      pop\n      jump\t// out\n        /* \"contracts/acs.sol\":1670:1753  function addNumber(uint256 _number) public {... */\n    tag_33:\n        /* \"contracts/acs.sol\":1724:1731  numbers */\n      0x00\n        /* \"contracts/acs.sol\":1737:1744  _number */\n      dup2\n        /* \"contracts/acs.sol\":1724:1745  numbers.push(_number) */\n      swap1\n      dup1\n      0x01\n      dup2\n      sload\n      add\n      dup1\n      dup3\n      sstore\n      dup1\n      swap2\n      pop\n      pop\n      0x01\n      swap1\n      sub\n      swap1\n      0x00\n      mstore\n      keccak256(0x00, 0x20)\n      add\n      0x00\n      swap1\n      swap2\n      swap1\n      swap2\n      swap1\n      swap2\n      pop\n      sstore\n        /* \"contracts/acs.sol\":1670:1753  function addNumber(uint256 _number) public {... */\n      pop\n      jump\t// out\n        /* \"#utility.yul\":88:205   */\n    tag_80:\n        /* \"#utility.yul\":197:198   */\n      0x00\n        /* \"#utility.yul\":194:195   */\n      dup1\n        /* \"#utility.yul\":187:199   */\n      revert\n        /* \"#utility.yul\":334:411   */\n    tag_82:\n        /* \"#utility.yul\":371:378   */\n      0x00\n        /* \"#utility.yul\":400:405   */\n      dup2\n        /* \"#utility.yul\":389:405   */\n      swap1\n      pop\n        /* \"#utility.yul\":334:411   */\n      swap2\n      swap1\n      pop\n      jump\t// out\n        /* \"#utility.yul\":417:539   */\n    tag_83:\n        /* \"#utility.yul\":490:514   */\n      tag_99\n        /* \"#utility.yul\":508:513   */\n      dup2\n        /* \"#utility.yul\":490:514   */\n      tag_82\n      jump\t// in\n    tag_99:\n        /* \"#utility.yul\":483:488   */\n      dup2\n        /* \"#utility.yul\":480:515   */\n      eq\n        /* \"#utility.yul\":470:533   */\n      tag_100\n      jumpi\n        /* \"#utility.yul\":529:530   */\n      0x00\n        /* \"#utility.yul\":526:527   */\n      dup1\n        /* \"#utility.yul\":519:531   */\n      revert\n        /* \"#utility.yul\":470:533   */\n    tag_100:\n        /* \"#utility.yul\":417:539   */\n      pop\n      jump\t// out\n        /* \"#utility.yul\":545:684   */\n    tag_84:\n        /* \"#utility.yul\":591:596   */\n      0x00\n        /* \"#utility.yul\":629:635   */\n      dup2\n        /* \"#utility.yul\":616:636   */\n      calldataload\n        /* \"#utility.yul\":607:636   */\n      swap1\n      pop\n        /* \"#utility.yul\":645:678   */\n      tag_102\n        /* \"#utility.yul\":672:677   */\n      dup2\n        /* \"#utility.yul\":645:678   */\n      tag_83\n      jump\t// in\n    tag_102:\n        /* \"#utility.yul\":545:684   */\n      swap3\n      swap2\n      pop\n      pop\n      jump\t// out\n        /* \"#utility.yul\":690:1019   */\n    tag_11:\n        /* \"#utility.yul\":749:755   */\n      0x00\n        /* \"#utility.yul\":798:800   */\n      0x20\n        /* \"#utility.yul\":786:795   */\n      dup3\n        /* \"#utility.yul\":777:784   */\n      dup5\n        /* \"#utility.yul\":773:796   */\n      sub\n        /* \"#utility.yul\":769:801   */\n      slt\n        /* \"#utility.yul\":766:885   */\n      iszero\n      tag_104\n      jumpi\n        /* \"#utility.yul\":804:883   */\n      tag_105\n      tag_80\n      jump\t// in\n    tag_105:\n        /* \"#utility.yul\":766:885   */\n    tag_104:\n        /* \"#utility.yul\":924:925   */\n      0x00\n        /* \"#utility.yul\":949:1002   */\n      tag_106\n        /* \"#utility.yul\":994:1001   */\n      dup5\n        /* \"#utility.yul\":985:991   */\n      dup3\n        /* \"#utility.yul\":974:983   */\n      dup6\n        /* \"#utility.yul\":970:992   */\n      add\n        /* \"#utility.yul\":949:1002   */\n      tag_84\n      jump\t// in\n    tag_106:\n        /* \"#utility.yul\":939:1002   */\n      swap2\n      pop\n        /* \"#utility.yul\":895:1012   */\n      pop\n        /* \"#utility.yul\":690:1019   */\n      swap3\n      swap2\n      pop\n      pop\n      jump\t// out\n        /* \"#utility.yul\":1025:1124   */\n    tag_85:\n        /* \"#utility.yul\":1077:1083   */\n      0x00\n        /* \"#utility.yul\":1111:1116   */\n      dup2\n        /* \"#utility.yul\":1105:1117   */\n      mload\n        /* \"#utility.yul\":1095:1117   */\n      swap1\n      pop\n        /* \"#utility.yul\":1025:1124   */\n      swap2\n      swap1\n      pop\n      jump\t// out\n        /* \"#utility.yul\":1130:1299   */\n    tag_86:\n        /* \"#utility.yul\":1214:1225   */\n      0x00\n        /* \"#utility.yul\":1248:1254   */\n      dup3\n        /* \"#utility.yul\":1243:1246   */\n      dup3\n        /* \"#utility.yul\":1236:1255   */\n      mstore\n        /* \"#utility.yul\":1288:1292   */\n      0x20\n        /* \"#utility.yul\":1283:1286   */\n      dup3\n        /* \"#utility.yul\":1279:1293   */\n      add\n        /* \"#utility.yul\":1264:1293   */\n      swap1\n      pop\n        /* \"#utility.yul\":1130:1299   */\n      swap3\n      swap2\n      pop\n      pop\n      jump\t// out\n        /* \"#utility.yul\":1305:1551   */\n    tag_87:\n        /* \"#utility.yul\":1386:1387   */\n      0x00\n        /* \"#utility.yul\":1396:1509   */\n    tag_110:\n        /* \"#utility.yul\":1410:1416   */\n      dup4\n        /* \"#utility.yul\":1407:1408   */\n      dup2\n        /* \"#utility.yul\":1404:1417   */\n      lt\n        /* \"#utility.yul\":1396:1509   */\n      iszero\n      tag_112\n      jumpi\n        /* \"#utility.yul\":1495:1496   */\n      dup1\n        /* \"#utility.yul\":1490:1493   */\n      dup3\n        /* \"#utility.yul\":1486:1497   */\n      add\n        /* \"#utility.yul\":1480:1498   */\n      mload\n        /* \"#utility.yul\":1476:1477   */\n      dup2\n        /* \"#utility.yul\":1471:1474   */\n      dup5\n        /* \"#utility.yul\":1467:1478   */\n      add\n        /* \"#utility.yul\":1460:1499   */\n      mstore\n        /* \"#utility.yul\":1432:1434   */\n      0x20\n        /* \"#utility.yul\":1429:1430   */\n      dup2\n        /* \"#utility.yul\":1425:1435   */\n      add\n        /* \"#utility.yul\":1420:1435   */\n      swap1\n      pop\n        /* \"#utility.yul\":1396:1509   */\n      jump(tag_110)\n    tag_112:\n        /* \"#utility.yul\":1543:1544   */\n      0x00\n        /* \"#utility.yul\":1534:1540   */\n      dup5\n        /* \"#utility.yul\":1529:1532   */\n      dup5\n        /* \"#utility.yul\":1525:1541   */\n      add\n        /* \"#utility.yul\":1518:1545   */\n      mstore\n        /* \"#utility.yul\":1367:1551   */\n      pop\n        /* \"#utility.yul\":1305:1551   */\n      pop\n      pop\n      pop\n      jump\t// out\n        /* \"#utility.yul\":1557:1659   */\n    tag_88:\n        /* \"#utility.yul\":1598:1604   */\n      0x00\n        /* \"#utility.yul\":1649:1651   */\n      0x1f\n        /* \"#utility.yul\":1645:1652   */\n      not\n        /* \"#utility.yul\":1640:1642   */\n      0x1f\n        /* \"#utility.yul\":1633:1638   */\n      dup4\n        /* \"#utility.yul\":1629:1643   */\n      add\n        /* \"#utility.yul\":1625:1653   */\n      and\n        /* \"#utility.yul\":1615:1653   */\n      swap1\n      pop\n        /* \"#utility.yul\":1557:1659   */\n      swap2\n      swap1\n      pop\n      jump\t// out\n        /* \"#utility.yul\":1665:2042   */\n    tag_89:\n        /* \"#utility.yul\":1753:1756   */\n      0x00\n        /* \"#utility.yul\":1781:1820   */\n      tag_115\n        /* \"#utility.yul\":1814:1819   */\n      dup3\n        /* \"#utility.yul\":1781:1820   */\n      tag_85\n      jump\t// in\n    tag_115:\n        /* \"#utility.yul\":1836:1907   */\n      tag_116\n        /* \"#utility.yul\":1900:1906   */\n      dup2\n        /* \"#utility.yul\":1895:1898   */\n      dup6\n        /* \"#utility.yul\":1836:1907   */\n      tag_86\n      jump\t// in\n    tag_116:\n        /* \"#utility.yul\":1829:1907   */\n      swap4\n      pop\n        /* \"#utility.yul\":1916:1981   */\n      tag_117\n        /* \"#utility.yul\":1974:1980   */\n      dup2\n        /* \"#utility.yul\":1969:1972   */\n      dup6\n        /* \"#utility.yul\":1962:1966   */\n      0x20\n        /* \"#utility.yul\":1955:1960   */\n      dup7\n        /* \"#utility.yul\":1951:1967   */\n      add\n        /* \"#utility.yul\":1916:1981   */\n      tag_87\n      jump\t// in\n    tag_117:\n        /* \"#utility.yul\":2006:2035   */\n      tag_118\n        /* \"#utility.yul\":2028:2034   */\n      dup2\n        /* \"#utility.yul\":2006:2035   */\n      tag_88\n      jump\t// in\n    tag_118:\n        /* \"#utility.yul\":2001:2004   */\n      dup5\n        /* \"#utility.yul\":1997:2036   */\n      add\n        /* \"#utility.yul\":1990:2036   */\n      swap2\n      pop\n        /* \"#utility.yul\":1757:2042   */\n      pop\n        /* \"#utility.yul\":1665:2042   */\n      swap3\n      swap2\n      pop\n      pop\n      jump\t// out\n        /* \"#utility.yul\":2048:2361   */\n    tag_14:\n        /* \"#utility.yul\":2161:2165   */\n      0x00\n        /* \"#utility.yul\":2199:2201   */\n      0x20\n        /* \"#utility.yul\":2188:2197   */\n      dup3\n        /* \"#utility.yul\":2184:2202   */\n      add\n        /* \"#utility.yul\":2176:2202   */\n      swap1\n      pop\n        /* \"#utility.yul\":2248:2257   */\n      dup2\n        /* \"#utility.yul\":2242:2246   */\n      dup2\n        /* \"#utility.yul\":2238:2258   */\n      sub\n        /* \"#utility.yul\":2234:2235   */\n      0x00\n        /* \"#utility.yul\":2223:2232   */\n      dup4\n        /* \"#utility.yul\":2219:2236   */\n      add\n        /* \"#utility.yul\":2212:2259   */\n      mstore\n        /* \"#utility.yul\":2276:2354   */\n      tag_120\n        /* \"#utility.yul\":2349:2353   */\n      dup2\n        /* \"#utility.yul\":2340:2346   */\n      dup5\n        /* \"#utility.yul\":2276:2354   */\n      tag_89\n      jump\t// in\n    tag_120:\n        /* \"#utility.yul\":2268:2354   */\n      swap1\n      pop\n        /* \"#utility.yul\":2048:2361   */\n      swap3\n      swap2\n      pop\n      pop\n      jump\t// out\n        /* \"#utility.yul\":2367:2485   */\n    tag_90:\n        /* \"#utility.yul\":2454:2478   */\n      tag_122\n        /* \"#utility.yul\":2472:2477   */\n      dup2\n        /* \"#utility.yul\":2454:2478   */\n      tag_82\n      jump\t// in\n    tag_122:\n        /* \"#utility.yul\":2449:2452   */\n      dup3\n        /* \"#utility.yul\":2442:2479   */\n      mstore\n        /* \"#utility.yul\":2367:2485   */\n      pop\n      pop\n      jump\t// out\n        /* \"#utility.yul\":2491:2713   */\n    tag_22:\n        /* \"#utility.yul\":2584:2588   */\n      0x00\n        /* \"#utility.yul\":2622:2624   */\n      0x20\n        /* \"#utility.yul\":2611:2620   */\n      dup3\n        /* \"#utility.yul\":2607:2625   */\n      add\n        /* \"#utility.yul\":2599:2625   */\n      swap1\n      pop\n        /* \"#utility.yul\":2635:2706   */\n      tag_124\n        /* \"#utility.yul\":2703:2704   */\n      0x00\n        /* \"#utility.yul\":2692:2701   */\n      dup4\n        /* \"#utility.yul\":2688:2705   */\n      add\n        /* \"#utility.yul\":2679:2685   */\n      dup5\n        /* \"#utility.yul\":2635:2706   */\n      tag_90\n      jump\t// in\n    tag_124:\n        /* \"#utility.yul\":2491:2713   */\n      swap3\n      swap2\n      pop\n      pop\n      jump\t// out\n        /* \"#utility.yul\":2719:2899   */\n    tag_91:\n        /* \"#utility.yul\":2767:2844   */\n      0x4e487b7100000000000000000000000000000000000000000000000000000000\n        /* \"#utility.yul\":2764:2765   */\n      0x00\n        /* \"#utility.yul\":2757:2845   */\n      mstore\n        /* \"#utility.yul\":2864:2868   */\n      0x12\n        /* \"#utility.yul\":2861:2862   */\n      0x04\n        /* \"#utility.yul\":2854:2869   */\n      mstore\n        /* \"#utility.yul\":2888:2892   */\n      0x24\n        /* \"#utility.yul\":2885:2886   */\n      0x00\n        /* \"#utility.yul\":2878:2893   */\n      revert\n        /* \"#utility.yul\":2905:3081   */\n    tag_41:\n        /* \"#utility.yul\":2937:2938   */\n      0x00\n        /* \"#utility.yul\":2954:2974   */\n      tag_127\n        /* \"#utility.yul\":2972:2973   */\n      dup3\n        /* \"#utility.yul\":2954:2974   */\n      tag_82\n      jump\t// in\n    tag_127:\n        /* \"#utility.yul\":2949:2974   */\n      swap2\n      pop\n        /* \"#utility.yul\":2988:3008   */\n      tag_128\n        /* \"#utility.yul\":3006:3007   */\n      dup4\n        /* \"#utility.yul\":2988:3008   */\n      tag_82\n      jump\t// in\n    tag_128:\n        /* \"#utility.yul\":2983:3008   */\n      swap3\n      pop\n        /* \"#utility.yul\":3027:3028   */\n      dup3\n        /* \"#utility.yul\":3017:3052   */\n      tag_129\n      jumpi\n        /* \"#utility.yul\":3032:3050   */\n      tag_130\n      tag_91\n      jump\t// in\n    tag_130:\n        /* \"#utility.yul\":3017:3052   */\n    tag_129:\n        /* \"#utility.yul\":3073:3074   */\n      dup3\n        /* \"#utility.yul\":3070:3071   */\n      dup3\n        /* \"#utility.yul\":3066:3075   */\n      mod\n        /* \"#utility.yul\":3061:3075   */\n      swap1\n      pop\n        /* \"#utility.yul\":2905:3081   */\n      swap3\n      swap2\n      pop\n      pop\n      jump\t// out\n        /* \"#utility.yul\":3087:3267   */\n    tag_50:\n        /* \"#utility.yul\":3135:3212   */\n      0x4e487b7100000000000000000000000000000000000000000000000000000000\n        /* \"#utility.yul\":3132:3133   */\n      0x00\n        /* \"#utility.yul\":3125:3213   */\n      mstore\n        /* \"#utility.yul\":3232:3236   */\n      0x32\n        /* \"#utility.yul\":3229:3230   */\n      0x04\n        /* \"#utility.yul\":3222:3237   */\n      mstore\n        /* \"#utility.yul\":3256:3260   */\n      0x24\n        /* \"#utility.yul\":3253:3254   */\n      0x00\n        /* \"#utility.yul\":3246:3261   */\n      revert\n        /* \"#utility.yul\":3273:3453   */\n    tag_92:\n        /* \"#utility.yul\":3321:3398   */\n      0x4e487b7100000000000000000000000000000000000000000000000000000000\n        /* \"#utility.yul\":3318:3319   */\n      0x00\n        /* \"#utility.yul\":3311:3399   */\n      mstore\n        /* \"#utility.yul\":3418:3422   */\n      0x11\n        /* \"#utility.yul\":3415:3416   */\n      0x04\n        /* \"#utility.yul\":3408:3423   */\n      mstore\n        /* \"#utility.yul\":3442:3446   */\n      0x24\n        /* \"#utility.yul\":3439:3440   */\n      0x00\n        /* \"#utility.yul\":3432:3447   */\n      revert\n        /* \"#utility.yul\":3459:3650   */\n    tag_53:\n        /* \"#utility.yul\":3499:3502   */\n      0x00\n        /* \"#utility.yul\":3518:3538   */\n      tag_134\n        /* \"#utility.yul\":3536:3537   */\n      dup3\n        /* \"#utility.yul\":3518:3538   */\n      tag_82\n      jump\t// in\n    tag_134:\n        /* \"#utility.yul\":3513:3538   */\n      swap2\n      pop\n        /* \"#utility.yul\":3552:3572   */\n      tag_135\n        /* \"#utility.yul\":3570:3571   */\n      dup4\n        /* \"#utility.yul\":3552:3572   */\n      tag_82\n      jump\t// in\n    tag_135:\n        /* \"#utility.yul\":3547:3572   */\n      swap3\n      pop\n        /* \"#utility.yul\":3595:3596   */\n      dup3\n        /* \"#utility.yul\":3592:3593   */\n      dup3\n        /* \"#utility.yul\":3588:3597   */\n      add\n        /* \"#utility.yul\":3581:3597   */\n      swap1\n      pop\n        /* \"#utility.yul\":3616:3619   */\n      dup1\n        /* \"#utility.yul\":3613:3614   */\n      dup3\n        /* \"#utility.yul\":3610:3620   */\n      gt\n        /* \"#utility.yul\":3607:3643   */\n      iszero\n      tag_136\n      jumpi\n        /* \"#utility.yul\":3623:3641   */\n      tag_137\n      tag_92\n      jump\t// in\n    tag_137:\n        /* \"#utility.yul\":3607:3643   */\n    tag_136:\n        /* \"#utility.yul\":3459:3650   */\n      swap3\n      swap2\n      pop\n      pop\n      jump\t// out\n        /* \"#utility.yul\":3656:3889   */\n    tag_55:\n        /* \"#utility.yul\":3695:3698   */\n      0x00\n        /* \"#utility.yul\":3718:3742   */\n      tag_139\n        /* \"#utility.yul\":3736:3741   */\n      dup3\n        /* \"#utility.yul\":3718:3742   */\n      tag_82\n      jump\t// in\n    tag_139:\n        /* \"#utility.yul\":3709:3742   */\n      swap2\n      pop\n        /* \"#utility.yul\":3764:3830   */\n      0xffffffffffffffffffffffffffffffffffffffffffffffffffffffffffffffff\n        /* \"#utility.yul\":3757:3762   */\n      dup3\n        /* \"#utility.yul\":3754:3831   */\n      sub\n        /* \"#utility.yul\":3751:3854   */\n      tag_140\n      jumpi\n        /* \"#utility.yul\":3834:3852   */\n      tag_141\n      tag_92\n      jump\t// in\n    tag_141:\n        /* \"#utility.yul\":3751:3854   */\n    tag_140:\n        /* \"#utility.yul\":3881:3882   */\n      0x01\n        /* \"#utility.yul\":3874:3879   */\n      dup3\n        /* \"#utility.yul\":3870:3883   */\n      add\n        /* \"#utility.yul\":3863:3883   */\n      swap1\n      pop\n        /* \"#utility.yul\":3656:3889   */\n      swap2\n      swap1\n      pop\n      jump\t// out\n\n    auxdata: 0xa26469706673582212206766d13541f52bb26b908459c5c2cbecd850da1ad451840ce268d90fcd8cc8d364736f6c63430008100033\n}\n",
				"bytecode": {
					"linkReferences": {},
					"object": "608060405234801561001057600080fd5b506106ea806100206000396000f3fe608060405234801561001057600080fd5b50600436106100625760003560e01c806318db62fb146100675780632a2e13201461009757806381d73423146100c7578063d39fa233146100e5578063d4b87c0214610115578063fce6802314610145575b600080fd5b610081600480360381019061007c9190610471565b610161565b60405161008e919061052e565b60405180910390f35b6100b160048036038101906100ac9190610471565b61022c565b6040516100be919061052e565b60405180910390f35b6100cf6102bb565b6040516100dc919061055f565b60405180910390f35b6100ff60048036038101906100fa9190610471565b610319565b60405161010c919061055f565b60405180910390f35b61012f600480360381019061012a9190610471565b61033d565b60405161013c919061055f565b60405180910390f35b61015f600480360381019061015a9190610471565b61040a565b005b606060648211156101a9576040518060400160405280601081526020017f47726561746572207468616e20313030000000000000000000000000000000008152509050610227565b606482036101ee576040518060400160405280600c81526020017f457175616c20746f2031303000000000000000000000000000000000000000008152509050610227565b6040518060400160405280600d81526020017f4c657373207468616e203130300000000000000000000000000000000000000081525090505b919050565b6060600060028361023d91906105a9565b1461027d576040518060400160405280600381526020017f4f646400000000000000000000000000000000000000000000000000000000008152506102b4565b6040518060400160405280600481526020017f4576656e000000000000000000000000000000000000000000000000000000008152505b9050919050565b6000806000905060005b60008054905081101561031157600081815481106102e6576102e56105da565b5b9060005260206000200154826102fc9190610638565b915080806103099061066c565b9150506102c5565b508091505090565b6000818154811061032957600080fd5b906000526020600020016000915090505481565b600080600090505b6000805490508110156103cf576000808281548110610367576103666105da565b5b90600052602060002001540361038a5780806103829061066c565b915050610345565b600083600083815481106103a1576103a06105da565b5b90600052602060002001546103b691906105a9565b03156103cf5780806103c79061066c565b915050610345565b60008054905081106103e2576000610402565b600081815481106103f6576103f56105da565b5b90600052602060002001545b915050919050565b600081908060018154018082558091505060019003906000526020600020016000909190919091505550565b600080fd5b6000819050919050565b61044e8161043b565b811461045957600080fd5b50565b60008135905061046b81610445565b92915050565b60006020828403121561048757610486610436565b5b60006104958482850161045c565b91505092915050565b600081519050919050565b600082825260208201905092915050565b60005b838110156104d85780820151818401526020810190506104bd565b60008484015250505050565b6000601f19601f8301169050919050565b60006105008261049e565b61050a81856104a9565b935061051a8185602086016104ba565b610523816104e4565b840191505092915050565b6000602082019050818103600083015261054881846104f5565b905092915050565b6105598161043b565b82525050565b60006020820190506105746000830184610550565b92915050565b7f4e487b7100000000000000000000000000000000000000000000000000000000600052601260045260246000fd5b60006105b48261043b565b91506105bf8361043b565b9250826105cf576105ce61057a565b5b828206905092915050565b7f4e487b7100000000000000000000000000000000000000000000000000000000600052603260045260246000fd5b7f4e487b7100000000000000000000000000000000000000000000000000000000600052601160045260246000fd5b60006106438261043b565b915061064e8361043b565b925082820190508082111561066657610665610609565b5b92915050565b60006106778261043b565b91507fffffffffffffffffffffffffffffffffffffffffffffffffffffffffffffffff82036106a9576106a8610609565b5b60018201905091905056fea26469706673582212206766d13541f52bb26b908459c5c2cbecd850da1ad451840ce268d90fcd8cc8d364736f6c63430008100033",
					"opcodes": "PUSH1 0x80 PUSH1 0x40 MSTORE CALLVALUE DUP1 ISZERO PUSH2 0x10 JUMPI PUSH1 0x0 DUP1 REVERT JUMPDEST POP PUSH2 0x6EA DUP1 PUSH2 0x20 PUSH1 0x0 CODECOPY PUSH1 0x0 RETURN INVALID PUSH1 0x80 PUSH1 0x40 MSTORE CALLVALUE DUP1 ISZERO PUSH2 0x10 JUMPI PUSH1 0x0 DUP1 REVERT JUMPDEST POP PUSH1 0x4 CALLDATASIZE LT PUSH2 0x62 JUMPI PUSH1 0x0 CALLDATALOAD PUSH1 0xE0 SHR DUP1 PUSH4 0x18DB62FB EQ PUSH2 0x67 JUMPI DUP1 PUSH4 0x2A2E1320 EQ PUSH2 0x97 JUMPI DUP1 PUSH4 0x81D73423 EQ PUSH2 0xC7 JUMPI DUP1 PUSH4 0xD39FA233 EQ PUSH2 0xE5 JUMPI DUP1 PUSH4 0xD4B87C02 EQ PUSH2 0x115 JUMPI DUP1 PUSH4 0xFCE68023 EQ PUSH2 0x145 JUMPI JUMPDEST PUSH1 0x0 DUP1 REVERT JUMPDEST PUSH2 0x81 PUSH1 0x4 DUP1 CALLDATASIZE SUB DUP2 ADD SWAP1 PUSH2 0x7C SWAP2 SWAP1 PUSH2 0x471 JUMP JUMPDEST PUSH2 0x161 JUMP JUMPDEST PUSH1 0x40 MLOAD PUSH2 0x8E SWAP2 SWAP1 PUSH2 0x52E JUMP JUMPDEST PUSH1 0x40 MLOAD DUP1 SWAP2 SUB SWAP1 RETURN JUMPDEST PUSH2 0xB1 PUSH1 0x4 DUP1 CALLDATASIZE SUB DUP2 ADD SWAP1 PUSH2 0xAC SWAP2 SWAP1 PUSH2 0x471 JUMP JUMPDEST PUSH2 0x22C JUMP JUMPDEST PUSH1 0x40 MLOAD PUSH2 0xBE SWAP2 SWAP1 PUSH2 0x52E JUMP JUMPDEST PUSH1 0x40 MLOAD DUP1 SWAP2 SUB SWAP1 RETURN JUMPDEST PUSH2 0xCF PUSH2 0x2BB JUMP JUMPDEST PUSH1 0x40 MLOAD PUSH2 0xDC SWAP2 SWAP1 PUSH2 0x55F JUMP JUMPDEST PUSH1 0x40 MLOAD DUP1 SWAP2 SUB SWAP1 RETURN JUMPDEST PUSH2 0xFF PUSH1 0x4 DUP1 CALLDATASIZE SUB DUP2 ADD SWAP1 PUSH2 0xFA SWAP2 SWAP1 PUSH2 0x471 JUMP JUMPDEST PUSH2 0x319 JUMP JUMPDEST PUSH1 0x40 MLOAD PUSH2 0x10C SWAP2 SWAP1 PUSH2 0x55F JUMP JUMPDEST PUSH1 0x40 MLOAD DUP1 SWAP2 SUB SWAP1 RETURN JUMPDEST PUSH2 0x12F PUSH1 0x4 DUP1 CALLDATASIZE SUB DUP2 ADD SWAP1 PUSH2 0x12A SWAP2 SWAP1 PUSH2 0x471 JUMP JUMPDEST PUSH2 0x33D JUMP JUMPDEST PUSH1 0x40 MLOAD PUSH2 0x13C SWAP2 SWAP1 PUSH2 0x55F JUMP JUMPDEST PUSH1 0x40 MLOAD DUP1 SWAP2 SUB SWAP1 RETURN JUMPDEST PUSH2 0x15F PUSH1 0x4 DUP1 CALLDATASIZE SUB DUP2 ADD SWAP1 PUSH2 0x15A SWAP2 SWAP1 PUSH2 0x471 JUMP JUMPDEST PUSH2 0x40A JUMP JUMPDEST STOP JUMPDEST PUSH1 0x60 PUSH1 0x64 DUP3 GT ISZERO PUSH2 0x1A9 JUMPI PUSH1 0x40 MLOAD DUP1 PUSH1 0x40 ADD PUSH1 0x40 MSTORE DUP1 PUSH1 0x10 DUP2 MSTORE PUSH1 0x20 ADD PUSH32 0x47726561746572207468616E2031303000000000000000000000000000000000 DUP2 MSTORE POP SWAP1 POP PUSH2 0x227 JUMP JUMPDEST PUSH1 0x64 DUP3 SUB PUSH2 0x1EE JUMPI PUSH1 0x40 MLOAD DUP1 PUSH1 0x40 ADD PUSH1 0x40 MSTORE DUP1 PUSH1 0xC DUP2 MSTORE PUSH1 0x20 ADD PUSH32 0x457175616C20746F203130300000000000000000000000000000000000000000 DUP2 MSTORE POP SWAP1 POP PUSH2 0x227 JUMP JUMPDEST PUSH1 0x40 MLOAD DUP1 PUSH1 0x40 ADD PUSH1 0x40 MSTORE DUP1 PUSH1 0xD DUP2 MSTORE PUSH1 0x20 ADD PUSH32 0x4C657373207468616E2031303000000000000000000000000000000000000000 DUP2 MSTORE POP SWAP1 POP JUMPDEST SWAP2 SWAP1 POP JUMP JUMPDEST PUSH1 0x60 PUSH1 0x0 PUSH1 0x2 DUP4 PUSH2 0x23D SWAP2 SWAP1 PUSH2 0x5A9 JUMP JUMPDEST EQ PUSH2 0x27D JUMPI PUSH1 0x40 MLOAD DUP1 PUSH1 0x40 ADD PUSH1 0x40 MSTORE DUP1 PUSH1 0x3 DUP2 MSTORE PUSH1 0x20 ADD PUSH32 0x4F64640000000000000000000000000000000000000000000000000000000000 DUP2 MSTORE POP PUSH2 0x2B4 JUMP JUMPDEST PUSH1 0x40 MLOAD DUP1 PUSH1 0x40 ADD PUSH1 0x40 MSTORE DUP1 PUSH1 0x4 DUP2 MSTORE PUSH1 0x20 ADD PUSH32 0x4576656E00000000000000000000000000000000000000000000000000000000 DUP2 MSTORE POP JUMPDEST SWAP1 POP SWAP2 SWAP1 POP JUMP JUMPDEST PUSH1 0x0 DUP1 PUSH1 0x0 SWAP1 POP PUSH1 0x0 JUMPDEST PUSH1 0x0 DUP1 SLOAD SWAP1 POP DUP2 LT ISZERO PUSH2 0x311 JUMPI PUSH1 0x0 DUP2 DUP2 SLOAD DUP2 LT PUSH2 0x2E6 JUMPI PUSH2 0x2E5 PUSH2 0x5DA JUMP JUMPDEST JUMPDEST SWAP1 PUSH1 0x0 MSTORE PUSH1 0x20 PUSH1 0x0 KECCAK256 ADD SLOAD DUP3 PUSH2 0x2FC SWAP2 SWAP1 PUSH2 0x638 JUMP JUMPDEST SWAP2 POP DUP1 DUP1 PUSH2 0x309 SWAP1 PUSH2 0x66C JUMP JUMPDEST SWAP2 POP POP PUSH2 0x2C5 JUMP JUMPDEST POP DUP1 SWAP2 POP POP SWAP1 JUMP JUMPDEST PUSH1 0x0 DUP2 DUP2 SLOAD DUP2 LT PUSH2 0x329 JUMPI PUSH1 0x0 DUP1 REVERT JUMPDEST SWAP1 PUSH1 0x0 MSTORE PUSH1 0x20 PUSH1 0x0 KECCAK256 ADD PUSH1 0x0 SWAP2 POP SWAP1 POP SLOAD DUP2 JUMP JUMPDEST PUSH1 0x0 DUP1 PUSH1 0x0 SWAP1 POP JUMPDEST PUSH1 0x0 DUP1 SLOAD SWAP1 POP DUP2 LT ISZERO PUSH2 0x3CF JUMPI PUSH1 0x0 DUP1 DUP3 DUP2 SLOAD DUP2 LT PUSH2 0x367 JUMPI PUSH2 0x366 PUSH2 0x5DA JUMP JUMPDEST JUMPDEST SWAP1 PUSH1 0x0 MSTORE PUSH1 0x20 PUSH1 0x0 KECCAK256 ADD SLOAD SUB PUSH2 0x38A JUMPI DUP1 DUP1 PUSH2 0x382 SWAP1 PUSH2 0x66C JUMP JUMPDEST SWAP2 POP POP PUSH2 0x345 JUMP JUMPDEST PUSH1 0x0 DUP4 PUSH1 0x0 DUP4 DUP2 SLOAD DUP2 LT PUSH2 0x3A1 JUMPI PUSH2 0x3A0 PUSH2 0x5DA JUMP JUMPDEST JUMPDEST SWAP1 PUSH1 0x0 MSTORE PUSH1 0x20 PUSH1 0x0 KECCAK256 ADD SLOAD PUSH2 0x3B6 SWAP2 SWAP1 PUSH2 0x5A9 JUMP JUMPDEST SUB ISZERO PUSH2 0x3CF JUMPI DUP1 DUP1 PUSH2 0x3C7 SWAP1 PUSH2 0x66C JUMP JUMPDEST SWAP2 POP POP PUSH2 0x345 JUMP JUMPDEST PUSH1 0x0 DUP1 SLOAD SWAP1 POP DUP2 LT PUSH2 0x3E2 JUMPI PUSH1 0x0 PUSH2 0x402 JUMP JUMPDEST PUSH1 0x0 DUP2 DUP2 SLOAD DUP2 LT PUSH2 0x3F6 JUMPI PUSH2 0x3F5 PUSH2 0x5DA JUMP JUMPDEST JUMPDEST SWAP1 PUSH1 0x0 MSTORE PUSH1 0x20 PUSH1 0x0 KECCAK256 ADD SLOAD JUMPDEST SWAP2 POP POP SWAP2 SWAP1 POP JUMP JUMPDEST PUSH1 0x0 DUP2 SWAP1 DUP1 PUSH1 0x1 DUP2 SLOAD ADD DUP1 DUP3 SSTORE DUP1 SWAP2 POP POP PUSH1 0x1 SWAP1 SUB SWAP1 PUSH1 0x0 MSTORE PUSH1 0x20 PUSH1 0x0 KECCAK256 ADD PUSH1 0x0 SWAP1 SWAP2 SWAP1 SWAP2 SWAP1 SWAP2 POP SSTORE POP JUMP JUMPDEST PUSH1 0x0 DUP1 REVERT JUMPDEST PUSH1 0x0 DUP2 SWAP1 POP SWAP2 SWAP1 POP JUMP JUMPDEST PUSH2 0x44E DUP2 PUSH2 0x43B JUMP JUMPDEST DUP2 EQ PUSH2 0x459 JUMPI PUSH1 0x0 DUP1 REVERT JUMPDEST POP JUMP JUMPDEST PUSH1 0x0 DUP2 CALLDATALOAD SWAP1 POP PUSH2 0x46B DUP2 PUSH2 0x445 JUMP JUMPDEST SWAP3 SWAP2 POP POP JUMP JUMPDEST PUSH1 0x0 PUSH1 0x20 DUP3 DUP5 SUB SLT ISZERO PUSH2 0x487 JUMPI PUSH2 0x486 PUSH2 0x436 JUMP JUMPDEST JUMPDEST PUSH1 0x0 PUSH2 0x495 DUP5 DUP3 DUP6 ADD PUSH2 0x45C JUMP JUMPDEST SWAP2 POP POP SWAP3 SWAP2 POP POP JUMP JUMPDEST PUSH1 0x0 DUP2 MLOAD SWAP1 POP SWAP2 SWAP1 POP JUMP JUMPDEST PUSH1 0x0 DUP3 DUP3 MSTORE PUSH1 0x20 DUP3 ADD SWAP1 POP SWAP3 SWAP2 POP POP JUMP JUMPDEST PUSH1 0x0 JUMPDEST DUP4 DUP2 LT ISZERO PUSH2 0x4D8 JUMPI DUP1 DUP3 ADD MLOAD DUP2 DUP5 ADD MSTORE PUSH1 0x20 DUP2 ADD SWAP1 POP PUSH2 0x4BD JUMP JUMPDEST PUSH1 0x0 DUP5 DUP5 ADD MSTORE POP POP POP POP JUMP JUMPDEST PUSH1 0x0 PUSH1 0x1F NOT PUSH1 0x1F DUP4 ADD AND SWAP1 POP SWAP2 SWAP1 POP JUMP JUMPDEST PUSH1 0x0 PUSH2 0x500 DUP3 PUSH2 0x49E JUMP JUMPDEST PUSH2 0x50A DUP2 DUP6 PUSH2 0x4A9 JUMP JUMPDEST SWAP4 POP PUSH2 0x51A DUP2 DUP6 PUSH1 0x20 DUP7 ADD PUSH2 0x4BA JUMP JUMPDEST PUSH2 0x523 DUP2 PUSH2 0x4E4 JUMP JUMPDEST DUP5 ADD SWAP2 POP POP SWAP3 SWAP2 POP POP JUMP JUMPDEST PUSH1 0x0 PUSH1 0x20 DUP3 ADD SWAP1 POP DUP2 DUP2 SUB PUSH1 0x0 DUP4 ADD MSTORE PUSH2 0x548 DUP2 DUP5 PUSH2 0x4F5 JUMP JUMPDEST SWAP1 POP SWAP3 SWAP2 POP POP JUMP JUMPDEST PUSH2 0x559 DUP2 PUSH2 0x43B JUMP JUMPDEST DUP3 MSTORE POP POP JUMP JUMPDEST PUSH1 0x0 PUSH1 0x20 DUP3 ADD SWAP1 POP PUSH2 0x574 PUSH1 0x0 DUP4 ADD DUP5 PUSH2 0x550 JUMP JUMPDEST SWAP3 SWAP2 POP POP JUMP JUMPDEST PUSH32 0x4E487B7100000000000000000000000000000000000000000000000000000000 PUSH1 0x0 MSTORE PUSH1 0x12 PUSH1 0x4 MSTORE PUSH1 0x24 PUSH1 0x0 REVERT JUMPDEST PUSH1 0x0 PUSH2 0x5B4 DUP3 PUSH2 0x43B JUMP JUMPDEST SWAP2 POP PUSH2 0x5BF DUP4 PUSH2 0x43B JUMP JUMPDEST SWAP3 POP DUP3 PUSH2 0x5CF JUMPI PUSH2 0x5CE PUSH2 0x57A JUMP JUMPDEST JUMPDEST DUP3 DUP3 MOD SWAP1 POP SWAP3 SWAP2 POP POP JUMP JUMPDEST PUSH32 0x4E487B7100000000000000000000000000000000000000000000000000000000 PUSH1 0x0 MSTORE PUSH1 0x32 PUSH1 0x4 MSTORE PUSH1 0x24 PUSH1 0x0 REVERT JUMPDEST PUSH32 0x4E487B7100000000000000000000000000000000000000000000000000000000 PUSH1 0x0 MSTORE PUSH1 0x11 PUSH1 0x4 MSTORE PUSH1 0x24 PUSH1 0x0 REVERT JUMPDEST PUSH1 0x0 PUSH2 0x643 DUP3 PUSH2 0x43B JUMP JUMPDEST SWAP2 POP PUSH2 0x64E DUP4 PUSH2 0x43B JUMP JUMPDEST SWAP3 POP DUP3 DUP3 ADD SWAP1 POP DUP1 DUP3 GT ISZERO PUSH2 0x666 JUMPI PUSH2 0x665 PUSH2 0x609 JUMP JUMPDEST JUMPDEST SWAP3 SWAP2 POP POP JUMP JUMPDEST PUSH1 0x0 PUSH2 0x677 DUP3 PUSH2 0x43B JUMP JUMPDEST SWAP2 POP PUSH32 0xFFFFFFFFFFFFFFFFFFFFFFFFFFFFFFFFFFFFFFFFFFFFFFFFFFFFFFFFFFFFFFFF DUP3 SUB PUSH2 0x6A9 JUMPI PUSH2 0x6A8 PUSH2 0x609 JUMP JUMPDEST JUMPDEST PUSH1 0x1 DUP3 ADD SWAP1 POP SWAP2 SWAP1 POP JUMP INVALID LOG2 PUSH5 0x6970667358 0x22 SLT KECCAK256 PUSH8 0x66D13541F52BB26B SWAP1 DUP5 MSIZE 0xC5 0xC2 0xCB 0xEC 0xD8 POP 0xDA BYTE 0xD4 MLOAD DUP5 0xC 0xE2 PUSH9 0xD90FCD8CC8D364736F PUSH13 0x63430008100033000000000000 "
				},
				"gasEstimates": {
					"creation": {
						"codeDepositCost": "354000",
						"executionCost": "393",
						"totalCost": "354393"
					},
					"external": {
						"addNumber(uint256)": "46917",
						"checkValue(uint256)": "infinite",
						"findFirstMultipleOf(uint256)": "infinite",
						"isEven(uint256)": "infinite",
						"numbers(uint256)": "infinite",
						"sumArray()": "infinite"
					}
				},
				"methodIdentifiers": {
					"addNumber(uint256)": "fce68023",
					"checkValue(uint256)": "18db62fb",
					"findFirstMultipleOf(uint256)": "d4b87c02",
					"isEven(uint256)": "2a2e1320",
					"numbers(uint256)": "d39fa233",
					"sumArray()": "81d73423"
				}
			},
			"storageLayout": {
				"storage": [
					{
						"astId": 4,
						"contract": "contracts/acs.sol:ControlFlow",
						"label": "numbers",
						"offset": 0,
						"slot": "0",
						"type": "t_array(t_uint256)dyn_storage"
					}
				],
				"types": {
					"t_array(t_uint256)dyn_storage": {
						"base": "t_uint256",
						"encoding": "dynamic_array",
						"label": "uint256[]",
						"numberOfBytes": "32"
					},
					"t_uint256": {
						"encoding": "inplace",
						"label": "uint256",
						"numberOfBytes": "32"
					}
				}
			},
			"userdoc": {
				"kind": "user",
				"methods": {},
				"version": 1
			}
		}
	}
}