{
	"contracts/ExceptionExample2.sol": {
		"ExceptionExample2": {
			"abi": [
				{
					"inputs": [
						{
							"internalType": "address",
							"name": "",
							"type": "address"
						}
					],
					"name": "balanceReceived",
					"outputs": [
						{
							"internalType": "uint8",
							"name": "",
							"type": "uint8"
						}
					],
					"stateMutability": "view",
					"type": "function"
				},
				{
					"inputs": [],
					"name": "receiveMoney",
					"outputs": [],
					"stateMutability": "payable",
					"type": "function"
				},
				{
					"inputs": [
						{
							"internalType": "address payable",
							"name": "_to",
							"type": "address"
						},
						{
							"internalType": "uint8",
							"name": "_amount",
							"type": "uint8"
						}
					],
					"name": "withdrawMoney",
					"outputs": [],
					"stateMutability": "nonpayable",
					"type": "function"
				}
			],
			"devdoc": {
				"kind": "dev",
				"methods": {},
				"version": 1
			},
			"evm": {
				"assembly": "    /* \"contracts/ExceptionExample2.sol\":63:729  contract ExceptionExample2 {\r... */\n  mstore(0x40, 0x80)\n  callvalue\n  dup1\n  iszero\n  tag_1\n  jumpi\n  0x00\n  dup1\n  revert\ntag_1:\n  pop\n  dataSize(sub_0)\n  dup1\n  dataOffset(sub_0)\n  0x00\n  codecopy\n  0x00\n  return\nstop\n\nsub_0: assembly {\n        /* \"contracts/ExceptionExample2.sol\":63:729  contract ExceptionExample2 {\r... */\n      mstore(0x40, 0x80)\n      jumpi(tag_1, lt(calldatasize, 0x04))\n      shr(0xe0, calldataload(0x00))\n      dup1\n      0x67c114b8\n      eq\n      tag_2\n      jumpi\n      dup1\n      0x6d26ec18\n      eq\n      tag_3\n      jumpi\n      dup1\n      0xd18a42e1\n      eq\n      tag_4\n      jumpi\n    tag_1:\n      0x00\n      dup1\n      revert\n        /* \"contracts/ExceptionExample2.sol\":396:726  function withdrawMoney(address payable _to, uint8 _amount) public {\r... */\n    tag_2:\n      callvalue\n      dup1\n      iszero\n      tag_5\n      jumpi\n      0x00\n      dup1\n      revert\n    tag_5:\n      pop\n      tag_6\n      0x04\n      dup1\n      calldatasize\n      sub\n      0x40\n      dup2\n      lt\n      iszero\n      tag_7\n      jumpi\n      0x00\n      dup1\n      revert\n    tag_7:\n      dup2\n      add\n      swap1\n      dup1\n      dup1\n      calldataload\n      0xffffffffffffffffffffffffffffffffffffffff\n      and\n      swap1\n      0x20\n      add\n      swap1\n      swap3\n      swap2\n      swap1\n      dup1\n      calldataload\n      0xff\n      and\n      swap1\n      0x20\n      add\n      swap1\n      swap3\n      swap2\n      swap1\n      pop\n      pop\n      pop\n      tag_8\n      jump\t// in\n    tag_6:\n      stop\n        /* \"contracts/ExceptionExample2.sol\":163:382  function receiveMoney() public payable {\r... */\n    tag_3:\n      tag_9\n      tag_10\n      jump\t// in\n    tag_9:\n      stop\n        /* \"contracts/ExceptionExample2.sol\":103:151  mapping(address => uint8) public balanceReceived */\n    tag_4:\n      callvalue\n      dup1\n      iszero\n      tag_11\n      jumpi\n      0x00\n      dup1\n      revert\n    tag_11:\n      pop\n      tag_12\n      0x04\n      dup1\n      calldatasize\n      sub\n      0x20\n      dup2\n      lt\n      iszero\n      tag_13\n      jumpi\n      0x00\n      dup1\n      revert\n    tag_13:\n      dup2\n      add\n      swap1\n      dup1\n      dup1\n      calldataload\n      0xffffffffffffffffffffffffffffffffffffffff\n      and\n      swap1\n      0x20\n      add\n      swap1\n      swap3\n      swap2\n      swap1\n      pop\n      pop\n      pop\n      tag_14\n      jump\t// in\n    tag_12:\n      mload(0x40)\n      dup1\n      dup3\n      0xff\n      and\n      dup2\n      mstore\n      0x20\n      add\n      swap2\n      pop\n      pop\n      mload(0x40)\n      dup1\n      swap2\n      sub\n      swap1\n      return\n        /* \"contracts/ExceptionExample2.sol\":396:726  function withdrawMoney(address payable _to, uint8 _amount) public {\r... */\n    tag_8:\n        /* \"contracts/ExceptionExample2.sol\":492:507  balanceReceived */\n      0x00\n        /* \"contracts/ExceptionExample2.sol\":492:519  balanceReceived[msg.sender] */\n      dup1\n        /* \"contracts/ExceptionExample2.sol\":508:518  msg.sender */\n      caller\n        /* \"contracts/ExceptionExample2.sol\":492:519  balanceReceived[msg.sender] */\n      0xffffffffffffffffffffffffffffffffffffffff\n      and\n      0xffffffffffffffffffffffffffffffffffffffff\n      and\n      dup2\n      mstore\n      0x20\n      add\n      swap1\n      dup2\n      mstore\n      0x20\n      add\n      0x00\n      keccak256\n      0x00\n      swap1\n      sload\n      swap1\n      0x0100\n      exp\n      swap1\n      div\n      0xff\n      and\n        /* \"contracts/ExceptionExample2.sol\":481:519  _amount <= balanceReceived[msg.sender] */\n      0xff\n      and\n        /* \"contracts/ExceptionExample2.sol\":481:488  _amount */\n      dup2\n        /* \"contracts/ExceptionExample2.sol\":481:519  _amount <= balanceReceived[msg.sender] */\n      0xff\n      and\n      gt\n      iszero\n        /* \"contracts/ExceptionExample2.sol\":473:550  require(_amount <= balanceReceived[msg.sender], \"Not Enough Funds, aborting\") */\n      tag_16\n      jumpi\n      mload(0x40)\n      0x08c379a000000000000000000000000000000000000000000000000000000000\n      dup2\n      mstore\n      0x04\n      add\n      dup1\n      dup1\n      0x20\n      add\n      dup3\n      dup2\n      sub\n      dup3\n      mstore\n      0x1a\n      dup2\n      mstore\n      0x20\n      add\n      dup1\n      0x4e6f7420456e6f7567682046756e64732c2061626f7274696e67000000000000\n      dup2\n      mstore\n      pop\n      0x20\n      add\n      swap2\n      pop\n      pop\n      mload(0x40)\n      dup1\n      swap2\n      sub\n      swap1\n      revert\n    tag_16:\n        /* \"contracts/ExceptionExample2.sol\":629:636  _amount */\n      dup1\n        /* \"contracts/ExceptionExample2.sol\":599:614  balanceReceived */\n      0x00\n        /* \"contracts/ExceptionExample2.sol\":599:626  balanceReceived[msg.sender] */\n      dup1\n        /* \"contracts/ExceptionExample2.sol\":615:625  msg.sender */\n      caller\n        /* \"contracts/ExceptionExample2.sol\":599:626  balanceReceived[msg.sender] */\n      0xffffffffffffffffffffffffffffffffffffffff\n      and\n      0xffffffffffffffffffffffffffffffffffffffff\n      and\n      dup2\n      mstore\n      0x20\n      add\n      swap1\n      dup2\n      mstore\n      0x20\n      add\n      0x00\n      keccak256\n      0x00\n      swap1\n      sload\n      swap1\n      0x0100\n      exp\n      swap1\n      div\n      0xff\n      and\n        /* \"contracts/ExceptionExample2.sol\":599:636  balanceReceived[msg.sender] - _amount */\n      sub\n        /* \"contracts/ExceptionExample2.sol\":568:636  balanceReceived[msg.sender] >= balanceReceived[msg.sender] - _amount */\n      0xff\n      and\n        /* \"contracts/ExceptionExample2.sol\":568:583  balanceReceived */\n      0x00\n        /* \"contracts/ExceptionExample2.sol\":568:595  balanceReceived[msg.sender] */\n      dup1\n        /* \"contracts/ExceptionExample2.sol\":584:594  msg.sender */\n      caller\n        /* \"contracts/ExceptionExample2.sol\":568:595  balanceReceived[msg.sender] */\n      0xffffffffffffffffffffffffffffffffffffffff\n      and\n      0xffffffffffffffffffffffffffffffffffffffff\n      and\n      dup2\n      mstore\n      0x20\n      add\n      swap1\n      dup2\n      mstore\n      0x20\n      add\n      0x00\n      keccak256\n      0x00\n      swap1\n      sload\n      swap1\n      0x0100\n      exp\n      swap1\n      div\n      0xff\n      and\n        /* \"contracts/ExceptionExample2.sol\":568:636  balanceReceived[msg.sender] >= balanceReceived[msg.sender] - _amount */\n      0xff\n      and\n      lt\n      iszero\n        /* \"contracts/ExceptionExample2.sol\":561:637  assert(balanceReceived[msg.sender] >= balanceReceived[msg.sender] - _amount) */\n      tag_17\n      jumpi\n      invalid\n    tag_17:\n        /* \"contracts/ExceptionExample2.sol\":679:686  _amount */\n      dup1\n        /* \"contracts/ExceptionExample2.sol\":648:663  balanceReceived */\n      0x00\n        /* \"contracts/ExceptionExample2.sol\":648:675  balanceReceived[msg.sender] */\n      dup1\n        /* \"contracts/ExceptionExample2.sol\":664:674  msg.sender */\n      caller\n        /* \"contracts/ExceptionExample2.sol\":648:675  balanceReceived[msg.sender] */\n      0xffffffffffffffffffffffffffffffffffffffff\n      and\n      0xffffffffffffffffffffffffffffffffffffffff\n      and\n      dup2\n      mstore\n      0x20\n      add\n      swap1\n      dup2\n      mstore\n      0x20\n      add\n      0x00\n      keccak256\n      0x00\n        /* \"contracts/ExceptionExample2.sol\":648:686  balanceReceived[msg.sender] -= _amount */\n      dup3\n      dup3\n      dup3\n      swap1\n      sload\n      swap1\n      0x0100\n      exp\n      swap1\n      div\n      0xff\n      and\n      sub\n      swap3\n      pop\n      0x0100\n      exp\n      dup2\n      sload\n      dup2\n      0xff\n      mul\n      not\n      and\n      swap1\n      dup4\n      0xff\n      and\n      mul\n      or\n      swap1\n      sstore\n      pop\n        /* \"contracts/ExceptionExample2.sol\":697:700  _to */\n      dup2\n        /* \"contracts/ExceptionExample2.sol\":697:709  _to.transfer */\n      0xffffffffffffffffffffffffffffffffffffffff\n      and\n        /* \"contracts/ExceptionExample2.sol\":697:718  _to.transfer(_amount) */\n      0x08fc\n        /* \"contracts/ExceptionExample2.sol\":710:717  _amount */\n      dup3\n        /* \"contracts/ExceptionExample2.sol\":697:718  _to.transfer(_amount) */\n      0xff\n      and\n      swap1\n      dup2\n      iszero\n      mul\n      swap1\n      mload(0x40)\n      0x00\n      mload(0x40)\n      dup1\n      dup4\n      sub\n      dup2\n      dup6\n      dup9\n      dup9\n      call\n      swap4\n      pop\n      pop\n      pop\n      pop\n      iszero\n      dup1\n      iszero\n      tag_19\n      jumpi\n      returndatasize\n      0x00\n      dup1\n      returndatacopy\n      revert(0x00, returndatasize)\n    tag_19:\n      pop\n        /* \"contracts/ExceptionExample2.sol\":396:726  function withdrawMoney(address payable _to, uint8 _amount) public {\r... */\n      pop\n      pop\n      jump\t// out\n        /* \"contracts/ExceptionExample2.sol\":163:382  function receiveMoney() public payable {\r... */\n    tag_10:\n        /* \"contracts/ExceptionExample2.sol\":239:248  msg.value */\n      callvalue\n        /* \"contracts/ExceptionExample2.sol\":220:249  msg.value == uint8(msg.value) */\n      0xff\n      and\n        /* \"contracts/ExceptionExample2.sol\":220:229  msg.value */\n      callvalue\n        /* \"contracts/ExceptionExample2.sol\":220:249  msg.value == uint8(msg.value) */\n      eq\n        /* \"contracts/ExceptionExample2.sol\":213:250  assert(msg.value == uint8(msg.value)) */\n      tag_21\n      jumpi\n      invalid\n    tag_21:\n        /* \"contracts/ExceptionExample2.sol\":298:307  msg.value */\n      callvalue\n        /* \"contracts/ExceptionExample2.sol\":261:276  balanceReceived */\n      0x00\n        /* \"contracts/ExceptionExample2.sol\":261:288  balanceReceived[msg.sender] */\n      dup1\n        /* \"contracts/ExceptionExample2.sol\":277:287  msg.sender */\n      caller\n        /* \"contracts/ExceptionExample2.sol\":261:288  balanceReceived[msg.sender] */\n      0xffffffffffffffffffffffffffffffffffffffff\n      and\n      0xffffffffffffffffffffffffffffffffffffffff\n      and\n      dup2\n      mstore\n      0x20\n      add\n      swap1\n      dup2\n      mstore\n      0x20\n      add\n      0x00\n      keccak256\n      0x00\n        /* \"contracts/ExceptionExample2.sol\":261:308  balanceReceived[msg.sender] += uint8(msg.value) */\n      dup3\n      dup3\n      dup3\n      swap1\n      sload\n      swap1\n      0x0100\n      exp\n      swap1\n      div\n      0xff\n      and\n      add\n      swap3\n      pop\n      0x0100\n      exp\n      dup2\n      sload\n      dup2\n      0xff\n      mul\n      not\n      and\n      swap1\n      dup4\n      0xff\n      and\n      mul\n      or\n      swap1\n      sstore\n      pop\n        /* \"contracts/ExceptionExample2.sol\":363:372  msg.value */\n      callvalue\n        /* \"contracts/ExceptionExample2.sol\":326:373  balanceReceived[msg.sender] >= uint8(msg.value) */\n      0xff\n      and\n        /* \"contracts/ExceptionExample2.sol\":326:341  balanceReceived */\n      0x00\n        /* \"contracts/ExceptionExample2.sol\":326:353  balanceReceived[msg.sender] */\n      dup1\n        /* \"contracts/ExceptionExample2.sol\":342:352  msg.sender */\n      caller\n        /* \"contracts/ExceptionExample2.sol\":326:353  balanceReceived[msg.sender] */\n      0xffffffffffffffffffffffffffffffffffffffff\n      and\n      0xffffffffffffffffffffffffffffffffffffffff\n      and\n      dup2\n      mstore\n      0x20\n      add\n      swap1\n      dup2\n      mstore\n      0x20\n      add\n      0x00\n      keccak256\n      0x00\n      swap1\n      sload\n      swap1\n      0x0100\n      exp\n      swap1\n      div\n      0xff\n      and\n        /* \"contracts/ExceptionExample2.sol\":326:373  balanceReceived[msg.sender] >= uint8(msg.value) */\n      0xff\n      and\n      lt\n      iszero\n        /* \"contracts/ExceptionExample2.sol\":319:374  assert(balanceReceived[msg.sender] >= uint8(msg.value)) */\n      tag_22\n      jumpi\n      invalid\n    tag_22:\n        /* \"contracts/ExceptionExample2.sol\":163:382  function receiveMoney() public payable {\r... */\n      jump\t// out\n        /* \"contracts/ExceptionExample2.sol\":103:151  mapping(address => uint8) public balanceReceived */\n    tag_14:\n      mstore(0x20, 0x00)\n      dup1\n      0x00\n      mstore\n      keccak256(0x00, 0x40)\n      0x00\n      swap2\n      pop\n      sload\n      swap1\n      0x0100\n      exp\n      swap1\n      div\n      0xff\n      and\n      dup2\n      jump\t// out\n\n    auxdata: 0xa2646970667358221220345cc4ccad758ec2bbbb8b43d887161a2bf39a79f1a0ce3d19f5fdf0fa1761ff64736f6c634300060c0033\n}\n",
				"bytecode": {
					"linkReferences": {},
					"object": "608060405234801561001057600080fd5b50610457806100206000396000f3fe6080604052600436106100345760003560e01c806367c114b8146100395780636d26ec1814610097578063d18a42e1146100a1575b600080fd5b34801561004557600080fd5b506100956004803603604081101561005c57600080fd5b81019080803573ffffffffffffffffffffffffffffffffffffffff169060200190929190803560ff169060200190929190505050610109565b005b61009f61032f565b005b3480156100ad57600080fd5b506100f0600480360360208110156100c457600080fd5b81019080803573ffffffffffffffffffffffffffffffffffffffff169060200190929190505050610401565b604051808260ff16815260200191505060405180910390f35b6000803373ffffffffffffffffffffffffffffffffffffffff1673ffffffffffffffffffffffffffffffffffffffff16815260200190815260200160002060009054906101000a900460ff1660ff168160ff1611156101d0576040517f08c379a000000000000000000000000000000000000000000000000000000000815260040180806020018281038252601a8152602001807f4e6f7420456e6f7567682046756e64732c2061626f7274696e6700000000000081525060200191505060405180910390fd5b806000803373ffffffffffffffffffffffffffffffffffffffff1673ffffffffffffffffffffffffffffffffffffffff16815260200190815260200160002060009054906101000a900460ff160360ff166000803373ffffffffffffffffffffffffffffffffffffffff1673ffffffffffffffffffffffffffffffffffffffff16815260200190815260200160002060009054906101000a900460ff1660ff16101561027857fe5b806000803373ffffffffffffffffffffffffffffffffffffffff1673ffffffffffffffffffffffffffffffffffffffff16815260200190815260200160002060008282829054906101000a900460ff160392506101000a81548160ff021916908360ff1602179055508173ffffffffffffffffffffffffffffffffffffffff166108fc8260ff169081150290604051600060405180830381858888f1935050505015801561032a573d6000803e3d6000fd5b505050565b3460ff16341461033b57fe5b346000803373ffffffffffffffffffffffffffffffffffffffff1673ffffffffffffffffffffffffffffffffffffffff16815260200190815260200160002060008282829054906101000a900460ff160192506101000a81548160ff021916908360ff1602179055503460ff166000803373ffffffffffffffffffffffffffffffffffffffff1673ffffffffffffffffffffffffffffffffffffffff16815260200190815260200160002060009054906101000a900460ff1660ff1610156103ff57fe5b565b60006020528060005260406000206000915054906101000a900460ff168156fea2646970667358221220345cc4ccad758ec2bbbb8b43d887161a2bf39a79f1a0ce3d19f5fdf0fa1761ff64736f6c634300060c0033",
					"opcodes": "PUSH1 0x80 PUSH1 0x40 MSTORE CALLVALUE DUP1 ISZERO PUSH2 0x10 JUMPI PUSH1 0x0 DUP1 REVERT JUMPDEST POP PUSH2 0x457 DUP1 PUSH2 0x20 PUSH1 0x0 CODECOPY PUSH1 0x0 RETURN INVALID PUSH1 0x80 PUSH1 0x40 MSTORE PUSH1 0x4 CALLDATASIZE LT PUSH2 0x34 JUMPI PUSH1 0x0 CALLDATALOAD PUSH1 0xE0 SHR DUP1 PUSH4 0x67C114B8 EQ PUSH2 0x39 JUMPI DUP1 PUSH4 0x6D26EC18 EQ PUSH2 0x97 JUMPI DUP1 PUSH4 0xD18A42E1 EQ PUSH2 0xA1 JUMPI JUMPDEST PUSH1 0x0 DUP1 REVERT JUMPDEST CALLVALUE DUP1 ISZERO PUSH2 0x45 JUMPI PUSH1 0x0 DUP1 REVERT JUMPDEST POP PUSH2 0x95 PUSH1 0x4 DUP1 CALLDATASIZE SUB PUSH1 0x40 DUP2 LT ISZERO PUSH2 0x5C JUMPI PUSH1 0x0 DUP1 REVERT JUMPDEST DUP2 ADD SWAP1 DUP1 DUP1 CALLDATALOAD PUSH20 0xFFFFFFFFFFFFFFFFFFFFFFFFFFFFFFFFFFFFFFFF AND SWAP1 PUSH1 0x20 ADD SWAP1 SWAP3 SWAP2 SWAP1 DUP1 CALLDATALOAD PUSH1 0xFF AND SWAP1 PUSH1 0x20 ADD SWAP1 SWAP3 SWAP2 SWAP1 POP POP POP PUSH2 0x109 JUMP JUMPDEST STOP JUMPDEST PUSH2 0x9F PUSH2 0x32F JUMP JUMPDEST STOP JUMPDEST CALLVALUE DUP1 ISZERO PUSH2 0xAD JUMPI PUSH1 0x0 DUP1 REVERT JUMPDEST POP PUSH2 0xF0 PUSH1 0x4 DUP1 CALLDATASIZE SUB PUSH1 0x20 DUP2 LT ISZERO PUSH2 0xC4 JUMPI PUSH1 0x0 DUP1 REVERT JUMPDEST DUP2 ADD SWAP1 DUP1 DUP1 CALLDATALOAD PUSH20 0xFFFFFFFFFFFFFFFFFFFFFFFFFFFFFFFFFFFFFFFF AND SWAP1 PUSH1 0x20 ADD SWAP1 SWAP3 SWAP2 SWAP1 POP POP POP PUSH2 0x401 JUMP JUMPDEST PUSH1 0x40 MLOAD DUP1 DUP3 PUSH1 0xFF AND DUP2 MSTORE PUSH1 0x20 ADD SWAP2 POP POP PUSH1 0x40 MLOAD DUP1 SWAP2 SUB SWAP1 RETURN JUMPDEST PUSH1 0x0 DUP1 CALLER PUSH20 0xFFFFFFFFFFFFFFFFFFFFFFFFFFFFFFFFFFFFFFFF AND PUSH20 0xFFFFFFFFFFFFFFFFFFFFFFFFFFFFFFFFFFFFFFFF AND DUP2 MSTORE PUSH1 0x20 ADD SWAP1 DUP2 MSTORE PUSH1 0x20 ADD PUSH1 0x0 KECCAK256 PUSH1 0x0 SWAP1 SLOAD SWAP1 PUSH2 0x100 EXP SWAP1 DIV PUSH1 0xFF AND PUSH1 0xFF AND DUP2 PUSH1 0xFF AND GT ISZERO PUSH2 0x1D0 JUMPI PUSH1 0x40 MLOAD PUSH32 0x8C379A000000000000000000000000000000000000000000000000000000000 DUP2 MSTORE PUSH1 0x4 ADD DUP1 DUP1 PUSH1 0x20 ADD DUP3 DUP2 SUB DUP3 MSTORE PUSH1 0x1A DUP2 MSTORE PUSH1 0x20 ADD DUP1 PUSH32 0x4E6F7420456E6F7567682046756E64732C2061626F7274696E67000000000000 DUP2 MSTORE POP PUSH1 0x20 ADD SWAP2 POP POP PUSH1 0x40 MLOAD DUP1 SWAP2 SUB SWAP1 REVERT JUMPDEST DUP1 PUSH1 0x0 DUP1 CALLER PUSH20 0xFFFFFFFFFFFFFFFFFFFFFFFFFFFFFFFFFFFFFFFF AND PUSH20 0xFFFFFFFFFFFFFFFFFFFFFFFFFFFFFFFFFFFFFFFF AND DUP2 MSTORE PUSH1 0x20 ADD SWAP1 DUP2 MSTORE PUSH1 0x20 ADD PUSH1 0x0 KECCAK256 PUSH1 0x0 SWAP1 SLOAD SWAP1 PUSH2 0x100 EXP SWAP1 DIV PUSH1 0xFF AND SUB PUSH1 0xFF AND PUSH1 0x0 DUP1 CALLER PUSH20 0xFFFFFFFFFFFFFFFFFFFFFFFFFFFFFFFFFFFFFFFF AND PUSH20 0xFFFFFFFFFFFFFFFFFFFFFFFFFFFFFFFFFFFFFFFF AND DUP2 MSTORE PUSH1 0x20 ADD SWAP1 DUP2 MSTORE PUSH1 0x20 ADD PUSH1 0x0 KECCAK256 PUSH1 0x0 SWAP1 SLOAD SWAP1 PUSH2 0x100 EXP SWAP1 DIV PUSH1 0xFF AND PUSH1 0xFF AND LT ISZERO PUSH2 0x278 JUMPI INVALID JUMPDEST DUP1 PUSH1 0x0 DUP1 CALLER PUSH20 0xFFFFFFFFFFFFFFFFFFFFFFFFFFFFFFFFFFFFFFFF AND PUSH20 0xFFFFFFFFFFFFFFFFFFFFFFFFFFFFFFFFFFFFFFFF AND DUP2 MSTORE PUSH1 0x20 ADD SWAP1 DUP2 MSTORE PUSH1 0x20 ADD PUSH1 0x0 KECCAK256 PUSH1 0x0 DUP3 DUP3 DUP3 SWAP1 SLOAD SWAP1 PUSH2 0x100 EXP SWAP1 DIV PUSH1 0xFF AND SUB SWAP3 POP PUSH2 0x100 EXP DUP2 SLOAD DUP2 PUSH1 0xFF MUL NOT AND SWAP1 DUP4 PUSH1 0xFF AND MUL OR SWAP1 SSTORE POP DUP2 PUSH20 0xFFFFFFFFFFFFFFFFFFFFFFFFFFFFFFFFFFFFFFFF AND PUSH2 0x8FC DUP3 PUSH1 0xFF AND SWAP1 DUP2 ISZERO MUL SWAP1 PUSH1 0x40 MLOAD PUSH1 0x0 PUSH1 0x40 MLOAD DUP1 DUP4 SUB DUP2 DUP6 DUP9 DUP9 CALL SWAP4 POP POP POP POP ISZERO DUP1 ISZERO PUSH2 0x32A JUMPI RETURNDATASIZE PUSH1 0x0 DUP1 RETURNDATACOPY RETURNDATASIZE PUSH1 0x0 REVERT JUMPDEST POP POP POP JUMP JUMPDEST CALLVALUE PUSH1 0xFF AND CALLVALUE EQ PUSH2 0x33B JUMPI INVALID JUMPDEST CALLVALUE PUSH1 0x0 DUP1 CALLER PUSH20 0xFFFFFFFFFFFFFFFFFFFFFFFFFFFFFFFFFFFFFFFF AND PUSH20 0xFFFFFFFFFFFFFFFFFFFFFFFFFFFFFFFFFFFFFFFF AND DUP2 MSTORE PUSH1 0x20 ADD SWAP1 DUP2 MSTORE PUSH1 0x20 ADD PUSH1 0x0 KECCAK256 PUSH1 0x0 DUP3 DUP3 DUP3 SWAP1 SLOAD SWAP1 PUSH2 0x100 EXP SWAP1 DIV PUSH1 0xFF AND ADD SWAP3 POP PUSH2 0x100 EXP DUP2 SLOAD DUP2 PUSH1 0xFF MUL NOT AND SWAP1 DUP4 PUSH1 0xFF AND MUL OR SWAP1 SSTORE POP CALLVALUE PUSH1 0xFF AND PUSH1 0x0 DUP1 CALLER PUSH20 0xFFFFFFFFFFFFFFFFFFFFFFFFFFFFFFFFFFFFFFFF AND PUSH20 0xFFFFFFFFFFFFFFFFFFFFFFFFFFFFFFFFFFFFFFFF AND DUP2 MSTORE PUSH1 0x20 ADD SWAP1 DUP2 MSTORE PUSH1 0x20 ADD PUSH1 0x0 KECCAK256 PUSH1 0x0 SWAP1 SLOAD SWAP1 PUSH2 0x100 EXP SWAP1 DIV PUSH1 0xFF AND PUSH1 0xFF AND LT ISZERO PUSH2 0x3FF JUMPI INVALID JUMPDEST JUMP JUMPDEST PUSH1 0x0 PUSH1 0x20 MSTORE DUP1 PUSH1 0x0 MSTORE PUSH1 0x40 PUSH1 0x0 KECCAK256 PUSH1 0x0 SWAP2 POP SLOAD SWAP1 PUSH2 0x100 EXP SWAP1 DIV PUSH1 0xFF AND DUP2 JUMP INVALID LOG2 PUSH5 0x6970667358 0x22 SLT KECCAK256 CALLVALUE 0x5C 0xC4 0xCC 0xAD PUSH22 0x8EC2BBBB8B43D887161A2BF39A79F1A0CE3D19F5FDF0 STATICCALL OR PUSH2 0xFF64 PUSH20 0x6F6C634300060C00330000000000000000000000 "
				},
				"gasEstimates": {
					"creation": {
						"codeDepositCost": "222200",
						"executionCost": "263",
						"totalCost": "222463"
					},
					"external": {
						"balanceReceived(address)": "1222",
						"receiveMoney()": "22914",
						"withdrawMoney(address,uint8)": "infinite"
					}
				},
				"methodIdentifiers": {
					"balanceReceived(address)": "d18a42e1",
					"receiveMoney()": "6d26ec18",
					"withdrawMoney(address,uint8)": "67c114b8"
				}
			},
			"storageLayout": {
				"storage": [
					{
						"astId": 5,
						"contract": "contracts/ExceptionExample2.sol:ExceptionExample2",
						"label": "balanceReceived",
						"offset": 0,
						"slot": "0",
						"type": "t_mapping(t_address,t_uint8)"
					}
				],
				"types": {
					"t_address": {
						"encoding": "inplace",
						"label": "address",
						"numberOfBytes": "20"
					},
					"t_mapping(t_address,t_uint8)": {
						"encoding": "mapping",
						"key": "t_address",
						"label": "mapping(address => uint8)",
						"numberOfBytes": "32",
						"value": "t_uint8"
					},
					"t_uint8": {
						"encoding": "inplace",
						"label": "uint8",
						"numberOfBytes": "1"
					}
				}
			},
			"userdoc": {
				"kind": "user",
				"methods": {},
				"version": 1
			}
		}
	}
}