{
	"contracts/asa.sol": {
		"StringOperations": {
			"abi": [
				{
					"inputs": [
						{
							"internalType": "string",
							"name": "str1",
							"type": "string"
						},
						{
							"internalType": "string",
							"name": "str2",
							"type": "string"
						}
					],
					"name": "compareStrings",
					"outputs": [
						{
							"internalType": "bool",
							"name": "",
							"type": "bool"
						}
					],
					"stateMutability": "pure",
					"type": "function"
				},
				{
					"inputs": [
						{
							"internalType": "string",
							"name": "str1",
							"type": "string"
						},
						{
							"internalType": "string",
							"name": "str2",
							"type": "string"
						}
					],
					"name": "concatenateStrings",
					"outputs": [
						{
							"internalType": "string",
							"name": "",
							"type": "string"
						}
					],
					"stateMutability": "pure",
					"type": "function"
				},
				{
					"inputs": [
						{
							"internalType": "string",
							"name": "str1",
							"type": "string"
						},
						{
							"internalType": "string",
							"name": "str2",
							"type": "string"
						}
					],
					"name": "concatenateStringsLegacy",
					"outputs": [
						{
							"internalType": "string",
							"name": "",
							"type": "string"
						}
					],
					"stateMutability": "pure",
					"type": "function"
				},
				{
					"inputs": [
						{
							"internalType": "string",
							"name": "str1",
							"type": "string"
						},
						{
							"internalType": "uint256",
							"name": "number",
							"type": "uint256"
						},
						{
							"internalType": "string",
							"name": "str2",
							"type": "string"
						}
					],
					"name": "concatenateWithNumber",
					"outputs": [
						{
							"internalType": "string",
							"name": "",
							"type": "string"
						}
					],
					"stateMutability": "pure",
					"type": "function"
				},
				{
					"inputs": [
						{
							"internalType": "string",
							"name": "str1",
							"type": "string"
						},
						{
							"internalType": "string",
							"name": "str2",
							"type": "string"
						}
					],
					"name": "demonstrateEncoding",
					"outputs": [
						{
							"internalType": "bytes",
							"name": "",
							"type": "bytes"
						},
						{
							"internalType": "bytes",
							"name": "",
							"type": "bytes"
						},
						{
							"internalType": "bytes",
							"name": "",
							"type": "bytes"
						}
					],
					"stateMutability": "pure",
					"type": "function"
				},
				{
					"inputs": [
						{
							"internalType": "string",
							"name": "str",
							"type": "string"
						}
					],
					"name": "getStringLength",
					"outputs": [
						{
							"internalType": "uint256",
							"name": "",
							"type": "uint256"
						}
					],
					"stateMutability": "pure",
					"type": "function"
				},
				{
					"inputs": [],
					"name": "storedString",
					"outputs": [
						{
							"internalType": "string",
							"name": "",
							"type": "string"
						}
					],
					"stateMutability": "view",
					"type": "function"
				}
			],
			"devdoc": {
				"kind": "dev",
				"methods": {},
				"version": 1
			},
			"evm": {
				"assembly": "    /* \"contracts/asa.sol\":61:2772  contract StringOperations {... */\n  mstore(0x40, 0x80)\n    /* \"contracts/asa.sol\":118:154  string public storedString = \"Hello\" */\n  mload(0x40)\n  dup1\n  0x40\n  add\n  0x40\n  mstore\n  dup1\n  0x05\n  dup2\n  mstore\n  0x20\n  add\n  0x48656c6c6f000000000000000000000000000000000000000000000000000000\n  dup2\n  mstore\n  pop\n  0x00\n  swap1\n  dup2\n  tag_1\n  swap2\n  swap1\n  tag_2\n  jump\t// in\ntag_1:\n  pop\n    /* \"contracts/asa.sol\":61:2772  contract StringOperations {... */\n  callvalue\n  dup1\n  iszero\n  tag_3\n  jumpi\n  0x00\n  dup1\n  revert\ntag_3:\n  pop\n  jump(tag_4)\n    /* \"#utility.yul\":7:106   */\ntag_5:\n    /* \"#utility.yul\":59:65   */\n  0x00\n    /* \"#utility.yul\":93:98   */\n  dup2\n    /* \"#utility.yul\":87:99   */\n  mload\n    /* \"#utility.yul\":77:99   */\n  swap1\n  pop\n    /* \"#utility.yul\":7:106   */\n  swap2\n  swap1\n  pop\n  jump\t// out\n    /* \"#utility.yul\":112:292   */\ntag_6:\n    /* \"#utility.yul\":160:237   */\n  0x4e487b7100000000000000000000000000000000000000000000000000000000\n    /* \"#utility.yul\":157:158   */\n  0x00\n    /* \"#utility.yul\":150:238   */\n  mstore\n    /* \"#utility.yul\":257:261   */\n  0x41\n    /* \"#utility.yul\":254:255   */\n  0x04\n    /* \"#utility.yul\":247:262   */\n  mstore\n    /* \"#utility.yul\":281:285   */\n  0x24\n    /* \"#utility.yul\":278:279   */\n  0x00\n    /* \"#utility.yul\":271:286   */\n  revert\n    /* \"#utility.yul\":298:478   */\ntag_7:\n    /* \"#utility.yul\":346:423   */\n  0x4e487b7100000000000000000000000000000000000000000000000000000000\n    /* \"#utility.yul\":343:344   */\n  0x00\n    /* \"#utility.yul\":336:424   */\n  mstore\n    /* \"#utility.yul\":443:447   */\n  0x22\n    /* \"#utility.yul\":440:441   */\n  0x04\n    /* \"#utility.yul\":433:448   */\n  mstore\n    /* \"#utility.yul\":467:471   */\n  0x24\n    /* \"#utility.yul\":464:465   */\n  0x00\n    /* \"#utility.yul\":457:472   */\n  revert\n    /* \"#utility.yul\":484:804   */\ntag_8:\n    /* \"#utility.yul\":528:534   */\n  0x00\n    /* \"#utility.yul\":565:566   */\n  0x02\n    /* \"#utility.yul\":559:563   */\n  dup3\n    /* \"#utility.yul\":555:567   */\n  div\n    /* \"#utility.yul\":545:567   */\n  swap1\n  pop\n    /* \"#utility.yul\":612:613   */\n  0x01\n    /* \"#utility.yul\":606:610   */\n  dup3\n    /* \"#utility.yul\":602:614   */\n  and\n    /* \"#utility.yul\":633:651   */\n  dup1\n    /* \"#utility.yul\":623:704   */\n  tag_30\n  jumpi\n    /* \"#utility.yul\":689:693   */\n  0x7f\n    /* \"#utility.yul\":681:687   */\n  dup3\n    /* \"#utility.yul\":677:694   */\n  and\n    /* \"#utility.yul\":667:694   */\n  swap2\n  pop\n    /* \"#utility.yul\":623:704   */\ntag_30:\n    /* \"#utility.yul\":751:753   */\n  0x20\n    /* \"#utility.yul\":743:749   */\n  dup3\n    /* \"#utility.yul\":740:754   */\n  lt\n    /* \"#utility.yul\":720:738   */\n  dup2\n    /* \"#utility.yul\":717:755   */\n  sub\n    /* \"#utility.yul\":714:798   */\n  tag_31\n  jumpi\n    /* \"#utility.yul\":770:788   */\n  tag_32\n  tag_7\n  jump\t// in\ntag_32:\n    /* \"#utility.yul\":714:798   */\ntag_31:\n    /* \"#utility.yul\":535:804   */\n  pop\n    /* \"#utility.yul\":484:804   */\n  swap2\n  swap1\n  pop\n  jump\t// out\n    /* \"#utility.yul\":810:951   */\ntag_9:\n    /* \"#utility.yul\":859:863   */\n  0x00\n    /* \"#utility.yul\":882:885   */\n  dup2\n    /* \"#utility.yul\":874:885   */\n  swap1\n  pop\n    /* \"#utility.yul\":905:908   */\n  dup2\n    /* \"#utility.yul\":902:903   */\n  0x00\n    /* \"#utility.yul\":895:909   */\n  mstore\n    /* \"#utility.yul\":939:943   */\n  0x20\n    /* \"#utility.yul\":936:937   */\n  0x00\n    /* \"#utility.yul\":926:944   */\n  keccak256\n    /* \"#utility.yul\":918:944   */\n  swap1\n  pop\n    /* \"#utility.yul\":810:951   */\n  swap2\n  swap1\n  pop\n  jump\t// out\n    /* \"#utility.yul\":957:1050   */\ntag_10:\n    /* \"#utility.yul\":994:1000   */\n  0x00\n    /* \"#utility.yul\":1041:1043   */\n  0x20\n    /* \"#utility.yul\":1036:1038   */\n  0x1f\n    /* \"#utility.yul\":1029:1034   */\n  dup4\n    /* \"#utility.yul\":1025:1039   */\n  add\n    /* \"#utility.yul\":1021:1044   */\n  div\n    /* \"#utility.yul\":1011:1044   */\n  swap1\n  pop\n    /* \"#utility.yul\":957:1050   */\n  swap2\n  swap1\n  pop\n  jump\t// out\n    /* \"#utility.yul\":1056:1163   */\ntag_11:\n    /* \"#utility.yul\":1100:1108   */\n  0x00\n    /* \"#utility.yul\":1150:1155   */\n  dup3\n    /* \"#utility.yul\":1144:1148   */\n  dup3\n    /* \"#utility.yul\":1140:1156   */\n  shl\n    /* \"#utility.yul\":1119:1156   */\n  swap1\n  pop\n    /* \"#utility.yul\":1056:1163   */\n  swap3\n  swap2\n  pop\n  pop\n  jump\t// out\n    /* \"#utility.yul\":1169:1562   */\ntag_12:\n    /* \"#utility.yul\":1238:1244   */\n  0x00\n    /* \"#utility.yul\":1288:1289   */\n  0x08\n    /* \"#utility.yul\":1276:1286   */\n  dup4\n    /* \"#utility.yul\":1272:1290   */\n  mul\n    /* \"#utility.yul\":1311:1408   */\n  tag_37\n    /* \"#utility.yul\":1341:1407   */\n  0xffffffffffffffffffffffffffffffffffffffffffffffffffffffffffffffff\n    /* \"#utility.yul\":1330:1339   */\n  dup3\n    /* \"#utility.yul\":1311:1408   */\n  tag_11\n  jump\t// in\ntag_37:\n    /* \"#utility.yul\":1429:1468   */\n  tag_38\n    /* \"#utility.yul\":1459:1467   */\n  dup7\n    /* \"#utility.yul\":1448:1457   */\n  dup4\n    /* \"#utility.yul\":1429:1468   */\n  tag_11\n  jump\t// in\ntag_38:\n    /* \"#utility.yul\":1417:1468   */\n  swap6\n  pop\n    /* \"#utility.yul\":1501:1505   */\n  dup1\n    /* \"#utility.yul\":1497:1506   */\n  not\n    /* \"#utility.yul\":1490:1495   */\n  dup5\n    /* \"#utility.yul\":1486:1507   */\n  and\n    /* \"#utility.yul\":1477:1507   */\n  swap4\n  pop\n    /* \"#utility.yul\":1550:1554   */\n  dup1\n    /* \"#utility.yul\":1540:1548   */\n  dup7\n    /* \"#utility.yul\":1536:1555   */\n  and\n    /* \"#utility.yul\":1529:1534   */\n  dup5\n    /* \"#utility.yul\":1526:1556   */\n  or\n    /* \"#utility.yul\":1516:1556   */\n  swap3\n  pop\n    /* \"#utility.yul\":1245:1562   */\n  pop\n  pop\n    /* \"#utility.yul\":1169:1562   */\n  swap4\n  swap3\n  pop\n  pop\n  pop\n  jump\t// out\n    /* \"#utility.yul\":1568:1645   */\ntag_13:\n    /* \"#utility.yul\":1605:1612   */\n  0x00\n    /* \"#utility.yul\":1634:1639   */\n  dup2\n    /* \"#utility.yul\":1623:1639   */\n  swap1\n  pop\n    /* \"#utility.yul\":1568:1645   */\n  swap2\n  swap1\n  pop\n  jump\t// out\n    /* \"#utility.yul\":1651:1711   */\ntag_14:\n    /* \"#utility.yul\":1679:1682   */\n  0x00\n    /* \"#utility.yul\":1700:1705   */\n  dup2\n    /* \"#utility.yul\":1693:1705   */\n  swap1\n  pop\n    /* \"#utility.yul\":1651:1711   */\n  swap2\n  swap1\n  pop\n  jump\t// out\n    /* \"#utility.yul\":1717:1859   */\ntag_15:\n    /* \"#utility.yul\":1767:1776   */\n  0x00\n    /* \"#utility.yul\":1800:1853   */\n  tag_42\n    /* \"#utility.yul\":1818:1852   */\n  tag_43\n    /* \"#utility.yul\":1827:1851   */\n  tag_44\n    /* \"#utility.yul\":1845:1850   */\n  dup5\n    /* \"#utility.yul\":1827:1851   */\n  tag_13\n  jump\t// in\ntag_44:\n    /* \"#utility.yul\":1818:1852   */\n  tag_14\n  jump\t// in\ntag_43:\n    /* \"#utility.yul\":1800:1853   */\n  tag_13\n  jump\t// in\ntag_42:\n    /* \"#utility.yul\":1787:1853   */\n  swap1\n  pop\n    /* \"#utility.yul\":1717:1859   */\n  swap2\n  swap1\n  pop\n  jump\t// out\n    /* \"#utility.yul\":1865:1940   */\ntag_16:\n    /* \"#utility.yul\":1908:1911   */\n  0x00\n    /* \"#utility.yul\":1929:1934   */\n  dup2\n    /* \"#utility.yul\":1922:1934   */\n  swap1\n  pop\n    /* \"#utility.yul\":1865:1940   */\n  swap2\n  swap1\n  pop\n  jump\t// out\n    /* \"#utility.yul\":1946:2215   */\ntag_17:\n    /* \"#utility.yul\":2056:2095   */\n  tag_47\n    /* \"#utility.yul\":2087:2094   */\n  dup4\n    /* \"#utility.yul\":2056:2095   */\n  tag_15\n  jump\t// in\ntag_47:\n    /* \"#utility.yul\":2117:2208   */\n  tag_48\n    /* \"#utility.yul\":2166:2207   */\n  tag_49\n    /* \"#utility.yul\":2190:2206   */\n  dup3\n    /* \"#utility.yul\":2166:2207   */\n  tag_16\n  jump\t// in\ntag_49:\n    /* \"#utility.yul\":2158:2164   */\n  dup5\n    /* \"#utility.yul\":2151:2155   */\n  dup5\n    /* \"#utility.yul\":2145:2156   */\n  sload\n    /* \"#utility.yul\":2117:2208   */\n  tag_12\n  jump\t// in\ntag_48:\n    /* \"#utility.yul\":2111:2115   */\n  dup3\n    /* \"#utility.yul\":2104:2209   */\n  sstore\n    /* \"#utility.yul\":2022:2215   */\n  pop\n    /* \"#utility.yul\":1946:2215   */\n  pop\n  pop\n  pop\n  jump\t// out\n    /* \"#utility.yul\":2221:2294   */\ntag_18:\n    /* \"#utility.yul\":2266:2269   */\n  0x00\n    /* \"#utility.yul\":2221:2294   */\n  swap1\n  jump\t// out\n    /* \"#utility.yul\":2300:2489   */\ntag_19:\n    /* \"#utility.yul\":2377:2409   */\n  tag_52\n  tag_18\n  jump\t// in\ntag_52:\n    /* \"#utility.yul\":2418:2483   */\n  tag_53\n    /* \"#utility.yul\":2476:2482   */\n  dup2\n    /* \"#utility.yul\":2468:2474   */\n  dup5\n    /* \"#utility.yul\":2462:2466   */\n  dup5\n    /* \"#utility.yul\":2418:2483   */\n  tag_17\n  jump\t// in\ntag_53:\n    /* \"#utility.yul\":2353:2489   */\n  pop\n    /* \"#utility.yul\":2300:2489   */\n  pop\n  pop\n  jump\t// out\n    /* \"#utility.yul\":2495:2681   */\ntag_20:\n    /* \"#utility.yul\":2555:2675   */\ntag_55:\n    /* \"#utility.yul\":2572:2575   */\n  dup2\n    /* \"#utility.yul\":2565:2570   */\n  dup2\n    /* \"#utility.yul\":2562:2576   */\n  lt\n    /* \"#utility.yul\":2555:2675   */\n  iszero\n  tag_57\n  jumpi\n    /* \"#utility.yul\":2626:2665   */\n  tag_58\n    /* \"#utility.yul\":2663:2664   */\n  0x00\n    /* \"#utility.yul\":2656:2661   */\n  dup3\n    /* \"#utility.yul\":2626:2665   */\n  tag_19\n  jump\t// in\ntag_58:\n    /* \"#utility.yul\":2599:2600   */\n  0x01\n    /* \"#utility.yul\":2592:2597   */\n  dup2\n    /* \"#utility.yul\":2588:2601   */\n  add\n    /* \"#utility.yul\":2579:2601   */\n  swap1\n  pop\n    /* \"#utility.yul\":2555:2675   */\n  jump(tag_55)\ntag_57:\n    /* \"#utility.yul\":2495:2681   */\n  pop\n  pop\n  jump\t// out\n    /* \"#utility.yul\":2687:3230   */\ntag_21:\n    /* \"#utility.yul\":2788:2790   */\n  0x1f\n    /* \"#utility.yul\":2783:2786   */\n  dup3\n    /* \"#utility.yul\":2780:2791   */\n  gt\n    /* \"#utility.yul\":2777:3223   */\n  iszero\n  tag_60\n  jumpi\n    /* \"#utility.yul\":2822:2860   */\n  tag_61\n    /* \"#utility.yul\":2854:2859   */\n  dup2\n    /* \"#utility.yul\":2822:2860   */\n  tag_9\n  jump\t// in\ntag_61:\n    /* \"#utility.yul\":2906:2935   */\n  tag_62\n    /* \"#utility.yul\":2924:2934   */\n  dup5\n    /* \"#utility.yul\":2906:2935   */\n  tag_10\n  jump\t// in\ntag_62:\n    /* \"#utility.yul\":2896:2904   */\n  dup2\n    /* \"#utility.yul\":2892:2936   */\n  add\n    /* \"#utility.yul\":3089:3091   */\n  0x20\n    /* \"#utility.yul\":3077:3087   */\n  dup6\n    /* \"#utility.yul\":3074:3092   */\n  lt\n    /* \"#utility.yul\":3071:3120   */\n  iszero\n  tag_63\n  jumpi\n    /* \"#utility.yul\":3110:3118   */\n  dup2\n    /* \"#utility.yul\":3095:3118   */\n  swap1\n  pop\n    /* \"#utility.yul\":3071:3120   */\ntag_63:\n    /* \"#utility.yul\":3133:3213   */\n  tag_64\n    /* \"#utility.yul\":3189:3211   */\n  tag_65\n    /* \"#utility.yul\":3207:3210   */\n  dup6\n    /* \"#utility.yul\":3189:3211   */\n  tag_10\n  jump\t// in\ntag_65:\n    /* \"#utility.yul\":3179:3187   */\n  dup4\n    /* \"#utility.yul\":3175:3212   */\n  add\n    /* \"#utility.yul\":3162:3173   */\n  dup3\n    /* \"#utility.yul\":3133:3213   */\n  tag_20\n  jump\t// in\ntag_64:\n    /* \"#utility.yul\":2792:3223   */\n  pop\n  pop\n    /* \"#utility.yul\":2777:3223   */\ntag_60:\n    /* \"#utility.yul\":2687:3230   */\n  pop\n  pop\n  pop\n  jump\t// out\n    /* \"#utility.yul\":3236:3353   */\ntag_22:\n    /* \"#utility.yul\":3290:3298   */\n  0x00\n    /* \"#utility.yul\":3340:3345   */\n  dup3\n    /* \"#utility.yul\":3334:3338   */\n  dup3\n    /* \"#utility.yul\":3330:3346   */\n  shr\n    /* \"#utility.yul\":3309:3346   */\n  swap1\n  pop\n    /* \"#utility.yul\":3236:3353   */\n  swap3\n  swap2\n  pop\n  pop\n  jump\t// out\n    /* \"#utility.yul\":3359:3528   */\ntag_23:\n    /* \"#utility.yul\":3403:3409   */\n  0x00\n    /* \"#utility.yul\":3436:3487   */\n  tag_68\n    /* \"#utility.yul\":3484:3485   */\n  0x00\n    /* \"#utility.yul\":3480:3486   */\n  not\n    /* \"#utility.yul\":3472:3477   */\n  dup5\n    /* \"#utility.yul\":3469:3470   */\n  0x08\n    /* \"#utility.yul\":3465:3478   */\n  mul\n    /* \"#utility.yul\":3436:3487   */\n  tag_22\n  jump\t// in\ntag_68:\n    /* \"#utility.yul\":3432:3488   */\n  not\n    /* \"#utility.yul\":3517:3521   */\n  dup1\n    /* \"#utility.yul\":3511:3515   */\n  dup4\n    /* \"#utility.yul\":3507:3522   */\n  and\n    /* \"#utility.yul\":3497:3522   */\n  swap2\n  pop\n    /* \"#utility.yul\":3410:3528   */\n  pop\n    /* \"#utility.yul\":3359:3528   */\n  swap3\n  swap2\n  pop\n  pop\n  jump\t// out\n    /* \"#utility.yul\":3533:3828   */\ntag_24:\n    /* \"#utility.yul\":3609:3613   */\n  0x00\n    /* \"#utility.yul\":3755:3784   */\n  tag_70\n    /* \"#utility.yul\":3780:3783   */\n  dup4\n    /* \"#utility.yul\":3774:3778   */\n  dup4\n    /* \"#utility.yul\":3755:3784   */\n  tag_23\n  jump\t// in\ntag_70:\n    /* \"#utility.yul\":3747:3784   */\n  swap2\n  pop\n    /* \"#utility.yul\":3817:3820   */\n  dup3\n    /* \"#utility.yul\":3814:3815   */\n  0x02\n    /* \"#utility.yul\":3810:3821   */\n  mul\n    /* \"#utility.yul\":3804:3808   */\n  dup3\n    /* \"#utility.yul\":3801:3822   */\n  or\n    /* \"#utility.yul\":3793:3822   */\n  swap1\n  pop\n    /* \"#utility.yul\":3533:3828   */\n  swap3\n  swap2\n  pop\n  pop\n  jump\t// out\n    /* \"#utility.yul\":3833:5228   */\ntag_2:\n    /* \"#utility.yul\":3950:3987   */\n  tag_72\n    /* \"#utility.yul\":3983:3986   */\n  dup3\n    /* \"#utility.yul\":3950:3987   */\n  tag_5\n  jump\t// in\ntag_72:\n    /* \"#utility.yul\":4052:4070   */\n  0xffffffffffffffff\n    /* \"#utility.yul\":4044:4050   */\n  dup2\n    /* \"#utility.yul\":4041:4071   */\n  gt\n    /* \"#utility.yul\":4038:4094   */\n  iszero\n  tag_73\n  jumpi\n    /* \"#utility.yul\":4074:4092   */\n  tag_74\n  tag_6\n  jump\t// in\ntag_74:\n    /* \"#utility.yul\":4038:4094   */\ntag_73:\n    /* \"#utility.yul\":4118:4156   */\n  tag_75\n    /* \"#utility.yul\":4150:4154   */\n  dup3\n    /* \"#utility.yul\":4144:4155   */\n  sload\n    /* \"#utility.yul\":4118:4156   */\n  tag_8\n  jump\t// in\ntag_75:\n    /* \"#utility.yul\":4203:4270   */\n  tag_76\n    /* \"#utility.yul\":4263:4269   */\n  dup3\n    /* \"#utility.yul\":4255:4261   */\n  dup3\n    /* \"#utility.yul\":4249:4253   */\n  dup6\n    /* \"#utility.yul\":4203:4270   */\n  tag_21\n  jump\t// in\ntag_76:\n    /* \"#utility.yul\":4297:4298   */\n  0x00\n    /* \"#utility.yul\":4321:4325   */\n  0x20\n    /* \"#utility.yul\":4308:4325   */\n  swap1\n  pop\n    /* \"#utility.yul\":4353:4355   */\n  0x1f\n    /* \"#utility.yul\":4345:4351   */\n  dup4\n    /* \"#utility.yul\":4342:4356   */\n  gt\n    /* \"#utility.yul\":4370:4371   */\n  0x01\n    /* \"#utility.yul\":4365:4983   */\n  dup2\n  eq\n  tag_78\n  jumpi\n    /* \"#utility.yul\":5027:5028   */\n  0x00\n    /* \"#utility.yul\":5044:5050   */\n  dup5\n    /* \"#utility.yul\":5041:5118   */\n  iszero\n  tag_79\n  jumpi\n    /* \"#utility.yul\":5093:5102   */\n  dup3\n    /* \"#utility.yul\":5088:5091   */\n  dup8\n    /* \"#utility.yul\":5084:5103   */\n  add\n    /* \"#utility.yul\":5078:5104   */\n  mload\n    /* \"#utility.yul\":5069:5104   */\n  swap1\n  pop\n    /* \"#utility.yul\":5041:5118   */\ntag_79:\n    /* \"#utility.yul\":5144:5211   */\n  tag_80\n    /* \"#utility.yul\":5204:5210   */\n  dup6\n    /* \"#utility.yul\":5197:5202   */\n  dup3\n    /* \"#utility.yul\":5144:5211   */\n  tag_24\n  jump\t// in\ntag_80:\n    /* \"#utility.yul\":5138:5142   */\n  dup7\n    /* \"#utility.yul\":5131:5212   */\n  sstore\n    /* \"#utility.yul\":5000:5222   */\n  pop\n    /* \"#utility.yul\":4335:5222   */\n  jump(tag_77)\n    /* \"#utility.yul\":4365:4983   */\ntag_78:\n    /* \"#utility.yul\":4417:4421   */\n  0x1f\n    /* \"#utility.yul\":4413:4422   */\n  not\n    /* \"#utility.yul\":4405:4411   */\n  dup5\n    /* \"#utility.yul\":4401:4423   */\n  and\n    /* \"#utility.yul\":4451:4488   */\n  tag_81\n    /* \"#utility.yul\":4483:4487   */\n  dup7\n    /* \"#utility.yul\":4451:4488   */\n  tag_9\n  jump\t// in\ntag_81:\n    /* \"#utility.yul\":4510:4511   */\n  0x00\n    /* \"#utility.yul\":4524:4732   */\ntag_82:\n    /* \"#utility.yul\":4538:4545   */\n  dup3\n    /* \"#utility.yul\":4535:4536   */\n  dup2\n    /* \"#utility.yul\":4532:4546   */\n  lt\n    /* \"#utility.yul\":4524:4732   */\n  iszero\n  tag_84\n  jumpi\n    /* \"#utility.yul\":4617:4626   */\n  dup5\n    /* \"#utility.yul\":4612:4615   */\n  dup10\n    /* \"#utility.yul\":4608:4627   */\n  add\n    /* \"#utility.yul\":4602:4628   */\n  mload\n    /* \"#utility.yul\":4594:4600   */\n  dup3\n    /* \"#utility.yul\":4587:4629   */\n  sstore\n    /* \"#utility.yul\":4668:4669   */\n  0x01\n    /* \"#utility.yul\":4660:4666   */\n  dup3\n    /* \"#utility.yul\":4656:4670   */\n  add\n    /* \"#utility.yul\":4646:4670   */\n  swap2\n  pop\n    /* \"#utility.yul\":4715:4717   */\n  0x20\n    /* \"#utility.yul\":4704:4713   */\n  dup6\n    /* \"#utility.yul\":4700:4718   */\n  add\n    /* \"#utility.yul\":4687:4718   */\n  swap5\n  pop\n    /* \"#utility.yul\":4561:4565   */\n  0x20\n    /* \"#utility.yul\":4558:4559   */\n  dup2\n    /* \"#utility.yul\":4554:4566   */\n  add\n    /* \"#utility.yul\":4549:4566   */\n  swap1\n  pop\n    /* \"#utility.yul\":4524:4732   */\n  jump(tag_82)\ntag_84:\n    /* \"#utility.yul\":4760:4766   */\n  dup7\n    /* \"#utility.yul\":4751:4758   */\n  dup4\n    /* \"#utility.yul\":4748:4767   */\n  lt\n    /* \"#utility.yul\":4745:4924   */\n  iszero\n  tag_85\n  jumpi\n    /* \"#utility.yul\":4818:4827   */\n  dup5\n    /* \"#utility.yul\":4813:4816   */\n  dup10\n    /* \"#utility.yul\":4809:4828   */\n  add\n    /* \"#utility.yul\":4803:4829   */\n  mload\n    /* \"#utility.yul\":4861:4909   */\n  tag_86\n    /* \"#utility.yul\":4903:4907   */\n  0x1f\n    /* \"#utility.yul\":4895:4901   */\n  dup10\n    /* \"#utility.yul\":4891:4908   */\n  and\n    /* \"#utility.yul\":4880:4889   */\n  dup3\n    /* \"#utility.yul\":4861:4909   */\n  tag_23\n  jump\t// in\ntag_86:\n    /* \"#utility.yul\":4853:4859   */\n  dup4\n    /* \"#utility.yul\":4846:4910   */\n  sstore\n    /* \"#utility.yul\":4768:4924   */\n  pop\n    /* \"#utility.yul\":4745:4924   */\ntag_85:\n    /* \"#utility.yul\":4970:4971   */\n  0x01\n    /* \"#utility.yul\":4966:4967   */\n  0x02\n    /* \"#utility.yul\":4958:4964   */\n  dup9\n    /* \"#utility.yul\":4954:4968   */\n  mul\n    /* \"#utility.yul\":4950:4972   */\n  add\n    /* \"#utility.yul\":4944:4948   */\n  dup9\n    /* \"#utility.yul\":4937:4973   */\n  sstore\n    /* \"#utility.yul\":4372:4983   */\n  pop\n  pop\n  pop\n    /* \"#utility.yul\":4335:5222   */\ntag_77:\n  pop\n    /* \"#utility.yul\":3925:5228   */\n  pop\n  pop\n  pop\n    /* \"#utility.yul\":3833:5228   */\n  pop\n  pop\n  jump\t// out\n    /* \"contracts/asa.sol\":61:2772  contract StringOperations {... */\ntag_4:\n  dataSize(sub_0)\n  dup1\n  dataOffset(sub_0)\n  0x00\n  codecopy\n  0x00\n  return\nstop\n\nsub_0: assembly {\n        /* \"contracts/asa.sol\":61:2772  contract StringOperations {... */\n      mstore(0x40, 0x80)\n      callvalue\n      dup1\n      iszero\n      tag_1\n      jumpi\n      0x00\n      dup1\n      revert\n    tag_1:\n      pop\n      jumpi(tag_2, lt(calldatasize, 0x04))\n      shr(0xe0, calldataload(0x00))\n      dup1\n      0x65c19af0\n      gt\n      tag_10\n      jumpi\n      dup1\n      0x65c19af0\n      eq\n      tag_6\n      jumpi\n      dup1\n      0x7a36b3ee\n      eq\n      tag_7\n      jumpi\n      dup1\n      0x7f2522ec\n      eq\n      tag_8\n      jumpi\n      dup1\n      0xbed34bba\n      eq\n      tag_9\n      jumpi\n      jump(tag_2)\n    tag_10:\n      dup1\n      0x02dd56d0\n      eq\n      tag_3\n      jumpi\n      dup1\n      0x11b142b2\n      eq\n      tag_4\n      jumpi\n      dup1\n      0x3ed0ca8c\n      eq\n      tag_5\n      jumpi\n    tag_2:\n      0x00\n      dup1\n      revert\n        /* \"contracts/asa.sol\":118:154  string public storedString = \"Hello\" */\n    tag_3:\n      tag_11\n      tag_12\n      jump\t// in\n    tag_11:\n      mload(0x40)\n      tag_13\n      swap2\n      swap1\n      tag_14\n      jump\t// in\n    tag_13:\n      mload(0x40)\n      dup1\n      swap2\n      sub\n      swap1\n      return\n        /* \"contracts/asa.sol\":2000:2593  function demonstrateEncoding(string memory str1, string memory str2) public pure returns (bytes memory, bytes memory, bytes memory) {... */\n    tag_4:\n      tag_15\n      0x04\n      dup1\n      calldatasize\n      sub\n      dup2\n      add\n      swap1\n      tag_16\n      swap2\n      swap1\n      tag_17\n      jump\t// in\n    tag_16:\n      tag_18\n      jump\t// in\n    tag_15:\n      mload(0x40)\n      tag_19\n      swap4\n      swap3\n      swap2\n      swap1\n      tag_20\n      jump\t// in\n    tag_19:\n      mload(0x40)\n      dup1\n      swap2\n      sub\n      swap1\n      return\n        /* \"contracts/asa.sol\":986:1158  function concatenateStringsLegacy(string memory str1, string memory str2) public pure returns (string memory) {... */\n    tag_5:\n      tag_21\n      0x04\n      dup1\n      calldatasize\n      sub\n      dup2\n      add\n      swap1\n      tag_22\n      swap2\n      swap1\n      tag_17\n      jump\t// in\n    tag_22:\n      tag_23\n      jump\t// in\n    tag_21:\n      mload(0x40)\n      tag_24\n      swap2\n      swap1\n      tag_14\n      jump\t// in\n    tag_24:\n      mload(0x40)\n      dup1\n      swap2\n      sub\n      swap1\n      return\n        /* \"contracts/asa.sol\":2652:2769  function getStringLength(string memory str) public pure returns (uint256) {... */\n    tag_6:\n      tag_25\n      0x04\n      dup1\n      calldatasize\n      sub\n      dup2\n      add\n      swap1\n      tag_26\n      swap2\n      swap1\n      tag_27\n      jump\t// in\n    tag_26:\n      tag_28\n      jump\t// in\n    tag_25:\n      mload(0x40)\n      tag_29\n      swap2\n      swap1\n      tag_30\n      jump\t// in\n    tag_29:\n      mload(0x40)\n      dup1\n      swap2\n      sub\n      swap1\n      return\n        /* \"contracts/asa.sol\":481:636  function concatenateStrings(string memory str1, string memory str2) public pure returns (string memory) {... */\n    tag_7:\n      tag_31\n      0x04\n      dup1\n      calldatasize\n      sub\n      dup2\n      add\n      swap1\n      tag_32\n      swap2\n      swap1\n      tag_17\n      jump\t// in\n    tag_32:\n      tag_33\n      jump\t// in\n    tag_31:\n      mload(0x40)\n      tag_34\n      swap2\n      swap1\n      tag_14\n      jump\t// in\n    tag_34:\n      mload(0x40)\n      dup1\n      swap2\n      sub\n      swap1\n      return\n        /* \"contracts/asa.sol\":720:922  function concatenateWithNumber(string memory str1, uint256 number, string memory str2) public pure returns (string memory) {... */\n    tag_8:\n      tag_35\n      0x04\n      dup1\n      calldatasize\n      sub\n      dup2\n      add\n      swap1\n      tag_36\n      swap2\n      swap1\n      tag_37\n      jump\t// in\n    tag_36:\n      tag_38\n      jump\t// in\n    tag_35:\n      mload(0x40)\n      tag_39\n      swap2\n      swap1\n      tag_14\n      jump\t// in\n    tag_39:\n      mload(0x40)\n      dup1\n      swap2\n      sub\n      swap1\n      return\n        /* \"contracts/asa.sol\":214:401  function compareStrings(string memory str1, string memory str2) public pure returns (bool) {... */\n    tag_9:\n      tag_40\n      0x04\n      dup1\n      calldatasize\n      sub\n      dup2\n      add\n      swap1\n      tag_41\n      swap2\n      swap1\n      tag_17\n      jump\t// in\n    tag_41:\n      tag_42\n      jump\t// in\n    tag_40:\n      mload(0x40)\n      tag_43\n      swap2\n      swap1\n      tag_44\n      jump\t// in\n    tag_43:\n      mload(0x40)\n      dup1\n      swap2\n      sub\n      swap1\n      return\n        /* \"contracts/asa.sol\":118:154  string public storedString = \"Hello\" */\n    tag_12:\n      0x00\n      dup1\n      sload\n      tag_45\n      swap1\n      tag_46\n      jump\t// in\n    tag_45:\n      dup1\n      0x1f\n      add\n      0x20\n      dup1\n      swap2\n      div\n      mul\n      0x20\n      add\n      mload(0x40)\n      swap1\n      dup2\n      add\n      0x40\n      mstore\n      dup1\n      swap3\n      swap2\n      swap1\n      dup2\n      dup2\n      mstore\n      0x20\n      add\n      dup3\n      dup1\n      sload\n      tag_47\n      swap1\n      tag_46\n      jump\t// in\n    tag_47:\n      dup1\n      iszero\n      tag_48\n      jumpi\n      dup1\n      0x1f\n      lt\n      tag_49\n      jumpi\n      0x0100\n      dup1\n      dup4\n      sload\n      div\n      mul\n      dup4\n      mstore\n      swap2\n      0x20\n      add\n      swap2\n      jump(tag_48)\n    tag_49:\n      dup3\n      add\n      swap2\n      swap1\n      0x00\n      mstore\n      keccak256(0x00, 0x20)\n      swap1\n    tag_50:\n      dup2\n      sload\n      dup2\n      mstore\n      swap1\n      0x01\n      add\n      swap1\n      0x20\n      add\n      dup1\n      dup4\n      gt\n      tag_50\n      jumpi\n      dup3\n      swap1\n      sub\n      0x1f\n      and\n      dup3\n      add\n      swap2\n    tag_48:\n      pop\n      pop\n      pop\n      pop\n      pop\n      dup2\n      jump\t// out\n        /* \"contracts/asa.sol\":2000:2593  function demonstrateEncoding(string memory str1, string memory str2) public pure returns (bytes memory, bytes memory, bytes memory) {... */\n    tag_18:\n        /* \"contracts/asa.sol\":2090:2102  bytes memory */\n      0x60\n        /* \"contracts/asa.sol\":2104:2116  bytes memory */\n      dup1\n        /* \"contracts/asa.sol\":2118:2130  bytes memory */\n      0x60\n        /* \"contracts/asa.sol\":2189:2209  bytes memory encoded */\n      0x00\n        /* \"contracts/asa.sol\":2223:2227  str1 */\n      dup6\n        /* \"contracts/asa.sol\":2229:2233  str2 */\n      dup6\n        /* \"contracts/asa.sol\":2212:2234  abi.encode(str1, str2) */\n      add(0x20, mload(0x40))\n      tag_52\n      swap3\n      swap2\n      swap1\n      tag_53\n      jump\t// in\n    tag_52:\n      mload(0x40)\n      0x20\n      dup2\n      dup4\n      sub\n      sub\n      dup2\n      mstore\n      swap1\n      0x40\n      mstore\n        /* \"contracts/asa.sol\":2189:2234  bytes memory encoded = abi.encode(str1, str2) */\n      swap1\n      pop\n        /* \"contracts/asa.sol\":2318:2344  bytes memory encodedPacked */\n      0x00\n        /* \"contracts/asa.sol\":2364:2368  str1 */\n      dup7\n        /* \"contracts/asa.sol\":2370:2374  str2 */\n      dup7\n        /* \"contracts/asa.sol\":2347:2375  abi.encodePacked(str1, str2) */\n      add(0x20, mload(0x40))\n      tag_54\n      swap3\n      swap2\n      swap1\n      tag_55\n      jump\t// in\n    tag_54:\n      mload(0x40)\n      0x20\n      dup2\n      dup4\n      sub\n      sub\n      dup2\n      mstore\n      swap1\n      0x40\n      mstore\n        /* \"contracts/asa.sol\":2318:2375  bytes memory encodedPacked = abi.encodePacked(str1, str2) */\n      swap1\n      pop\n        /* \"contracts/asa.sol\":2446:2465  bytes memory hashed */\n      0x00\n        /* \"contracts/asa.sol\":2512:2516  str1 */\n      dup8\n        /* \"contracts/asa.sol\":2518:2522  str2 */\n      dup8\n        /* \"contracts/asa.sol\":2495:2523  abi.encodePacked(str1, str2) */\n      add(0x20, mload(0x40))\n      tag_56\n      swap3\n      swap2\n      swap1\n      tag_55\n      jump\t// in\n    tag_56:\n      mload(0x40)\n      0x20\n      dup2\n      dup4\n      sub\n      sub\n      dup2\n      mstore\n      swap1\n      0x40\n      mstore\n        /* \"contracts/asa.sol\":2485:2524  keccak256(abi.encodePacked(str1, str2)) */\n      dup1\n      mload\n      swap1\n      0x20\n      add\n      keccak256\n        /* \"contracts/asa.sol\":2468:2525  abi.encodePacked(keccak256(abi.encodePacked(str1, str2))) */\n      add(0x20, mload(0x40))\n      tag_57\n      swap2\n      swap1\n      tag_58\n      jump\t// in\n    tag_57:\n      mload(0x40)\n      0x20\n      dup2\n      dup4\n      sub\n      sub\n      dup2\n      mstore\n      swap1\n      0x40\n      mstore\n        /* \"contracts/asa.sol\":2446:2525  bytes memory hashed = abi.encodePacked(keccak256(abi.encodePacked(str1, str2))) */\n      swap1\n      pop\n        /* \"contracts/asa.sol\":2554:2561  encoded */\n      dup3\n        /* \"contracts/asa.sol\":2563:2576  encodedPacked */\n      dup3\n        /* \"contracts/asa.sol\":2578:2584  hashed */\n      dup3\n        /* \"contracts/asa.sol\":2546:2585  return (encoded, encodedPacked, hashed) */\n      swap6\n      pop\n      swap6\n      pop\n      swap6\n      pop\n      pop\n      pop\n      pop\n        /* \"contracts/asa.sol\":2000:2593  function demonstrateEncoding(string memory str1, string memory str2) public pure returns (bytes memory, bytes memory, bytes memory) {... */\n      swap3\n      pop\n      swap3\n      pop\n      swap3\n      jump\t// out\n        /* \"contracts/asa.sol\":986:1158  function concatenateStringsLegacy(string memory str1, string memory str2) public pure returns (string memory) {... */\n    tag_23:\n        /* \"contracts/asa.sol\":1081:1094  string memory */\n      0x60\n        /* \"contracts/asa.sol\":1138:1142  str1 */\n      dup3\n        /* \"contracts/asa.sol\":1144:1148  str2 */\n      dup3\n        /* \"contracts/asa.sol\":1121:1149  abi.encodePacked(str1, str2) */\n      add(0x20, mload(0x40))\n      tag_60\n      swap3\n      swap2\n      swap1\n      tag_55\n      jump\t// in\n    tag_60:\n      mload(0x40)\n      0x20\n      dup2\n      dup4\n      sub\n      sub\n      dup2\n      mstore\n      swap1\n      0x40\n      mstore\n        /* \"contracts/asa.sol\":1107:1150  return string(abi.encodePacked(str1, str2)) */\n      swap1\n      pop\n        /* \"contracts/asa.sol\":986:1158  function concatenateStringsLegacy(string memory str1, string memory str2) public pure returns (string memory) {... */\n      swap3\n      swap2\n      pop\n      pop\n      jump\t// out\n        /* \"contracts/asa.sol\":2652:2769  function getStringLength(string memory str) public pure returns (uint256) {... */\n    tag_28:\n        /* \"contracts/asa.sol\":2717:2724  uint256 */\n      0x00\n        /* \"contracts/asa.sol\":2750:2753  str */\n      dup2\n        /* \"contracts/asa.sol\":2744:2761  bytes(str).length */\n      mload\n        /* \"contracts/asa.sol\":2737:2761  return bytes(str).length */\n      swap1\n      pop\n        /* \"contracts/asa.sol\":2652:2769  function getStringLength(string memory str) public pure returns (uint256) {... */\n      swap2\n      swap1\n      pop\n      jump\t// out\n        /* \"contracts/asa.sol\":481:636  function concatenateStrings(string memory str1, string memory str2) public pure returns (string memory) {... */\n    tag_33:\n        /* \"contracts/asa.sol\":570:583  string memory */\n      0x60\n        /* \"contracts/asa.sol\":617:621  str1 */\n      dup3\n        /* \"contracts/asa.sol\":623:627  str2 */\n      dup3\n        /* \"contracts/asa.sol\":603:628  string.concat(str1, str2) */\n      add(0x20, mload(0x40))\n      tag_63\n      swap3\n      swap2\n      swap1\n      tag_55\n      jump\t// in\n    tag_63:\n      mload(0x40)\n      0x20\n      dup2\n      dup4\n      sub\n      sub\n      dup2\n      mstore\n      swap1\n      0x40\n      mstore\n        /* \"contracts/asa.sol\":596:628  return string.concat(str1, str2) */\n      swap1\n      pop\n        /* \"contracts/asa.sol\":481:636  function concatenateStrings(string memory str1, string memory str2) public pure returns (string memory) {... */\n      swap3\n      swap2\n      pop\n      pop\n      jump\t// out\n        /* \"contracts/asa.sol\":720:922  function concatenateWithNumber(string memory str1, uint256 number, string memory str2) public pure returns (string memory) {... */\n    tag_38:\n        /* \"contracts/asa.sol\":828:841  string memory */\n      0x60\n        /* \"contracts/asa.sol\":875:879  str1 */\n      dup4\n        /* \"contracts/asa.sol\":886:902  toString(number) */\n      tag_65\n        /* \"contracts/asa.sol\":895:901  number */\n      dup5\n        /* \"contracts/asa.sol\":886:894  toString */\n      tag_66\n        /* \"contracts/asa.sol\":886:902  toString(number) */\n      jump\t// in\n    tag_65:\n        /* \"contracts/asa.sol\":909:913  str2 */\n      dup4\n        /* \"contracts/asa.sol\":861:914  string.concat(str1, \" \", toString(number), \" \", str2) */\n      add(0x20, mload(0x40))\n      tag_67\n      swap4\n      swap3\n      swap2\n      swap1\n      tag_68\n      jump\t// in\n    tag_67:\n      mload(0x40)\n      0x20\n      dup2\n      dup4\n      sub\n      sub\n      dup2\n      mstore\n      swap1\n      0x40\n      mstore\n        /* \"contracts/asa.sol\":854:914  return string.concat(str1, \" \", toString(number), \" \", str2) */\n      swap1\n      pop\n        /* \"contracts/asa.sol\":720:922  function concatenateWithNumber(string memory str1, uint256 number, string memory str2) public pure returns (string memory) {... */\n      swap4\n      swap3\n      pop\n      pop\n      pop\n      jump\t// out\n        /* \"contracts/asa.sol\":214:401  function compareStrings(string memory str1, string memory str2) public pure returns (bool) {... */\n    tag_42:\n        /* \"contracts/asa.sol\":299:303  bool */\n      0x00\n        /* \"contracts/asa.sol\":387:391  str2 */\n      dup2\n        /* \"contracts/asa.sol\":370:392  abi.encodePacked(str2) */\n      add(0x20, mload(0x40))\n      tag_70\n      swap2\n      swap1\n      tag_71\n      jump\t// in\n    tag_70:\n      mload(0x40)\n      0x20\n      dup2\n      dup4\n      sub\n      sub\n      dup2\n      mstore\n      swap1\n      0x40\n      mstore\n        /* \"contracts/asa.sol\":360:393  keccak256(abi.encodePacked(str2)) */\n      dup1\n      mload\n      swap1\n      0x20\n      add\n      keccak256\n        /* \"contracts/asa.sol\":350:354  str1 */\n      dup4\n        /* \"contracts/asa.sol\":333:355  abi.encodePacked(str1) */\n      add(0x20, mload(0x40))\n      tag_72\n      swap2\n      swap1\n      tag_71\n      jump\t// in\n    tag_72:\n      mload(0x40)\n      0x20\n      dup2\n      dup4\n      sub\n      sub\n      dup2\n      mstore\n      swap1\n      0x40\n      mstore\n        /* \"contracts/asa.sol\":323:356  keccak256(abi.encodePacked(str1)) */\n      dup1\n      mload\n      swap1\n      0x20\n      add\n      keccak256\n        /* \"contracts/asa.sol\":323:393  keccak256(abi.encodePacked(str1)) == keccak256(abi.encodePacked(str2)) */\n      eq\n        /* \"contracts/asa.sol\":316:393  return keccak256(abi.encodePacked(str1)) == keccak256(abi.encodePacked(str2)) */\n      swap1\n      pop\n        /* \"contracts/asa.sol\":214:401  function compareStrings(string memory str1, string memory str2) public pure returns (bool) {... */\n      swap3\n      swap2\n      pop\n      pop\n      jump\t// out\n        /* \"contracts/asa.sol\":1231:1941  function toString(uint256 value) internal pure returns (string memory) {... */\n    tag_66:\n        /* \"contracts/asa.sol\":1287:1300  string memory */\n      0x60\n        /* \"contracts/asa.sol\":1357:1358  0 */\n      0x00\n        /* \"contracts/asa.sol\":1348:1353  value */\n      dup3\n        /* \"contracts/asa.sol\":1348:1358  value == 0 */\n      sub\n        /* \"contracts/asa.sol\":1344:1397  if (value == 0) {... */\n      tag_74\n      jumpi\n        /* \"contracts/asa.sol\":1375:1385  return \"0\" */\n      mload(0x40)\n      dup1\n      0x40\n      add\n      0x40\n      mstore\n      dup1\n      0x01\n      dup2\n      mstore\n      0x20\n      add\n      0x3000000000000000000000000000000000000000000000000000000000000000\n      dup2\n      mstore\n      pop\n      swap1\n      pop\n      jump(tag_73)\n        /* \"contracts/asa.sol\":1344:1397  if (value == 0) {... */\n    tag_74:\n        /* \"contracts/asa.sol\":1450:1462  uint256 temp */\n      0x00\n        /* \"contracts/asa.sol\":1465:1470  value */\n      dup3\n        /* \"contracts/asa.sol\":1450:1470  uint256 temp = value */\n      swap1\n      pop\n        /* \"contracts/asa.sol\":1481:1495  uint256 digits */\n      0x00\n        /* \"contracts/asa.sol\":1506:1584  while (temp != 0) {... */\n    tag_75:\n        /* \"contracts/asa.sol\":1521:1522  0 */\n      0x00\n        /* \"contracts/asa.sol\":1513:1517  temp */\n      dup3\n        /* \"contracts/asa.sol\":1513:1522  temp != 0 */\n      eq\n        /* \"contracts/asa.sol\":1506:1584  while (temp != 0) {... */\n      tag_76\n      jumpi\n        /* \"contracts/asa.sol\":1539:1547  digits++ */\n      dup1\n      dup1\n      tag_77\n      swap1\n      tag_78\n      jump\t// in\n    tag_77:\n      swap2\n      pop\n      pop\n        /* \"contracts/asa.sol\":1570:1572  10 */\n      0x0a\n        /* \"contracts/asa.sol\":1562:1572  temp /= 10 */\n      dup3\n      tag_79\n      swap2\n      swap1\n      tag_80\n      jump\t// in\n    tag_79:\n      swap2\n      pop\n        /* \"contracts/asa.sol\":1506:1584  while (temp != 0) {... */\n      jump(tag_75)\n    tag_76:\n        /* \"contracts/asa.sol\":1635:1654  bytes memory buffer */\n      0x00\n        /* \"contracts/asa.sol\":1667:1673  digits */\n      dup2\n        /* \"contracts/asa.sol\":1657:1674  new bytes(digits) */\n      0xffffffffffffffff\n      dup2\n      gt\n      iszero\n      tag_81\n      jumpi\n      tag_82\n      tag_83\n      jump\t// in\n    tag_82:\n    tag_81:\n      mload(0x40)\n      swap1\n      dup1\n      dup3\n      mstore\n      dup1\n      0x1f\n      add\n      not(0x1f)\n      and\n      0x20\n      add\n      dup3\n      add\n      0x40\n      mstore\n      dup1\n      iszero\n      tag_84\n      jumpi\n      dup2\n      0x20\n      add\n      0x01\n      dup3\n      mul\n      dup1\n      calldatasize\n      dup4\n      calldatacopy\n      dup1\n      dup3\n      add\n      swap2\n      pop\n      pop\n      swap1\n      pop\n    tag_84:\n      pop\n        /* \"contracts/asa.sol\":1635:1674  bytes memory buffer = new bytes(digits) */\n      swap1\n      pop\n        /* \"contracts/asa.sol\":1738:1892  while (value != 0) {... */\n    tag_85:\n        /* \"contracts/asa.sol\":1754:1755  0 */\n      0x00\n        /* \"contracts/asa.sol\":1745:1750  value */\n      dup6\n        /* \"contracts/asa.sol\":1745:1755  value != 0 */\n      eq\n        /* \"contracts/asa.sol\":1738:1892  while (value != 0) {... */\n      tag_86\n      jumpi\n        /* \"contracts/asa.sol\":1782:1783  1 */\n      0x01\n        /* \"contracts/asa.sol\":1772:1783  digits -= 1 */\n      dup3\n      tag_87\n      swap2\n      swap1\n      tag_88\n      jump\t// in\n    tag_87:\n      swap2\n      pop\n        /* \"contracts/asa.sol\":1849:1851  10 */\n      0x0a\n        /* \"contracts/asa.sol\":1841:1846  value */\n      dup6\n        /* \"contracts/asa.sol\":1841:1851  value % 10 */\n      tag_89\n      swap2\n      swap1\n      tag_90\n      jump\t// in\n    tag_89:\n        /* \"contracts/asa.sol\":1828:1830  48 */\n      0x30\n        /* \"contracts/asa.sol\":1828:1852  48 + uint256(value % 10) */\n      tag_91\n      swap2\n      swap1\n      tag_92\n      jump\t// in\n    tag_91:\n        /* \"contracts/asa.sol\":1815:1854  bytes1(uint8(48 + uint256(value % 10))) */\n      0xf8\n      shl\n        /* \"contracts/asa.sol\":1798:1804  buffer */\n      dup2\n        /* \"contracts/asa.sol\":1805:1811  digits */\n      dup4\n        /* \"contracts/asa.sol\":1798:1812  buffer[digits] */\n      dup2\n      mload\n      dup2\n      lt\n      tag_93\n      jumpi\n      tag_94\n      tag_95\n      jump\t// in\n    tag_94:\n    tag_93:\n      0x20\n      add\n      add\n        /* \"contracts/asa.sol\":1798:1854  buffer[digits] = bytes1(uint8(48 + uint256(value % 10))) */\n      swap1\n      not(0xffffffffffffffffffffffffffffffffffffffffffffffffffffffffffffff)\n      and\n      swap1\n      dup2\n      0x00\n      byte\n      swap1\n      mstore8\n      pop\n        /* \"contracts/asa.sol\":1878:1880  10 */\n      0x0a\n        /* \"contracts/asa.sol\":1869:1880  value /= 10 */\n      dup6\n      tag_96\n      swap2\n      swap1\n      tag_80\n      jump\t// in\n    tag_96:\n      swap5\n      pop\n        /* \"contracts/asa.sol\":1738:1892  while (value != 0) {... */\n      jump(tag_85)\n    tag_86:\n        /* \"contracts/asa.sol\":1926:1932  buffer */\n      dup1\n        /* \"contracts/asa.sol\":1912:1933  return string(buffer) */\n      swap4\n      pop\n      pop\n      pop\n      pop\n        /* \"contracts/asa.sol\":1231:1941  function toString(uint256 value) internal pure returns (string memory) {... */\n    tag_73:\n      swap2\n      swap1\n      pop\n      jump\t// out\n        /* \"#utility.yul\":7:106   */\n    tag_97:\n        /* \"#utility.yul\":59:65   */\n      0x00\n        /* \"#utility.yul\":93:98   */\n      dup2\n        /* \"#utility.yul\":87:99   */\n      mload\n        /* \"#utility.yul\":77:99   */\n      swap1\n      pop\n        /* \"#utility.yul\":7:106   */\n      swap2\n      swap1\n      pop\n      jump\t// out\n        /* \"#utility.yul\":112:281   */\n    tag_98:\n        /* \"#utility.yul\":196:207   */\n      0x00\n        /* \"#utility.yul\":230:236   */\n      dup3\n        /* \"#utility.yul\":225:228   */\n      dup3\n        /* \"#utility.yul\":218:237   */\n      mstore\n        /* \"#utility.yul\":270:274   */\n      0x20\n        /* \"#utility.yul\":265:268   */\n      dup3\n        /* \"#utility.yul\":261:275   */\n      add\n        /* \"#utility.yul\":246:275   */\n      swap1\n      pop\n        /* \"#utility.yul\":112:281   */\n      swap3\n      swap2\n      pop\n      pop\n      jump\t// out\n        /* \"#utility.yul\":287:533   */\n    tag_99:\n        /* \"#utility.yul\":368:369   */\n      0x00\n        /* \"#utility.yul\":378:491   */\n    tag_135:\n        /* \"#utility.yul\":392:398   */\n      dup4\n        /* \"#utility.yul\":389:390   */\n      dup2\n        /* \"#utility.yul\":386:399   */\n      lt\n        /* \"#utility.yul\":378:491   */\n      iszero\n      tag_137\n      jumpi\n        /* \"#utility.yul\":477:478   */\n      dup1\n        /* \"#utility.yul\":472:475   */\n      dup3\n        /* \"#utility.yul\":468:479   */\n      add\n        /* \"#utility.yul\":462:480   */\n      mload\n        /* \"#utility.yul\":458:459   */\n      dup2\n        /* \"#utility.yul\":453:456   */\n      dup5\n        /* \"#utility.yul\":449:460   */\n      add\n        /* \"#utility.yul\":442:481   */\n      mstore\n        /* \"#utility.yul\":414:416   */\n      0x20\n        /* \"#utility.yul\":411:412   */\n      dup2\n        /* \"#utility.yul\":407:417   */\n      add\n        /* \"#utility.yul\":402:417   */\n      swap1\n      pop\n        /* \"#utility.yul\":378:491   */\n      jump(tag_135)\n    tag_137:\n        /* \"#utility.yul\":525:526   */\n      0x00\n        /* \"#utility.yul\":516:522   */\n      dup5\n        /* \"#utility.yul\":511:514   */\n      dup5\n        /* \"#utility.yul\":507:523   */\n      add\n        /* \"#utility.yul\":500:527   */\n      mstore\n        /* \"#utility.yul\":349:533   */\n      pop\n        /* \"#utility.yul\":287:533   */\n      pop\n      pop\n      pop\n      jump\t// out\n        /* \"#utility.yul\":539:641   */\n    tag_100:\n        /* \"#utility.yul\":580:586   */\n      0x00\n        /* \"#utility.yul\":631:633   */\n      0x1f\n        /* \"#utility.yul\":627:634   */\n      not\n        /* \"#utility.yul\":622:624   */\n      0x1f\n        /* \"#utility.yul\":615:620   */\n      dup4\n        /* \"#utility.yul\":611:625   */\n      add\n        /* \"#utility.yul\":607:635   */\n      and\n        /* \"#utility.yul\":597:635   */\n      swap1\n      pop\n        /* \"#utility.yul\":539:641   */\n      swap2\n      swap1\n      pop\n      jump\t// out\n        /* \"#utility.yul\":647:1024   */\n    tag_101:\n        /* \"#utility.yul\":735:738   */\n      0x00\n        /* \"#utility.yul\":763:802   */\n      tag_140\n        /* \"#utility.yul\":796:801   */\n      dup3\n        /* \"#utility.yul\":763:802   */\n      tag_97\n      jump\t// in\n    tag_140:\n        /* \"#utility.yul\":818:889   */\n      tag_141\n        /* \"#utility.yul\":882:888   */\n      dup2\n        /* \"#utility.yul\":877:880   */\n      dup6\n        /* \"#utility.yul\":818:889   */\n      tag_98\n      jump\t// in\n    tag_141:\n        /* \"#utility.yul\":811:889   */\n      swap4\n      pop\n        /* \"#utility.yul\":898:963   */\n      tag_142\n        /* \"#utility.yul\":956:962   */\n      dup2\n        /* \"#utility.yul\":951:954   */\n      dup6\n        /* \"#utility.yul\":944:948   */\n      0x20\n        /* \"#utility.yul\":937:942   */\n      dup7\n        /* \"#utility.yul\":933:949   */\n      add\n        /* \"#utility.yul\":898:963   */\n      tag_99\n      jump\t// in\n    tag_142:\n        /* \"#utility.yul\":988:1017   */\n      tag_143\n        /* \"#utility.yul\":1010:1016   */\n      dup2\n        /* \"#utility.yul\":988:1017   */\n      tag_100\n      jump\t// in\n    tag_143:\n        /* \"#utility.yul\":983:986   */\n      dup5\n        /* \"#utility.yul\":979:1018   */\n      add\n        /* \"#utility.yul\":972:1018   */\n      swap2\n      pop\n        /* \"#utility.yul\":739:1024   */\n      pop\n        /* \"#utility.yul\":647:1024   */\n      swap3\n      swap2\n      pop\n      pop\n      jump\t// out\n        /* \"#utility.yul\":1030:1343   */\n    tag_14:\n        /* \"#utility.yul\":1143:1147   */\n      0x00\n        /* \"#utility.yul\":1181:1183   */\n      0x20\n        /* \"#utility.yul\":1170:1179   */\n      dup3\n        /* \"#utility.yul\":1166:1184   */\n      add\n        /* \"#utility.yul\":1158:1184   */\n      swap1\n      pop\n        /* \"#utility.yul\":1230:1239   */\n      dup2\n        /* \"#utility.yul\":1224:1228   */\n      dup2\n        /* \"#utility.yul\":1220:1240   */\n      sub\n        /* \"#utility.yul\":1216:1217   */\n      0x00\n        /* \"#utility.yul\":1205:1214   */\n      dup4\n        /* \"#utility.yul\":1201:1218   */\n      add\n        /* \"#utility.yul\":1194:1241   */\n      mstore\n        /* \"#utility.yul\":1258:1336   */\n      tag_145\n        /* \"#utility.yul\":1331:1335   */\n      dup2\n        /* \"#utility.yul\":1322:1328   */\n      dup5\n        /* \"#utility.yul\":1258:1336   */\n      tag_101\n      jump\t// in\n    tag_145:\n        /* \"#utility.yul\":1250:1336   */\n      swap1\n      pop\n        /* \"#utility.yul\":1030:1343   */\n      swap3\n      swap2\n      pop\n      pop\n      jump\t// out\n        /* \"#utility.yul\":1349:1424   */\n    tag_102:\n        /* \"#utility.yul\":1382:1388   */\n      0x00\n        /* \"#utility.yul\":1415:1417   */\n      0x40\n        /* \"#utility.yul\":1409:1418   */\n      mload\n        /* \"#utility.yul\":1399:1418   */\n      swap1\n      pop\n        /* \"#utility.yul\":1349:1424   */\n      swap1\n      jump\t// out\n        /* \"#utility.yul\":1430:1547   */\n    tag_103:\n        /* \"#utility.yul\":1539:1540   */\n      0x00\n        /* \"#utility.yul\":1536:1537   */\n      dup1\n        /* \"#utility.yul\":1529:1541   */\n      revert\n        /* \"#utility.yul\":1553:1670   */\n    tag_104:\n        /* \"#utility.yul\":1662:1663   */\n      0x00\n        /* \"#utility.yul\":1659:1660   */\n      dup1\n        /* \"#utility.yul\":1652:1664   */\n      revert\n        /* \"#utility.yul\":1676:1793   */\n    tag_105:\n        /* \"#utility.yul\":1785:1786   */\n      0x00\n        /* \"#utility.yul\":1782:1783   */\n      dup1\n        /* \"#utility.yul\":1775:1787   */\n      revert\n        /* \"#utility.yul\":1799:1916   */\n    tag_106:\n        /* \"#utility.yul\":1908:1909   */\n      0x00\n        /* \"#utility.yul\":1905:1906   */\n      dup1\n        /* \"#utility.yul\":1898:1910   */\n      revert\n        /* \"#utility.yul\":1922:2102   */\n    tag_83:\n        /* \"#utility.yul\":1970:2047   */\n      0x4e487b7100000000000000000000000000000000000000000000000000000000\n        /* \"#utility.yul\":1967:1968   */\n      0x00\n        /* \"#utility.yul\":1960:2048   */\n      mstore\n        /* \"#utility.yul\":2067:2071   */\n      0x41\n        /* \"#utility.yul\":2064:2065   */\n      0x04\n        /* \"#utility.yul\":2057:2072   */\n      mstore\n        /* \"#utility.yul\":2091:2095   */\n      0x24\n        /* \"#utility.yul\":2088:2089   */\n      0x00\n        /* \"#utility.yul\":2081:2096   */\n      revert\n        /* \"#utility.yul\":2108:2389   */\n    tag_107:\n        /* \"#utility.yul\":2191:2218   */\n      tag_153\n        /* \"#utility.yul\":2213:2217   */\n      dup3\n        /* \"#utility.yul\":2191:2218   */\n      tag_100\n      jump\t// in\n    tag_153:\n        /* \"#utility.yul\":2183:2189   */\n      dup2\n        /* \"#utility.yul\":2179:2219   */\n      add\n        /* \"#utility.yul\":2321:2327   */\n      dup2\n        /* \"#utility.yul\":2309:2319   */\n      dup2\n        /* \"#utility.yul\":2306:2328   */\n      lt\n        /* \"#utility.yul\":2285:2303   */\n      0xffffffffffffffff\n        /* \"#utility.yul\":2273:2283   */\n      dup3\n        /* \"#utility.yul\":2270:2304   */\n      gt\n        /* \"#utility.yul\":2267:2329   */\n      or\n        /* \"#utility.yul\":2264:2352   */\n      iszero\n      tag_154\n      jumpi\n        /* \"#utility.yul\":2332:2350   */\n      tag_155\n      tag_83\n      jump\t// in\n    tag_155:\n        /* \"#utility.yul\":2264:2352   */\n    tag_154:\n        /* \"#utility.yul\":2372:2382   */\n      dup1\n        /* \"#utility.yul\":2368:2370   */\n      0x40\n        /* \"#utility.yul\":2361:2383   */\n      mstore\n        /* \"#utility.yul\":2151:2389   */\n      pop\n        /* \"#utility.yul\":2108:2389   */\n      pop\n      pop\n      jump\t// out\n        /* \"#utility.yul\":2395:2524   */\n    tag_108:\n        /* \"#utility.yul\":2429:2435   */\n      0x00\n        /* \"#utility.yul\":2456:2476   */\n      tag_157\n      tag_102\n      jump\t// in\n    tag_157:\n        /* \"#utility.yul\":2446:2476   */\n      swap1\n      pop\n        /* \"#utility.yul\":2485:2518   */\n      tag_158\n        /* \"#utility.yul\":2513:2517   */\n      dup3\n        /* \"#utility.yul\":2505:2511   */\n      dup3\n        /* \"#utility.yul\":2485:2518   */\n      tag_107\n      jump\t// in\n    tag_158:\n        /* \"#utility.yul\":2395:2524   */\n      swap2\n      swap1\n      pop\n      jump\t// out\n        /* \"#utility.yul\":2530:2838   */\n    tag_109:\n        /* \"#utility.yul\":2592:2596   */\n      0x00\n        /* \"#utility.yul\":2682:2700   */\n      0xffffffffffffffff\n        /* \"#utility.yul\":2674:2680   */\n      dup3\n        /* \"#utility.yul\":2671:2701   */\n      gt\n        /* \"#utility.yul\":2668:2724   */\n      iszero\n      tag_160\n      jumpi\n        /* \"#utility.yul\":2704:2722   */\n      tag_161\n      tag_83\n      jump\t// in\n    tag_161:\n        /* \"#utility.yul\":2668:2724   */\n    tag_160:\n        /* \"#utility.yul\":2742:2771   */\n      tag_162\n        /* \"#utility.yul\":2764:2770   */\n      dup3\n        /* \"#utility.yul\":2742:2771   */\n      tag_100\n      jump\t// in\n    tag_162:\n        /* \"#utility.yul\":2734:2771   */\n      swap1\n      pop\n        /* \"#utility.yul\":2826:2830   */\n      0x20\n        /* \"#utility.yul\":2820:2824   */\n      dup2\n        /* \"#utility.yul\":2816:2831   */\n      add\n        /* \"#utility.yul\":2808:2831   */\n      swap1\n      pop\n        /* \"#utility.yul\":2530:2838   */\n      swap2\n      swap1\n      pop\n      jump\t// out\n        /* \"#utility.yul\":2844:2990   */\n    tag_110:\n        /* \"#utility.yul\":2941:2947   */\n      dup3\n        /* \"#utility.yul\":2936:2939   */\n      dup2\n        /* \"#utility.yul\":2931:2934   */\n      dup4\n        /* \"#utility.yul\":2918:2948   */\n      calldatacopy\n        /* \"#utility.yul\":2982:2983   */\n      0x00\n        /* \"#utility.yul\":2973:2979   */\n      dup4\n        /* \"#utility.yul\":2968:2971   */\n      dup4\n        /* \"#utility.yul\":2964:2980   */\n      add\n        /* \"#utility.yul\":2957:2984   */\n      mstore\n        /* \"#utility.yul\":2844:2990   */\n      pop\n      pop\n      pop\n      jump\t// out\n        /* \"#utility.yul\":2996:3421   */\n    tag_111:\n        /* \"#utility.yul\":3074:3079   */\n      0x00\n        /* \"#utility.yul\":3099:3165   */\n      tag_165\n        /* \"#utility.yul\":3115:3164   */\n      tag_166\n        /* \"#utility.yul\":3157:3163   */\n      dup5\n        /* \"#utility.yul\":3115:3164   */\n      tag_109\n      jump\t// in\n    tag_166:\n        /* \"#utility.yul\":3099:3165   */\n      tag_108\n      jump\t// in\n    tag_165:\n        /* \"#utility.yul\":3090:3165   */\n      swap1\n      pop\n        /* \"#utility.yul\":3188:3194   */\n      dup3\n        /* \"#utility.yul\":3181:3186   */\n      dup2\n        /* \"#utility.yul\":3174:3195   */\n      mstore\n        /* \"#utility.yul\":3226:3230   */\n      0x20\n        /* \"#utility.yul\":3219:3224   */\n      dup2\n        /* \"#utility.yul\":3215:3231   */\n      add\n        /* \"#utility.yul\":3264:3267   */\n      dup5\n        /* \"#utility.yul\":3255:3261   */\n      dup5\n        /* \"#utility.yul\":3250:3253   */\n      dup5\n        /* \"#utility.yul\":3246:3262   */\n      add\n        /* \"#utility.yul\":3243:3268   */\n      gt\n        /* \"#utility.yul\":3240:3352   */\n      iszero\n      tag_167\n      jumpi\n        /* \"#utility.yul\":3271:3350   */\n      tag_168\n      tag_106\n      jump\t// in\n    tag_168:\n        /* \"#utility.yul\":3240:3352   */\n    tag_167:\n        /* \"#utility.yul\":3361:3415   */\n      tag_169\n        /* \"#utility.yul\":3408:3414   */\n      dup5\n        /* \"#utility.yul\":3403:3406   */\n      dup3\n        /* \"#utility.yul\":3398:3401   */\n      dup6\n        /* \"#utility.yul\":3361:3415   */\n      tag_110\n      jump\t// in\n    tag_169:\n        /* \"#utility.yul\":3080:3421   */\n      pop\n        /* \"#utility.yul\":2996:3421   */\n      swap4\n      swap3\n      pop\n      pop\n      pop\n      jump\t// out\n        /* \"#utility.yul\":3441:3781   */\n    tag_112:\n        /* \"#utility.yul\":3497:3502   */\n      0x00\n        /* \"#utility.yul\":3546:3549   */\n      dup3\n        /* \"#utility.yul\":3539:3543   */\n      0x1f\n        /* \"#utility.yul\":3531:3537   */\n      dup4\n        /* \"#utility.yul\":3527:3544   */\n      add\n        /* \"#utility.yul\":3523:3550   */\n      slt\n        /* \"#utility.yul\":3513:3635   */\n      tag_171\n      jumpi\n        /* \"#utility.yul\":3554:3633   */\n      tag_172\n      tag_105\n      jump\t// in\n    tag_172:\n        /* \"#utility.yul\":3513:3635   */\n    tag_171:\n        /* \"#utility.yul\":3671:3677   */\n      dup2\n        /* \"#utility.yul\":3658:3678   */\n      calldataload\n        /* \"#utility.yul\":3696:3775   */\n      tag_173\n        /* \"#utility.yul\":3771:3774   */\n      dup5\n        /* \"#utility.yul\":3763:3769   */\n      dup3\n        /* \"#utility.yul\":3756:3760   */\n      0x20\n        /* \"#utility.yul\":3748:3754   */\n      dup7\n        /* \"#utility.yul\":3744:3761   */\n      add\n        /* \"#utility.yul\":3696:3775   */\n      tag_111\n      jump\t// in\n    tag_173:\n        /* \"#utility.yul\":3687:3775   */\n      swap2\n      pop\n        /* \"#utility.yul\":3503:3781   */\n      pop\n        /* \"#utility.yul\":3441:3781   */\n      swap3\n      swap2\n      pop\n      pop\n      jump\t// out\n        /* \"#utility.yul\":3787:4621   */\n    tag_17:\n        /* \"#utility.yul\":3875:3881   */\n      0x00\n        /* \"#utility.yul\":3883:3889   */\n      dup1\n        /* \"#utility.yul\":3932:3934   */\n      0x40\n        /* \"#utility.yul\":3920:3929   */\n      dup4\n        /* \"#utility.yul\":3911:3918   */\n      dup6\n        /* \"#utility.yul\":3907:3930   */\n      sub\n        /* \"#utility.yul\":3903:3935   */\n      slt\n        /* \"#utility.yul\":3900:4019   */\n      iszero\n      tag_175\n      jumpi\n        /* \"#utility.yul\":3938:4017   */\n      tag_176\n      tag_103\n      jump\t// in\n    tag_176:\n        /* \"#utility.yul\":3900:4019   */\n    tag_175:\n        /* \"#utility.yul\":4086:4087   */\n      0x00\n        /* \"#utility.yul\":4075:4084   */\n      dup4\n        /* \"#utility.yul\":4071:4088   */\n      add\n        /* \"#utility.yul\":4058:4089   */\n      calldataload\n        /* \"#utility.yul\":4116:4134   */\n      0xffffffffffffffff\n        /* \"#utility.yul\":4108:4114   */\n      dup2\n        /* \"#utility.yul\":4105:4135   */\n      gt\n        /* \"#utility.yul\":4102:4219   */\n      iszero\n      tag_177\n      jumpi\n        /* \"#utility.yul\":4138:4217   */\n      tag_178\n      tag_104\n      jump\t// in\n    tag_178:\n        /* \"#utility.yul\":4102:4219   */\n    tag_177:\n        /* \"#utility.yul\":4243:4306   */\n      tag_179\n        /* \"#utility.yul\":4298:4305   */\n      dup6\n        /* \"#utility.yul\":4289:4295   */\n      dup3\n        /* \"#utility.yul\":4278:4287   */\n      dup7\n        /* \"#utility.yul\":4274:4296   */\n      add\n        /* \"#utility.yul\":4243:4306   */\n      tag_112\n      jump\t// in\n    tag_179:\n        /* \"#utility.yul\":4233:4306   */\n      swap3\n      pop\n        /* \"#utility.yul\":4029:4316   */\n      pop\n        /* \"#utility.yul\":4383:4385   */\n      0x20\n        /* \"#utility.yul\":4372:4381   */\n      dup4\n        /* \"#utility.yul\":4368:4386   */\n      add\n        /* \"#utility.yul\":4355:4387   */\n      calldataload\n        /* \"#utility.yul\":4414:4432   */\n      0xffffffffffffffff\n        /* \"#utility.yul\":4406:4412   */\n      dup2\n        /* \"#utility.yul\":4403:4433   */\n      gt\n        /* \"#utility.yul\":4400:4517   */\n      iszero\n      tag_180\n      jumpi\n        /* \"#utility.yul\":4436:4515   */\n      tag_181\n      tag_104\n      jump\t// in\n    tag_181:\n        /* \"#utility.yul\":4400:4517   */\n    tag_180:\n        /* \"#utility.yul\":4541:4604   */\n      tag_182\n        /* \"#utility.yul\":4596:4603   */\n      dup6\n        /* \"#utility.yul\":4587:4593   */\n      dup3\n        /* \"#utility.yul\":4576:4585   */\n      dup7\n        /* \"#utility.yul\":4572:4594   */\n      add\n        /* \"#utility.yul\":4541:4604   */\n      tag_112\n      jump\t// in\n    tag_182:\n        /* \"#utility.yul\":4531:4604   */\n      swap2\n      pop\n        /* \"#utility.yul\":4326:4614   */\n      pop\n        /* \"#utility.yul\":3787:4621   */\n      swap3\n      pop\n      swap3\n      swap1\n      pop\n      jump\t// out\n        /* \"#utility.yul\":4627:4725   */\n    tag_113:\n        /* \"#utility.yul\":4678:4684   */\n      0x00\n        /* \"#utility.yul\":4712:4717   */\n      dup2\n        /* \"#utility.yul\":4706:4718   */\n      mload\n        /* \"#utility.yul\":4696:4718   */\n      swap1\n      pop\n        /* \"#utility.yul\":4627:4725   */\n      swap2\n      swap1\n      pop\n      jump\t// out\n        /* \"#utility.yul\":4731:4899   */\n    tag_114:\n        /* \"#utility.yul\":4814:4825   */\n      0x00\n        /* \"#utility.yul\":4848:4854   */\n      dup3\n        /* \"#utility.yul\":4843:4846   */\n      dup3\n        /* \"#utility.yul\":4836:4855   */\n      mstore\n        /* \"#utility.yul\":4888:4892   */\n      0x20\n        /* \"#utility.yul\":4883:4886   */\n      dup3\n        /* \"#utility.yul\":4879:4893   */\n      add\n        /* \"#utility.yul\":4864:4893   */\n      swap1\n      pop\n        /* \"#utility.yul\":4731:4899   */\n      swap3\n      swap2\n      pop\n      pop\n      jump\t// out\n        /* \"#utility.yul\":4905:5278   */\n    tag_115:\n        /* \"#utility.yul\":4991:4994   */\n      0x00\n        /* \"#utility.yul\":5019:5057   */\n      tag_186\n        /* \"#utility.yul\":5051:5056   */\n      dup3\n        /* \"#utility.yul\":5019:5057   */\n      tag_113\n      jump\t// in\n    tag_186:\n        /* \"#utility.yul\":5073:5143   */\n      tag_187\n        /* \"#utility.yul\":5136:5142   */\n      dup2\n        /* \"#utility.yul\":5131:5134   */\n      dup6\n        /* \"#utility.yul\":5073:5143   */\n      tag_114\n      jump\t// in\n    tag_187:\n        /* \"#utility.yul\":5066:5143   */\n      swap4\n      pop\n        /* \"#utility.yul\":5152:5217   */\n      tag_188\n        /* \"#utility.yul\":5210:5216   */\n      dup2\n        /* \"#utility.yul\":5205:5208   */\n      dup6\n        /* \"#utility.yul\":5198:5202   */\n      0x20\n        /* \"#utility.yul\":5191:5196   */\n      dup7\n        /* \"#utility.yul\":5187:5203   */\n      add\n        /* \"#utility.yul\":5152:5217   */\n      tag_99\n      jump\t// in\n    tag_188:\n        /* \"#utility.yul\":5242:5271   */\n      tag_189\n        /* \"#utility.yul\":5264:5270   */\n      dup2\n        /* \"#utility.yul\":5242:5271   */\n      tag_100\n      jump\t// in\n    tag_189:\n        /* \"#utility.yul\":5237:5240   */\n      dup5\n        /* \"#utility.yul\":5233:5272   */\n      add\n        /* \"#utility.yul\":5226:5272   */\n      swap2\n      pop\n        /* \"#utility.yul\":4995:5278   */\n      pop\n        /* \"#utility.yul\":4905:5278   */\n      swap3\n      swap2\n      pop\n      pop\n      jump\t// out\n        /* \"#utility.yul\":5284:5987   */\n    tag_20:\n        /* \"#utility.yul\":5487:5491   */\n      0x00\n        /* \"#utility.yul\":5525:5527   */\n      0x60\n        /* \"#utility.yul\":5514:5523   */\n      dup3\n        /* \"#utility.yul\":5510:5528   */\n      add\n        /* \"#utility.yul\":5502:5528   */\n      swap1\n      pop\n        /* \"#utility.yul\":5574:5583   */\n      dup2\n        /* \"#utility.yul\":5568:5572   */\n      dup2\n        /* \"#utility.yul\":5564:5584   */\n      sub\n        /* \"#utility.yul\":5560:5561   */\n      0x00\n        /* \"#utility.yul\":5549:5558   */\n      dup4\n        /* \"#utility.yul\":5545:5562   */\n      add\n        /* \"#utility.yul\":5538:5585   */\n      mstore\n        /* \"#utility.yul\":5602:5678   */\n      tag_191\n        /* \"#utility.yul\":5673:5677   */\n      dup2\n        /* \"#utility.yul\":5664:5670   */\n      dup7\n        /* \"#utility.yul\":5602:5678   */\n      tag_115\n      jump\t// in\n    tag_191:\n        /* \"#utility.yul\":5594:5678   */\n      swap1\n      pop\n        /* \"#utility.yul\":5725:5734   */\n      dup2\n        /* \"#utility.yul\":5719:5723   */\n      dup2\n        /* \"#utility.yul\":5715:5735   */\n      sub\n        /* \"#utility.yul\":5710:5712   */\n      0x20\n        /* \"#utility.yul\":5699:5708   */\n      dup4\n        /* \"#utility.yul\":5695:5713   */\n      add\n        /* \"#utility.yul\":5688:5736   */\n      mstore\n        /* \"#utility.yul\":5753:5829   */\n      tag_192\n        /* \"#utility.yul\":5824:5828   */\n      dup2\n        /* \"#utility.yul\":5815:5821   */\n      dup6\n        /* \"#utility.yul\":5753:5829   */\n      tag_115\n      jump\t// in\n    tag_192:\n        /* \"#utility.yul\":5745:5829   */\n      swap1\n      pop\n        /* \"#utility.yul\":5876:5885   */\n      dup2\n        /* \"#utility.yul\":5870:5874   */\n      dup2\n        /* \"#utility.yul\":5866:5886   */\n      sub\n        /* \"#utility.yul\":5861:5863   */\n      0x40\n        /* \"#utility.yul\":5850:5859   */\n      dup4\n        /* \"#utility.yul\":5846:5864   */\n      add\n        /* \"#utility.yul\":5839:5887   */\n      mstore\n        /* \"#utility.yul\":5904:5980   */\n      tag_193\n        /* \"#utility.yul\":5975:5979   */\n      dup2\n        /* \"#utility.yul\":5966:5972   */\n      dup5\n        /* \"#utility.yul\":5904:5980   */\n      tag_115\n      jump\t// in\n    tag_193:\n        /* \"#utility.yul\":5896:5980   */\n      swap1\n      pop\n        /* \"#utility.yul\":5284:5987   */\n      swap5\n      swap4\n      pop\n      pop\n      pop\n      pop\n      jump\t// out\n        /* \"#utility.yul\":5993:6502   */\n    tag_27:\n        /* \"#utility.yul\":6062:6068   */\n      0x00\n        /* \"#utility.yul\":6111:6113   */\n      0x20\n        /* \"#utility.yul\":6099:6108   */\n      dup3\n        /* \"#utility.yul\":6090:6097   */\n      dup5\n        /* \"#utility.yul\":6086:6109   */\n      sub\n        /* \"#utility.yul\":6082:6114   */\n      slt\n        /* \"#utility.yul\":6079:6198   */\n      iszero\n      tag_195\n      jumpi\n        /* \"#utility.yul\":6117:6196   */\n      tag_196\n      tag_103\n      jump\t// in\n    tag_196:\n        /* \"#utility.yul\":6079:6198   */\n    tag_195:\n        /* \"#utility.yul\":6265:6266   */\n      0x00\n        /* \"#utility.yul\":6254:6263   */\n      dup3\n        /* \"#utility.yul\":6250:6267   */\n      add\n        /* \"#utility.yul\":6237:6268   */\n      calldataload\n        /* \"#utility.yul\":6295:6313   */\n      0xffffffffffffffff\n        /* \"#utility.yul\":6287:6293   */\n      dup2\n        /* \"#utility.yul\":6284:6314   */\n      gt\n        /* \"#utility.yul\":6281:6398   */\n      iszero\n      tag_197\n      jumpi\n        /* \"#utility.yul\":6317:6396   */\n      tag_198\n      tag_104\n      jump\t// in\n    tag_198:\n        /* \"#utility.yul\":6281:6398   */\n    tag_197:\n        /* \"#utility.yul\":6422:6485   */\n      tag_199\n        /* \"#utility.yul\":6477:6484   */\n      dup5\n        /* \"#utility.yul\":6468:6474   */\n      dup3\n        /* \"#utility.yul\":6457:6466   */\n      dup6\n        /* \"#utility.yul\":6453:6475   */\n      add\n        /* \"#utility.yul\":6422:6485   */\n      tag_112\n      jump\t// in\n    tag_199:\n        /* \"#utility.yul\":6412:6485   */\n      swap2\n      pop\n        /* \"#utility.yul\":6208:6495   */\n      pop\n        /* \"#utility.yul\":5993:6502   */\n      swap3\n      swap2\n      pop\n      pop\n      jump\t// out\n        /* \"#utility.yul\":6508:6585   */\n    tag_116:\n        /* \"#utility.yul\":6545:6552   */\n      0x00\n        /* \"#utility.yul\":6574:6579   */\n      dup2\n        /* \"#utility.yul\":6563:6579   */\n      swap1\n      pop\n        /* \"#utility.yul\":6508:6585   */\n      swap2\n      swap1\n      pop\n      jump\t// out\n        /* \"#utility.yul\":6591:6709   */\n    tag_117:\n        /* \"#utility.yul\":6678:6702   */\n      tag_202\n        /* \"#utility.yul\":6696:6701   */\n      dup2\n        /* \"#utility.yul\":6678:6702   */\n      tag_116\n      jump\t// in\n    tag_202:\n        /* \"#utility.yul\":6673:6676   */\n      dup3\n        /* \"#utility.yul\":6666:6703   */\n      mstore\n        /* \"#utility.yul\":6591:6709   */\n      pop\n      pop\n      jump\t// out\n        /* \"#utility.yul\":6715:6937   */\n    tag_30:\n        /* \"#utility.yul\":6808:6812   */\n      0x00\n        /* \"#utility.yul\":6846:6848   */\n      0x20\n        /* \"#utility.yul\":6835:6844   */\n      dup3\n        /* \"#utility.yul\":6831:6849   */\n      add\n        /* \"#utility.yul\":6823:6849   */\n      swap1\n      pop\n        /* \"#utility.yul\":6859:6930   */\n      tag_204\n        /* \"#utility.yul\":6927:6928   */\n      0x00\n        /* \"#utility.yul\":6916:6925   */\n      dup4\n        /* \"#utility.yul\":6912:6929   */\n      add\n        /* \"#utility.yul\":6903:6909   */\n      dup5\n        /* \"#utility.yul\":6859:6930   */\n      tag_117\n      jump\t// in\n    tag_204:\n        /* \"#utility.yul\":6715:6937   */\n      swap3\n      swap2\n      pop\n      pop\n      jump\t// out\n        /* \"#utility.yul\":6943:7065   */\n    tag_118:\n        /* \"#utility.yul\":7016:7040   */\n      tag_206\n        /* \"#utility.yul\":7034:7039   */\n      dup2\n        /* \"#utility.yul\":7016:7040   */\n      tag_116\n      jump\t// in\n    tag_206:\n        /* \"#utility.yul\":7009:7014   */\n      dup2\n        /* \"#utility.yul\":7006:7041   */\n      eq\n        /* \"#utility.yul\":6996:7059   */\n      tag_207\n      jumpi\n        /* \"#utility.yul\":7055:7056   */\n      0x00\n        /* \"#utility.yul\":7052:7053   */\n      dup1\n        /* \"#utility.yul\":7045:7057   */\n      revert\n        /* \"#utility.yul\":6996:7059   */\n    tag_207:\n        /* \"#utility.yul\":6943:7065   */\n      pop\n      jump\t// out\n        /* \"#utility.yul\":7071:7210   */\n    tag_119:\n        /* \"#utility.yul\":7117:7122   */\n      0x00\n        /* \"#utility.yul\":7155:7161   */\n      dup2\n        /* \"#utility.yul\":7142:7162   */\n      calldataload\n        /* \"#utility.yul\":7133:7162   */\n      swap1\n      pop\n        /* \"#utility.yul\":7171:7204   */\n      tag_209\n        /* \"#utility.yul\":7198:7203   */\n      dup2\n        /* \"#utility.yul\":7171:7204   */\n      tag_118\n      jump\t// in\n    tag_209:\n        /* \"#utility.yul\":7071:7210   */\n      swap3\n      swap2\n      pop\n      pop\n      jump\t// out\n        /* \"#utility.yul\":7216:8195   */\n    tag_37:\n        /* \"#utility.yul\":7313:7319   */\n      0x00\n        /* \"#utility.yul\":7321:7327   */\n      dup1\n        /* \"#utility.yul\":7329:7335   */\n      0x00\n        /* \"#utility.yul\":7378:7380   */\n      0x60\n        /* \"#utility.yul\":7366:7375   */\n      dup5\n        /* \"#utility.yul\":7357:7364   */\n      dup7\n        /* \"#utility.yul\":7353:7376   */\n      sub\n        /* \"#utility.yul\":7349:7381   */\n      slt\n        /* \"#utility.yul\":7346:7465   */\n      iszero\n      tag_211\n      jumpi\n        /* \"#utility.yul\":7384:7463   */\n      tag_212\n      tag_103\n      jump\t// in\n    tag_212:\n        /* \"#utility.yul\":7346:7465   */\n    tag_211:\n        /* \"#utility.yul\":7532:7533   */\n      0x00\n        /* \"#utility.yul\":7521:7530   */\n      dup5\n        /* \"#utility.yul\":7517:7534   */\n      add\n        /* \"#utility.yul\":7504:7535   */\n      calldataload\n        /* \"#utility.yul\":7562:7580   */\n      0xffffffffffffffff\n        /* \"#utility.yul\":7554:7560   */\n      dup2\n        /* \"#utility.yul\":7551:7581   */\n      gt\n        /* \"#utility.yul\":7548:7665   */\n      iszero\n      tag_213\n      jumpi\n        /* \"#utility.yul\":7584:7663   */\n      tag_214\n      tag_104\n      jump\t// in\n    tag_214:\n        /* \"#utility.yul\":7548:7665   */\n    tag_213:\n        /* \"#utility.yul\":7689:7752   */\n      tag_215\n        /* \"#utility.yul\":7744:7751   */\n      dup7\n        /* \"#utility.yul\":7735:7741   */\n      dup3\n        /* \"#utility.yul\":7724:7733   */\n      dup8\n        /* \"#utility.yul\":7720:7742   */\n      add\n        /* \"#utility.yul\":7689:7752   */\n      tag_112\n      jump\t// in\n    tag_215:\n        /* \"#utility.yul\":7679:7752   */\n      swap4\n      pop\n        /* \"#utility.yul\":7475:7762   */\n      pop\n        /* \"#utility.yul\":7801:7803   */\n      0x20\n        /* \"#utility.yul\":7827:7880   */\n      tag_216\n        /* \"#utility.yul\":7872:7879   */\n      dup7\n        /* \"#utility.yul\":7863:7869   */\n      dup3\n        /* \"#utility.yul\":7852:7861   */\n      dup8\n        /* \"#utility.yul\":7848:7870   */\n      add\n        /* \"#utility.yul\":7827:7880   */\n      tag_119\n      jump\t// in\n    tag_216:\n        /* \"#utility.yul\":7817:7880   */\n      swap3\n      pop\n        /* \"#utility.yul\":7772:7890   */\n      pop\n        /* \"#utility.yul\":7957:7959   */\n      0x40\n        /* \"#utility.yul\":7946:7955   */\n      dup5\n        /* \"#utility.yul\":7942:7960   */\n      add\n        /* \"#utility.yul\":7929:7961   */\n      calldataload\n        /* \"#utility.yul\":7988:8006   */\n      0xffffffffffffffff\n        /* \"#utility.yul\":7980:7986   */\n      dup2\n        /* \"#utility.yul\":7977:8007   */\n      gt\n        /* \"#utility.yul\":7974:8091   */\n      iszero\n      tag_217\n      jumpi\n        /* \"#utility.yul\":8010:8089   */\n      tag_218\n      tag_104\n      jump\t// in\n    tag_218:\n        /* \"#utility.yul\":7974:8091   */\n    tag_217:\n        /* \"#utility.yul\":8115:8178   */\n      tag_219\n        /* \"#utility.yul\":8170:8177   */\n      dup7\n        /* \"#utility.yul\":8161:8167   */\n      dup3\n        /* \"#utility.yul\":8150:8159   */\n      dup8\n        /* \"#utility.yul\":8146:8168   */\n      add\n        /* \"#utility.yul\":8115:8178   */\n      tag_112\n      jump\t// in\n    tag_219:\n        /* \"#utility.yul\":8105:8178   */\n      swap2\n      pop\n        /* \"#utility.yul\":7900:8188   */\n      pop\n        /* \"#utility.yul\":7216:8195   */\n      swap3\n      pop\n      swap3\n      pop\n      swap3\n      jump\t// out\n        /* \"#utility.yul\":8201:8291   */\n    tag_120:\n        /* \"#utility.yul\":8235:8242   */\n      0x00\n        /* \"#utility.yul\":8278:8283   */\n      dup2\n        /* \"#utility.yul\":8271:8284   */\n      iszero\n        /* \"#utility.yul\":8264:8285   */\n      iszero\n        /* \"#utility.yul\":8253:8285   */\n      swap1\n      pop\n        /* \"#utility.yul\":8201:8291   */\n      swap2\n      swap1\n      pop\n      jump\t// out\n        /* \"#utility.yul\":8297:8406   */\n    tag_121:\n        /* \"#utility.yul\":8378:8399   */\n      tag_222\n        /* \"#utility.yul\":8393:8398   */\n      dup2\n        /* \"#utility.yul\":8378:8399   */\n      tag_120\n      jump\t// in\n    tag_222:\n        /* \"#utility.yul\":8373:8376   */\n      dup3\n        /* \"#utility.yul\":8366:8400   */\n      mstore\n        /* \"#utility.yul\":8297:8406   */\n      pop\n      pop\n      jump\t// out\n        /* \"#utility.yul\":8412:8622   */\n    tag_44:\n        /* \"#utility.yul\":8499:8503   */\n      0x00\n        /* \"#utility.yul\":8537:8539   */\n      0x20\n        /* \"#utility.yul\":8526:8535   */\n      dup3\n        /* \"#utility.yul\":8522:8540   */\n      add\n        /* \"#utility.yul\":8514:8540   */\n      swap1\n      pop\n        /* \"#utility.yul\":8550:8615   */\n      tag_224\n        /* \"#utility.yul\":8612:8613   */\n      0x00\n        /* \"#utility.yul\":8601:8610   */\n      dup4\n        /* \"#utility.yul\":8597:8614   */\n      add\n        /* \"#utility.yul\":8588:8594   */\n      dup5\n        /* \"#utility.yul\":8550:8615   */\n      tag_121\n      jump\t// in\n    tag_224:\n        /* \"#utility.yul\":8412:8622   */\n      swap3\n      swap2\n      pop\n      pop\n      jump\t// out\n        /* \"#utility.yul\":8628:8808   */\n    tag_122:\n        /* \"#utility.yul\":8676:8753   */\n      0x4e487b7100000000000000000000000000000000000000000000000000000000\n        /* \"#utility.yul\":8673:8674   */\n      0x00\n        /* \"#utility.yul\":8666:8754   */\n      mstore\n        /* \"#utility.yul\":8773:8777   */\n      0x22\n        /* \"#utility.yul\":8770:8771   */\n      0x04\n        /* \"#utility.yul\":8763:8778   */\n      mstore\n        /* \"#utility.yul\":8797:8801   */\n      0x24\n        /* \"#utility.yul\":8794:8795   */\n      0x00\n        /* \"#utility.yul\":8787:8802   */\n      revert\n        /* \"#utility.yul\":8814:9134   */\n    tag_46:\n        /* \"#utility.yul\":8858:8864   */\n      0x00\n        /* \"#utility.yul\":8895:8896   */\n      0x02\n        /* \"#utility.yul\":8889:8893   */\n      dup3\n        /* \"#utility.yul\":8885:8897   */\n      div\n        /* \"#utility.yul\":8875:8897   */\n      swap1\n      pop\n        /* \"#utility.yul\":8942:8943   */\n      0x01\n        /* \"#utility.yul\":8936:8940   */\n      dup3\n        /* \"#utility.yul\":8932:8944   */\n      and\n        /* \"#utility.yul\":8963:8981   */\n      dup1\n        /* \"#utility.yul\":8953:9034   */\n      tag_227\n      jumpi\n        /* \"#utility.yul\":9019:9023   */\n      0x7f\n        /* \"#utility.yul\":9011:9017   */\n      dup3\n        /* \"#utility.yul\":9007:9024   */\n      and\n        /* \"#utility.yul\":8997:9024   */\n      swap2\n      pop\n        /* \"#utility.yul\":8953:9034   */\n    tag_227:\n        /* \"#utility.yul\":9081:9083   */\n      0x20\n        /* \"#utility.yul\":9073:9079   */\n      dup3\n        /* \"#utility.yul\":9070:9084   */\n      lt\n        /* \"#utility.yul\":9050:9068   */\n      dup2\n        /* \"#utility.yul\":9047:9085   */\n      sub\n        /* \"#utility.yul\":9044:9128   */\n      tag_228\n      jumpi\n        /* \"#utility.yul\":9100:9118   */\n      tag_229\n      tag_122\n      jump\t// in\n    tag_229:\n        /* \"#utility.yul\":9044:9128   */\n    tag_228:\n        /* \"#utility.yul\":8865:9134   */\n      pop\n        /* \"#utility.yul\":8814:9134   */\n      swap2\n      swap1\n      pop\n      jump\t// out\n        /* \"#utility.yul\":9140:9654   */\n    tag_53:\n        /* \"#utility.yul\":9301:9305   */\n      0x00\n        /* \"#utility.yul\":9339:9341   */\n      0x40\n        /* \"#utility.yul\":9328:9337   */\n      dup3\n        /* \"#utility.yul\":9324:9342   */\n      add\n        /* \"#utility.yul\":9316:9342   */\n      swap1\n      pop\n        /* \"#utility.yul\":9388:9397   */\n      dup2\n        /* \"#utility.yul\":9382:9386   */\n      dup2\n        /* \"#utility.yul\":9378:9398   */\n      sub\n        /* \"#utility.yul\":9374:9375   */\n      0x00\n        /* \"#utility.yul\":9363:9372   */\n      dup4\n        /* \"#utility.yul\":9359:9376   */\n      add\n        /* \"#utility.yul\":9352:9399   */\n      mstore\n        /* \"#utility.yul\":9416:9494   */\n      tag_231\n        /* \"#utility.yul\":9489:9493   */\n      dup2\n        /* \"#utility.yul\":9480:9486   */\n      dup6\n        /* \"#utility.yul\":9416:9494   */\n      tag_101\n      jump\t// in\n    tag_231:\n        /* \"#utility.yul\":9408:9494   */\n      swap1\n      pop\n        /* \"#utility.yul\":9541:9550   */\n      dup2\n        /* \"#utility.yul\":9535:9539   */\n      dup2\n        /* \"#utility.yul\":9531:9551   */\n      sub\n        /* \"#utility.yul\":9526:9528   */\n      0x20\n        /* \"#utility.yul\":9515:9524   */\n      dup4\n        /* \"#utility.yul\":9511:9529   */\n      add\n        /* \"#utility.yul\":9504:9552   */\n      mstore\n        /* \"#utility.yul\":9569:9647   */\n      tag_232\n        /* \"#utility.yul\":9642:9646   */\n      dup2\n        /* \"#utility.yul\":9633:9639   */\n      dup5\n        /* \"#utility.yul\":9569:9647   */\n      tag_101\n      jump\t// in\n    tag_232:\n        /* \"#utility.yul\":9561:9647   */\n      swap1\n      pop\n        /* \"#utility.yul\":9140:9654   */\n      swap4\n      swap3\n      pop\n      pop\n      pop\n      jump\t// out\n        /* \"#utility.yul\":9660:9808   */\n    tag_123:\n        /* \"#utility.yul\":9762:9773   */\n      0x00\n        /* \"#utility.yul\":9799:9802   */\n      dup2\n        /* \"#utility.yul\":9784:9802   */\n      swap1\n      pop\n        /* \"#utility.yul\":9660:9808   */\n      swap3\n      swap2\n      pop\n      pop\n      jump\t// out\n        /* \"#utility.yul\":9814:10204   */\n    tag_124:\n        /* \"#utility.yul\":9920:9923   */\n      0x00\n        /* \"#utility.yul\":9948:9987   */\n      tag_235\n        /* \"#utility.yul\":9981:9986   */\n      dup3\n        /* \"#utility.yul\":9948:9987   */\n      tag_97\n      jump\t// in\n    tag_235:\n        /* \"#utility.yul\":10003:10092   */\n      tag_236\n        /* \"#utility.yul\":10085:10091   */\n      dup2\n        /* \"#utility.yul\":10080:10083   */\n      dup6\n        /* \"#utility.yul\":10003:10092   */\n      tag_123\n      jump\t// in\n    tag_236:\n        /* \"#utility.yul\":9996:10092   */\n      swap4\n      pop\n        /* \"#utility.yul\":10101:10166   */\n      tag_237\n        /* \"#utility.yul\":10159:10165   */\n      dup2\n        /* \"#utility.yul\":10154:10157   */\n      dup6\n        /* \"#utility.yul\":10147:10151   */\n      0x20\n        /* \"#utility.yul\":10140:10145   */\n      dup7\n        /* \"#utility.yul\":10136:10152   */\n      add\n        /* \"#utility.yul\":10101:10166   */\n      tag_99\n      jump\t// in\n    tag_237:\n        /* \"#utility.yul\":10191:10197   */\n      dup1\n        /* \"#utility.yul\":10186:10189   */\n      dup5\n        /* \"#utility.yul\":10182:10198   */\n      add\n        /* \"#utility.yul\":10175:10198   */\n      swap2\n      pop\n        /* \"#utility.yul\":9924:10204   */\n      pop\n        /* \"#utility.yul\":9814:10204   */\n      swap3\n      swap2\n      pop\n      pop\n      jump\t// out\n        /* \"#utility.yul\":10210:10645   */\n    tag_55:\n        /* \"#utility.yul\":10390:10393   */\n      0x00\n        /* \"#utility.yul\":10412:10507   */\n      tag_239\n        /* \"#utility.yul\":10503:10506   */\n      dup3\n        /* \"#utility.yul\":10494:10500   */\n      dup6\n        /* \"#utility.yul\":10412:10507   */\n      tag_124\n      jump\t// in\n    tag_239:\n        /* \"#utility.yul\":10405:10507   */\n      swap2\n      pop\n        /* \"#utility.yul\":10524:10619   */\n      tag_240\n        /* \"#utility.yul\":10615:10618   */\n      dup3\n        /* \"#utility.yul\":10606:10612   */\n      dup5\n        /* \"#utility.yul\":10524:10619   */\n      tag_124\n      jump\t// in\n    tag_240:\n        /* \"#utility.yul\":10517:10619   */\n      swap2\n      pop\n        /* \"#utility.yul\":10636:10639   */\n      dup2\n        /* \"#utility.yul\":10629:10639   */\n      swap1\n      pop\n        /* \"#utility.yul\":10210:10645   */\n      swap4\n      swap3\n      pop\n      pop\n      pop\n      jump\t// out\n        /* \"#utility.yul\":10651:10728   */\n    tag_125:\n        /* \"#utility.yul\":10688:10695   */\n      0x00\n        /* \"#utility.yul\":10717:10722   */\n      dup2\n        /* \"#utility.yul\":10706:10722   */\n      swap1\n      pop\n        /* \"#utility.yul\":10651:10728   */\n      swap2\n      swap1\n      pop\n      jump\t// out\n        /* \"#utility.yul\":10734:10813   */\n    tag_126:\n        /* \"#utility.yul\":10773:10780   */\n      0x00\n        /* \"#utility.yul\":10802:10807   */\n      dup2\n        /* \"#utility.yul\":10791:10807   */\n      swap1\n      pop\n        /* \"#utility.yul\":10734:10813   */\n      swap2\n      swap1\n      pop\n      jump\t// out\n        /* \"#utility.yul\":10819:10976   */\n    tag_127:\n        /* \"#utility.yul\":10924:10969   */\n      tag_244\n        /* \"#utility.yul\":10944:10968   */\n      tag_245\n        /* \"#utility.yul\":10962:10967   */\n      dup3\n        /* \"#utility.yul\":10944:10968   */\n      tag_125\n      jump\t// in\n    tag_245:\n        /* \"#utility.yul\":10924:10969   */\n      tag_126\n      jump\t// in\n    tag_244:\n        /* \"#utility.yul\":10919:10922   */\n      dup3\n        /* \"#utility.yul\":10912:10970   */\n      mstore\n        /* \"#utility.yul\":10819:10976   */\n      pop\n      pop\n      jump\t// out\n        /* \"#utility.yul\":10982:11238   */\n    tag_58:\n        /* \"#utility.yul\":11094:11097   */\n      0x00\n        /* \"#utility.yul\":11109:11184   */\n      tag_247\n        /* \"#utility.yul\":11180:11183   */\n      dup3\n        /* \"#utility.yul\":11171:11177   */\n      dup5\n        /* \"#utility.yul\":11109:11184   */\n      tag_127\n      jump\t// in\n    tag_247:\n        /* \"#utility.yul\":11209:11211   */\n      0x20\n        /* \"#utility.yul\":11204:11207   */\n      dup3\n        /* \"#utility.yul\":11200:11212   */\n      add\n        /* \"#utility.yul\":11193:11212   */\n      swap2\n      pop\n        /* \"#utility.yul\":11229:11232   */\n      dup2\n        /* \"#utility.yul\":11222:11232   */\n      swap1\n      pop\n        /* \"#utility.yul\":10982:11238   */\n      swap3\n      swap2\n      pop\n      pop\n      jump\t// out\n        /* \"#utility.yul\":11244:11422   */\n    tag_128:\n        /* \"#utility.yul\":11412:11415   */\n      0x2000000000000000000000000000000000000000000000000000000000000000\n        /* \"#utility.yul\":11407:11410   */\n      dup2\n        /* \"#utility.yul\":11400:11416   */\n      mstore\n        /* \"#utility.yul\":11244:11422   */\n      pop\n      jump\t// out\n        /* \"#utility.yul\":11428:12551   */\n    tag_68:\n        /* \"#utility.yul\":11836:11839   */\n      0x00\n        /* \"#utility.yul\":11858:11953   */\n      tag_250\n        /* \"#utility.yul\":11949:11952   */\n      dup3\n        /* \"#utility.yul\":11940:11946   */\n      dup7\n        /* \"#utility.yul\":11858:11953   */\n      tag_124\n      jump\t// in\n    tag_250:\n        /* \"#utility.yul\":11851:11953   */\n      swap2\n      pop\n        /* \"#utility.yul\":11963:12100   */\n      tag_251\n        /* \"#utility.yul\":12096:12099   */\n      dup3\n        /* \"#utility.yul\":11963:12100   */\n      tag_128\n      jump\t// in\n    tag_251:\n        /* \"#utility.yul\":12125:12126   */\n      0x01\n        /* \"#utility.yul\":12120:12123   */\n      dup3\n        /* \"#utility.yul\":12116:12127   */\n      add\n        /* \"#utility.yul\":12109:12127   */\n      swap2\n      pop\n        /* \"#utility.yul\":12144:12239   */\n      tag_252\n        /* \"#utility.yul\":12235:12238   */\n      dup3\n        /* \"#utility.yul\":12226:12232   */\n      dup6\n        /* \"#utility.yul\":12144:12239   */\n      tag_124\n      jump\t// in\n    tag_252:\n        /* \"#utility.yul\":12137:12239   */\n      swap2\n      pop\n        /* \"#utility.yul\":12249:12386   */\n      tag_253\n        /* \"#utility.yul\":12382:12385   */\n      dup3\n        /* \"#utility.yul\":12249:12386   */\n      tag_128\n      jump\t// in\n    tag_253:\n        /* \"#utility.yul\":12411:12412   */\n      0x01\n        /* \"#utility.yul\":12406:12409   */\n      dup3\n        /* \"#utility.yul\":12402:12413   */\n      add\n        /* \"#utility.yul\":12395:12413   */\n      swap2\n      pop\n        /* \"#utility.yul\":12430:12525   */\n      tag_254\n        /* \"#utility.yul\":12521:12524   */\n      dup3\n        /* \"#utility.yul\":12512:12518   */\n      dup5\n        /* \"#utility.yul\":12430:12525   */\n      tag_124\n      jump\t// in\n    tag_254:\n        /* \"#utility.yul\":12423:12525   */\n      swap2\n      pop\n        /* \"#utility.yul\":12542:12545   */\n      dup2\n        /* \"#utility.yul\":12535:12545   */\n      swap1\n      pop\n        /* \"#utility.yul\":11428:12551   */\n      swap5\n      swap4\n      pop\n      pop\n      pop\n      pop\n      jump\t// out\n        /* \"#utility.yul\":12557:12832   */\n    tag_71:\n        /* \"#utility.yul\":12689:12692   */\n      0x00\n        /* \"#utility.yul\":12711:12806   */\n      tag_256\n        /* \"#utility.yul\":12802:12805   */\n      dup3\n        /* \"#utility.yul\":12793:12799   */\n      dup5\n        /* \"#utility.yul\":12711:12806   */\n      tag_124\n      jump\t// in\n    tag_256:\n        /* \"#utility.yul\":12704:12806   */\n      swap2\n      pop\n        /* \"#utility.yul\":12823:12826   */\n      dup2\n        /* \"#utility.yul\":12816:12826   */\n      swap1\n      pop\n        /* \"#utility.yul\":12557:12832   */\n      swap3\n      swap2\n      pop\n      pop\n      jump\t// out\n        /* \"#utility.yul\":12838:13018   */\n    tag_129:\n        /* \"#utility.yul\":12886:12963   */\n      0x4e487b7100000000000000000000000000000000000000000000000000000000\n        /* \"#utility.yul\":12883:12884   */\n      0x00\n        /* \"#utility.yul\":12876:12964   */\n      mstore\n        /* \"#utility.yul\":12983:12987   */\n      0x11\n        /* \"#utility.yul\":12980:12981   */\n      0x04\n        /* \"#utility.yul\":12973:12988   */\n      mstore\n        /* \"#utility.yul\":13007:13011   */\n      0x24\n        /* \"#utility.yul\":13004:13005   */\n      0x00\n        /* \"#utility.yul\":12997:13012   */\n      revert\n        /* \"#utility.yul\":13024:13257   */\n    tag_78:\n        /* \"#utility.yul\":13063:13066   */\n      0x00\n        /* \"#utility.yul\":13086:13110   */\n      tag_259\n        /* \"#utility.yul\":13104:13109   */\n      dup3\n        /* \"#utility.yul\":13086:13110   */\n      tag_116\n      jump\t// in\n    tag_259:\n        /* \"#utility.yul\":13077:13110   */\n      swap2\n      pop\n        /* \"#utility.yul\":13132:13198   */\n      0xffffffffffffffffffffffffffffffffffffffffffffffffffffffffffffffff\n        /* \"#utility.yul\":13125:13130   */\n      dup3\n        /* \"#utility.yul\":13122:13199   */\n      sub\n        /* \"#utility.yul\":13119:13222   */\n      tag_260\n      jumpi\n        /* \"#utility.yul\":13202:13220   */\n      tag_261\n      tag_129\n      jump\t// in\n    tag_261:\n        /* \"#utility.yul\":13119:13222   */\n    tag_260:\n        /* \"#utility.yul\":13249:13250   */\n      0x01\n        /* \"#utility.yul\":13242:13247   */\n      dup3\n        /* \"#utility.yul\":13238:13251   */\n      add\n        /* \"#utility.yul\":13231:13251   */\n      swap1\n      pop\n        /* \"#utility.yul\":13024:13257   */\n      swap2\n      swap1\n      pop\n      jump\t// out\n        /* \"#utility.yul\":13263:13443   */\n    tag_130:\n        /* \"#utility.yul\":13311:13388   */\n      0x4e487b7100000000000000000000000000000000000000000000000000000000\n        /* \"#utility.yul\":13308:13309   */\n      0x00\n        /* \"#utility.yul\":13301:13389   */\n      mstore\n        /* \"#utility.yul\":13408:13412   */\n      0x12\n        /* \"#utility.yul\":13405:13406   */\n      0x04\n        /* \"#utility.yul\":13398:13413   */\n      mstore\n        /* \"#utility.yul\":13432:13436   */\n      0x24\n        /* \"#utility.yul\":13429:13430   */\n      0x00\n        /* \"#utility.yul\":13422:13437   */\n      revert\n        /* \"#utility.yul\":13449:13634   */\n    tag_80:\n        /* \"#utility.yul\":13489:13490   */\n      0x00\n        /* \"#utility.yul\":13506:13526   */\n      tag_264\n        /* \"#utility.yul\":13524:13525   */\n      dup3\n        /* \"#utility.yul\":13506:13526   */\n      tag_116\n      jump\t// in\n    tag_264:\n        /* \"#utility.yul\":13501:13526   */\n      swap2\n      pop\n        /* \"#utility.yul\":13540:13560   */\n      tag_265\n        /* \"#utility.yul\":13558:13559   */\n      dup4\n        /* \"#utility.yul\":13540:13560   */\n      tag_116\n      jump\t// in\n    tag_265:\n        /* \"#utility.yul\":13535:13560   */\n      swap3\n      pop\n        /* \"#utility.yul\":13579:13580   */\n      dup3\n        /* \"#utility.yul\":13569:13604   */\n      tag_266\n      jumpi\n        /* \"#utility.yul\":13584:13602   */\n      tag_267\n      tag_130\n      jump\t// in\n    tag_267:\n        /* \"#utility.yul\":13569:13604   */\n    tag_266:\n        /* \"#utility.yul\":13626:13627   */\n      dup3\n        /* \"#utility.yul\":13623:13624   */\n      dup3\n        /* \"#utility.yul\":13619:13628   */\n      div\n        /* \"#utility.yul\":13614:13628   */\n      swap1\n      pop\n        /* \"#utility.yul\":13449:13634   */\n      swap3\n      swap2\n      pop\n      pop\n      jump\t// out\n        /* \"#utility.yul\":13640:13834   */\n    tag_88:\n        /* \"#utility.yul\":13680:13684   */\n      0x00\n        /* \"#utility.yul\":13700:13720   */\n      tag_269\n        /* \"#utility.yul\":13718:13719   */\n      dup3\n        /* \"#utility.yul\":13700:13720   */\n      tag_116\n      jump\t// in\n    tag_269:\n        /* \"#utility.yul\":13695:13720   */\n      swap2\n      pop\n        /* \"#utility.yul\":13734:13754   */\n      tag_270\n        /* \"#utility.yul\":13752:13753   */\n      dup4\n        /* \"#utility.yul\":13734:13754   */\n      tag_116\n      jump\t// in\n    tag_270:\n        /* \"#utility.yul\":13729:13754   */\n      swap3\n      pop\n        /* \"#utility.yul\":13778:13779   */\n      dup3\n        /* \"#utility.yul\":13775:13776   */\n      dup3\n        /* \"#utility.yul\":13771:13780   */\n      sub\n        /* \"#utility.yul\":13763:13780   */\n      swap1\n      pop\n        /* \"#utility.yul\":13802:13803   */\n      dup2\n        /* \"#utility.yul\":13796:13800   */\n      dup2\n        /* \"#utility.yul\":13793:13804   */\n      gt\n        /* \"#utility.yul\":13790:13827   */\n      iszero\n      tag_271\n      jumpi\n        /* \"#utility.yul\":13807:13825   */\n      tag_272\n      tag_129\n      jump\t// in\n    tag_272:\n        /* \"#utility.yul\":13790:13827   */\n    tag_271:\n        /* \"#utility.yul\":13640:13834   */\n      swap3\n      swap2\n      pop\n      pop\n      jump\t// out\n        /* \"#utility.yul\":13840:14016   */\n    tag_90:\n        /* \"#utility.yul\":13872:13873   */\n      0x00\n        /* \"#utility.yul\":13889:13909   */\n      tag_274\n        /* \"#utility.yul\":13907:13908   */\n      dup3\n        /* \"#utility.yul\":13889:13909   */\n      tag_116\n      jump\t// in\n    tag_274:\n        /* \"#utility.yul\":13884:13909   */\n      swap2\n      pop\n        /* \"#utility.yul\":13923:13943   */\n      tag_275\n        /* \"#utility.yul\":13941:13942   */\n      dup4\n        /* \"#utility.yul\":13923:13943   */\n      tag_116\n      jump\t// in\n    tag_275:\n        /* \"#utility.yul\":13918:13943   */\n      swap3\n      pop\n        /* \"#utility.yul\":13962:13963   */\n      dup3\n        /* \"#utility.yul\":13952:13987   */\n      tag_276\n      jumpi\n        /* \"#utility.yul\":13967:13985   */\n      tag_277\n      tag_130\n      jump\t// in\n    tag_277:\n        /* \"#utility.yul\":13952:13987   */\n    tag_276:\n        /* \"#utility.yul\":14008:14009   */\n      dup3\n        /* \"#utility.yul\":14005:14006   */\n      dup3\n        /* \"#utility.yul\":14001:14010   */\n      mod\n        /* \"#utility.yul\":13996:14010   */\n      swap1\n      pop\n        /* \"#utility.yul\":13840:14016   */\n      swap3\n      swap2\n      pop\n      pop\n      jump\t// out\n        /* \"#utility.yul\":14022:14213   */\n    tag_92:\n        /* \"#utility.yul\":14062:14065   */\n      0x00\n        /* \"#utility.yul\":14081:14101   */\n      tag_279\n        /* \"#utility.yul\":14099:14100   */\n      dup3\n        /* \"#utility.yul\":14081:14101   */\n      tag_116\n      jump\t// in\n    tag_279:\n        /* \"#utility.yul\":14076:14101   */\n      swap2\n      pop\n        /* \"#utility.yul\":14115:14135   */\n      tag_280\n        /* \"#utility.yul\":14133:14134   */\n      dup4\n        /* \"#utility.yul\":14115:14135   */\n      tag_116\n      jump\t// in\n    tag_280:\n        /* \"#utility.yul\":14110:14135   */\n      swap3\n      pop\n        /* \"#utility.yul\":14158:14159   */\n      dup3\n        /* \"#utility.yul\":14155:14156   */\n      dup3\n        /* \"#utility.yul\":14151:14160   */\n      add\n        /* \"#utility.yul\":14144:14160   */\n      swap1\n      pop\n        /* \"#utility.yul\":14179:14182   */\n      dup1\n        /* \"#utility.yul\":14176:14177   */\n      dup3\n        /* \"#utility.yul\":14173:14183   */\n      gt\n        /* \"#utility.yul\":14170:14206   */\n      iszero\n      tag_281\n      jumpi\n        /* \"#utility.yul\":14186:14204   */\n      tag_282\n      tag_129\n      jump\t// in\n    tag_282:\n        /* \"#utility.yul\":14170:14206   */\n    tag_281:\n        /* \"#utility.yul\":14022:14213   */\n      swap3\n      swap2\n      pop\n      pop\n      jump\t// out\n        /* \"#utility.yul\":14219:14399   */\n    tag_95:\n        /* \"#utility.yul\":14267:14344   */\n      0x4e487b7100000000000000000000000000000000000000000000000000000000\n        /* \"#utility.yul\":14264:14265   */\n      0x00\n        /* \"#utility.yul\":14257:14345   */\n      mstore\n        /* \"#utility.yul\":14364:14368   */\n      0x32\n        /* \"#utility.yul\":14361:14362   */\n      0x04\n        /* \"#utility.yul\":14354:14369   */\n      mstore\n        /* \"#utility.yul\":14388:14392   */\n      0x24\n        /* \"#utility.yul\":14385:14386   */\n      0x00\n        /* \"#utility.yul\":14378:14393   */\n      revert\n\n    auxdata: 0xa2646970667358221220b6c2ba92978dbafeadb1db27ad78ed99838f3afe518244ea3ef835840c4fa19e64736f6c63430008100033\n}\n",
				"bytecode": {
					"linkReferences": {},
					"object": "60806040526040518060400160405280600581526020017f48656c6c6f000000000000000000000000000000000000000000000000000000815250600090816200004a9190620002d9565b503480156200005857600080fd5b50620003c0565b600081519050919050565b7f4e487b7100000000000000000000000000000000000000000000000000000000600052604160045260246000fd5b7f4e487b7100000000000000000000000000000000000000000000000000000000600052602260045260246000fd5b60006002820490506001821680620000e157607f821691505b602082108103620000f757620000f662000099565b5b50919050565b60008190508160005260206000209050919050565b60006020601f8301049050919050565b600082821b905092915050565b600060088302620001617fffffffffffffffffffffffffffffffffffffffffffffffffffffffffffffffff8262000122565b6200016d868362000122565b95508019841693508086168417925050509392505050565b6000819050919050565b6000819050919050565b6000620001ba620001b4620001ae8462000185565b6200018f565b62000185565b9050919050565b6000819050919050565b620001d68362000199565b620001ee620001e582620001c1565b8484546200012f565b825550505050565b600090565b62000205620001f6565b62000212818484620001cb565b505050565b5b818110156200023a576200022e600082620001fb565b60018101905062000218565b5050565b601f82111562000289576200025381620000fd565b6200025e8462000112565b810160208510156200026e578190505b620002866200027d8562000112565b83018262000217565b50505b505050565b600082821c905092915050565b6000620002ae600019846008026200028e565b1980831691505092915050565b6000620002c983836200029b565b9150826002028217905092915050565b620002e4826200005f565b67ffffffffffffffff8111156200030057620002ff6200006a565b5b6200030c8254620000c8565b620003198282856200023e565b600060209050601f8311600181146200035157600084156200033c578287015190505b620003488582620002bb565b865550620003b8565b601f1984166200036186620000fd565b60005b828110156200038b5784890151825560018201915060208501945060208101905062000364565b86831015620003ab5784890151620003a7601f8916826200029b565b8355505b6001600288020188555050505b505050505050565b610d6f80620003d06000396000f3fe608060405234801561001057600080fd5b506004361061007d5760003560e01c806365c19af01161005b57806365c19af0146101025780637a36b3ee146101325780637f2522ec14610162578063bed34bba146101925761007d565b806302dd56d01461008257806311b142b2146100a05780633ed0ca8c146100d2575b600080fd5b61008a6101c2565b60405161009791906105e3565b60405180910390f35b6100ba60048036038101906100b5919061074e565b610250565b6040516100c99392919061081b565b60405180910390f35b6100ec60048036038101906100e7919061074e565b610300565b6040516100f991906105e3565b60405180910390f35b61011c60048036038101906101179190610867565b61032c565b60405161012991906108c9565b60405180910390f35b61014c6004803603810190610147919061074e565b610337565b60405161015991906105e3565b60405180910390f35b61017c60048036038101906101779190610910565b610363565b60405161018991906105e3565b60405180910390f35b6101ac60048036038101906101a7919061074e565b61039a565b6040516101b991906109b6565b60405180910390f35b600080546101cf90610a00565b80601f01602080910402602001604051908101604052809291908181526020018280546101fb90610a00565b80156102485780601f1061021d57610100808354040283529160200191610248565b820191906000526020600020905b81548152906001019060200180831161022b57829003601f168201915b505050505081565b60608060606000858560405160200161026a929190610a31565b604051602081830303815290604052905060008686604051602001610290929190610aa4565b6040516020818303038152906040529050600087876040516020016102b6929190610aa4565b604051602081830303815290604052805190602001206040516020016102dc9190610af3565b60405160208183030381529060405290508282829550955095505050509250925092565b60608282604051602001610315929190610aa4565b604051602081830303815290604052905092915050565b600081519050919050565b6060828260405160200161034c929190610aa4565b604051602081830303815290604052905092915050565b60608361036f846103f3565b8360405160200161038293929190610b34565b60405160208183030381529060405290509392505050565b6000816040516020016103ad9190610b83565b60405160208183030381529060405280519060200120836040516020016103d49190610b83565b6040516020818303038152906040528051906020012014905092915050565b60606000820361043a576040518060400160405280600181526020017f3000000000000000000000000000000000000000000000000000000000000000815250905061054e565b600082905060005b6000821461046c57808061045590610bc9565b915050600a826104659190610c40565b9150610442565b60008167ffffffffffffffff81111561048857610487610623565b5b6040519080825280601f01601f1916602001820160405280156104ba5781602001600182028036833780820191505090505b5090505b60008514610547576001826104d39190610c71565b9150600a856104e29190610ca5565b60306104ee9190610cd6565b60f81b81838151811061050457610503610d0a565b5b60200101907effffffffffffffffffffffffffffffffffffffffffffffffffffffffffffff1916908160001a905350600a856105409190610c40565b94506104be565b8093505050505b919050565b600081519050919050565b600082825260208201905092915050565b60005b8381101561058d578082015181840152602081019050610572565b60008484015250505050565b6000601f19601f8301169050919050565b60006105b582610553565b6105bf818561055e565b93506105cf81856020860161056f565b6105d881610599565b840191505092915050565b600060208201905081810360008301526105fd81846105aa565b905092915050565b6000604051905090565b600080fd5b600080fd5b600080fd5b600080fd5b7f4e487b7100000000000000000000000000000000000000000000000000000000600052604160045260246000fd5b61065b82610599565b810181811067ffffffffffffffff8211171561067a57610679610623565b5b80604052505050565b600061068d610605565b90506106998282610652565b919050565b600067ffffffffffffffff8211156106b9576106b8610623565b5b6106c282610599565b9050602081019050919050565b82818337600083830152505050565b60006106f16106ec8461069e565b610683565b90508281526020810184848401111561070d5761070c61061e565b5b6107188482856106cf565b509392505050565b600082601f83011261073557610734610619565b5b81356107458482602086016106de565b91505092915050565b600080604083850312156107655761076461060f565b5b600083013567ffffffffffffffff81111561078357610782610614565b5b61078f85828601610720565b925050602083013567ffffffffffffffff8111156107b0576107af610614565b5b6107bc85828601610720565b9150509250929050565b600081519050919050565b600082825260208201905092915050565b60006107ed826107c6565b6107f781856107d1565b935061080781856020860161056f565b61081081610599565b840191505092915050565b6000606082019050818103600083015261083581866107e2565b9050818103602083015261084981856107e2565b9050818103604083015261085d81846107e2565b9050949350505050565b60006020828403121561087d5761087c61060f565b5b600082013567ffffffffffffffff81111561089b5761089a610614565b5b6108a784828501610720565b91505092915050565b6000819050919050565b6108c3816108b0565b82525050565b60006020820190506108de60008301846108ba565b92915050565b6108ed816108b0565b81146108f857600080fd5b50565b60008135905061090a816108e4565b92915050565b6000806000606084860312156109295761092861060f565b5b600084013567ffffffffffffffff81111561094757610946610614565b5b61095386828701610720565b9350506020610964868287016108fb565b925050604084013567ffffffffffffffff81111561098557610984610614565b5b61099186828701610720565b9150509250925092565b60008115159050919050565b6109b08161099b565b82525050565b60006020820190506109cb60008301846109a7565b92915050565b7f4e487b7100000000000000000000000000000000000000000000000000000000600052602260045260246000fd5b60006002820490506001821680610a1857607f821691505b602082108103610a2b57610a2a6109d1565b5b50919050565b60006040820190508181036000830152610a4b81856105aa565b90508181036020830152610a5f81846105aa565b90509392505050565b600081905092915050565b6000610a7e82610553565b610a888185610a68565b9350610a9881856020860161056f565b80840191505092915050565b6000610ab08285610a73565b9150610abc8284610a73565b91508190509392505050565b6000819050919050565b6000819050919050565b610aed610ae882610ac8565b610ad2565b82525050565b6000610aff8284610adc565b60208201915081905092915050565b7f2000000000000000000000000000000000000000000000000000000000000000815250565b6000610b408286610a73565b9150610b4b82610b0e565b600182019150610b5b8285610a73565b9150610b6682610b0e565b600182019150610b768284610a73565b9150819050949350505050565b6000610b8f8284610a73565b915081905092915050565b7f4e487b7100000000000000000000000000000000000000000000000000000000600052601160045260246000fd5b6000610bd4826108b0565b91507fffffffffffffffffffffffffffffffffffffffffffffffffffffffffffffffff8203610c0657610c05610b9a565b5b600182019050919050565b7f4e487b7100000000000000000000000000000000000000000000000000000000600052601260045260246000fd5b6000610c4b826108b0565b9150610c56836108b0565b925082610c6657610c65610c11565b5b828204905092915050565b6000610c7c826108b0565b9150610c87836108b0565b9250828203905081811115610c9f57610c9e610b9a565b5b92915050565b6000610cb0826108b0565b9150610cbb836108b0565b925082610ccb57610cca610c11565b5b828206905092915050565b6000610ce1826108b0565b9150610cec836108b0565b9250828201905080821115610d0457610d03610b9a565b5b92915050565b7f4e487b7100000000000000000000000000000000000000000000000000000000600052603260045260246000fdfea2646970667358221220b6c2ba92978dbafeadb1db27ad78ed99838f3afe518244ea3ef835840c4fa19e64736f6c63430008100033",
					"opcodes": "PUSH1 0x80 PUSH1 0x40 MSTORE PUSH1 0x40 MLOAD DUP1 PUSH1 0x40 ADD PUSH1 0x40 MSTORE DUP1 PUSH1 0x5 DUP2 MSTORE PUSH1 0x20 ADD PUSH32 0x48656C6C6F000000000000000000000000000000000000000000000000000000 DUP2 MSTORE POP PUSH1 0x0 SWAP1 DUP2 PUSH3 0x4A SWAP2 SWAP1 PUSH3 0x2D9 JUMP JUMPDEST POP CALLVALUE DUP1 ISZERO PUSH3 0x58 JUMPI PUSH1 0x0 DUP1 REVERT JUMPDEST POP PUSH3 0x3C0 JUMP JUMPDEST PUSH1 0x0 DUP2 MLOAD SWAP1 POP SWAP2 SWAP1 POP JUMP JUMPDEST PUSH32 0x4E487B7100000000000000000000000000000000000000000000000000000000 PUSH1 0x0 MSTORE PUSH1 0x41 PUSH1 0x4 MSTORE PUSH1 0x24 PUSH1 0x0 REVERT JUMPDEST PUSH32 0x4E487B7100000000000000000000000000000000000000000000000000000000 PUSH1 0x0 MSTORE PUSH1 0x22 PUSH1 0x4 MSTORE PUSH1 0x24 PUSH1 0x0 REVERT JUMPDEST PUSH1 0x0 PUSH1 0x2 DUP3 DIV SWAP1 POP PUSH1 0x1 DUP3 AND DUP1 PUSH3 0xE1 JUMPI PUSH1 0x7F DUP3 AND SWAP2 POP JUMPDEST PUSH1 0x20 DUP3 LT DUP2 SUB PUSH3 0xF7 JUMPI PUSH3 0xF6 PUSH3 0x99 JUMP JUMPDEST JUMPDEST POP SWAP2 SWAP1 POP JUMP JUMPDEST PUSH1 0x0 DUP2 SWAP1 POP DUP2 PUSH1 0x0 MSTORE PUSH1 0x20 PUSH1 0x0 KECCAK256 SWAP1 POP SWAP2 SWAP1 POP JUMP JUMPDEST PUSH1 0x0 PUSH1 0x20 PUSH1 0x1F DUP4 ADD DIV SWAP1 POP SWAP2 SWAP1 POP JUMP JUMPDEST PUSH1 0x0 DUP3 DUP3 SHL SWAP1 POP SWAP3 SWAP2 POP POP JUMP JUMPDEST PUSH1 0x0 PUSH1 0x8 DUP4 MUL PUSH3 0x161 PUSH32 0xFFFFFFFFFFFFFFFFFFFFFFFFFFFFFFFFFFFFFFFFFFFFFFFFFFFFFFFFFFFFFFFF DUP3 PUSH3 0x122 JUMP JUMPDEST PUSH3 0x16D DUP7 DUP4 PUSH3 0x122 JUMP JUMPDEST SWAP6 POP DUP1 NOT DUP5 AND SWAP4 POP DUP1 DUP7 AND DUP5 OR SWAP3 POP POP POP SWAP4 SWAP3 POP POP POP JUMP JUMPDEST PUSH1 0x0 DUP2 SWAP1 POP SWAP2 SWAP1 POP JUMP JUMPDEST PUSH1 0x0 DUP2 SWAP1 POP SWAP2 SWAP1 POP JUMP JUMPDEST PUSH1 0x0 PUSH3 0x1BA PUSH3 0x1B4 PUSH3 0x1AE DUP5 PUSH3 0x185 JUMP JUMPDEST PUSH3 0x18F JUMP JUMPDEST PUSH3 0x185 JUMP JUMPDEST SWAP1 POP SWAP2 SWAP1 POP JUMP JUMPDEST PUSH1 0x0 DUP2 SWAP1 POP SWAP2 SWAP1 POP JUMP JUMPDEST PUSH3 0x1D6 DUP4 PUSH3 0x199 JUMP JUMPDEST PUSH3 0x1EE PUSH3 0x1E5 DUP3 PUSH3 0x1C1 JUMP JUMPDEST DUP5 DUP5 SLOAD PUSH3 0x12F JUMP JUMPDEST DUP3 SSTORE POP POP POP POP JUMP JUMPDEST PUSH1 0x0 SWAP1 JUMP JUMPDEST PUSH3 0x205 PUSH3 0x1F6 JUMP JUMPDEST PUSH3 0x212 DUP2 DUP5 DUP5 PUSH3 0x1CB JUMP JUMPDEST POP POP POP JUMP JUMPDEST JUMPDEST DUP2 DUP2 LT ISZERO PUSH3 0x23A JUMPI PUSH3 0x22E PUSH1 0x0 DUP3 PUSH3 0x1FB JUMP JUMPDEST PUSH1 0x1 DUP2 ADD SWAP1 POP PUSH3 0x218 JUMP JUMPDEST POP POP JUMP JUMPDEST PUSH1 0x1F DUP3 GT ISZERO PUSH3 0x289 JUMPI PUSH3 0x253 DUP2 PUSH3 0xFD JUMP JUMPDEST PUSH3 0x25E DUP5 PUSH3 0x112 JUMP JUMPDEST DUP2 ADD PUSH1 0x20 DUP6 LT ISZERO PUSH3 0x26E JUMPI DUP2 SWAP1 POP JUMPDEST PUSH3 0x286 PUSH3 0x27D DUP6 PUSH3 0x112 JUMP JUMPDEST DUP4 ADD DUP3 PUSH3 0x217 JUMP JUMPDEST POP POP JUMPDEST POP POP POP JUMP JUMPDEST PUSH1 0x0 DUP3 DUP3 SHR SWAP1 POP SWAP3 SWAP2 POP POP JUMP JUMPDEST PUSH1 0x0 PUSH3 0x2AE PUSH1 0x0 NOT DUP5 PUSH1 0x8 MUL PUSH3 0x28E JUMP JUMPDEST NOT DUP1 DUP4 AND SWAP2 POP POP SWAP3 SWAP2 POP POP JUMP JUMPDEST PUSH1 0x0 PUSH3 0x2C9 DUP4 DUP4 PUSH3 0x29B JUMP JUMPDEST SWAP2 POP DUP3 PUSH1 0x2 MUL DUP3 OR SWAP1 POP SWAP3 SWAP2 POP POP JUMP JUMPDEST PUSH3 0x2E4 DUP3 PUSH3 0x5F JUMP JUMPDEST PUSH8 0xFFFFFFFFFFFFFFFF DUP2 GT ISZERO PUSH3 0x300 JUMPI PUSH3 0x2FF PUSH3 0x6A JUMP JUMPDEST JUMPDEST PUSH3 0x30C DUP3 SLOAD PUSH3 0xC8 JUMP JUMPDEST PUSH3 0x319 DUP3 DUP3 DUP6 PUSH3 0x23E JUMP JUMPDEST PUSH1 0x0 PUSH1 0x20 SWAP1 POP PUSH1 0x1F DUP4 GT PUSH1 0x1 DUP2 EQ PUSH3 0x351 JUMPI PUSH1 0x0 DUP5 ISZERO PUSH3 0x33C JUMPI DUP3 DUP8 ADD MLOAD SWAP1 POP JUMPDEST PUSH3 0x348 DUP6 DUP3 PUSH3 0x2BB JUMP JUMPDEST DUP7 SSTORE POP PUSH3 0x3B8 JUMP JUMPDEST PUSH1 0x1F NOT DUP5 AND PUSH3 0x361 DUP7 PUSH3 0xFD JUMP JUMPDEST PUSH1 0x0 JUMPDEST DUP3 DUP2 LT ISZERO PUSH3 0x38B JUMPI DUP5 DUP10 ADD MLOAD DUP3 SSTORE PUSH1 0x1 DUP3 ADD SWAP2 POP PUSH1 0x20 DUP6 ADD SWAP5 POP PUSH1 0x20 DUP2 ADD SWAP1 POP PUSH3 0x364 JUMP JUMPDEST DUP7 DUP4 LT ISZERO PUSH3 0x3AB JUMPI DUP5 DUP10 ADD MLOAD PUSH3 0x3A7 PUSH1 0x1F DUP10 AND DUP3 PUSH3 0x29B JUMP JUMPDEST DUP4 SSTORE POP JUMPDEST PUSH1 0x1 PUSH1 0x2 DUP9 MUL ADD DUP9 SSTORE POP POP POP JUMPDEST POP POP POP POP POP POP JUMP JUMPDEST PUSH2 0xD6F DUP1 PUSH3 0x3D0 PUSH1 0x0 CODECOPY PUSH1 0x0 RETURN INVALID PUSH1 0x80 PUSH1 0x40 MSTORE CALLVALUE DUP1 ISZERO PUSH2 0x10 JUMPI PUSH1 0x0 DUP1 REVERT JUMPDEST POP PUSH1 0x4 CALLDATASIZE LT PUSH2 0x7D JUMPI PUSH1 0x0 CALLDATALOAD PUSH1 0xE0 SHR DUP1 PUSH4 0x65C19AF0 GT PUSH2 0x5B JUMPI DUP1 PUSH4 0x65C19AF0 EQ PUSH2 0x102 JUMPI DUP1 PUSH4 0x7A36B3EE EQ PUSH2 0x132 JUMPI DUP1 PUSH4 0x7F2522EC EQ PUSH2 0x162 JUMPI DUP1 PUSH4 0xBED34BBA EQ PUSH2 0x192 JUMPI PUSH2 0x7D JUMP JUMPDEST DUP1 PUSH4 0x2DD56D0 EQ PUSH2 0x82 JUMPI DUP1 PUSH4 0x11B142B2 EQ PUSH2 0xA0 JUMPI DUP1 PUSH4 0x3ED0CA8C EQ PUSH2 0xD2 JUMPI JUMPDEST PUSH1 0x0 DUP1 REVERT JUMPDEST PUSH2 0x8A PUSH2 0x1C2 JUMP JUMPDEST PUSH1 0x40 MLOAD PUSH2 0x97 SWAP2 SWAP1 PUSH2 0x5E3 JUMP JUMPDEST PUSH1 0x40 MLOAD DUP1 SWAP2 SUB SWAP1 RETURN JUMPDEST PUSH2 0xBA PUSH1 0x4 DUP1 CALLDATASIZE SUB DUP2 ADD SWAP1 PUSH2 0xB5 SWAP2 SWAP1 PUSH2 0x74E JUMP JUMPDEST PUSH2 0x250 JUMP JUMPDEST PUSH1 0x40 MLOAD PUSH2 0xC9 SWAP4 SWAP3 SWAP2 SWAP1 PUSH2 0x81B JUMP JUMPDEST PUSH1 0x40 MLOAD DUP1 SWAP2 SUB SWAP1 RETURN JUMPDEST PUSH2 0xEC PUSH1 0x4 DUP1 CALLDATASIZE SUB DUP2 ADD SWAP1 PUSH2 0xE7 SWAP2 SWAP1 PUSH2 0x74E JUMP JUMPDEST PUSH2 0x300 JUMP JUMPDEST PUSH1 0x40 MLOAD PUSH2 0xF9 SWAP2 SWAP1 PUSH2 0x5E3 JUMP JUMPDEST PUSH1 0x40 MLOAD DUP1 SWAP2 SUB SWAP1 RETURN JUMPDEST PUSH2 0x11C PUSH1 0x4 DUP1 CALLDATASIZE SUB DUP2 ADD SWAP1 PUSH2 0x117 SWAP2 SWAP1 PUSH2 0x867 JUMP JUMPDEST PUSH2 0x32C JUMP JUMPDEST PUSH1 0x40 MLOAD PUSH2 0x129 SWAP2 SWAP1 PUSH2 0x8C9 JUMP JUMPDEST PUSH1 0x40 MLOAD DUP1 SWAP2 SUB SWAP1 RETURN JUMPDEST PUSH2 0x14C PUSH1 0x4 DUP1 CALLDATASIZE SUB DUP2 ADD SWAP1 PUSH2 0x147 SWAP2 SWAP1 PUSH2 0x74E JUMP JUMPDEST PUSH2 0x337 JUMP JUMPDEST PUSH1 0x40 MLOAD PUSH2 0x159 SWAP2 SWAP1 PUSH2 0x5E3 JUMP JUMPDEST PUSH1 0x40 MLOAD DUP1 SWAP2 SUB SWAP1 RETURN JUMPDEST PUSH2 0x17C PUSH1 0x4 DUP1 CALLDATASIZE SUB DUP2 ADD SWAP1 PUSH2 0x177 SWAP2 SWAP1 PUSH2 0x910 JUMP JUMPDEST PUSH2 0x363 JUMP JUMPDEST PUSH1 0x40 MLOAD PUSH2 0x189 SWAP2 SWAP1 PUSH2 0x5E3 JUMP JUMPDEST PUSH1 0x40 MLOAD DUP1 SWAP2 SUB SWAP1 RETURN JUMPDEST PUSH2 0x1AC PUSH1 0x4 DUP1 CALLDATASIZE SUB DUP2 ADD SWAP1 PUSH2 0x1A7 SWAP2 SWAP1 PUSH2 0x74E JUMP JUMPDEST PUSH2 0x39A JUMP JUMPDEST PUSH1 0x40 MLOAD PUSH2 0x1B9 SWAP2 SWAP1 PUSH2 0x9B6 JUMP JUMPDEST PUSH1 0x40 MLOAD DUP1 SWAP2 SUB SWAP1 RETURN JUMPDEST PUSH1 0x0 DUP1 SLOAD PUSH2 0x1CF SWAP1 PUSH2 0xA00 JUMP JUMPDEST DUP1 PUSH1 0x1F ADD PUSH1 0x20 DUP1 SWAP2 DIV MUL PUSH1 0x20 ADD PUSH1 0x40 MLOAD SWAP1 DUP2 ADD PUSH1 0x40 MSTORE DUP1 SWAP3 SWAP2 SWAP1 DUP2 DUP2 MSTORE PUSH1 0x20 ADD DUP3 DUP1 SLOAD PUSH2 0x1FB SWAP1 PUSH2 0xA00 JUMP JUMPDEST DUP1 ISZERO PUSH2 0x248 JUMPI DUP1 PUSH1 0x1F LT PUSH2 0x21D JUMPI PUSH2 0x100 DUP1 DUP4 SLOAD DIV MUL DUP4 MSTORE SWAP2 PUSH1 0x20 ADD SWAP2 PUSH2 0x248 JUMP JUMPDEST DUP3 ADD SWAP2 SWAP1 PUSH1 0x0 MSTORE PUSH1 0x20 PUSH1 0x0 KECCAK256 SWAP1 JUMPDEST DUP2 SLOAD DUP2 MSTORE SWAP1 PUSH1 0x1 ADD SWAP1 PUSH1 0x20 ADD DUP1 DUP4 GT PUSH2 0x22B JUMPI DUP3 SWAP1 SUB PUSH1 0x1F AND DUP3 ADD SWAP2 JUMPDEST POP POP POP POP POP DUP2 JUMP JUMPDEST PUSH1 0x60 DUP1 PUSH1 0x60 PUSH1 0x0 DUP6 DUP6 PUSH1 0x40 MLOAD PUSH1 0x20 ADD PUSH2 0x26A SWAP3 SWAP2 SWAP1 PUSH2 0xA31 JUMP JUMPDEST PUSH1 0x40 MLOAD PUSH1 0x20 DUP2 DUP4 SUB SUB DUP2 MSTORE SWAP1 PUSH1 0x40 MSTORE SWAP1 POP PUSH1 0x0 DUP7 DUP7 PUSH1 0x40 MLOAD PUSH1 0x20 ADD PUSH2 0x290 SWAP3 SWAP2 SWAP1 PUSH2 0xAA4 JUMP JUMPDEST PUSH1 0x40 MLOAD PUSH1 0x20 DUP2 DUP4 SUB SUB DUP2 MSTORE SWAP1 PUSH1 0x40 MSTORE SWAP1 POP PUSH1 0x0 DUP8 DUP8 PUSH1 0x40 MLOAD PUSH1 0x20 ADD PUSH2 0x2B6 SWAP3 SWAP2 SWAP1 PUSH2 0xAA4 JUMP JUMPDEST PUSH1 0x40 MLOAD PUSH1 0x20 DUP2 DUP4 SUB SUB DUP2 MSTORE SWAP1 PUSH1 0x40 MSTORE DUP1 MLOAD SWAP1 PUSH1 0x20 ADD KECCAK256 PUSH1 0x40 MLOAD PUSH1 0x20 ADD PUSH2 0x2DC SWAP2 SWAP1 PUSH2 0xAF3 JUMP JUMPDEST PUSH1 0x40 MLOAD PUSH1 0x20 DUP2 DUP4 SUB SUB DUP2 MSTORE SWAP1 PUSH1 0x40 MSTORE SWAP1 POP DUP3 DUP3 DUP3 SWAP6 POP SWAP6 POP SWAP6 POP POP POP POP SWAP3 POP SWAP3 POP SWAP3 JUMP JUMPDEST PUSH1 0x60 DUP3 DUP3 PUSH1 0x40 MLOAD PUSH1 0x20 ADD PUSH2 0x315 SWAP3 SWAP2 SWAP1 PUSH2 0xAA4 JUMP JUMPDEST PUSH1 0x40 MLOAD PUSH1 0x20 DUP2 DUP4 SUB SUB DUP2 MSTORE SWAP1 PUSH1 0x40 MSTORE SWAP1 POP SWAP3 SWAP2 POP POP JUMP JUMPDEST PUSH1 0x0 DUP2 MLOAD SWAP1 POP SWAP2 SWAP1 POP JUMP JUMPDEST PUSH1 0x60 DUP3 DUP3 PUSH1 0x40 MLOAD PUSH1 0x20 ADD PUSH2 0x34C SWAP3 SWAP2 SWAP1 PUSH2 0xAA4 JUMP JUMPDEST PUSH1 0x40 MLOAD PUSH1 0x20 DUP2 DUP4 SUB SUB DUP2 MSTORE SWAP1 PUSH1 0x40 MSTORE SWAP1 POP SWAP3 SWAP2 POP POP JUMP JUMPDEST PUSH1 0x60 DUP4 PUSH2 0x36F DUP5 PUSH2 0x3F3 JUMP JUMPDEST DUP4 PUSH1 0x40 MLOAD PUSH1 0x20 ADD PUSH2 0x382 SWAP4 SWAP3 SWAP2 SWAP1 PUSH2 0xB34 JUMP JUMPDEST PUSH1 0x40 MLOAD PUSH1 0x20 DUP2 DUP4 SUB SUB DUP2 MSTORE SWAP1 PUSH1 0x40 MSTORE SWAP1 POP SWAP4 SWAP3 POP POP POP JUMP JUMPDEST PUSH1 0x0 DUP2 PUSH1 0x40 MLOAD PUSH1 0x20 ADD PUSH2 0x3AD SWAP2 SWAP1 PUSH2 0xB83 JUMP JUMPDEST PUSH1 0x40 MLOAD PUSH1 0x20 DUP2 DUP4 SUB SUB DUP2 MSTORE SWAP1 PUSH1 0x40 MSTORE DUP1 MLOAD SWAP1 PUSH1 0x20 ADD KECCAK256 DUP4 PUSH1 0x40 MLOAD PUSH1 0x20 ADD PUSH2 0x3D4 SWAP2 SWAP1 PUSH2 0xB83 JUMP JUMPDEST PUSH1 0x40 MLOAD PUSH1 0x20 DUP2 DUP4 SUB SUB DUP2 MSTORE SWAP1 PUSH1 0x40 MSTORE DUP1 MLOAD SWAP1 PUSH1 0x20 ADD KECCAK256 EQ SWAP1 POP SWAP3 SWAP2 POP POP JUMP JUMPDEST PUSH1 0x60 PUSH1 0x0 DUP3 SUB PUSH2 0x43A JUMPI PUSH1 0x40 MLOAD DUP1 PUSH1 0x40 ADD PUSH1 0x40 MSTORE DUP1 PUSH1 0x1 DUP2 MSTORE PUSH1 0x20 ADD PUSH32 0x3000000000000000000000000000000000000000000000000000000000000000 DUP2 MSTORE POP SWAP1 POP PUSH2 0x54E JUMP JUMPDEST PUSH1 0x0 DUP3 SWAP1 POP PUSH1 0x0 JUMPDEST PUSH1 0x0 DUP3 EQ PUSH2 0x46C JUMPI DUP1 DUP1 PUSH2 0x455 SWAP1 PUSH2 0xBC9 JUMP JUMPDEST SWAP2 POP POP PUSH1 0xA DUP3 PUSH2 0x465 SWAP2 SWAP1 PUSH2 0xC40 JUMP JUMPDEST SWAP2 POP PUSH2 0x442 JUMP JUMPDEST PUSH1 0x0 DUP2 PUSH8 0xFFFFFFFFFFFFFFFF DUP2 GT ISZERO PUSH2 0x488 JUMPI PUSH2 0x487 PUSH2 0x623 JUMP JUMPDEST JUMPDEST PUSH1 0x40 MLOAD SWAP1 DUP1 DUP3 MSTORE DUP1 PUSH1 0x1F ADD PUSH1 0x1F NOT AND PUSH1 0x20 ADD DUP3 ADD PUSH1 0x40 MSTORE DUP1 ISZERO PUSH2 0x4BA JUMPI DUP2 PUSH1 0x20 ADD PUSH1 0x1 DUP3 MUL DUP1 CALLDATASIZE DUP4 CALLDATACOPY DUP1 DUP3 ADD SWAP2 POP POP SWAP1 POP JUMPDEST POP SWAP1 POP JUMPDEST PUSH1 0x0 DUP6 EQ PUSH2 0x547 JUMPI PUSH1 0x1 DUP3 PUSH2 0x4D3 SWAP2 SWAP1 PUSH2 0xC71 JUMP JUMPDEST SWAP2 POP PUSH1 0xA DUP6 PUSH2 0x4E2 SWAP2 SWAP1 PUSH2 0xCA5 JUMP JUMPDEST PUSH1 0x30 PUSH2 0x4EE SWAP2 SWAP1 PUSH2 0xCD6 JUMP JUMPDEST PUSH1 0xF8 SHL DUP2 DUP4 DUP2 MLOAD DUP2 LT PUSH2 0x504 JUMPI PUSH2 0x503 PUSH2 0xD0A JUMP JUMPDEST JUMPDEST PUSH1 0x20 ADD ADD SWAP1 PUSH31 0xFFFFFFFFFFFFFFFFFFFFFFFFFFFFFFFFFFFFFFFFFFFFFFFFFFFFFFFFFFFFFF NOT AND SWAP1 DUP2 PUSH1 0x0 BYTE SWAP1 MSTORE8 POP PUSH1 0xA DUP6 PUSH2 0x540 SWAP2 SWAP1 PUSH2 0xC40 JUMP JUMPDEST SWAP5 POP PUSH2 0x4BE JUMP JUMPDEST DUP1 SWAP4 POP POP POP POP JUMPDEST SWAP2 SWAP1 POP JUMP JUMPDEST PUSH1 0x0 DUP2 MLOAD SWAP1 POP SWAP2 SWAP1 POP JUMP JUMPDEST PUSH1 0x0 DUP3 DUP3 MSTORE PUSH1 0x20 DUP3 ADD SWAP1 POP SWAP3 SWAP2 POP POP JUMP JUMPDEST PUSH1 0x0 JUMPDEST DUP4 DUP2 LT ISZERO PUSH2 0x58D JUMPI DUP1 DUP3 ADD MLOAD DUP2 DUP5 ADD MSTORE PUSH1 0x20 DUP2 ADD SWAP1 POP PUSH2 0x572 JUMP JUMPDEST PUSH1 0x0 DUP5 DUP5 ADD MSTORE POP POP POP POP JUMP JUMPDEST PUSH1 0x0 PUSH1 0x1F NOT PUSH1 0x1F DUP4 ADD AND SWAP1 POP SWAP2 SWAP1 POP JUMP JUMPDEST PUSH1 0x0 PUSH2 0x5B5 DUP3 PUSH2 0x553 JUMP JUMPDEST PUSH2 0x5BF DUP2 DUP6 PUSH2 0x55E JUMP JUMPDEST SWAP4 POP PUSH2 0x5CF DUP2 DUP6 PUSH1 0x20 DUP7 ADD PUSH2 0x56F JUMP JUMPDEST PUSH2 0x5D8 DUP2 PUSH2 0x599 JUMP JUMPDEST DUP5 ADD SWAP2 POP POP SWAP3 SWAP2 POP POP JUMP JUMPDEST PUSH1 0x0 PUSH1 0x20 DUP3 ADD SWAP1 POP DUP2 DUP2 SUB PUSH1 0x0 DUP4 ADD MSTORE PUSH2 0x5FD DUP2 DUP5 PUSH2 0x5AA JUMP JUMPDEST SWAP1 POP SWAP3 SWAP2 POP POP JUMP JUMPDEST PUSH1 0x0 PUSH1 0x40 MLOAD SWAP1 POP SWAP1 JUMP JUMPDEST PUSH1 0x0 DUP1 REVERT JUMPDEST PUSH1 0x0 DUP1 REVERT JUMPDEST PUSH1 0x0 DUP1 REVERT JUMPDEST PUSH1 0x0 DUP1 REVERT JUMPDEST PUSH32 0x4E487B7100000000000000000000000000000000000000000000000000000000 PUSH1 0x0 MSTORE PUSH1 0x41 PUSH1 0x4 MSTORE PUSH1 0x24 PUSH1 0x0 REVERT JUMPDEST PUSH2 0x65B DUP3 PUSH2 0x599 JUMP JUMPDEST DUP2 ADD DUP2 DUP2 LT PUSH8 0xFFFFFFFFFFFFFFFF DUP3 GT OR ISZERO PUSH2 0x67A JUMPI PUSH2 0x679 PUSH2 0x623 JUMP JUMPDEST JUMPDEST DUP1 PUSH1 0x40 MSTORE POP POP POP JUMP JUMPDEST PUSH1 0x0 PUSH2 0x68D PUSH2 0x605 JUMP JUMPDEST SWAP1 POP PUSH2 0x699 DUP3 DUP3 PUSH2 0x652 JUMP JUMPDEST SWAP2 SWAP1 POP JUMP JUMPDEST PUSH1 0x0 PUSH8 0xFFFFFFFFFFFFFFFF DUP3 GT ISZERO PUSH2 0x6B9 JUMPI PUSH2 0x6B8 PUSH2 0x623 JUMP JUMPDEST JUMPDEST PUSH2 0x6C2 DUP3 PUSH2 0x599 JUMP JUMPDEST SWAP1 POP PUSH1 0x20 DUP2 ADD SWAP1 POP SWAP2 SWAP1 POP JUMP JUMPDEST DUP3 DUP2 DUP4 CALLDATACOPY PUSH1 0x0 DUP4 DUP4 ADD MSTORE POP POP POP JUMP JUMPDEST PUSH1 0x0 PUSH2 0x6F1 PUSH2 0x6EC DUP5 PUSH2 0x69E JUMP JUMPDEST PUSH2 0x683 JUMP JUMPDEST SWAP1 POP DUP3 DUP2 MSTORE PUSH1 0x20 DUP2 ADD DUP5 DUP5 DUP5 ADD GT ISZERO PUSH2 0x70D JUMPI PUSH2 0x70C PUSH2 0x61E JUMP JUMPDEST JUMPDEST PUSH2 0x718 DUP5 DUP3 DUP6 PUSH2 0x6CF JUMP JUMPDEST POP SWAP4 SWAP3 POP POP POP JUMP JUMPDEST PUSH1 0x0 DUP3 PUSH1 0x1F DUP4 ADD SLT PUSH2 0x735 JUMPI PUSH2 0x734 PUSH2 0x619 JUMP JUMPDEST JUMPDEST DUP2 CALLDATALOAD PUSH2 0x745 DUP5 DUP3 PUSH1 0x20 DUP7 ADD PUSH2 0x6DE JUMP JUMPDEST SWAP2 POP POP SWAP3 SWAP2 POP POP JUMP JUMPDEST PUSH1 0x0 DUP1 PUSH1 0x40 DUP4 DUP6 SUB SLT ISZERO PUSH2 0x765 JUMPI PUSH2 0x764 PUSH2 0x60F JUMP JUMPDEST JUMPDEST PUSH1 0x0 DUP4 ADD CALLDATALOAD PUSH8 0xFFFFFFFFFFFFFFFF DUP2 GT ISZERO PUSH2 0x783 JUMPI PUSH2 0x782 PUSH2 0x614 JUMP JUMPDEST JUMPDEST PUSH2 0x78F DUP6 DUP3 DUP7 ADD PUSH2 0x720 JUMP JUMPDEST SWAP3 POP POP PUSH1 0x20 DUP4 ADD CALLDATALOAD PUSH8 0xFFFFFFFFFFFFFFFF DUP2 GT ISZERO PUSH2 0x7B0 JUMPI PUSH2 0x7AF PUSH2 0x614 JUMP JUMPDEST JUMPDEST PUSH2 0x7BC DUP6 DUP3 DUP7 ADD PUSH2 0x720 JUMP JUMPDEST SWAP2 POP POP SWAP3 POP SWAP3 SWAP1 POP JUMP JUMPDEST PUSH1 0x0 DUP2 MLOAD SWAP1 POP SWAP2 SWAP1 POP JUMP JUMPDEST PUSH1 0x0 DUP3 DUP3 MSTORE PUSH1 0x20 DUP3 ADD SWAP1 POP SWAP3 SWAP2 POP POP JUMP JUMPDEST PUSH1 0x0 PUSH2 0x7ED DUP3 PUSH2 0x7C6 JUMP JUMPDEST PUSH2 0x7F7 DUP2 DUP6 PUSH2 0x7D1 JUMP JUMPDEST SWAP4 POP PUSH2 0x807 DUP2 DUP6 PUSH1 0x20 DUP7 ADD PUSH2 0x56F JUMP JUMPDEST PUSH2 0x810 DUP2 PUSH2 0x599 JUMP JUMPDEST DUP5 ADD SWAP2 POP POP SWAP3 SWAP2 POP POP JUMP JUMPDEST PUSH1 0x0 PUSH1 0x60 DUP3 ADD SWAP1 POP DUP2 DUP2 SUB PUSH1 0x0 DUP4 ADD MSTORE PUSH2 0x835 DUP2 DUP7 PUSH2 0x7E2 JUMP JUMPDEST SWAP1 POP DUP2 DUP2 SUB PUSH1 0x20 DUP4 ADD MSTORE PUSH2 0x849 DUP2 DUP6 PUSH2 0x7E2 JUMP JUMPDEST SWAP1 POP DUP2 DUP2 SUB PUSH1 0x40 DUP4 ADD MSTORE PUSH2 0x85D DUP2 DUP5 PUSH2 0x7E2 JUMP JUMPDEST SWAP1 POP SWAP5 SWAP4 POP POP POP POP JUMP JUMPDEST PUSH1 0x0 PUSH1 0x20 DUP3 DUP5 SUB SLT ISZERO PUSH2 0x87D JUMPI PUSH2 0x87C PUSH2 0x60F JUMP JUMPDEST JUMPDEST PUSH1 0x0 DUP3 ADD CALLDATALOAD PUSH8 0xFFFFFFFFFFFFFFFF DUP2 GT ISZERO PUSH2 0x89B JUMPI PUSH2 0x89A PUSH2 0x614 JUMP JUMPDEST JUMPDEST PUSH2 0x8A7 DUP5 DUP3 DUP6 ADD PUSH2 0x720 JUMP JUMPDEST SWAP2 POP POP SWAP3 SWAP2 POP POP JUMP JUMPDEST PUSH1 0x0 DUP2 SWAP1 POP SWAP2 SWAP1 POP JUMP JUMPDEST PUSH2 0x8C3 DUP2 PUSH2 0x8B0 JUMP JUMPDEST DUP3 MSTORE POP POP JUMP JUMPDEST PUSH1 0x0 PUSH1 0x20 DUP3 ADD SWAP1 POP PUSH2 0x8DE PUSH1 0x0 DUP4 ADD DUP5 PUSH2 0x8BA JUMP JUMPDEST SWAP3 SWAP2 POP POP JUMP JUMPDEST PUSH2 0x8ED DUP2 PUSH2 0x8B0 JUMP JUMPDEST DUP2 EQ PUSH2 0x8F8 JUMPI PUSH1 0x0 DUP1 REVERT JUMPDEST POP JUMP JUMPDEST PUSH1 0x0 DUP2 CALLDATALOAD SWAP1 POP PUSH2 0x90A DUP2 PUSH2 0x8E4 JUMP JUMPDEST SWAP3 SWAP2 POP POP JUMP JUMPDEST PUSH1 0x0 DUP1 PUSH1 0x0 PUSH1 0x60 DUP5 DUP7 SUB SLT ISZERO PUSH2 0x929 JUMPI PUSH2 0x928 PUSH2 0x60F JUMP JUMPDEST JUMPDEST PUSH1 0x0 DUP5 ADD CALLDATALOAD PUSH8 0xFFFFFFFFFFFFFFFF DUP2 GT ISZERO PUSH2 0x947 JUMPI PUSH2 0x946 PUSH2 0x614 JUMP JUMPDEST JUMPDEST PUSH2 0x953 DUP7 DUP3 DUP8 ADD PUSH2 0x720 JUMP JUMPDEST SWAP4 POP POP PUSH1 0x20 PUSH2 0x964 DUP7 DUP3 DUP8 ADD PUSH2 0x8FB JUMP JUMPDEST SWAP3 POP POP PUSH1 0x40 DUP5 ADD CALLDATALOAD PUSH8 0xFFFFFFFFFFFFFFFF DUP2 GT ISZERO PUSH2 0x985 JUMPI PUSH2 0x984 PUSH2 0x614 JUMP JUMPDEST JUMPDEST PUSH2 0x991 DUP7 DUP3 DUP8 ADD PUSH2 0x720 JUMP JUMPDEST SWAP2 POP POP SWAP3 POP SWAP3 POP SWAP3 JUMP JUMPDEST PUSH1 0x0 DUP2 ISZERO ISZERO SWAP1 POP SWAP2 SWAP1 POP JUMP JUMPDEST PUSH2 0x9B0 DUP2 PUSH2 0x99B JUMP JUMPDEST DUP3 MSTORE POP POP JUMP JUMPDEST PUSH1 0x0 PUSH1 0x20 DUP3 ADD SWAP1 POP PUSH2 0x9CB PUSH1 0x0 DUP4 ADD DUP5 PUSH2 0x9A7 JUMP JUMPDEST SWAP3 SWAP2 POP POP JUMP JUMPDEST PUSH32 0x4E487B7100000000000000000000000000000000000000000000000000000000 PUSH1 0x0 MSTORE PUSH1 0x22 PUSH1 0x4 MSTORE PUSH1 0x24 PUSH1 0x0 REVERT JUMPDEST PUSH1 0x0 PUSH1 0x2 DUP3 DIV SWAP1 POP PUSH1 0x1 DUP3 AND DUP1 PUSH2 0xA18 JUMPI PUSH1 0x7F DUP3 AND SWAP2 POP JUMPDEST PUSH1 0x20 DUP3 LT DUP2 SUB PUSH2 0xA2B JUMPI PUSH2 0xA2A PUSH2 0x9D1 JUMP JUMPDEST JUMPDEST POP SWAP2 SWAP1 POP JUMP JUMPDEST PUSH1 0x0 PUSH1 0x40 DUP3 ADD SWAP1 POP DUP2 DUP2 SUB PUSH1 0x0 DUP4 ADD MSTORE PUSH2 0xA4B DUP2 DUP6 PUSH2 0x5AA JUMP JUMPDEST SWAP1 POP DUP2 DUP2 SUB PUSH1 0x20 DUP4 ADD MSTORE PUSH2 0xA5F DUP2 DUP5 PUSH2 0x5AA JUMP JUMPDEST SWAP1 POP SWAP4 SWAP3 POP POP POP JUMP JUMPDEST PUSH1 0x0 DUP2 SWAP1 POP SWAP3 SWAP2 POP POP JUMP JUMPDEST PUSH1 0x0 PUSH2 0xA7E DUP3 PUSH2 0x553 JUMP JUMPDEST PUSH2 0xA88 DUP2 DUP6 PUSH2 0xA68 JUMP JUMPDEST SWAP4 POP PUSH2 0xA98 DUP2 DUP6 PUSH1 0x20 DUP7 ADD PUSH2 0x56F JUMP JUMPDEST DUP1 DUP5 ADD SWAP2 POP POP SWAP3 SWAP2 POP POP JUMP JUMPDEST PUSH1 0x0 PUSH2 0xAB0 DUP3 DUP6 PUSH2 0xA73 JUMP JUMPDEST SWAP2 POP PUSH2 0xABC DUP3 DUP5 PUSH2 0xA73 JUMP JUMPDEST SWAP2 POP DUP2 SWAP1 POP SWAP4 SWAP3 POP POP POP JUMP JUMPDEST PUSH1 0x0 DUP2 SWAP1 POP SWAP2 SWAP1 POP JUMP JUMPDEST PUSH1 0x0 DUP2 SWAP1 POP SWAP2 SWAP1 POP JUMP JUMPDEST PUSH2 0xAED PUSH2 0xAE8 DUP3 PUSH2 0xAC8 JUMP JUMPDEST PUSH2 0xAD2 JUMP JUMPDEST DUP3 MSTORE POP POP JUMP JUMPDEST PUSH1 0x0 PUSH2 0xAFF DUP3 DUP5 PUSH2 0xADC JUMP JUMPDEST PUSH1 0x20 DUP3 ADD SWAP2 POP DUP2 SWAP1 POP SWAP3 SWAP2 POP POP JUMP JUMPDEST PUSH32 0x2000000000000000000000000000000000000000000000000000000000000000 DUP2 MSTORE POP JUMP JUMPDEST PUSH1 0x0 PUSH2 0xB40 DUP3 DUP7 PUSH2 0xA73 JUMP JUMPDEST SWAP2 POP PUSH2 0xB4B DUP3 PUSH2 0xB0E JUMP JUMPDEST PUSH1 0x1 DUP3 ADD SWAP2 POP PUSH2 0xB5B DUP3 DUP6 PUSH2 0xA73 JUMP JUMPDEST SWAP2 POP PUSH2 0xB66 DUP3 PUSH2 0xB0E JUMP JUMPDEST PUSH1 0x1 DUP3 ADD SWAP2 POP PUSH2 0xB76 DUP3 DUP5 PUSH2 0xA73 JUMP JUMPDEST SWAP2 POP DUP2 SWAP1 POP SWAP5 SWAP4 POP POP POP POP JUMP JUMPDEST PUSH1 0x0 PUSH2 0xB8F DUP3 DUP5 PUSH2 0xA73 JUMP JUMPDEST SWAP2 POP DUP2 SWAP1 POP SWAP3 SWAP2 POP POP JUMP JUMPDEST PUSH32 0x4E487B7100000000000000000000000000000000000000000000000000000000 PUSH1 0x0 MSTORE PUSH1 0x11 PUSH1 0x4 MSTORE PUSH1 0x24 PUSH1 0x0 REVERT JUMPDEST PUSH1 0x0 PUSH2 0xBD4 DUP3 PUSH2 0x8B0 JUMP JUMPDEST SWAP2 POP PUSH32 0xFFFFFFFFFFFFFFFFFFFFFFFFFFFFFFFFFFFFFFFFFFFFFFFFFFFFFFFFFFFFFFFF DUP3 SUB PUSH2 0xC06 JUMPI PUSH2 0xC05 PUSH2 0xB9A JUMP JUMPDEST JUMPDEST PUSH1 0x1 DUP3 ADD SWAP1 POP SWAP2 SWAP1 POP JUMP JUMPDEST PUSH32 0x4E487B7100000000000000000000000000000000000000000000000000000000 PUSH1 0x0 MSTORE PUSH1 0x12 PUSH1 0x4 MSTORE PUSH1 0x24 PUSH1 0x0 REVERT JUMPDEST PUSH1 0x0 PUSH2 0xC4B DUP3 PUSH2 0x8B0 JUMP JUMPDEST SWAP2 POP PUSH2 0xC56 DUP4 PUSH2 0x8B0 JUMP JUMPDEST SWAP3 POP DUP3 PUSH2 0xC66 JUMPI PUSH2 0xC65 PUSH2 0xC11 JUMP JUMPDEST JUMPDEST DUP3 DUP3 DIV SWAP1 POP SWAP3 SWAP2 POP POP JUMP JUMPDEST PUSH1 0x0 PUSH2 0xC7C DUP3 PUSH2 0x8B0 JUMP JUMPDEST SWAP2 POP PUSH2 0xC87 DUP4 PUSH2 0x8B0 JUMP JUMPDEST SWAP3 POP DUP3 DUP3 SUB SWAP1 POP DUP2 DUP2 GT ISZERO PUSH2 0xC9F JUMPI PUSH2 0xC9E PUSH2 0xB9A JUMP JUMPDEST JUMPDEST SWAP3 SWAP2 POP POP JUMP JUMPDEST PUSH1 0x0 PUSH2 0xCB0 DUP3 PUSH2 0x8B0 JUMP JUMPDEST SWAP2 POP PUSH2 0xCBB DUP4 PUSH2 0x8B0 JUMP JUMPDEST SWAP3 POP DUP3 PUSH2 0xCCB JUMPI PUSH2 0xCCA PUSH2 0xC11 JUMP JUMPDEST JUMPDEST DUP3 DUP3 MOD SWAP1 POP SWAP3 SWAP2 POP POP JUMP JUMPDEST PUSH1 0x0 PUSH2 0xCE1 DUP3 PUSH2 0x8B0 JUMP JUMPDEST SWAP2 POP PUSH2 0xCEC DUP4 PUSH2 0x8B0 JUMP JUMPDEST SWAP3 POP DUP3 DUP3 ADD SWAP1 POP DUP1 DUP3 GT ISZERO PUSH2 0xD04 JUMPI PUSH2 0xD03 PUSH2 0xB9A JUMP JUMPDEST JUMPDEST SWAP3 SWAP2 POP POP JUMP JUMPDEST PUSH32 0x4E487B7100000000000000000000000000000000000000000000000000000000 PUSH1 0x0 MSTORE PUSH1 0x32 PUSH1 0x4 MSTORE PUSH1 0x24 PUSH1 0x0 REVERT INVALID LOG2 PUSH5 0x6970667358 0x22 SLT KECCAK256 0xB6 0xC2 0xBA SWAP3 SWAP8 DUP14 0xBA INVALID 0xAD 0xB1 0xDB 0x27 0xAD PUSH25 0xED99838F3AFE518244EA3EF835840C4FA19E64736F6C634300 ADDMOD LT STOP CALLER "
				},
				"gasEstimates": {
					"creation": {
						"codeDepositCost": "687800",
						"executionCost": "infinite",
						"totalCost": "infinite"
					},
					"external": {
						"compareStrings(string,string)": "infinite",
						"concatenateStrings(string,string)": "infinite",
						"concatenateStringsLegacy(string,string)": "infinite",
						"concatenateWithNumber(string,uint256,string)": "infinite",
						"demonstrateEncoding(string,string)": "infinite",
						"getStringLength(string)": "infinite",
						"storedString()": "infinite"
					},
					"internal": {
						"toString(uint256)": "infinite"
					}
				},
				"methodIdentifiers": {
					"compareStrings(string,string)": "bed34bba",
					"concatenateStrings(string,string)": "7a36b3ee",
					"concatenateStringsLegacy(string,string)": "3ed0ca8c",
					"concatenateWithNumber(string,uint256,string)": "7f2522ec",
					"demonstrateEncoding(string,string)": "11b142b2",
					"getStringLength(string)": "65c19af0",
					"storedString()": "02dd56d0"
				}
			},
			"storageLayout": {
				"storage": [
					{
						"astId": 4,
						"contract": "contracts/asa.sol:StringOperations",
						"label": "storedString",
						"offset": 0,
						"slot": "0",
						"type": "t_string_storage"
					}
				],
				"types": {
					"t_string_storage": {
						"encoding": "bytes",
						"label": "string",
						"numberOfBytes": "32"
					}
				}
			},
			"userdoc": {
				"kind": "user",
				"methods": {},
				"version": 1
			}
		}
	}
}