{
	"contracts/IntegerOverflowUnderflow.sol": {
		"IntegerOverflowUnderflow": {
			"abi": [
				{
					"inputs": [],
					"name": "decrement",
					"outputs": [],
					"stateMutability": "nonpayable",
					"type": "function"
				},
				{
					"inputs": [],
					"name": "decrementUnchecked",
					"outputs": [],
					"stateMutability": "nonpayable",
					"type": "function"
				},
				{
					"inputs": [],
					"name": "increment",
					"outputs": [],
					"stateMutability": "nonpayable",
					"type": "function"
				},
				{
					"inputs": [],
					"name": "incrementUnchecked",
					"outputs": [],
					"stateMutability": "nonpayable",
					"type": "function"
				},
				{
					"inputs": [
						{
							"internalType": "uint256",
							"name": "x",
							"type": "uint256"
						},
						{
							"internalType": "uint256",
							"name": "y",
							"type": "uint256"
						}
					],
					"name": "multiply",
					"outputs": [
						{
							"internalType": "uint256",
							"name": "",
							"type": "uint256"
						}
					],
					"stateMutability": "pure",
					"type": "function"
				},
				{
					"inputs": [],
					"name": "myUint8",
					"outputs": [
						{
							"internalType": "uint8",
							"name": "",
							"type": "uint8"
						}
					],
					"stateMutability": "view",
					"type": "function"
				}
			],
			"devdoc": {
				"kind": "dev",
				"methods": {},
				"version": 1
			},
			"evm": {
				"assembly": "    /* \"contracts/IntegerOverflowUnderflow.sol\":61:1434  contract IntegerOverflowUnderflow {... */\n  mstore(0x40, 0x80)\n    /* \"contracts/IntegerOverflowUnderflow.sol\":245:248  255 */\n  0xff\n    /* \"contracts/IntegerOverflowUnderflow.sol\":222:248  uint8 public myUint8 = 255 */\n  0x00\n  dup1\n  0x0100\n  exp\n  dup2\n  sload\n  dup2\n  0xff\n  mul\n  not\n  and\n  swap1\n  dup4\n  0xff\n  and\n  mul\n  or\n  swap1\n  sstore\n  pop\n    /* \"contracts/IntegerOverflowUnderflow.sol\":61:1434  contract IntegerOverflowUnderflow {... */\n  callvalue\n  dup1\n  iszero\n  tag_1\n  jumpi\n  0x00\n  dup1\n  revert\ntag_1:\n  pop\n  dataSize(sub_0)\n  dup1\n  dataOffset(sub_0)\n  0x00\n  codecopy\n  0x00\n  return\nstop\n\nsub_0: assembly {\n        /* \"contracts/IntegerOverflowUnderflow.sol\":61:1434  contract IntegerOverflowUnderflow {... */\n      mstore(0x40, 0x80)\n      callvalue\n      dup1\n      iszero\n      tag_1\n      jumpi\n      0x00\n      dup1\n      revert\n    tag_1:\n      pop\n      jumpi(tag_2, lt(calldatasize, 0x04))\n      shr(0xe0, calldataload(0x00))\n      dup1\n      0x165c4a16\n      eq\n      tag_3\n      jumpi\n      dup1\n      0x2baeceb7\n      eq\n      tag_4\n      jumpi\n      dup1\n      0x532fe931\n      eq\n      tag_5\n      jumpi\n      dup1\n      0xc7fd0347\n      eq\n      tag_6\n      jumpi\n      dup1\n      0xd09de08a\n      eq\n      tag_7\n      jumpi\n      dup1\n      0xe2a4b2af\n      eq\n      tag_8\n      jumpi\n    tag_2:\n      0x00\n      dup1\n      revert\n        /* \"contracts/IntegerOverflowUnderflow.sol\":1067:1431  function multiply(uint256 x, uint256 y) public pure returns (uint256) {... */\n    tag_3:\n      tag_9\n      0x04\n      dup1\n      calldatasize\n      sub\n      dup2\n      add\n      swap1\n      tag_10\n      swap2\n      swap1\n      tag_11\n      jump\t// in\n    tag_10:\n      tag_12\n      jump\t// in\n    tag_9:\n      mload(0x40)\n      tag_13\n      swap2\n      swap1\n      tag_14\n      jump\t// in\n    tag_13:\n      mload(0x40)\n      dup1\n      swap2\n      sub\n      swap1\n      return\n        /* \"contracts/IntegerOverflowUnderflow.sol\":492:599  function decrement() public {... */\n    tag_4:\n      tag_15\n      tag_16\n      jump\t// in\n    tag_15:\n      stop\n        /* \"contracts/IntegerOverflowUnderflow.sol\":870:1003  function decrementUnchecked() public {... */\n    tag_5:\n      tag_17\n      tag_18\n      jump\t// in\n    tag_17:\n      stop\n        /* \"contracts/IntegerOverflowUnderflow.sol\":669:800  function incrementUnchecked() public {... */\n    tag_6:\n      tag_19\n      tag_20\n      jump\t// in\n    tag_19:\n      stop\n        /* \"contracts/IntegerOverflowUnderflow.sol\":330:438  function increment() public {... */\n    tag_7:\n      tag_21\n      tag_22\n      jump\t// in\n    tag_21:\n      stop\n        /* \"contracts/IntegerOverflowUnderflow.sol\":222:248  uint8 public myUint8 = 255 */\n    tag_8:\n      tag_23\n      tag_24\n      jump\t// in\n    tag_23:\n      mload(0x40)\n      tag_25\n      swap2\n      swap1\n      tag_26\n      jump\t// in\n    tag_25:\n      mload(0x40)\n      dup1\n      swap2\n      sub\n      swap1\n      return\n        /* \"contracts/IntegerOverflowUnderflow.sol\":1067:1431  function multiply(uint256 x, uint256 y) public pure returns (uint256) {... */\n    tag_12:\n        /* \"contracts/IntegerOverflowUnderflow.sol\":1128:1135  uint256 */\n      0x00\n        /* \"contracts/IntegerOverflowUnderflow.sol\":1190:1205  uint256 result1 */\n      dup1\n        /* \"contracts/IntegerOverflowUnderflow.sol\":1212:1213  y */\n      dup3\n        /* \"contracts/IntegerOverflowUnderflow.sol\":1208:1209  x */\n      dup5\n        /* \"contracts/IntegerOverflowUnderflow.sol\":1208:1213  x * y */\n      tag_28\n      swap2\n      swap1\n      tag_29\n      jump\t// in\n    tag_28:\n        /* \"contracts/IntegerOverflowUnderflow.sol\":1190:1213  uint256 result1 = x * y */\n      swap1\n      pop\n        /* \"contracts/IntegerOverflowUnderflow.sol\":1323:1338  uint256 result2 */\n      0x00\n        /* \"contracts/IntegerOverflowUnderflow.sol\":1345:1346  y */\n      dup4\n        /* \"contracts/IntegerOverflowUnderflow.sol\":1341:1342  x */\n      dup6\n        /* \"contracts/IntegerOverflowUnderflow.sol\":1341:1346  x * y */\n      mul\n        /* \"contracts/IntegerOverflowUnderflow.sol\":1323:1346  uint256 result2 = x * y */\n      swap1\n      pop\n        /* \"contracts/IntegerOverflowUnderflow.sol\":1405:1412  result2 */\n      dup1\n        /* \"contracts/IntegerOverflowUnderflow.sol\":1398:1412  return result2 */\n      swap3\n      pop\n      pop\n      pop\n        /* \"contracts/IntegerOverflowUnderflow.sol\":1067:1431  function multiply(uint256 x, uint256 y) public pure returns (uint256) {... */\n      swap3\n      swap2\n      pop\n      pop\n      jump\t// out\n        /* \"contracts/IntegerOverflowUnderflow.sol\":492:599  function decrement() public {... */\n    tag_16:\n        /* \"contracts/IntegerOverflowUnderflow.sol\":531:538  myUint8 */\n      0x00\n      dup1\n        /* \"contracts/IntegerOverflowUnderflow.sol\":531:540  myUint8-- */\n      dup2\n      dup2\n      swap1\n      sload\n      swap1\n      0x0100\n      exp\n      swap1\n      div\n      0xff\n      and\n      dup1\n      swap3\n      swap2\n      swap1\n      tag_31\n      swap1\n      tag_32\n      jump\t// in\n    tag_31:\n      swap2\n      swap1\n      0x0100\n      exp\n      dup2\n      sload\n      dup2\n      0xff\n      mul\n      not\n      and\n      swap1\n      dup4\n      0xff\n      and\n      mul\n      or\n      swap1\n      sstore\n      pop\n      pop\n        /* \"contracts/IntegerOverflowUnderflow.sol\":492:599  function decrement() public {... */\n      jump\t// out\n        /* \"contracts/IntegerOverflowUnderflow.sol\":870:1003  function decrementUnchecked() public {... */\n    tag_18:\n        /* \"contracts/IntegerOverflowUnderflow.sol\":943:950  myUint8 */\n      0x00\n      dup1\n        /* \"contracts/IntegerOverflowUnderflow.sol\":943:952  myUint8-- */\n      dup2\n      dup2\n      swap1\n      sload\n      swap1\n      0x0100\n      exp\n      swap1\n      div\n      0xff\n      and\n      dup1\n      swap3\n      swap2\n      swap1\n      0x01\n      swap1\n      sub\n      swap2\n      swap1\n      0x0100\n      exp\n      dup2\n      sload\n      dup2\n      0xff\n      mul\n      not\n      and\n      swap1\n      dup4\n      0xff\n      and\n      mul\n      or\n      swap1\n      sstore\n      pop\n      pop\n        /* \"contracts/IntegerOverflowUnderflow.sol\":870:1003  function decrementUnchecked() public {... */\n      jump\t// out\n        /* \"contracts/IntegerOverflowUnderflow.sol\":669:800  function incrementUnchecked() public {... */\n    tag_20:\n        /* \"contracts/IntegerOverflowUnderflow.sol\":742:749  myUint8 */\n      0x00\n      dup1\n        /* \"contracts/IntegerOverflowUnderflow.sol\":742:751  myUint8++ */\n      dup2\n      dup2\n      swap1\n      sload\n      swap1\n      0x0100\n      exp\n      swap1\n      div\n      0xff\n      and\n      dup1\n      swap3\n      swap2\n      swap1\n      0x01\n      add\n      swap2\n      swap1\n      0x0100\n      exp\n      dup2\n      sload\n      dup2\n      0xff\n      mul\n      not\n      and\n      swap1\n      dup4\n      0xff\n      and\n      mul\n      or\n      swap1\n      sstore\n      pop\n      pop\n        /* \"contracts/IntegerOverflowUnderflow.sol\":669:800  function incrementUnchecked() public {... */\n      jump\t// out\n        /* \"contracts/IntegerOverflowUnderflow.sol\":330:438  function increment() public {... */\n    tag_22:\n        /* \"contracts/IntegerOverflowUnderflow.sol\":369:376  myUint8 */\n      0x00\n      dup1\n        /* \"contracts/IntegerOverflowUnderflow.sol\":369:378  myUint8++ */\n      dup2\n      dup2\n      swap1\n      sload\n      swap1\n      0x0100\n      exp\n      swap1\n      div\n      0xff\n      and\n      dup1\n      swap3\n      swap2\n      swap1\n      tag_36\n      swap1\n      tag_37\n      jump\t// in\n    tag_36:\n      swap2\n      swap1\n      0x0100\n      exp\n      dup2\n      sload\n      dup2\n      0xff\n      mul\n      not\n      and\n      swap1\n      dup4\n      0xff\n      and\n      mul\n      or\n      swap1\n      sstore\n      pop\n      pop\n        /* \"contracts/IntegerOverflowUnderflow.sol\":330:438  function increment() public {... */\n      jump\t// out\n        /* \"contracts/IntegerOverflowUnderflow.sol\":222:248  uint8 public myUint8 = 255 */\n    tag_24:\n      0x00\n      dup1\n      sload\n      swap1\n      0x0100\n      exp\n      swap1\n      div\n      0xff\n      and\n      dup2\n      jump\t// out\n        /* \"#utility.yul\":88:205   */\n    tag_39:\n        /* \"#utility.yul\":197:198   */\n      0x00\n        /* \"#utility.yul\":194:195   */\n      dup1\n        /* \"#utility.yul\":187:199   */\n      revert\n        /* \"#utility.yul\":334:411   */\n    tag_41:\n        /* \"#utility.yul\":371:378   */\n      0x00\n        /* \"#utility.yul\":400:405   */\n      dup2\n        /* \"#utility.yul\":389:405   */\n      swap1\n      pop\n        /* \"#utility.yul\":334:411   */\n      swap2\n      swap1\n      pop\n      jump\t// out\n        /* \"#utility.yul\":417:539   */\n    tag_42:\n        /* \"#utility.yul\":490:514   */\n      tag_54\n        /* \"#utility.yul\":508:513   */\n      dup2\n        /* \"#utility.yul\":490:514   */\n      tag_41\n      jump\t// in\n    tag_54:\n        /* \"#utility.yul\":483:488   */\n      dup2\n        /* \"#utility.yul\":480:515   */\n      eq\n        /* \"#utility.yul\":470:533   */\n      tag_55\n      jumpi\n        /* \"#utility.yul\":529:530   */\n      0x00\n        /* \"#utility.yul\":526:527   */\n      dup1\n        /* \"#utility.yul\":519:531   */\n      revert\n        /* \"#utility.yul\":470:533   */\n    tag_55:\n        /* \"#utility.yul\":417:539   */\n      pop\n      jump\t// out\n        /* \"#utility.yul\":545:684   */\n    tag_43:\n        /* \"#utility.yul\":591:596   */\n      0x00\n        /* \"#utility.yul\":629:635   */\n      dup2\n        /* \"#utility.yul\":616:636   */\n      calldataload\n        /* \"#utility.yul\":607:636   */\n      swap1\n      pop\n        /* \"#utility.yul\":645:678   */\n      tag_57\n        /* \"#utility.yul\":672:677   */\n      dup2\n        /* \"#utility.yul\":645:678   */\n      tag_42\n      jump\t// in\n    tag_57:\n        /* \"#utility.yul\":545:684   */\n      swap3\n      swap2\n      pop\n      pop\n      jump\t// out\n        /* \"#utility.yul\":690:1164   */\n    tag_11:\n        /* \"#utility.yul\":758:764   */\n      0x00\n        /* \"#utility.yul\":766:772   */\n      dup1\n        /* \"#utility.yul\":815:817   */\n      0x40\n        /* \"#utility.yul\":803:812   */\n      dup4\n        /* \"#utility.yul\":794:801   */\n      dup6\n        /* \"#utility.yul\":790:813   */\n      sub\n        /* \"#utility.yul\":786:818   */\n      slt\n        /* \"#utility.yul\":783:902   */\n      iszero\n      tag_59\n      jumpi\n        /* \"#utility.yul\":821:900   */\n      tag_60\n      tag_39\n      jump\t// in\n    tag_60:\n        /* \"#utility.yul\":783:902   */\n    tag_59:\n        /* \"#utility.yul\":941:942   */\n      0x00\n        /* \"#utility.yul\":966:1019   */\n      tag_61\n        /* \"#utility.yul\":1011:1018   */\n      dup6\n        /* \"#utility.yul\":1002:1008   */\n      dup3\n        /* \"#utility.yul\":991:1000   */\n      dup7\n        /* \"#utility.yul\":987:1009   */\n      add\n        /* \"#utility.yul\":966:1019   */\n      tag_43\n      jump\t// in\n    tag_61:\n        /* \"#utility.yul\":956:1019   */\n      swap3\n      pop\n        /* \"#utility.yul\":912:1029   */\n      pop\n        /* \"#utility.yul\":1068:1070   */\n      0x20\n        /* \"#utility.yul\":1094:1147   */\n      tag_62\n        /* \"#utility.yul\":1139:1146   */\n      dup6\n        /* \"#utility.yul\":1130:1136   */\n      dup3\n        /* \"#utility.yul\":1119:1128   */\n      dup7\n        /* \"#utility.yul\":1115:1137   */\n      add\n        /* \"#utility.yul\":1094:1147   */\n      tag_43\n      jump\t// in\n    tag_62:\n        /* \"#utility.yul\":1084:1147   */\n      swap2\n      pop\n        /* \"#utility.yul\":1039:1157   */\n      pop\n        /* \"#utility.yul\":690:1164   */\n      swap3\n      pop\n      swap3\n      swap1\n      pop\n      jump\t// out\n        /* \"#utility.yul\":1170:1288   */\n    tag_44:\n        /* \"#utility.yul\":1257:1281   */\n      tag_64\n        /* \"#utility.yul\":1275:1280   */\n      dup2\n        /* \"#utility.yul\":1257:1281   */\n      tag_41\n      jump\t// in\n    tag_64:\n        /* \"#utility.yul\":1252:1255   */\n      dup3\n        /* \"#utility.yul\":1245:1282   */\n      mstore\n        /* \"#utility.yul\":1170:1288   */\n      pop\n      pop\n      jump\t// out\n        /* \"#utility.yul\":1294:1516   */\n    tag_14:\n        /* \"#utility.yul\":1387:1391   */\n      0x00\n        /* \"#utility.yul\":1425:1427   */\n      0x20\n        /* \"#utility.yul\":1414:1423   */\n      dup3\n        /* \"#utility.yul\":1410:1428   */\n      add\n        /* \"#utility.yul\":1402:1428   */\n      swap1\n      pop\n        /* \"#utility.yul\":1438:1509   */\n      tag_66\n        /* \"#utility.yul\":1506:1507   */\n      0x00\n        /* \"#utility.yul\":1495:1504   */\n      dup4\n        /* \"#utility.yul\":1491:1508   */\n      add\n        /* \"#utility.yul\":1482:1488   */\n      dup5\n        /* \"#utility.yul\":1438:1509   */\n      tag_44\n      jump\t// in\n    tag_66:\n        /* \"#utility.yul\":1294:1516   */\n      swap3\n      swap2\n      pop\n      pop\n      jump\t// out\n        /* \"#utility.yul\":1522:1608   */\n    tag_45:\n        /* \"#utility.yul\":1557:1564   */\n      0x00\n        /* \"#utility.yul\":1597:1601   */\n      0xff\n        /* \"#utility.yul\":1590:1595   */\n      dup3\n        /* \"#utility.yul\":1586:1602   */\n      and\n        /* \"#utility.yul\":1575:1602   */\n      swap1\n      pop\n        /* \"#utility.yul\":1522:1608   */\n      swap2\n      swap1\n      pop\n      jump\t// out\n        /* \"#utility.yul\":1614:1726   */\n    tag_46:\n        /* \"#utility.yul\":1697:1719   */\n      tag_69\n        /* \"#utility.yul\":1713:1718   */\n      dup2\n        /* \"#utility.yul\":1697:1719   */\n      tag_45\n      jump\t// in\n    tag_69:\n        /* \"#utility.yul\":1692:1695   */\n      dup3\n        /* \"#utility.yul\":1685:1720   */\n      mstore\n        /* \"#utility.yul\":1614:1726   */\n      pop\n      pop\n      jump\t// out\n        /* \"#utility.yul\":1732:1946   */\n    tag_26:\n        /* \"#utility.yul\":1821:1825   */\n      0x00\n        /* \"#utility.yul\":1859:1861   */\n      0x20\n        /* \"#utility.yul\":1848:1857   */\n      dup3\n        /* \"#utility.yul\":1844:1862   */\n      add\n        /* \"#utility.yul\":1836:1862   */\n      swap1\n      pop\n        /* \"#utility.yul\":1872:1939   */\n      tag_71\n        /* \"#utility.yul\":1936:1937   */\n      0x00\n        /* \"#utility.yul\":1925:1934   */\n      dup4\n        /* \"#utility.yul\":1921:1938   */\n      add\n        /* \"#utility.yul\":1912:1918   */\n      dup5\n        /* \"#utility.yul\":1872:1939   */\n      tag_46\n      jump\t// in\n    tag_71:\n        /* \"#utility.yul\":1732:1946   */\n      swap3\n      swap2\n      pop\n      pop\n      jump\t// out\n        /* \"#utility.yul\":1952:2132   */\n    tag_47:\n        /* \"#utility.yul\":2000:2077   */\n      0x4e487b7100000000000000000000000000000000000000000000000000000000\n        /* \"#utility.yul\":1997:1998   */\n      0x00\n        /* \"#utility.yul\":1990:2078   */\n      mstore\n        /* \"#utility.yul\":2097:2101   */\n      0x11\n        /* \"#utility.yul\":2094:2095   */\n      0x04\n        /* \"#utility.yul\":2087:2102   */\n      mstore\n        /* \"#utility.yul\":2121:2125   */\n      0x24\n        /* \"#utility.yul\":2118:2119   */\n      0x00\n        /* \"#utility.yul\":2111:2126   */\n      revert\n        /* \"#utility.yul\":2138:2486   */\n    tag_29:\n        /* \"#utility.yul\":2178:2185   */\n      0x00\n        /* \"#utility.yul\":2201:2221   */\n      tag_74\n        /* \"#utility.yul\":2219:2220   */\n      dup3\n        /* \"#utility.yul\":2201:2221   */\n      tag_41\n      jump\t// in\n    tag_74:\n        /* \"#utility.yul\":2196:2221   */\n      swap2\n      pop\n        /* \"#utility.yul\":2235:2255   */\n      tag_75\n        /* \"#utility.yul\":2253:2254   */\n      dup4\n        /* \"#utility.yul\":2235:2255   */\n      tag_41\n      jump\t// in\n    tag_75:\n        /* \"#utility.yul\":2230:2255   */\n      swap3\n      pop\n        /* \"#utility.yul\":2423:2424   */\n      dup2\n        /* \"#utility.yul\":2355:2421   */\n      0xffffffffffffffffffffffffffffffffffffffffffffffffffffffffffffffff\n        /* \"#utility.yul\":2351:2425   */\n      div\n        /* \"#utility.yul\":2348:2349   */\n      dup4\n        /* \"#utility.yul\":2345:2426   */\n      gt\n        /* \"#utility.yul\":2340:2341   */\n      dup3\n        /* \"#utility.yul\":2333:2342   */\n      iszero\n        /* \"#utility.yul\":2326:2343   */\n      iszero\n        /* \"#utility.yul\":2322:2427   */\n      and\n        /* \"#utility.yul\":2319:2450   */\n      iszero\n      tag_76\n      jumpi\n        /* \"#utility.yul\":2430:2448   */\n      tag_77\n      tag_47\n      jump\t// in\n    tag_77:\n        /* \"#utility.yul\":2319:2450   */\n    tag_76:\n        /* \"#utility.yul\":2478:2479   */\n      dup3\n        /* \"#utility.yul\":2475:2476   */\n      dup3\n        /* \"#utility.yul\":2471:2480   */\n      mul\n        /* \"#utility.yul\":2460:2480   */\n      swap1\n      pop\n        /* \"#utility.yul\":2138:2486   */\n      swap3\n      swap2\n      pop\n      pop\n      jump\t// out\n        /* \"#utility.yul\":2492:2659   */\n    tag_32:\n        /* \"#utility.yul\":2529:2532   */\n      0x00\n        /* \"#utility.yul\":2552:2574   */\n      tag_79\n        /* \"#utility.yul\":2568:2573   */\n      dup3\n        /* \"#utility.yul\":2552:2574   */\n      tag_45\n      jump\t// in\n    tag_79:\n        /* \"#utility.yul\":2543:2574   */\n      swap2\n      pop\n        /* \"#utility.yul\":2596:2600   */\n      0x00\n        /* \"#utility.yul\":2589:2594   */\n      dup3\n        /* \"#utility.yul\":2586:2601   */\n      sub\n        /* \"#utility.yul\":2583:2624   */\n      tag_80\n      jumpi\n        /* \"#utility.yul\":2604:2622   */\n      tag_81\n      tag_47\n      jump\t// in\n    tag_81:\n        /* \"#utility.yul\":2583:2624   */\n    tag_80:\n        /* \"#utility.yul\":2651:2652   */\n      0x01\n        /* \"#utility.yul\":2644:2649   */\n      dup3\n        /* \"#utility.yul\":2640:2653   */\n      sub\n        /* \"#utility.yul\":2633:2653   */\n      swap1\n      pop\n        /* \"#utility.yul\":2492:2659   */\n      swap2\n      swap1\n      pop\n      jump\t// out\n        /* \"#utility.yul\":2665:2832   */\n    tag_37:\n        /* \"#utility.yul\":2702:2705   */\n      0x00\n        /* \"#utility.yul\":2725:2747   */\n      tag_83\n        /* \"#utility.yul\":2741:2746   */\n      dup3\n        /* \"#utility.yul\":2725:2747   */\n      tag_45\n      jump\t// in\n    tag_83:\n        /* \"#utility.yul\":2716:2747   */\n      swap2\n      pop\n        /* \"#utility.yul\":2769:2773   */\n      0xff\n        /* \"#utility.yul\":2762:2767   */\n      dup3\n        /* \"#utility.yul\":2759:2774   */\n      sub\n        /* \"#utility.yul\":2756:2797   */\n      tag_84\n      jumpi\n        /* \"#utility.yul\":2777:2795   */\n      tag_85\n      tag_47\n      jump\t// in\n    tag_85:\n        /* \"#utility.yul\":2756:2797   */\n    tag_84:\n        /* \"#utility.yul\":2824:2825   */\n      0x01\n        /* \"#utility.yul\":2817:2822   */\n      dup3\n        /* \"#utility.yul\":2813:2826   */\n      add\n        /* \"#utility.yul\":2806:2826   */\n      swap1\n      pop\n        /* \"#utility.yul\":2665:2832   */\n      swap2\n      swap1\n      pop\n      jump\t// out\n\n    auxdata: 0xa26469706673582212205b42db2401012c06bfee091ca3c3f116a800c91487f531f0075dc805841476e164736f6c63430008100033\n}\n",
				"bytecode": {
					"linkReferences": {},
					"object": "608060405260ff6000806101000a81548160ff021916908360ff16021790555034801561002b57600080fd5b506103d78061003b6000396000f3fe608060405234801561001057600080fd5b50600436106100625760003560e01c8063165c4a16146100675780632baeceb714610097578063532fe931146100a1578063c7fd0347146100ab578063d09de08a146100b5578063e2a4b2af146100bf575b600080fd5b610081600480360381019061007c9190610225565b6100dd565b60405161008e9190610274565b60405180910390f35b61009f610100565b005b6100a9610139565b005b6100b361016d565b005b6100bd6101a0565b005b6100c76101d9565b6040516100d491906102ab565b60405180910390f35b60008082846100ec91906102f5565b905060008385029050809250505092915050565b60008081819054906101000a900460ff168092919061011e9061034f565b91906101000a81548160ff021916908360ff16021790555050565b60008081819054906101000a900460ff16809291906001900391906101000a81548160ff021916908360ff16021790555050565b60008081819054906101000a900460ff168092919060010191906101000a81548160ff021916908360ff16021790555050565b60008081819054906101000a900460ff16809291906101be90610378565b91906101000a81548160ff021916908360ff16021790555050565b60008054906101000a900460ff1681565b600080fd5b6000819050919050565b610202816101ef565b811461020d57600080fd5b50565b60008135905061021f816101f9565b92915050565b6000806040838503121561023c5761023b6101ea565b5b600061024a85828601610210565b925050602061025b85828601610210565b9150509250929050565b61026e816101ef565b82525050565b60006020820190506102896000830184610265565b92915050565b600060ff82169050919050565b6102a58161028f565b82525050565b60006020820190506102c0600083018461029c565b92915050565b7f4e487b7100000000000000000000000000000000000000000000000000000000600052601160045260246000fd5b6000610300826101ef565b915061030b836101ef565b9250817fffffffffffffffffffffffffffffffffffffffffffffffffffffffffffffffff0483118215151615610344576103436102c6565b5b828202905092915050565b600061035a8261028f565b91506000820361036d5761036c6102c6565b5b600182039050919050565b60006103838261028f565b915060ff8203610396576103956102c6565b5b60018201905091905056fea26469706673582212205b42db2401012c06bfee091ca3c3f116a800c91487f531f0075dc805841476e164736f6c63430008100033",
					"opcodes": "PUSH1 0x80 PUSH1 0x40 MSTORE PUSH1 0xFF PUSH1 0x0 DUP1 PUSH2 0x100 EXP DUP2 SLOAD DUP2 PUSH1 0xFF MUL NOT AND SWAP1 DUP4 PUSH1 0xFF AND MUL OR SWAP1 SSTORE POP CALLVALUE DUP1 ISZERO PUSH2 0x2B JUMPI PUSH1 0x0 DUP1 REVERT JUMPDEST POP PUSH2 0x3D7 DUP1 PUSH2 0x3B PUSH1 0x0 CODECOPY PUSH1 0x0 RETURN INVALID PUSH1 0x80 PUSH1 0x40 MSTORE CALLVALUE DUP1 ISZERO PUSH2 0x10 JUMPI PUSH1 0x0 DUP1 REVERT JUMPDEST POP PUSH1 0x4 CALLDATASIZE LT PUSH2 0x62 JUMPI PUSH1 0x0 CALLDATALOAD PUSH1 0xE0 SHR DUP1 PUSH4 0x165C4A16 EQ PUSH2 0x67 JUMPI DUP1 PUSH4 0x2BAECEB7 EQ PUSH2 0x97 JUMPI DUP1 PUSH4 0x532FE931 EQ PUSH2 0xA1 JUMPI DUP1 PUSH4 0xC7FD0347 EQ PUSH2 0xAB JUMPI DUP1 PUSH4 0xD09DE08A EQ PUSH2 0xB5 JUMPI DUP1 PUSH4 0xE2A4B2AF EQ PUSH2 0xBF JUMPI JUMPDEST PUSH1 0x0 DUP1 REVERT JUMPDEST PUSH2 0x81 PUSH1 0x4 DUP1 CALLDATASIZE SUB DUP2 ADD SWAP1 PUSH2 0x7C SWAP2 SWAP1 PUSH2 0x225 JUMP JUMPDEST PUSH2 0xDD JUMP JUMPDEST PUSH1 0x40 MLOAD PUSH2 0x8E SWAP2 SWAP1 PUSH2 0x274 JUMP JUMPDEST PUSH1 0x40 MLOAD DUP1 SWAP2 SUB SWAP1 RETURN JUMPDEST PUSH2 0x9F PUSH2 0x100 JUMP JUMPDEST STOP JUMPDEST PUSH2 0xA9 PUSH2 0x139 JUMP JUMPDEST STOP JUMPDEST PUSH2 0xB3 PUSH2 0x16D JUMP JUMPDEST STOP JUMPDEST PUSH2 0xBD PUSH2 0x1A0 JUMP JUMPDEST STOP JUMPDEST PUSH2 0xC7 PUSH2 0x1D9 JUMP JUMPDEST PUSH1 0x40 MLOAD PUSH2 0xD4 SWAP2 SWAP1 PUSH2 0x2AB JUMP JUMPDEST PUSH1 0x40 MLOAD DUP1 SWAP2 SUB SWAP1 RETURN JUMPDEST PUSH1 0x0 DUP1 DUP3 DUP5 PUSH2 0xEC SWAP2 SWAP1 PUSH2 0x2F5 JUMP JUMPDEST SWAP1 POP PUSH1 0x0 DUP4 DUP6 MUL SWAP1 POP DUP1 SWAP3 POP POP POP SWAP3 SWAP2 POP POP JUMP JUMPDEST PUSH1 0x0 DUP1 DUP2 DUP2 SWAP1 SLOAD SWAP1 PUSH2 0x100 EXP SWAP1 DIV PUSH1 0xFF AND DUP1 SWAP3 SWAP2 SWAP1 PUSH2 0x11E SWAP1 PUSH2 0x34F JUMP JUMPDEST SWAP2 SWAP1 PUSH2 0x100 EXP DUP2 SLOAD DUP2 PUSH1 0xFF MUL NOT AND SWAP1 DUP4 PUSH1 0xFF AND MUL OR SWAP1 SSTORE POP POP JUMP JUMPDEST PUSH1 0x0 DUP1 DUP2 DUP2 SWAP1 SLOAD SWAP1 PUSH2 0x100 EXP SWAP1 DIV PUSH1 0xFF AND DUP1 SWAP3 SWAP2 SWAP1 PUSH1 0x1 SWAP1 SUB SWAP2 SWAP1 PUSH2 0x100 EXP DUP2 SLOAD DUP2 PUSH1 0xFF MUL NOT AND SWAP1 DUP4 PUSH1 0xFF AND MUL OR SWAP1 SSTORE POP POP JUMP JUMPDEST PUSH1 0x0 DUP1 DUP2 DUP2 SWAP1 SLOAD SWAP1 PUSH2 0x100 EXP SWAP1 DIV PUSH1 0xFF AND DUP1 SWAP3 SWAP2 SWAP1 PUSH1 0x1 ADD SWAP2 SWAP1 PUSH2 0x100 EXP DUP2 SLOAD DUP2 PUSH1 0xFF MUL NOT AND SWAP1 DUP4 PUSH1 0xFF AND MUL OR SWAP1 SSTORE POP POP JUMP JUMPDEST PUSH1 0x0 DUP1 DUP2 DUP2 SWAP1 SLOAD SWAP1 PUSH2 0x100 EXP SWAP1 DIV PUSH1 0xFF AND DUP1 SWAP3 SWAP2 SWAP1 PUSH2 0x1BE SWAP1 PUSH2 0x378 JUMP JUMPDEST SWAP2 SWAP1 PUSH2 0x100 EXP DUP2 SLOAD DUP2 PUSH1 0xFF MUL NOT AND SWAP1 DUP4 PUSH1 0xFF AND MUL OR SWAP1 SSTORE POP POP JUMP JUMPDEST PUSH1 0x0 DUP1 SLOAD SWAP1 PUSH2 0x100 EXP SWAP1 DIV PUSH1 0xFF AND DUP2 JUMP JUMPDEST PUSH1 0x0 DUP1 REVERT JUMPDEST PUSH1 0x0 DUP2 SWAP1 POP SWAP2 SWAP1 POP JUMP JUMPDEST PUSH2 0x202 DUP2 PUSH2 0x1EF JUMP JUMPDEST DUP2 EQ PUSH2 0x20D JUMPI PUSH1 0x0 DUP1 REVERT JUMPDEST POP JUMP JUMPDEST PUSH1 0x0 DUP2 CALLDATALOAD SWAP1 POP PUSH2 0x21F DUP2 PUSH2 0x1F9 JUMP JUMPDEST SWAP3 SWAP2 POP POP JUMP JUMPDEST PUSH1 0x0 DUP1 PUSH1 0x40 DUP4 DUP6 SUB SLT ISZERO PUSH2 0x23C JUMPI PUSH2 0x23B PUSH2 0x1EA JUMP JUMPDEST JUMPDEST PUSH1 0x0 PUSH2 0x24A DUP6 DUP3 DUP7 ADD PUSH2 0x210 JUMP JUMPDEST SWAP3 POP POP PUSH1 0x20 PUSH2 0x25B DUP6 DUP3 DUP7 ADD PUSH2 0x210 JUMP JUMPDEST SWAP2 POP POP SWAP3 POP SWAP3 SWAP1 POP JUMP JUMPDEST PUSH2 0x26E DUP2 PUSH2 0x1EF JUMP JUMPDEST DUP3 MSTORE POP POP JUMP JUMPDEST PUSH1 0x0 PUSH1 0x20 DUP3 ADD SWAP1 POP PUSH2 0x289 PUSH1 0x0 DUP4 ADD DUP5 PUSH2 0x265 JUMP JUMPDEST SWAP3 SWAP2 POP POP JUMP JUMPDEST PUSH1 0x0 PUSH1 0xFF DUP3 AND SWAP1 POP SWAP2 SWAP1 POP JUMP JUMPDEST PUSH2 0x2A5 DUP2 PUSH2 0x28F JUMP JUMPDEST DUP3 MSTORE POP POP JUMP JUMPDEST PUSH1 0x0 PUSH1 0x20 DUP3 ADD SWAP1 POP PUSH2 0x2C0 PUSH1 0x0 DUP4 ADD DUP5 PUSH2 0x29C JUMP JUMPDEST SWAP3 SWAP2 POP POP JUMP JUMPDEST PUSH32 0x4E487B7100000000000000000000000000000000000000000000000000000000 PUSH1 0x0 MSTORE PUSH1 0x11 PUSH1 0x4 MSTORE PUSH1 0x24 PUSH1 0x0 REVERT JUMPDEST PUSH1 0x0 PUSH2 0x300 DUP3 PUSH2 0x1EF JUMP JUMPDEST SWAP2 POP PUSH2 0x30B DUP4 PUSH2 0x1EF JUMP JUMPDEST SWAP3 POP DUP2 PUSH32 0xFFFFFFFFFFFFFFFFFFFFFFFFFFFFFFFFFFFFFFFFFFFFFFFFFFFFFFFFFFFFFFFF DIV DUP4 GT DUP3 ISZERO ISZERO AND ISZERO PUSH2 0x344 JUMPI PUSH2 0x343 PUSH2 0x2C6 JUMP JUMPDEST JUMPDEST DUP3 DUP3 MUL SWAP1 POP SWAP3 SWAP2 POP POP JUMP JUMPDEST PUSH1 0x0 PUSH2 0x35A DUP3 PUSH2 0x28F JUMP JUMPDEST SWAP2 POP PUSH1 0x0 DUP3 SUB PUSH2 0x36D JUMPI PUSH2 0x36C PUSH2 0x2C6 JUMP JUMPDEST JUMPDEST PUSH1 0x1 DUP3 SUB SWAP1 POP SWAP2 SWAP1 POP JUMP JUMPDEST PUSH1 0x0 PUSH2 0x383 DUP3 PUSH2 0x28F JUMP JUMPDEST SWAP2 POP PUSH1 0xFF DUP3 SUB PUSH2 0x396 JUMPI PUSH2 0x395 PUSH2 0x2C6 JUMP JUMPDEST JUMPDEST PUSH1 0x1 DUP3 ADD SWAP1 POP SWAP2 SWAP1 POP JUMP INVALID LOG2 PUSH5 0x6970667358 0x22 SLT KECCAK256 JUMPDEST TIMESTAMP 0xDB 0x24 ADD ADD 0x2C MOD 0xBF 0xEE MULMOD SHR LOG3 0xC3 CALL AND 0xA8 STOP 0xC9 EQ DUP8 CREATE2 BALANCE CREATE SMOD 0x5D 0xC8 SDIV DUP5 EQ PUSH23 0xE164736F6C634300081000330000000000000000000000 "
				},
				"gasEstimates": {
					"creation": {
						"codeDepositCost": "196600",
						"executionCost": "24505",
						"totalCost": "221105"
					},
					"external": {
						"decrement()": "26699",
						"decrementUnchecked()": "26598",
						"increment()": "26765",
						"incrementUnchecked()": "26617",
						"multiply(uint256,uint256)": "infinite",
						"myUint8()": "2556"
					}
				},
				"methodIdentifiers": {
					"decrement()": "2baeceb7",
					"decrementUnchecked()": "532fe931",
					"increment()": "d09de08a",
					"incrementUnchecked()": "c7fd0347",
					"multiply(uint256,uint256)": "165c4a16",
					"myUint8()": "e2a4b2af"
				}
			},
			"storageLayout": {
				"storage": [
					{
						"astId": 4,
						"contract": "contracts/IntegerOverflowUnderflow.sol:IntegerOverflowUnderflow",
						"label": "myUint8",
						"offset": 0,
						"slot": "0",
						"type": "t_uint8"
					}
				],
				"types": {
					"t_uint8": {
						"encoding": "inplace",
						"label": "uint8",
						"numberOfBytes": "1"
					}
				}
			},
			"userdoc": {
				"kind": "user",
				"methods": {},
				"version": 1
			}
		}
	}
}