{
	"contracts/BasicErrorHandling.sol": {
		"CustomErrorsExample": {
			"abi": [
				{
					"inputs": [],
					"stateMutability": "nonpayable",
					"type": "constructor"
				},
				{
					"inputs": [
						{
							"internalType": "uint256",
							"name": "deadline",
							"type": "uint256"
						},
						{
							"internalType": "uint256",
							"name": "currentTime",
							"type": "uint256"
						}
					],
					"name": "DeadlineExceeded",
					"type": "error"
				},
				{
					"inputs": [
						{
							"internalType": "uint256",
							"name": "value",
							"type": "uint256"
						}
					],
					"name": "InvalidValue",
					"type": "error"
				},
				{
					"inputs": [
						{
							"internalType": "address",
							"name": "caller",
							"type": "address"
						}
					],
					"name": "Unauthorized",
					"type": "error"
				},
				{
					"inputs": [
						{
							"internalType": "uint256",
							"name": "deadline",
							"type": "uint256"
						}
					],
					"name": "doSomethingBeforeDeadline",
					"outputs": [],
					"stateMutability": "view",
					"type": "function"
				},
				{
					"inputs": [],
					"name": "owner",
					"outputs": [
						{
							"internalType": "address",
							"name": "",
							"type": "address"
						}
					],
					"stateMutability": "view",
					"type": "function"
				},
				{
					"inputs": [
						{
							"internalType": "uint256",
							"name": "_newValue",
							"type": "uint256"
						}
					],
					"name": "setValue",
					"outputs": [],
					"stateMutability": "nonpayable",
					"type": "function"
				},
				{
					"inputs": [],
					"name": "value",
					"outputs": [
						{
							"internalType": "uint256",
							"name": "",
							"type": "uint256"
						}
					],
					"stateMutability": "view",
					"type": "function"
				}
			],
			"devdoc": {
				"kind": "dev",
				"methods": {},
				"version": 1
			},
			"evm": {
				"assembly": "    /* \"contracts/BasicErrorHandling.sol\":2698:3736  contract CustomErrorsExample {... */\n  mstore(0x40, 0x80)\n    /* \"contracts/BasicErrorHandling.sol\":2978:3029  constructor() {... */\n  callvalue\n  dup1\n  iszero\n  tag_1\n  jumpi\n  0x00\n  dup1\n  revert\ntag_1:\n  pop\n    /* \"contracts/BasicErrorHandling.sol\":3011:3021  msg.sender */\n  caller\n    /* \"contracts/BasicErrorHandling.sol\":3003:3008  owner */\n  0x00\n  dup1\n    /* \"contracts/BasicErrorHandling.sol\":3003:3021  owner = msg.sender */\n  0x0100\n  exp\n  dup2\n  sload\n  dup2\n  0xffffffffffffffffffffffffffffffffffffffff\n  mul\n  not\n  and\n  swap1\n  dup4\n  0xffffffffffffffffffffffffffffffffffffffff\n  and\n  mul\n  or\n  swap1\n  sstore\n  pop\n    /* \"contracts/BasicErrorHandling.sol\":2698:3736  contract CustomErrorsExample {... */\n  dataSize(sub_0)\n  dup1\n  dataOffset(sub_0)\n  0x00\n  codecopy\n  0x00\n  return\nstop\n\nsub_0: assembly {\n        /* \"contracts/BasicErrorHandling.sol\":2698:3736  contract CustomErrorsExample {... */\n      mstore(0x40, 0x80)\n      callvalue\n      dup1\n      iszero\n      tag_1\n      jumpi\n      0x00\n      dup1\n      revert\n    tag_1:\n      pop\n      jumpi(tag_2, lt(calldatasize, 0x04))\n      shr(0xe0, calldataload(0x00))\n      dup1\n      0x3fa4f245\n      eq\n      tag_3\n      jumpi\n      dup1\n      0x55241077\n      eq\n      tag_4\n      jumpi\n      dup1\n      0x8da5cb5b\n      eq\n      tag_5\n      jumpi\n      dup1\n      0xa0225c6f\n      eq\n      tag_6\n      jumpi\n    tag_2:\n      0x00\n      dup1\n      revert\n        /* \"contracts/BasicErrorHandling.sol\":2945:2965  uint256 public value */\n    tag_3:\n      tag_7\n      tag_8\n      jump\t// in\n    tag_7:\n      mload(0x40)\n      tag_9\n      swap2\n      swap1\n      tag_10\n      jump\t// in\n    tag_9:\n      mload(0x40)\n      dup1\n      swap2\n      sub\n      swap1\n      return\n        /* \"contracts/BasicErrorHandling.sol\":3041:3501  function setValue(uint256 _newValue) public {... */\n    tag_4:\n      tag_11\n      0x04\n      dup1\n      calldatasize\n      sub\n      dup2\n      add\n      swap1\n      tag_12\n      swap2\n      swap1\n      tag_13\n      jump\t// in\n    tag_12:\n      tag_14\n      jump\t// in\n    tag_11:\n      stop\n        /* \"contracts/BasicErrorHandling.sol\":2918:2938  address public owner */\n    tag_5:\n      tag_15\n      tag_16\n      jump\t// in\n    tag_15:\n      mload(0x40)\n      tag_17\n      swap2\n      swap1\n      tag_18\n      jump\t// in\n    tag_17:\n      mload(0x40)\n      dup1\n      swap2\n      sub\n      swap1\n      return\n        /* \"contracts/BasicErrorHandling.sol\":3513:3733  function doSomethingBeforeDeadline(uint256 deadline) public view {... */\n    tag_6:\n      tag_19\n      0x04\n      dup1\n      calldatasize\n      sub\n      dup2\n      add\n      swap1\n      tag_20\n      swap2\n      swap1\n      tag_13\n      jump\t// in\n    tag_20:\n      tag_21\n      jump\t// in\n    tag_19:\n      stop\n        /* \"contracts/BasicErrorHandling.sol\":2945:2965  uint256 public value */\n    tag_8:\n      sload(0x01)\n      dup2\n      jump\t// out\n        /* \"contracts/BasicErrorHandling.sol\":3041:3501  function setValue(uint256 _newValue) public {... */\n    tag_14:\n        /* \"contracts/BasicErrorHandling.sol\":3161:3166  owner */\n      0x00\n      dup1\n      sload\n      swap1\n      0x0100\n      exp\n      swap1\n      div\n      0xffffffffffffffffffffffffffffffffffffffff\n      and\n        /* \"contracts/BasicErrorHandling.sol\":3147:3166  msg.sender != owner */\n      0xffffffffffffffffffffffffffffffffffffffff\n      and\n        /* \"contracts/BasicErrorHandling.sol\":3147:3157  msg.sender */\n      caller\n        /* \"contracts/BasicErrorHandling.sol\":3147:3166  msg.sender != owner */\n      0xffffffffffffffffffffffffffffffffffffffff\n      and\n      eq\n        /* \"contracts/BasicErrorHandling.sol\":3143:3226  if (msg.sender != owner) {... */\n      tag_23\n      jumpi\n        /* \"contracts/BasicErrorHandling.sol\":3203:3213  msg.sender */\n      caller\n        /* \"contracts/BasicErrorHandling.sol\":3190:3214  Unauthorized(msg.sender) */\n      mload(0x40)\n      0x8e4a23d600000000000000000000000000000000000000000000000000000000\n      dup2\n      mstore\n      0x04\n      add\n      tag_24\n      swap2\n      swap1\n      tag_18\n      jump\t// in\n    tag_24:\n      mload(0x40)\n      dup1\n      swap2\n      sub\n      swap1\n      revert\n        /* \"contracts/BasicErrorHandling.sol\":3143:3226  if (msg.sender != owner) {... */\n    tag_23:\n        /* \"contracts/BasicErrorHandling.sol\":3263:3264  0 */\n      0x00\n        /* \"contracts/BasicErrorHandling.sol\":3250:3259  _newValue */\n      dup2\n        /* \"contracts/BasicErrorHandling.sol\":3250:3264  _newValue == 0 */\n      sub\n        /* \"contracts/BasicErrorHandling.sol\":3246:3323  if (_newValue == 0) {... */\n      tag_25\n      jumpi\n        /* \"contracts/BasicErrorHandling.sol\":3301:3310  _newValue */\n      dup1\n        /* \"contracts/BasicErrorHandling.sol\":3288:3311  InvalidValue(_newValue) */\n      mload(0x40)\n      0x6072742c00000000000000000000000000000000000000000000000000000000\n      dup2\n      mstore\n      0x04\n      add\n      tag_26\n      swap2\n      swap1\n      tag_10\n      jump\t// in\n    tag_26:\n      mload(0x40)\n      dup1\n      swap2\n      sub\n      swap1\n      revert\n        /* \"contracts/BasicErrorHandling.sol\":3246:3323  if (_newValue == 0) {... */\n    tag_25:\n        /* \"contracts/BasicErrorHandling.sol\":3360:3365  value */\n      sload(0x01)\n        /* \"contracts/BasicErrorHandling.sol\":3347:3356  _newValue */\n      dup2\n        /* \"contracts/BasicErrorHandling.sol\":3347:3365  _newValue == value */\n      sub\n        /* \"contracts/BasicErrorHandling.sol\":3343:3456  if (_newValue == value) {... */\n      tag_27\n      jumpi\n        /* \"contracts/BasicErrorHandling.sol\":3382:3409  revert(\"Value already set\") */\n      mload(0x40)\n      0x08c379a000000000000000000000000000000000000000000000000000000000\n      dup2\n      mstore\n      0x04\n      add\n      tag_28\n      swap1\n      tag_29\n      jump\t// in\n    tag_28:\n      mload(0x40)\n      dup1\n      swap2\n      sub\n      swap1\n      revert\n        /* \"contracts/BasicErrorHandling.sol\":3343:3456  if (_newValue == value) {... */\n    tag_27:\n        /* \"contracts/BasicErrorHandling.sol\":3484:3493  _newValue */\n      dup1\n        /* \"contracts/BasicErrorHandling.sol\":3476:3481  value */\n      0x01\n        /* \"contracts/BasicErrorHandling.sol\":3476:3493  value = _newValue */\n      dup2\n      swap1\n      sstore\n      pop\n        /* \"contracts/BasicErrorHandling.sol\":3041:3501  function setValue(uint256 _newValue) public {... */\n      pop\n      jump\t// out\n        /* \"contracts/BasicErrorHandling.sol\":2918:2938  address public owner */\n    tag_16:\n      0x00\n      dup1\n      sload\n      swap1\n      0x0100\n      exp\n      swap1\n      div\n      0xffffffffffffffffffffffffffffffffffffffff\n      and\n      dup2\n      jump\t// out\n        /* \"contracts/BasicErrorHandling.sol\":3513:3733  function doSomethingBeforeDeadline(uint256 deadline) public view {... */\n    tag_21:\n        /* \"contracts/BasicErrorHandling.sol\":3611:3619  deadline */\n      dup1\n        /* \"contracts/BasicErrorHandling.sol\":3593:3608  block.timestamp */\n      timestamp\n        /* \"contracts/BasicErrorHandling.sol\":3593:3619  block.timestamp > deadline */\n      gt\n        /* \"contracts/BasicErrorHandling.sol\":3589:3698  if (block.timestamp > deadline) {... */\n      iszero\n      tag_31\n      jumpi\n        /* \"contracts/BasicErrorHandling.sol\":3660:3668  deadline */\n      dup1\n        /* \"contracts/BasicErrorHandling.sol\":3670:3685  block.timestamp */\n      timestamp\n        /* \"contracts/BasicErrorHandling.sol\":3643:3686  DeadlineExceeded(deadline, block.timestamp) */\n      mload(0x40)\n      0x24bf66c500000000000000000000000000000000000000000000000000000000\n      dup2\n      mstore\n      0x04\n      add\n      tag_32\n      swap3\n      swap2\n      swap1\n      tag_33\n      jump\t// in\n    tag_32:\n      mload(0x40)\n      dup1\n      swap2\n      sub\n      swap1\n      revert\n        /* \"contracts/BasicErrorHandling.sol\":3589:3698  if (block.timestamp > deadline) {... */\n    tag_31:\n        /* \"contracts/BasicErrorHandling.sol\":3513:3733  function doSomethingBeforeDeadline(uint256 deadline) public view {... */\n      pop\n      jump\t// out\n        /* \"#utility.yul\":7:84   */\n    tag_34:\n        /* \"#utility.yul\":44:51   */\n      0x00\n        /* \"#utility.yul\":73:78   */\n      dup2\n        /* \"#utility.yul\":62:78   */\n      swap1\n      pop\n        /* \"#utility.yul\":7:84   */\n      swap2\n      swap1\n      pop\n      jump\t// out\n        /* \"#utility.yul\":90:208   */\n    tag_35:\n        /* \"#utility.yul\":177:201   */\n      tag_50\n        /* \"#utility.yul\":195:200   */\n      dup2\n        /* \"#utility.yul\":177:201   */\n      tag_34\n      jump\t// in\n    tag_50:\n        /* \"#utility.yul\":172:175   */\n      dup3\n        /* \"#utility.yul\":165:202   */\n      mstore\n        /* \"#utility.yul\":90:208   */\n      pop\n      pop\n      jump\t// out\n        /* \"#utility.yul\":214:436   */\n    tag_10:\n        /* \"#utility.yul\":307:311   */\n      0x00\n        /* \"#utility.yul\":345:347   */\n      0x20\n        /* \"#utility.yul\":334:343   */\n      dup3\n        /* \"#utility.yul\":330:348   */\n      add\n        /* \"#utility.yul\":322:348   */\n      swap1\n      pop\n        /* \"#utility.yul\":358:429   */\n      tag_52\n        /* \"#utility.yul\":426:427   */\n      0x00\n        /* \"#utility.yul\":415:424   */\n      dup4\n        /* \"#utility.yul\":411:428   */\n      add\n        /* \"#utility.yul\":402:408   */\n      dup5\n        /* \"#utility.yul\":358:429   */\n      tag_35\n      jump\t// in\n    tag_52:\n        /* \"#utility.yul\":214:436   */\n      swap3\n      swap2\n      pop\n      pop\n      jump\t// out\n        /* \"#utility.yul\":523:640   */\n    tag_37:\n        /* \"#utility.yul\":632:633   */\n      0x00\n        /* \"#utility.yul\":629:630   */\n      dup1\n        /* \"#utility.yul\":622:634   */\n      revert\n        /* \"#utility.yul\":769:891   */\n    tag_39:\n        /* \"#utility.yul\":842:866   */\n      tag_57\n        /* \"#utility.yul\":860:865   */\n      dup2\n        /* \"#utility.yul\":842:866   */\n      tag_34\n      jump\t// in\n    tag_57:\n        /* \"#utility.yul\":835:840   */\n      dup2\n        /* \"#utility.yul\":832:867   */\n      eq\n        /* \"#utility.yul\":822:885   */\n      tag_58\n      jumpi\n        /* \"#utility.yul\":881:882   */\n      0x00\n        /* \"#utility.yul\":878:879   */\n      dup1\n        /* \"#utility.yul\":871:883   */\n      revert\n        /* \"#utility.yul\":822:885   */\n    tag_58:\n        /* \"#utility.yul\":769:891   */\n      pop\n      jump\t// out\n        /* \"#utility.yul\":897:1036   */\n    tag_40:\n        /* \"#utility.yul\":943:948   */\n      0x00\n        /* \"#utility.yul\":981:987   */\n      dup2\n        /* \"#utility.yul\":968:988   */\n      calldataload\n        /* \"#utility.yul\":959:988   */\n      swap1\n      pop\n        /* \"#utility.yul\":997:1030   */\n      tag_60\n        /* \"#utility.yul\":1024:1029   */\n      dup2\n        /* \"#utility.yul\":997:1030   */\n      tag_39\n      jump\t// in\n    tag_60:\n        /* \"#utility.yul\":897:1036   */\n      swap3\n      swap2\n      pop\n      pop\n      jump\t// out\n        /* \"#utility.yul\":1042:1371   */\n    tag_13:\n        /* \"#utility.yul\":1101:1107   */\n      0x00\n        /* \"#utility.yul\":1150:1152   */\n      0x20\n        /* \"#utility.yul\":1138:1147   */\n      dup3\n        /* \"#utility.yul\":1129:1136   */\n      dup5\n        /* \"#utility.yul\":1125:1148   */\n      sub\n        /* \"#utility.yul\":1121:1153   */\n      slt\n        /* \"#utility.yul\":1118:1237   */\n      iszero\n      tag_62\n      jumpi\n        /* \"#utility.yul\":1156:1235   */\n      tag_63\n      tag_37\n      jump\t// in\n    tag_63:\n        /* \"#utility.yul\":1118:1237   */\n    tag_62:\n        /* \"#utility.yul\":1276:1277   */\n      0x00\n        /* \"#utility.yul\":1301:1354   */\n      tag_64\n        /* \"#utility.yul\":1346:1353   */\n      dup5\n        /* \"#utility.yul\":1337:1343   */\n      dup3\n        /* \"#utility.yul\":1326:1335   */\n      dup6\n        /* \"#utility.yul\":1322:1344   */\n      add\n        /* \"#utility.yul\":1301:1354   */\n      tag_40\n      jump\t// in\n    tag_64:\n        /* \"#utility.yul\":1291:1354   */\n      swap2\n      pop\n        /* \"#utility.yul\":1247:1364   */\n      pop\n        /* \"#utility.yul\":1042:1371   */\n      swap3\n      swap2\n      pop\n      pop\n      jump\t// out\n        /* \"#utility.yul\":1377:1503   */\n    tag_41:\n        /* \"#utility.yul\":1414:1421   */\n      0x00\n        /* \"#utility.yul\":1454:1496   */\n      0xffffffffffffffffffffffffffffffffffffffff\n        /* \"#utility.yul\":1447:1452   */\n      dup3\n        /* \"#utility.yul\":1443:1497   */\n      and\n        /* \"#utility.yul\":1432:1497   */\n      swap1\n      pop\n        /* \"#utility.yul\":1377:1503   */\n      swap2\n      swap1\n      pop\n      jump\t// out\n        /* \"#utility.yul\":1509:1605   */\n    tag_42:\n        /* \"#utility.yul\":1546:1553   */\n      0x00\n        /* \"#utility.yul\":1575:1599   */\n      tag_67\n        /* \"#utility.yul\":1593:1598   */\n      dup3\n        /* \"#utility.yul\":1575:1599   */\n      tag_41\n      jump\t// in\n    tag_67:\n        /* \"#utility.yul\":1564:1599   */\n      swap1\n      pop\n        /* \"#utility.yul\":1509:1605   */\n      swap2\n      swap1\n      pop\n      jump\t// out\n        /* \"#utility.yul\":1611:1729   */\n    tag_43:\n        /* \"#utility.yul\":1698:1722   */\n      tag_69\n        /* \"#utility.yul\":1716:1721   */\n      dup2\n        /* \"#utility.yul\":1698:1722   */\n      tag_42\n      jump\t// in\n    tag_69:\n        /* \"#utility.yul\":1693:1696   */\n      dup3\n        /* \"#utility.yul\":1686:1723   */\n      mstore\n        /* \"#utility.yul\":1611:1729   */\n      pop\n      pop\n      jump\t// out\n        /* \"#utility.yul\":1735:1957   */\n    tag_18:\n        /* \"#utility.yul\":1828:1832   */\n      0x00\n        /* \"#utility.yul\":1866:1868   */\n      0x20\n        /* \"#utility.yul\":1855:1864   */\n      dup3\n        /* \"#utility.yul\":1851:1869   */\n      add\n        /* \"#utility.yul\":1843:1869   */\n      swap1\n      pop\n        /* \"#utility.yul\":1879:1950   */\n      tag_71\n        /* \"#utility.yul\":1947:1948   */\n      0x00\n        /* \"#utility.yul\":1936:1945   */\n      dup4\n        /* \"#utility.yul\":1932:1949   */\n      add\n        /* \"#utility.yul\":1923:1929   */\n      dup5\n        /* \"#utility.yul\":1879:1950   */\n      tag_43\n      jump\t// in\n    tag_71:\n        /* \"#utility.yul\":1735:1957   */\n      swap3\n      swap2\n      pop\n      pop\n      jump\t// out\n        /* \"#utility.yul\":1963:2132   */\n    tag_44:\n        /* \"#utility.yul\":2047:2058   */\n      0x00\n        /* \"#utility.yul\":2081:2087   */\n      dup3\n        /* \"#utility.yul\":2076:2079   */\n      dup3\n        /* \"#utility.yul\":2069:2088   */\n      mstore\n        /* \"#utility.yul\":2121:2125   */\n      0x20\n        /* \"#utility.yul\":2116:2119   */\n      dup3\n        /* \"#utility.yul\":2112:2126   */\n      add\n        /* \"#utility.yul\":2097:2126   */\n      swap1\n      pop\n        /* \"#utility.yul\":1963:2132   */\n      swap3\n      swap2\n      pop\n      pop\n      jump\t// out\n        /* \"#utility.yul\":2138:2305   */\n    tag_45:\n        /* \"#utility.yul\":2278:2297   */\n      0x56616c756520616c726561647920736574000000000000000000000000000000\n        /* \"#utility.yul\":2274:2275   */\n      0x00\n        /* \"#utility.yul\":2266:2272   */\n      dup3\n        /* \"#utility.yul\":2262:2276   */\n      add\n        /* \"#utility.yul\":2255:2298   */\n      mstore\n        /* \"#utility.yul\":2138:2305   */\n      pop\n      jump\t// out\n        /* \"#utility.yul\":2311:2677   */\n    tag_46:\n        /* \"#utility.yul\":2453:2456   */\n      0x00\n        /* \"#utility.yul\":2474:2541   */\n      tag_75\n        /* \"#utility.yul\":2538:2540   */\n      0x11\n        /* \"#utility.yul\":2533:2536   */\n      dup4\n        /* \"#utility.yul\":2474:2541   */\n      tag_44\n      jump\t// in\n    tag_75:\n        /* \"#utility.yul\":2467:2541   */\n      swap2\n      pop\n        /* \"#utility.yul\":2550:2643   */\n      tag_76\n        /* \"#utility.yul\":2639:2642   */\n      dup3\n        /* \"#utility.yul\":2550:2643   */\n      tag_45\n      jump\t// in\n    tag_76:\n        /* \"#utility.yul\":2668:2670   */\n      0x20\n        /* \"#utility.yul\":2663:2666   */\n      dup3\n        /* \"#utility.yul\":2659:2671   */\n      add\n        /* \"#utility.yul\":2652:2671   */\n      swap1\n      pop\n        /* \"#utility.yul\":2311:2677   */\n      swap2\n      swap1\n      pop\n      jump\t// out\n        /* \"#utility.yul\":2683:3102   */\n    tag_29:\n        /* \"#utility.yul\":2849:2853   */\n      0x00\n        /* \"#utility.yul\":2887:2889   */\n      0x20\n        /* \"#utility.yul\":2876:2885   */\n      dup3\n        /* \"#utility.yul\":2872:2890   */\n      add\n        /* \"#utility.yul\":2864:2890   */\n      swap1\n      pop\n        /* \"#utility.yul\":2936:2945   */\n      dup2\n        /* \"#utility.yul\":2930:2934   */\n      dup2\n        /* \"#utility.yul\":2926:2946   */\n      sub\n        /* \"#utility.yul\":2922:2923   */\n      0x00\n        /* \"#utility.yul\":2911:2920   */\n      dup4\n        /* \"#utility.yul\":2907:2924   */\n      add\n        /* \"#utility.yul\":2900:2947   */\n      mstore\n        /* \"#utility.yul\":2964:3095   */\n      tag_78\n        /* \"#utility.yul\":3090:3094   */\n      dup2\n        /* \"#utility.yul\":2964:3095   */\n      tag_46\n      jump\t// in\n    tag_78:\n        /* \"#utility.yul\":2956:3095   */\n      swap1\n      pop\n        /* \"#utility.yul\":2683:3102   */\n      swap2\n      swap1\n      pop\n      jump\t// out\n        /* \"#utility.yul\":3108:3440   */\n    tag_33:\n        /* \"#utility.yul\":3229:3233   */\n      0x00\n        /* \"#utility.yul\":3267:3269   */\n      0x40\n        /* \"#utility.yul\":3256:3265   */\n      dup3\n        /* \"#utility.yul\":3252:3270   */\n      add\n        /* \"#utility.yul\":3244:3270   */\n      swap1\n      pop\n        /* \"#utility.yul\":3280:3351   */\n      tag_80\n        /* \"#utility.yul\":3348:3349   */\n      0x00\n        /* \"#utility.yul\":3337:3346   */\n      dup4\n        /* \"#utility.yul\":3333:3350   */\n      add\n        /* \"#utility.yul\":3324:3330   */\n      dup6\n        /* \"#utility.yul\":3280:3351   */\n      tag_35\n      jump\t// in\n    tag_80:\n        /* \"#utility.yul\":3361:3433   */\n      tag_81\n        /* \"#utility.yul\":3429:3431   */\n      0x20\n        /* \"#utility.yul\":3418:3427   */\n      dup4\n        /* \"#utility.yul\":3414:3432   */\n      add\n        /* \"#utility.yul\":3405:3411   */\n      dup5\n        /* \"#utility.yul\":3361:3433   */\n      tag_35\n      jump\t// in\n    tag_81:\n        /* \"#utility.yul\":3108:3440   */\n      swap4\n      swap3\n      pop\n      pop\n      pop\n      jump\t// out\n\n    auxdata: 0xa2646970667358221220c1d3c02e86324e54d0d1f34dec0e9d9e39083cbf926c62413298f9b83afc566a64736f6c63430008100033\n}\n",
				"bytecode": {
					"linkReferences": {},
					"object": "608060405234801561001057600080fd5b50336000806101000a81548173ffffffffffffffffffffffffffffffffffffffff021916908373ffffffffffffffffffffffffffffffffffffffff160217905550610426806100606000396000f3fe608060405234801561001057600080fd5b506004361061004c5760003560e01c80633fa4f24514610051578063552410771461006f5780638da5cb5b1461008b578063a0225c6f146100a9575b600080fd5b6100596100c5565b6040516100669190610275565b60405180910390f35b610089600480360381019061008491906102c1565b6100cb565b005b6100936101ee565b6040516100a0919061032f565b60405180910390f35b6100c360048036038101906100be91906102c1565b610212565b005b60015481565b60008054906101000a900473ffffffffffffffffffffffffffffffffffffffff1673ffffffffffffffffffffffffffffffffffffffff163373ffffffffffffffffffffffffffffffffffffffff161461015b57336040517f8e4a23d6000000000000000000000000000000000000000000000000000000008152600401610152919061032f565b60405180910390fd5b600081036101a057806040517f6072742c0000000000000000000000000000000000000000000000000000000081526004016101979190610275565b60405180910390fd5b60015481036101e4576040517f08c379a00000000000000000000000000000000000000000000000000000000081526004016101db906103a7565b60405180910390fd5b8060018190555050565b60008054906101000a900473ffffffffffffffffffffffffffffffffffffffff1681565b804211156102595780426040517f24bf66c50000000000000000000000000000000000000000000000000000000081526004016102509291906103c7565b60405180910390fd5b50565b6000819050919050565b61026f8161025c565b82525050565b600060208201905061028a6000830184610266565b92915050565b600080fd5b61029e8161025c565b81146102a957600080fd5b50565b6000813590506102bb81610295565b92915050565b6000602082840312156102d7576102d6610290565b5b60006102e5848285016102ac565b91505092915050565b600073ffffffffffffffffffffffffffffffffffffffff82169050919050565b6000610319826102ee565b9050919050565b6103298161030e565b82525050565b60006020820190506103446000830184610320565b92915050565b600082825260208201905092915050565b7f56616c756520616c726561647920736574000000000000000000000000000000600082015250565b600061039160118361034a565b915061039c8261035b565b602082019050919050565b600060208201905081810360008301526103c081610384565b9050919050565b60006040820190506103dc6000830185610266565b6103e96020830184610266565b939250505056fea2646970667358221220c1d3c02e86324e54d0d1f34dec0e9d9e39083cbf926c62413298f9b83afc566a64736f6c63430008100033",
					"opcodes": "PUSH1 0x80 PUSH1 0x40 MSTORE CALLVALUE DUP1 ISZERO PUSH2 0x10 JUMPI PUSH1 0x0 DUP1 REVERT JUMPDEST POP CALLER PUSH1 0x0 DUP1 PUSH2 0x100 EXP DUP2 SLOAD DUP2 PUSH20 0xFFFFFFFFFFFFFFFFFFFFFFFFFFFFFFFFFFFFFFFF MUL NOT AND SWAP1 DUP4 PUSH20 0xFFFFFFFFFFFFFFFFFFFFFFFFFFFFFFFFFFFFFFFF AND MUL OR SWAP1 SSTORE POP PUSH2 0x426 DUP1 PUSH2 0x60 PUSH1 0x0 CODECOPY PUSH1 0x0 RETURN INVALID PUSH1 0x80 PUSH1 0x40 MSTORE CALLVALUE DUP1 ISZERO PUSH2 0x10 JUMPI PUSH1 0x0 DUP1 REVERT JUMPDEST POP PUSH1 0x4 CALLDATASIZE LT PUSH2 0x4C JUMPI PUSH1 0x0 CALLDATALOAD PUSH1 0xE0 SHR DUP1 PUSH4 0x3FA4F245 EQ PUSH2 0x51 JUMPI DUP1 PUSH4 0x55241077 EQ PUSH2 0x6F JUMPI DUP1 PUSH4 0x8DA5CB5B EQ PUSH2 0x8B JUMPI DUP1 PUSH4 0xA0225C6F EQ PUSH2 0xA9 JUMPI JUMPDEST PUSH1 0x0 DUP1 REVERT JUMPDEST PUSH2 0x59 PUSH2 0xC5 JUMP JUMPDEST PUSH1 0x40 MLOAD PUSH2 0x66 SWAP2 SWAP1 PUSH2 0x275 JUMP JUMPDEST PUSH1 0x40 MLOAD DUP1 SWAP2 SUB SWAP1 RETURN JUMPDEST PUSH2 0x89 PUSH1 0x4 DUP1 CALLDATASIZE SUB DUP2 ADD SWAP1 PUSH2 0x84 SWAP2 SWAP1 PUSH2 0x2C1 JUMP JUMPDEST PUSH2 0xCB JUMP JUMPDEST STOP JUMPDEST PUSH2 0x93 PUSH2 0x1EE JUMP JUMPDEST PUSH1 0x40 MLOAD PUSH2 0xA0 SWAP2 SWAP1 PUSH2 0x32F JUMP JUMPDEST PUSH1 0x40 MLOAD DUP1 SWAP2 SUB SWAP1 RETURN JUMPDEST PUSH2 0xC3 PUSH1 0x4 DUP1 CALLDATASIZE SUB DUP2 ADD SWAP1 PUSH2 0xBE SWAP2 SWAP1 PUSH2 0x2C1 JUMP JUMPDEST PUSH2 0x212 JUMP JUMPDEST STOP JUMPDEST PUSH1 0x1 SLOAD DUP2 JUMP JUMPDEST PUSH1 0x0 DUP1 SLOAD SWAP1 PUSH2 0x100 EXP SWAP1 DIV PUSH20 0xFFFFFFFFFFFFFFFFFFFFFFFFFFFFFFFFFFFFFFFF AND PUSH20 0xFFFFFFFFFFFFFFFFFFFFFFFFFFFFFFFFFFFFFFFF AND CALLER PUSH20 0xFFFFFFFFFFFFFFFFFFFFFFFFFFFFFFFFFFFFFFFF AND EQ PUSH2 0x15B JUMPI CALLER PUSH1 0x40 MLOAD PUSH32 0x8E4A23D600000000000000000000000000000000000000000000000000000000 DUP2 MSTORE PUSH1 0x4 ADD PUSH2 0x152 SWAP2 SWAP1 PUSH2 0x32F JUMP JUMPDEST PUSH1 0x40 MLOAD DUP1 SWAP2 SUB SWAP1 REVERT JUMPDEST PUSH1 0x0 DUP2 SUB PUSH2 0x1A0 JUMPI DUP1 PUSH1 0x40 MLOAD PUSH32 0x6072742C00000000000000000000000000000000000000000000000000000000 DUP2 MSTORE PUSH1 0x4 ADD PUSH2 0x197 SWAP2 SWAP1 PUSH2 0x275 JUMP JUMPDEST PUSH1 0x40 MLOAD DUP1 SWAP2 SUB SWAP1 REVERT JUMPDEST PUSH1 0x1 SLOAD DUP2 SUB PUSH2 0x1E4 JUMPI PUSH1 0x40 MLOAD PUSH32 0x8C379A000000000000000000000000000000000000000000000000000000000 DUP2 MSTORE PUSH1 0x4 ADD PUSH2 0x1DB SWAP1 PUSH2 0x3A7 JUMP JUMPDEST PUSH1 0x40 MLOAD DUP1 SWAP2 SUB SWAP1 REVERT JUMPDEST DUP1 PUSH1 0x1 DUP2 SWAP1 SSTORE POP POP JUMP JUMPDEST PUSH1 0x0 DUP1 SLOAD SWAP1 PUSH2 0x100 EXP SWAP1 DIV PUSH20 0xFFFFFFFFFFFFFFFFFFFFFFFFFFFFFFFFFFFFFFFF AND DUP2 JUMP JUMPDEST DUP1 TIMESTAMP GT ISZERO PUSH2 0x259 JUMPI DUP1 TIMESTAMP PUSH1 0x40 MLOAD PUSH32 0x24BF66C500000000000000000000000000000000000000000000000000000000 DUP2 MSTORE PUSH1 0x4 ADD PUSH2 0x250 SWAP3 SWAP2 SWAP1 PUSH2 0x3C7 JUMP JUMPDEST PUSH1 0x40 MLOAD DUP1 SWAP2 SUB SWAP1 REVERT JUMPDEST POP JUMP JUMPDEST PUSH1 0x0 DUP2 SWAP1 POP SWAP2 SWAP1 POP JUMP JUMPDEST PUSH2 0x26F DUP2 PUSH2 0x25C JUMP JUMPDEST DUP3 MSTORE POP POP JUMP JUMPDEST PUSH1 0x0 PUSH1 0x20 DUP3 ADD SWAP1 POP PUSH2 0x28A PUSH1 0x0 DUP4 ADD DUP5 PUSH2 0x266 JUMP JUMPDEST SWAP3 SWAP2 POP POP JUMP JUMPDEST PUSH1 0x0 DUP1 REVERT JUMPDEST PUSH2 0x29E DUP2 PUSH2 0x25C JUMP JUMPDEST DUP2 EQ PUSH2 0x2A9 JUMPI PUSH1 0x0 DUP1 REVERT JUMPDEST POP JUMP JUMPDEST PUSH1 0x0 DUP2 CALLDATALOAD SWAP1 POP PUSH2 0x2BB DUP2 PUSH2 0x295 JUMP JUMPDEST SWAP3 SWAP2 POP POP JUMP JUMPDEST PUSH1 0x0 PUSH1 0x20 DUP3 DUP5 SUB SLT ISZERO PUSH2 0x2D7 JUMPI PUSH2 0x2D6 PUSH2 0x290 JUMP JUMPDEST JUMPDEST PUSH1 0x0 PUSH2 0x2E5 DUP5 DUP3 DUP6 ADD PUSH2 0x2AC JUMP JUMPDEST SWAP2 POP POP SWAP3 SWAP2 POP POP JUMP JUMPDEST PUSH1 0x0 PUSH20 0xFFFFFFFFFFFFFFFFFFFFFFFFFFFFFFFFFFFFFFFF DUP3 AND SWAP1 POP SWAP2 SWAP1 POP JUMP JUMPDEST PUSH1 0x0 PUSH2 0x319 DUP3 PUSH2 0x2EE JUMP JUMPDEST SWAP1 POP SWAP2 SWAP1 POP JUMP JUMPDEST PUSH2 0x329 DUP2 PUSH2 0x30E JUMP JUMPDEST DUP3 MSTORE POP POP JUMP JUMPDEST PUSH1 0x0 PUSH1 0x20 DUP3 ADD SWAP1 POP PUSH2 0x344 PUSH1 0x0 DUP4 ADD DUP5 PUSH2 0x320 JUMP JUMPDEST SWAP3 SWAP2 POP POP JUMP JUMPDEST PUSH1 0x0 DUP3 DUP3 MSTORE PUSH1 0x20 DUP3 ADD SWAP1 POP SWAP3 SWAP2 POP POP JUMP JUMPDEST PUSH32 0x56616C756520616C726561647920736574000000000000000000000000000000 PUSH1 0x0 DUP3 ADD MSTORE POP JUMP JUMPDEST PUSH1 0x0 PUSH2 0x391 PUSH1 0x11 DUP4 PUSH2 0x34A JUMP JUMPDEST SWAP2 POP PUSH2 0x39C DUP3 PUSH2 0x35B JUMP JUMPDEST PUSH1 0x20 DUP3 ADD SWAP1 POP SWAP2 SWAP1 POP JUMP JUMPDEST PUSH1 0x0 PUSH1 0x20 DUP3 ADD SWAP1 POP DUP2 DUP2 SUB PUSH1 0x0 DUP4 ADD MSTORE PUSH2 0x3C0 DUP2 PUSH2 0x384 JUMP JUMPDEST SWAP1 POP SWAP2 SWAP1 POP JUMP JUMPDEST PUSH1 0x0 PUSH1 0x40 DUP3 ADD SWAP1 POP PUSH2 0x3DC PUSH1 0x0 DUP4 ADD DUP6 PUSH2 0x266 JUMP JUMPDEST PUSH2 0x3E9 PUSH1 0x20 DUP4 ADD DUP5 PUSH2 0x266 JUMP JUMPDEST SWAP4 SWAP3 POP POP POP JUMP INVALID LOG2 PUSH5 0x6970667358 0x22 SLT KECCAK256 0xC1 0xD3 0xC0 0x2E DUP7 ORIGIN 0x4E SLOAD 0xD0 0xD1 RETURN 0x4D 0xEC 0xE SWAP14 SWAP15 CODECOPY ADDMOD EXTCODECOPY 0xBF SWAP3 PUSH13 0x62413298F9B83AFC566A64736F PUSH13 0x63430008100033000000000000 "
				},
				"gasEstimates": {
					"creation": {
						"codeDepositCost": "212400",
						"executionCost": "24523",
						"totalCost": "236923"
					},
					"external": {
						"doSomethingBeforeDeadline(uint256)": "infinite",
						"owner()": "2533",
						"setValue(uint256)": "infinite",
						"value()": "2407"
					}
				},
				"methodIdentifiers": {
					"doSomethingBeforeDeadline(uint256)": "a0225c6f",
					"owner()": "8da5cb5b",
					"setValue(uint256)": "55241077",
					"value()": "3fa4f245"
				}
			},
			"storageLayout": {
				"storage": [
					{
						"astId": 222,
						"contract": "contracts/BasicErrorHandling.sol:CustomErrorsExample",
						"label": "owner",
						"offset": 0,
						"slot": "0",
						"type": "t_address"
					},
					{
						"astId": 224,
						"contract": "contracts/BasicErrorHandling.sol:CustomErrorsExample",
						"label": "value",
						"offset": 0,
						"slot": "1",
						"type": "t_uint256"
					}
				],
				"types": {
					"t_address": {
						"encoding": "inplace",
						"label": "address",
						"numberOfBytes": "20"
					},
					"t_uint256": {
						"encoding": "inplace",
						"label": "uint256",
						"numberOfBytes": "32"
					}
				}
			},
			"userdoc": {
				"kind": "user",
				"methods": {},
				"version": 1
			}
		}
	}
}