{
	"contracts/vsdv.sol": {
		"VariableTypes": {
			"abi": [
				{
					"inputs": [],
					"stateMutability": "nonpayable",
					"type": "constructor"
				},
				{
					"inputs": [],
					"name": "DEPLOYER",
					"outputs": [
						{
							"internalType": "address",
							"name": "",
							"type": "address"
						}
					],
					"stateMutability": "view",
					"type": "function"
				},
				{
					"inputs": [],
					"name": "MAX_NUMBERS",
					"outputs": [
						{
							"internalType": "uint256",
							"name": "",
							"type": "uint256"
						}
					],
					"stateMutability": "view",
					"type": "function"
				},
				{
					"inputs": [
						{
							"internalType": "string",
							"name": "_text",
							"type": "string"
						}
					],
					"name": "concatenateString",
					"outputs": [
						{
							"internalType": "string",
							"name": "",
							"type": "string"
						}
					],
					"stateMutability": "view",
					"type": "function"
				},
				{
					"inputs": [
						{
							"internalType": "uint256",
							"name": "",
							"type": "uint256"
						}
					],
					"name": "numbers",
					"outputs": [
						{
							"internalType": "uint256",
							"name": "",
							"type": "uint256"
						}
					],
					"stateMutability": "view",
					"type": "function"
				},
				{
					"inputs": [
						{
							"internalType": "string",
							"name": "_text",
							"type": "string"
						}
					],
					"name": "processString",
					"outputs": [
						{
							"internalType": "string",
							"name": "",
							"type": "string"
						}
					],
					"stateMutability": "pure",
					"type": "function"
				},
				{
					"inputs": [],
					"name": "storedData",
					"outputs": [
						{
							"internalType": "string",
							"name": "",
							"type": "string"
						}
					],
					"stateMutability": "view",
					"type": "function"
				},
				{
					"inputs": [
						{
							"internalType": "uint256",
							"name": "newNumber",
							"type": "uint256"
						}
					],
					"name": "updateAndReturn",
					"outputs": [
						{
							"internalType": "uint256[]",
							"name": "",
							"type": "uint256[]"
						}
					],
					"stateMutability": "nonpayable",
					"type": "function"
				}
			],
			"devdoc": {
				"kind": "dev",
				"methods": {},
				"version": 1
			},
			"evm": {
				"assembly": "    /* \"contracts/vsdv.sol\":61:1873  contract VariableTypes {... */\n  mstore(0x40, 0xa0)\n    /* \"contracts/vsdv.sol\":146:211  string public storedData = \"This is stored in blockchain storage\" */\n  mload(0x40)\n  dup1\n  0x60\n  add\n  0x40\n  mstore\n  dup1\n  0x24\n  dup2\n  mstore\n  0x20\n  add\n  data_f3485fde7aa741be13f06469c9e8e4cb84b8fc13b8f6e8de8057e8b984279c80\n  0x24\n  swap2\n  codecopy\n  0x00\n  swap1\n  dup2\n  tag_1\n  swap2\n  swap1\n  tag_2\n  jump\t// in\ntag_1:\n  pop\n    /* \"contracts/vsdv.sol\":594:703  constructor() {... */\n  callvalue\n  dup1\n  iszero\n  tag_3\n  jumpi\n  0x00\n  dup1\n  revert\ntag_3:\n  pop\n    /* \"contracts/vsdv.sol\":630:640  msg.sender */\n  caller\n    /* \"contracts/vsdv.sol\":619:640  DEPLOYER = msg.sender */\n  0xffffffffffffffffffffffffffffffffffffffff\n  and\n  0x80\n  dup2\n  0xffffffffffffffffffffffffffffffffffffffff\n  and\n  dup2\n  mstore\n  pop\n  pop\n    /* \"contracts/vsdv.sol\":651:658  numbers */\n  0x01\n    /* \"contracts/vsdv.sol\":664:665  1 */\n  dup1\n    /* \"contracts/vsdv.sol\":651:666  numbers.push(1) */\n  dup1\n  0x01\n  dup2\n  sload\n  add\n  dup1\n  dup3\n  sstore\n  dup1\n  swap2\n  pop\n  pop\n  0x01\n  swap1\n  sub\n  swap1\n  0x00\n  mstore\n  keccak256(0x00, 0x20)\n  add\n  0x00\n  swap1\n  swap2\n  swap1\n  swap2\n  swap1\n  swap2\n  pop\n  sstore\n    /* \"contracts/vsdv.sol\":61:1873  contract VariableTypes {... */\n  jump(tag_7)\n    /* \"#utility.yul\":7:106   */\ntag_8:\n    /* \"#utility.yul\":59:65   */\n  0x00\n    /* \"#utility.yul\":93:98   */\n  dup2\n    /* \"#utility.yul\":87:99   */\n  mload\n    /* \"#utility.yul\":77:99   */\n  swap1\n  pop\n    /* \"#utility.yul\":7:106   */\n  swap2\n  swap1\n  pop\n  jump\t// out\n    /* \"#utility.yul\":112:292   */\ntag_9:\n    /* \"#utility.yul\":160:237   */\n  0x4e487b7100000000000000000000000000000000000000000000000000000000\n    /* \"#utility.yul\":157:158   */\n  0x00\n    /* \"#utility.yul\":150:238   */\n  mstore\n    /* \"#utility.yul\":257:261   */\n  0x41\n    /* \"#utility.yul\":254:255   */\n  0x04\n    /* \"#utility.yul\":247:262   */\n  mstore\n    /* \"#utility.yul\":281:285   */\n  0x24\n    /* \"#utility.yul\":278:279   */\n  0x00\n    /* \"#utility.yul\":271:286   */\n  revert\n    /* \"#utility.yul\":298:478   */\ntag_10:\n    /* \"#utility.yul\":346:423   */\n  0x4e487b7100000000000000000000000000000000000000000000000000000000\n    /* \"#utility.yul\":343:344   */\n  0x00\n    /* \"#utility.yul\":336:424   */\n  mstore\n    /* \"#utility.yul\":443:447   */\n  0x22\n    /* \"#utility.yul\":440:441   */\n  0x04\n    /* \"#utility.yul\":433:448   */\n  mstore\n    /* \"#utility.yul\":467:471   */\n  0x24\n    /* \"#utility.yul\":464:465   */\n  0x00\n    /* \"#utility.yul\":457:472   */\n  revert\n    /* \"#utility.yul\":484:804   */\ntag_11:\n    /* \"#utility.yul\":528:534   */\n  0x00\n    /* \"#utility.yul\":565:566   */\n  0x02\n    /* \"#utility.yul\":559:563   */\n  dup3\n    /* \"#utility.yul\":555:567   */\n  div\n    /* \"#utility.yul\":545:567   */\n  swap1\n  pop\n    /* \"#utility.yul\":612:613   */\n  0x01\n    /* \"#utility.yul\":606:610   */\n  dup3\n    /* \"#utility.yul\":602:614   */\n  and\n    /* \"#utility.yul\":633:651   */\n  dup1\n    /* \"#utility.yul\":623:704   */\n  tag_33\n  jumpi\n    /* \"#utility.yul\":689:693   */\n  0x7f\n    /* \"#utility.yul\":681:687   */\n  dup3\n    /* \"#utility.yul\":677:694   */\n  and\n    /* \"#utility.yul\":667:694   */\n  swap2\n  pop\n    /* \"#utility.yul\":623:704   */\ntag_33:\n    /* \"#utility.yul\":751:753   */\n  0x20\n    /* \"#utility.yul\":743:749   */\n  dup3\n    /* \"#utility.yul\":740:754   */\n  lt\n    /* \"#utility.yul\":720:738   */\n  dup2\n    /* \"#utility.yul\":717:755   */\n  sub\n    /* \"#utility.yul\":714:798   */\n  tag_34\n  jumpi\n    /* \"#utility.yul\":770:788   */\n  tag_35\n  tag_10\n  jump\t// in\ntag_35:\n    /* \"#utility.yul\":714:798   */\ntag_34:\n    /* \"#utility.yul\":535:804   */\n  pop\n    /* \"#utility.yul\":484:804   */\n  swap2\n  swap1\n  pop\n  jump\t// out\n    /* \"#utility.yul\":810:951   */\ntag_12:\n    /* \"#utility.yul\":859:863   */\n  0x00\n    /* \"#utility.yul\":882:885   */\n  dup2\n    /* \"#utility.yul\":874:885   */\n  swap1\n  pop\n    /* \"#utility.yul\":905:908   */\n  dup2\n    /* \"#utility.yul\":902:903   */\n  0x00\n    /* \"#utility.yul\":895:909   */\n  mstore\n    /* \"#utility.yul\":939:943   */\n  0x20\n    /* \"#utility.yul\":936:937   */\n  0x00\n    /* \"#utility.yul\":926:944   */\n  keccak256\n    /* \"#utility.yul\":918:944   */\n  swap1\n  pop\n    /* \"#utility.yul\":810:951   */\n  swap2\n  swap1\n  pop\n  jump\t// out\n    /* \"#utility.yul\":957:1050   */\ntag_13:\n    /* \"#utility.yul\":994:1000   */\n  0x00\n    /* \"#utility.yul\":1041:1043   */\n  0x20\n    /* \"#utility.yul\":1036:1038   */\n  0x1f\n    /* \"#utility.yul\":1029:1034   */\n  dup4\n    /* \"#utility.yul\":1025:1039   */\n  add\n    /* \"#utility.yul\":1021:1044   */\n  div\n    /* \"#utility.yul\":1011:1044   */\n  swap1\n  pop\n    /* \"#utility.yul\":957:1050   */\n  swap2\n  swap1\n  pop\n  jump\t// out\n    /* \"#utility.yul\":1056:1163   */\ntag_14:\n    /* \"#utility.yul\":1100:1108   */\n  0x00\n    /* \"#utility.yul\":1150:1155   */\n  dup3\n    /* \"#utility.yul\":1144:1148   */\n  dup3\n    /* \"#utility.yul\":1140:1156   */\n  shl\n    /* \"#utility.yul\":1119:1156   */\n  swap1\n  pop\n    /* \"#utility.yul\":1056:1163   */\n  swap3\n  swap2\n  pop\n  pop\n  jump\t// out\n    /* \"#utility.yul\":1169:1562   */\ntag_15:\n    /* \"#utility.yul\":1238:1244   */\n  0x00\n    /* \"#utility.yul\":1288:1289   */\n  0x08\n    /* \"#utility.yul\":1276:1286   */\n  dup4\n    /* \"#utility.yul\":1272:1290   */\n  mul\n    /* \"#utility.yul\":1311:1408   */\n  tag_40\n    /* \"#utility.yul\":1341:1407   */\n  0xffffffffffffffffffffffffffffffffffffffffffffffffffffffffffffffff\n    /* \"#utility.yul\":1330:1339   */\n  dup3\n    /* \"#utility.yul\":1311:1408   */\n  tag_14\n  jump\t// in\ntag_40:\n    /* \"#utility.yul\":1429:1468   */\n  tag_41\n    /* \"#utility.yul\":1459:1467   */\n  dup7\n    /* \"#utility.yul\":1448:1457   */\n  dup4\n    /* \"#utility.yul\":1429:1468   */\n  tag_14\n  jump\t// in\ntag_41:\n    /* \"#utility.yul\":1417:1468   */\n  swap6\n  pop\n    /* \"#utility.yul\":1501:1505   */\n  dup1\n    /* \"#utility.yul\":1497:1506   */\n  not\n    /* \"#utility.yul\":1490:1495   */\n  dup5\n    /* \"#utility.yul\":1486:1507   */\n  and\n    /* \"#utility.yul\":1477:1507   */\n  swap4\n  pop\n    /* \"#utility.yul\":1550:1554   */\n  dup1\n    /* \"#utility.yul\":1540:1548   */\n  dup7\n    /* \"#utility.yul\":1536:1555   */\n  and\n    /* \"#utility.yul\":1529:1534   */\n  dup5\n    /* \"#utility.yul\":1526:1556   */\n  or\n    /* \"#utility.yul\":1516:1556   */\n  swap3\n  pop\n    /* \"#utility.yul\":1245:1562   */\n  pop\n  pop\n    /* \"#utility.yul\":1169:1562   */\n  swap4\n  swap3\n  pop\n  pop\n  pop\n  jump\t// out\n    /* \"#utility.yul\":1568:1645   */\ntag_16:\n    /* \"#utility.yul\":1605:1612   */\n  0x00\n    /* \"#utility.yul\":1634:1639   */\n  dup2\n    /* \"#utility.yul\":1623:1639   */\n  swap1\n  pop\n    /* \"#utility.yul\":1568:1645   */\n  swap2\n  swap1\n  pop\n  jump\t// out\n    /* \"#utility.yul\":1651:1711   */\ntag_17:\n    /* \"#utility.yul\":1679:1682   */\n  0x00\n    /* \"#utility.yul\":1700:1705   */\n  dup2\n    /* \"#utility.yul\":1693:1705   */\n  swap1\n  pop\n    /* \"#utility.yul\":1651:1711   */\n  swap2\n  swap1\n  pop\n  jump\t// out\n    /* \"#utility.yul\":1717:1859   */\ntag_18:\n    /* \"#utility.yul\":1767:1776   */\n  0x00\n    /* \"#utility.yul\":1800:1853   */\n  tag_45\n    /* \"#utility.yul\":1818:1852   */\n  tag_46\n    /* \"#utility.yul\":1827:1851   */\n  tag_47\n    /* \"#utility.yul\":1845:1850   */\n  dup5\n    /* \"#utility.yul\":1827:1851   */\n  tag_16\n  jump\t// in\ntag_47:\n    /* \"#utility.yul\":1818:1852   */\n  tag_17\n  jump\t// in\ntag_46:\n    /* \"#utility.yul\":1800:1853   */\n  tag_16\n  jump\t// in\ntag_45:\n    /* \"#utility.yul\":1787:1853   */\n  swap1\n  pop\n    /* \"#utility.yul\":1717:1859   */\n  swap2\n  swap1\n  pop\n  jump\t// out\n    /* \"#utility.yul\":1865:1940   */\ntag_19:\n    /* \"#utility.yul\":1908:1911   */\n  0x00\n    /* \"#utility.yul\":1929:1934   */\n  dup2\n    /* \"#utility.yul\":1922:1934   */\n  swap1\n  pop\n    /* \"#utility.yul\":1865:1940   */\n  swap2\n  swap1\n  pop\n  jump\t// out\n    /* \"#utility.yul\":1946:2215   */\ntag_20:\n    /* \"#utility.yul\":2056:2095   */\n  tag_50\n    /* \"#utility.yul\":2087:2094   */\n  dup4\n    /* \"#utility.yul\":2056:2095   */\n  tag_18\n  jump\t// in\ntag_50:\n    /* \"#utility.yul\":2117:2208   */\n  tag_51\n    /* \"#utility.yul\":2166:2207   */\n  tag_52\n    /* \"#utility.yul\":2190:2206   */\n  dup3\n    /* \"#utility.yul\":2166:2207   */\n  tag_19\n  jump\t// in\ntag_52:\n    /* \"#utility.yul\":2158:2164   */\n  dup5\n    /* \"#utility.yul\":2151:2155   */\n  dup5\n    /* \"#utility.yul\":2145:2156   */\n  sload\n    /* \"#utility.yul\":2117:2208   */\n  tag_15\n  jump\t// in\ntag_51:\n    /* \"#utility.yul\":2111:2115   */\n  dup3\n    /* \"#utility.yul\":2104:2209   */\n  sstore\n    /* \"#utility.yul\":2022:2215   */\n  pop\n    /* \"#utility.yul\":1946:2215   */\n  pop\n  pop\n  pop\n  jump\t// out\n    /* \"#utility.yul\":2221:2294   */\ntag_21:\n    /* \"#utility.yul\":2266:2269   */\n  0x00\n    /* \"#utility.yul\":2221:2294   */\n  swap1\n  jump\t// out\n    /* \"#utility.yul\":2300:2489   */\ntag_22:\n    /* \"#utility.yul\":2377:2409   */\n  tag_55\n  tag_21\n  jump\t// in\ntag_55:\n    /* \"#utility.yul\":2418:2483   */\n  tag_56\n    /* \"#utility.yul\":2476:2482   */\n  dup2\n    /* \"#utility.yul\":2468:2474   */\n  dup5\n    /* \"#utility.yul\":2462:2466   */\n  dup5\n    /* \"#utility.yul\":2418:2483   */\n  tag_20\n  jump\t// in\ntag_56:\n    /* \"#utility.yul\":2353:2489   */\n  pop\n    /* \"#utility.yul\":2300:2489   */\n  pop\n  pop\n  jump\t// out\n    /* \"#utility.yul\":2495:2681   */\ntag_23:\n    /* \"#utility.yul\":2555:2675   */\ntag_58:\n    /* \"#utility.yul\":2572:2575   */\n  dup2\n    /* \"#utility.yul\":2565:2570   */\n  dup2\n    /* \"#utility.yul\":2562:2576   */\n  lt\n    /* \"#utility.yul\":2555:2675   */\n  iszero\n  tag_60\n  jumpi\n    /* \"#utility.yul\":2626:2665   */\n  tag_61\n    /* \"#utility.yul\":2663:2664   */\n  0x00\n    /* \"#utility.yul\":2656:2661   */\n  dup3\n    /* \"#utility.yul\":2626:2665   */\n  tag_22\n  jump\t// in\ntag_61:\n    /* \"#utility.yul\":2599:2600   */\n  0x01\n    /* \"#utility.yul\":2592:2597   */\n  dup2\n    /* \"#utility.yul\":2588:2601   */\n  add\n    /* \"#utility.yul\":2579:2601   */\n  swap1\n  pop\n    /* \"#utility.yul\":2555:2675   */\n  jump(tag_58)\ntag_60:\n    /* \"#utility.yul\":2495:2681   */\n  pop\n  pop\n  jump\t// out\n    /* \"#utility.yul\":2687:3230   */\ntag_24:\n    /* \"#utility.yul\":2788:2790   */\n  0x1f\n    /* \"#utility.yul\":2783:2786   */\n  dup3\n    /* \"#utility.yul\":2780:2791   */\n  gt\n    /* \"#utility.yul\":2777:3223   */\n  iszero\n  tag_63\n  jumpi\n    /* \"#utility.yul\":2822:2860   */\n  tag_64\n    /* \"#utility.yul\":2854:2859   */\n  dup2\n    /* \"#utility.yul\":2822:2860   */\n  tag_12\n  jump\t// in\ntag_64:\n    /* \"#utility.yul\":2906:2935   */\n  tag_65\n    /* \"#utility.yul\":2924:2934   */\n  dup5\n    /* \"#utility.yul\":2906:2935   */\n  tag_13\n  jump\t// in\ntag_65:\n    /* \"#utility.yul\":2896:2904   */\n  dup2\n    /* \"#utility.yul\":2892:2936   */\n  add\n    /* \"#utility.yul\":3089:3091   */\n  0x20\n    /* \"#utility.yul\":3077:3087   */\n  dup6\n    /* \"#utility.yul\":3074:3092   */\n  lt\n    /* \"#utility.yul\":3071:3120   */\n  iszero\n  tag_66\n  jumpi\n    /* \"#utility.yul\":3110:3118   */\n  dup2\n    /* \"#utility.yul\":3095:3118   */\n  swap1\n  pop\n    /* \"#utility.yul\":3071:3120   */\ntag_66:\n    /* \"#utility.yul\":3133:3213   */\n  tag_67\n    /* \"#utility.yul\":3189:3211   */\n  tag_68\n    /* \"#utility.yul\":3207:3210   */\n  dup6\n    /* \"#utility.yul\":3189:3211   */\n  tag_13\n  jump\t// in\ntag_68:\n    /* \"#utility.yul\":3179:3187   */\n  dup4\n    /* \"#utility.yul\":3175:3212   */\n  add\n    /* \"#utility.yul\":3162:3173   */\n  dup3\n    /* \"#utility.yul\":3133:3213   */\n  tag_23\n  jump\t// in\ntag_67:\n    /* \"#utility.yul\":2792:3223   */\n  pop\n  pop\n    /* \"#utility.yul\":2777:3223   */\ntag_63:\n    /* \"#utility.yul\":2687:3230   */\n  pop\n  pop\n  pop\n  jump\t// out\n    /* \"#utility.yul\":3236:3353   */\ntag_25:\n    /* \"#utility.yul\":3290:3298   */\n  0x00\n    /* \"#utility.yul\":3340:3345   */\n  dup3\n    /* \"#utility.yul\":3334:3338   */\n  dup3\n    /* \"#utility.yul\":3330:3346   */\n  shr\n    /* \"#utility.yul\":3309:3346   */\n  swap1\n  pop\n    /* \"#utility.yul\":3236:3353   */\n  swap3\n  swap2\n  pop\n  pop\n  jump\t// out\n    /* \"#utility.yul\":3359:3528   */\ntag_26:\n    /* \"#utility.yul\":3403:3409   */\n  0x00\n    /* \"#utility.yul\":3436:3487   */\n  tag_71\n    /* \"#utility.yul\":3484:3485   */\n  0x00\n    /* \"#utility.yul\":3480:3486   */\n  not\n    /* \"#utility.yul\":3472:3477   */\n  dup5\n    /* \"#utility.yul\":3469:3470   */\n  0x08\n    /* \"#utility.yul\":3465:3478   */\n  mul\n    /* \"#utility.yul\":3436:3487   */\n  tag_25\n  jump\t// in\ntag_71:\n    /* \"#utility.yul\":3432:3488   */\n  not\n    /* \"#utility.yul\":3517:3521   */\n  dup1\n    /* \"#utility.yul\":3511:3515   */\n  dup4\n    /* \"#utility.yul\":3507:3522   */\n  and\n    /* \"#utility.yul\":3497:3522   */\n  swap2\n  pop\n    /* \"#utility.yul\":3410:3528   */\n  pop\n    /* \"#utility.yul\":3359:3528   */\n  swap3\n  swap2\n  pop\n  pop\n  jump\t// out\n    /* \"#utility.yul\":3533:3828   */\ntag_27:\n    /* \"#utility.yul\":3609:3613   */\n  0x00\n    /* \"#utility.yul\":3755:3784   */\n  tag_73\n    /* \"#utility.yul\":3780:3783   */\n  dup4\n    /* \"#utility.yul\":3774:3778   */\n  dup4\n    /* \"#utility.yul\":3755:3784   */\n  tag_26\n  jump\t// in\ntag_73:\n    /* \"#utility.yul\":3747:3784   */\n  swap2\n  pop\n    /* \"#utility.yul\":3817:3820   */\n  dup3\n    /* \"#utility.yul\":3814:3815   */\n  0x02\n    /* \"#utility.yul\":3810:3821   */\n  mul\n    /* \"#utility.yul\":3804:3808   */\n  dup3\n    /* \"#utility.yul\":3801:3822   */\n  or\n    /* \"#utility.yul\":3793:3822   */\n  swap1\n  pop\n    /* \"#utility.yul\":3533:3828   */\n  swap3\n  swap2\n  pop\n  pop\n  jump\t// out\n    /* \"#utility.yul\":3833:5228   */\ntag_2:\n    /* \"#utility.yul\":3950:3987   */\n  tag_75\n    /* \"#utility.yul\":3983:3986   */\n  dup3\n    /* \"#utility.yul\":3950:3987   */\n  tag_8\n  jump\t// in\ntag_75:\n    /* \"#utility.yul\":4052:4070   */\n  0xffffffffffffffff\n    /* \"#utility.yul\":4044:4050   */\n  dup2\n    /* \"#utility.yul\":4041:4071   */\n  gt\n    /* \"#utility.yul\":4038:4094   */\n  iszero\n  tag_76\n  jumpi\n    /* \"#utility.yul\":4074:4092   */\n  tag_77\n  tag_9\n  jump\t// in\ntag_77:\n    /* \"#utility.yul\":4038:4094   */\ntag_76:\n    /* \"#utility.yul\":4118:4156   */\n  tag_78\n    /* \"#utility.yul\":4150:4154   */\n  dup3\n    /* \"#utility.yul\":4144:4155   */\n  sload\n    /* \"#utility.yul\":4118:4156   */\n  tag_11\n  jump\t// in\ntag_78:\n    /* \"#utility.yul\":4203:4270   */\n  tag_79\n    /* \"#utility.yul\":4263:4269   */\n  dup3\n    /* \"#utility.yul\":4255:4261   */\n  dup3\n    /* \"#utility.yul\":4249:4253   */\n  dup6\n    /* \"#utility.yul\":4203:4270   */\n  tag_24\n  jump\t// in\ntag_79:\n    /* \"#utility.yul\":4297:4298   */\n  0x00\n    /* \"#utility.yul\":4321:4325   */\n  0x20\n    /* \"#utility.yul\":4308:4325   */\n  swap1\n  pop\n    /* \"#utility.yul\":4353:4355   */\n  0x1f\n    /* \"#utility.yul\":4345:4351   */\n  dup4\n    /* \"#utility.yul\":4342:4356   */\n  gt\n    /* \"#utility.yul\":4370:4371   */\n  0x01\n    /* \"#utility.yul\":4365:4983   */\n  dup2\n  eq\n  tag_81\n  jumpi\n    /* \"#utility.yul\":5027:5028   */\n  0x00\n    /* \"#utility.yul\":5044:5050   */\n  dup5\n    /* \"#utility.yul\":5041:5118   */\n  iszero\n  tag_82\n  jumpi\n    /* \"#utility.yul\":5093:5102   */\n  dup3\n    /* \"#utility.yul\":5088:5091   */\n  dup8\n    /* \"#utility.yul\":5084:5103   */\n  add\n    /* \"#utility.yul\":5078:5104   */\n  mload\n    /* \"#utility.yul\":5069:5104   */\n  swap1\n  pop\n    /* \"#utility.yul\":5041:5118   */\ntag_82:\n    /* \"#utility.yul\":5144:5211   */\n  tag_83\n    /* \"#utility.yul\":5204:5210   */\n  dup6\n    /* \"#utility.yul\":5197:5202   */\n  dup3\n    /* \"#utility.yul\":5144:5211   */\n  tag_27\n  jump\t// in\ntag_83:\n    /* \"#utility.yul\":5138:5142   */\n  dup7\n    /* \"#utility.yul\":5131:5212   */\n  sstore\n    /* \"#utility.yul\":5000:5222   */\n  pop\n    /* \"#utility.yul\":4335:5222   */\n  jump(tag_80)\n    /* \"#utility.yul\":4365:4983   */\ntag_81:\n    /* \"#utility.yul\":4417:4421   */\n  0x1f\n    /* \"#utility.yul\":4413:4422   */\n  not\n    /* \"#utility.yul\":4405:4411   */\n  dup5\n    /* \"#utility.yul\":4401:4423   */\n  and\n    /* \"#utility.yul\":4451:4488   */\n  tag_84\n    /* \"#utility.yul\":4483:4487   */\n  dup7\n    /* \"#utility.yul\":4451:4488   */\n  tag_12\n  jump\t// in\ntag_84:\n    /* \"#utility.yul\":4510:4511   */\n  0x00\n    /* \"#utility.yul\":4524:4732   */\ntag_85:\n    /* \"#utility.yul\":4538:4545   */\n  dup3\n    /* \"#utility.yul\":4535:4536   */\n  dup2\n    /* \"#utility.yul\":4532:4546   */\n  lt\n    /* \"#utility.yul\":4524:4732   */\n  iszero\n  tag_87\n  jumpi\n    /* \"#utility.yul\":4617:4626   */\n  dup5\n    /* \"#utility.yul\":4612:4615   */\n  dup10\n    /* \"#utility.yul\":4608:4627   */\n  add\n    /* \"#utility.yul\":4602:4628   */\n  mload\n    /* \"#utility.yul\":4594:4600   */\n  dup3\n    /* \"#utility.yul\":4587:4629   */\n  sstore\n    /* \"#utility.yul\":4668:4669   */\n  0x01\n    /* \"#utility.yul\":4660:4666   */\n  dup3\n    /* \"#utility.yul\":4656:4670   */\n  add\n    /* \"#utility.yul\":4646:4670   */\n  swap2\n  pop\n    /* \"#utility.yul\":4715:4717   */\n  0x20\n    /* \"#utility.yul\":4704:4713   */\n  dup6\n    /* \"#utility.yul\":4700:4718   */\n  add\n    /* \"#utility.yul\":4687:4718   */\n  swap5\n  pop\n    /* \"#utility.yul\":4561:4565   */\n  0x20\n    /* \"#utility.yul\":4558:4559   */\n  dup2\n    /* \"#utility.yul\":4554:4566   */\n  add\n    /* \"#utility.yul\":4549:4566   */\n  swap1\n  pop\n    /* \"#utility.yul\":4524:4732   */\n  jump(tag_85)\ntag_87:\n    /* \"#utility.yul\":4760:4766   */\n  dup7\n    /* \"#utility.yul\":4751:4758   */\n  dup4\n    /* \"#utility.yul\":4748:4767   */\n  lt\n    /* \"#utility.yul\":4745:4924   */\n  iszero\n  tag_88\n  jumpi\n    /* \"#utility.yul\":4818:4827   */\n  dup5\n    /* \"#utility.yul\":4813:4816   */\n  dup10\n    /* \"#utility.yul\":4809:4828   */\n  add\n    /* \"#utility.yul\":4803:4829   */\n  mload\n    /* \"#utility.yul\":4861:4909   */\n  tag_89\n    /* \"#utility.yul\":4903:4907   */\n  0x1f\n    /* \"#utility.yul\":4895:4901   */\n  dup10\n    /* \"#utility.yul\":4891:4908   */\n  and\n    /* \"#utility.yul\":4880:4889   */\n  dup3\n    /* \"#utility.yul\":4861:4909   */\n  tag_26\n  jump\t// in\ntag_89:\n    /* \"#utility.yul\":4853:4859   */\n  dup4\n    /* \"#utility.yul\":4846:4910   */\n  sstore\n    /* \"#utility.yul\":4768:4924   */\n  pop\n    /* \"#utility.yul\":4745:4924   */\ntag_88:\n    /* \"#utility.yul\":4970:4971   */\n  0x01\n    /* \"#utility.yul\":4966:4967   */\n  0x02\n    /* \"#utility.yul\":4958:4964   */\n  dup9\n    /* \"#utility.yul\":4954:4968   */\n  mul\n    /* \"#utility.yul\":4950:4972   */\n  add\n    /* \"#utility.yul\":4944:4948   */\n  dup9\n    /* \"#utility.yul\":4937:4973   */\n  sstore\n    /* \"#utility.yul\":4372:4983   */\n  pop\n  pop\n  pop\n    /* \"#utility.yul\":4335:5222   */\ntag_80:\n  pop\n    /* \"#utility.yul\":3925:5228   */\n  pop\n  pop\n  pop\n    /* \"#utility.yul\":3833:5228   */\n  pop\n  pop\n  jump\t// out\n    /* \"contracts/vsdv.sol\":61:1873  contract VariableTypes {... */\ntag_7:\n  mload(0x80)\n  codecopy(0x00, dataOffset(sub_0), dataSize(sub_0))\n  0x00\n  assignImmutable(\"0x7f8b6b088b6d74c2852fc86c796dca07b44eed6fb3daf5e6b59f7c364db14528\")\n  return(0x00, dataSize(sub_0))\nstop\ndata_f3485fde7aa741be13f06469c9e8e4cb84b8fc13b8f6e8de8057e8b984279c80 546869732069732073746f72656420696e20626c6f636b636861696e2073746f72616765\n\nsub_0: assembly {\n        /* \"contracts/vsdv.sol\":61:1873  contract VariableTypes {... */\n      mstore(0x40, 0x80)\n      callvalue\n      dup1\n      iszero\n      tag_1\n      jumpi\n      0x00\n      dup1\n      revert\n    tag_1:\n      pop\n      jumpi(tag_2, lt(calldatasize, 0x04))\n      shr(0xe0, calldataload(0x00))\n      dup1\n      0xb39e12b5\n      gt\n      tag_10\n      jumpi\n      dup1\n      0xb39e12b5\n      eq\n      tag_6\n      jumpi\n      dup1\n      0xb9b6d6e4\n      eq\n      tag_7\n      jumpi\n      dup1\n      0xc1b8411a\n      eq\n      tag_8\n      jumpi\n      dup1\n      0xd39fa233\n      eq\n      tag_9\n      jumpi\n      jump(tag_2)\n    tag_10:\n      dup1\n      0x2a1afcd9\n      eq\n      tag_3\n      jumpi\n      dup1\n      0x5998e635\n      eq\n      tag_4\n      jumpi\n      dup1\n      0x7c216809\n      eq\n      tag_5\n      jumpi\n    tag_2:\n      0x00\n      dup1\n      revert\n        /* \"contracts/vsdv.sol\":146:211  string public storedData = \"This is stored in blockchain storage\" */\n    tag_3:\n      tag_11\n      tag_12\n      jump\t// in\n    tag_11:\n      mload(0x40)\n      tag_13\n      swap2\n      swap1\n      tag_14\n      jump\t// in\n    tag_13:\n      mload(0x40)\n      dup1\n      swap2\n      sub\n      swap1\n      return\n        /* \"contracts/vsdv.sol\":373:414  uint256 public constant MAX_NUMBERS = 100 */\n    tag_4:\n      tag_15\n      tag_16\n      jump\t// in\n    tag_15:\n      mload(0x40)\n      tag_17\n      swap2\n      swap1\n      tag_18\n      jump\t// in\n    tag_17:\n      mload(0x40)\n      dup1\n      swap2\n      sub\n      swap1\n      return\n        /* \"contracts/vsdv.sol\":848:1010  function processString(string calldata _text) public pure returns (string memory) {... */\n    tag_5:\n      tag_19\n      0x04\n      dup1\n      calldatasize\n      sub\n      dup2\n      add\n      swap1\n      tag_20\n      swap2\n      swap1\n      tag_21\n      jump\t// in\n    tag_20:\n      tag_22\n      jump\t// in\n    tag_19:\n      mload(0x40)\n      tag_23\n      swap2\n      swap1\n      tag_14\n      jump\t// in\n    tag_23:\n      mload(0x40)\n      dup1\n      swap2\n      sub\n      swap1\n      return\n        /* \"contracts/vsdv.sol\":1106:1370  function concatenateString(string memory _text) public view returns (string memory) {... */\n    tag_6:\n      tag_24\n      0x04\n      dup1\n      calldatasize\n      sub\n      dup2\n      add\n      swap1\n      tag_25\n      swap2\n      swap1\n      tag_26\n      jump\t// in\n    tag_25:\n      tag_27\n      jump\t// in\n    tag_24:\n      mload(0x40)\n      tag_28\n      swap2\n      swap1\n      tag_14\n      jump\t// in\n    tag_28:\n      mload(0x40)\n      dup1\n      swap2\n      sub\n      swap1\n      return\n        /* \"contracts/vsdv.sol\":1431:1870  function updateAndReturn(uint256 newNumber) public returns (uint256[] memory) {... */\n    tag_7:\n      tag_29\n      0x04\n      dup1\n      calldatasize\n      sub\n      dup2\n      add\n      swap1\n      tag_30\n      swap2\n      swap1\n      tag_31\n      jump\t// in\n    tag_30:\n      tag_32\n      jump\t// in\n    tag_29:\n      mload(0x40)\n      tag_33\n      swap2\n      swap1\n      tag_34\n      jump\t// in\n    tag_33:\n      mload(0x40)\n      dup1\n      swap2\n      sub\n      swap1\n      return\n        /* \"contracts/vsdv.sol\":548:581  address public immutable DEPLOYER */\n    tag_8:\n      tag_35\n      tag_36\n      jump\t// in\n    tag_35:\n      mload(0x40)\n      tag_37\n      swap2\n      swap1\n      tag_38\n      jump\t// in\n    tag_37:\n      mload(0x40)\n      dup1\n      swap2\n      sub\n      swap1\n      return\n        /* \"contracts/vsdv.sol\":218:242  uint256[] public numbers */\n    tag_9:\n      tag_39\n      0x04\n      dup1\n      calldatasize\n      sub\n      dup2\n      add\n      swap1\n      tag_40\n      swap2\n      swap1\n      tag_31\n      jump\t// in\n    tag_40:\n      tag_41\n      jump\t// in\n    tag_39:\n      mload(0x40)\n      tag_42\n      swap2\n      swap1\n      tag_18\n      jump\t// in\n    tag_42:\n      mload(0x40)\n      dup1\n      swap2\n      sub\n      swap1\n      return\n        /* \"contracts/vsdv.sol\":146:211  string public storedData = \"This is stored in blockchain storage\" */\n    tag_12:\n      0x00\n      dup1\n      sload\n      tag_43\n      swap1\n      tag_44\n      jump\t// in\n    tag_43:\n      dup1\n      0x1f\n      add\n      0x20\n      dup1\n      swap2\n      div\n      mul\n      0x20\n      add\n      mload(0x40)\n      swap1\n      dup2\n      add\n      0x40\n      mstore\n      dup1\n      swap3\n      swap2\n      swap1\n      dup2\n      dup2\n      mstore\n      0x20\n      add\n      dup3\n      dup1\n      sload\n      tag_45\n      swap1\n      tag_44\n      jump\t// in\n    tag_45:\n      dup1\n      iszero\n      tag_46\n      jumpi\n      dup1\n      0x1f\n      lt\n      tag_47\n      jumpi\n      0x0100\n      dup1\n      dup4\n      sload\n      div\n      mul\n      dup4\n      mstore\n      swap2\n      0x20\n      add\n      swap2\n      jump(tag_46)\n    tag_47:\n      dup3\n      add\n      swap2\n      swap1\n      0x00\n      mstore\n      keccak256(0x00, 0x20)\n      swap1\n    tag_48:\n      dup2\n      sload\n      dup2\n      mstore\n      swap1\n      0x01\n      add\n      swap1\n      0x20\n      add\n      dup1\n      dup4\n      gt\n      tag_48\n      jumpi\n      dup3\n      swap1\n      sub\n      0x1f\n      and\n      dup3\n      add\n      swap2\n    tag_46:\n      pop\n      pop\n      pop\n      pop\n      pop\n      dup2\n      jump\t// out\n        /* \"contracts/vsdv.sol\":373:414  uint256 public constant MAX_NUMBERS = 100 */\n    tag_16:\n        /* \"contracts/vsdv.sol\":411:414  100 */\n      0x64\n        /* \"contracts/vsdv.sol\":373:414  uint256 public constant MAX_NUMBERS = 100 */\n      dup2\n      jump\t// out\n        /* \"contracts/vsdv.sol\":848:1010  function processString(string calldata _text) public pure returns (string memory) {... */\n    tag_22:\n        /* \"contracts/vsdv.sol\":915:928  string memory */\n      0x60\n        /* \"contracts/vsdv.sol\":997:1002  _text */\n      dup3\n      dup3\n        /* \"contracts/vsdv.sol\":990:1002  return _text */\n      dup1\n      dup1\n      0x1f\n      add\n      0x20\n      dup1\n      swap2\n      div\n      mul\n      0x20\n      add\n      mload(0x40)\n      swap1\n      dup2\n      add\n      0x40\n      mstore\n      dup1\n      swap4\n      swap3\n      swap2\n      swap1\n      dup2\n      dup2\n      mstore\n      0x20\n      add\n      dup4\n      dup4\n      dup1\n      dup3\n      dup5\n      calldatacopy\n      0x00\n      dup2\n      dup5\n      add\n      mstore\n      not(0x1f)\n      0x1f\n      dup3\n      add\n      and\n      swap1\n      pop\n      dup1\n      dup4\n      add\n      swap3\n      pop\n      pop\n      pop\n      pop\n      pop\n      pop\n      pop\n      swap1\n      pop\n        /* \"contracts/vsdv.sol\":848:1010  function processString(string calldata _text) public pure returns (string memory) {... */\n      swap3\n      swap2\n      pop\n      pop\n      jump\t// out\n        /* \"contracts/vsdv.sol\":1106:1370  function concatenateString(string memory _text) public view returns (string memory) {... */\n    tag_27:\n        /* \"contracts/vsdv.sol\":1175:1188  string memory */\n      0x60\n        /* \"contracts/vsdv.sol\":1241:1261  string memory result */\n      0x00\n        /* \"contracts/vsdv.sol\":1302:1312  storedData */\n      dup1\n        /* \"contracts/vsdv.sol\":1321:1326  _text */\n      dup4\n        /* \"contracts/vsdv.sol\":1285:1327  abi.encodePacked(storedData, \" + \", _text) */\n      add(0x20, mload(0x40))\n      tag_51\n      swap3\n      swap2\n      swap1\n      tag_52\n      jump\t// in\n    tag_51:\n      mload(0x40)\n      0x20\n      dup2\n      dup4\n      sub\n      sub\n      dup2\n      mstore\n      swap1\n      0x40\n      mstore\n        /* \"contracts/vsdv.sol\":1241:1338  string memory result = string(... */\n      swap1\n      pop\n        /* \"contracts/vsdv.sol\":1356:1362  result */\n      dup1\n        /* \"contracts/vsdv.sol\":1349:1362  return result */\n      swap2\n      pop\n      pop\n        /* \"contracts/vsdv.sol\":1106:1370  function concatenateString(string memory _text) public view returns (string memory) {... */\n      swap2\n      swap1\n      pop\n      jump\t// out\n        /* \"contracts/vsdv.sol\":1431:1870  function updateAndReturn(uint256 newNumber) public returns (uint256[] memory) {... */\n    tag_32:\n        /* \"contracts/vsdv.sol\":1491:1507  uint256[] memory */\n      0x60\n        /* \"contracts/vsdv.sol\":1578:1585  numbers */\n      0x01\n        /* \"contracts/vsdv.sol\":1591:1600  newNumber */\n      dup3\n        /* \"contracts/vsdv.sol\":1578:1601  numbers.push(newNumber) */\n      swap1\n      dup1\n      0x01\n      dup2\n      sload\n      add\n      dup1\n      dup3\n      sstore\n      dup1\n      swap2\n      pop\n      pop\n      0x01\n      swap1\n      sub\n      swap1\n      0x00\n      mstore\n      keccak256(0x00, 0x20)\n      add\n      0x00\n      swap1\n      swap2\n      swap1\n      swap2\n      swap1\n      swap2\n      pop\n      sstore\n        /* \"contracts/vsdv.sol\":1664:1690  uint256[] memory tempArray */\n      0x00\n        /* \"contracts/vsdv.sol\":1707:1714  numbers */\n      0x01\n        /* \"contracts/vsdv.sol\":1707:1721  numbers.length */\n      dup1\n      sload\n      swap1\n      pop\n        /* \"contracts/vsdv.sol\":1693:1722  new uint256[](numbers.length) */\n      0xffffffffffffffff\n      dup2\n      gt\n      iszero\n      tag_55\n      jumpi\n      tag_56\n      tag_57\n      jump\t// in\n    tag_56:\n    tag_55:\n      mload(0x40)\n      swap1\n      dup1\n      dup3\n      mstore\n      dup1\n      0x20\n      mul\n      0x20\n      add\n      dup3\n      add\n      0x40\n      mstore\n      dup1\n      iszero\n      tag_58\n      jumpi\n      dup2\n      0x20\n      add\n      0x20\n      dup3\n      mul\n      dup1\n      calldatasize\n      dup4\n      calldatacopy\n      dup1\n      dup3\n      add\n      swap2\n      pop\n      pop\n      swap1\n      pop\n    tag_58:\n      pop\n        /* \"contracts/vsdv.sol\":1664:1722  uint256[] memory tempArray = new uint256[](numbers.length) */\n      swap1\n      pop\n        /* \"contracts/vsdv.sol\":1737:1743  uint i */\n      0x00\n        /* \"contracts/vsdv.sol\":1733:1826  for(uint i = 0; i < numbers.length; i++) {... */\n    tag_59:\n        /* \"contracts/vsdv.sol\":1753:1760  numbers */\n      0x01\n        /* \"contracts/vsdv.sol\":1753:1767  numbers.length */\n      dup1\n      sload\n      swap1\n      pop\n        /* \"contracts/vsdv.sol\":1749:1750  i */\n      dup2\n        /* \"contracts/vsdv.sol\":1749:1767  i < numbers.length */\n      lt\n        /* \"contracts/vsdv.sol\":1733:1826  for(uint i = 0; i < numbers.length; i++) {... */\n      iszero\n      tag_60\n      jumpi\n        /* \"contracts/vsdv.sol\":1804:1811  numbers */\n      0x01\n        /* \"contracts/vsdv.sol\":1812:1813  i */\n      dup2\n        /* \"contracts/vsdv.sol\":1804:1814  numbers[i] */\n      dup2\n      sload\n      dup2\n      lt\n      tag_62\n      jumpi\n      tag_63\n      tag_64\n      jump\t// in\n    tag_63:\n    tag_62:\n      swap1\n      0x00\n      mstore\n      keccak256(0x00, 0x20)\n      add\n      sload\n        /* \"contracts/vsdv.sol\":1789:1798  tempArray */\n      dup3\n        /* \"contracts/vsdv.sol\":1799:1800  i */\n      dup3\n        /* \"contracts/vsdv.sol\":1789:1801  tempArray[i] */\n      dup2\n      mload\n      dup2\n      lt\n      tag_66\n      jumpi\n      tag_67\n      tag_64\n      jump\t// in\n    tag_67:\n    tag_66:\n      0x20\n      mul\n      0x20\n      add\n      add\n        /* \"contracts/vsdv.sol\":1789:1814  tempArray[i] = numbers[i] */\n      dup2\n      dup2\n      mstore\n      pop\n      pop\n        /* \"contracts/vsdv.sol\":1769:1772  i++ */\n      dup1\n      dup1\n      tag_68\n      swap1\n      tag_69\n      jump\t// in\n    tag_68:\n      swap2\n      pop\n      pop\n        /* \"contracts/vsdv.sol\":1733:1826  for(uint i = 0; i < numbers.length; i++) {... */\n      jump(tag_59)\n    tag_60:\n      pop\n        /* \"contracts/vsdv.sol\":1853:1862  tempArray */\n      dup1\n        /* \"contracts/vsdv.sol\":1846:1862  return tempArray */\n      swap2\n      pop\n      pop\n        /* \"contracts/vsdv.sol\":1431:1870  function updateAndReturn(uint256 newNumber) public returns (uint256[] memory) {... */\n      swap2\n      swap1\n      pop\n      jump\t// out\n        /* \"contracts/vsdv.sol\":548:581  address public immutable DEPLOYER */\n    tag_36:\n      immutable(\"0x7f8b6b088b6d74c2852fc86c796dca07b44eed6fb3daf5e6b59f7c364db14528\")\n      dup2\n      jump\t// out\n        /* \"contracts/vsdv.sol\":218:242  uint256[] public numbers */\n    tag_41:\n      0x01\n      dup2\n      dup2\n      sload\n      dup2\n      lt\n      tag_70\n      jumpi\n      0x00\n      dup1\n      revert\n    tag_70:\n      swap1\n      0x00\n      mstore\n      keccak256(0x00, 0x20)\n      add\n      0x00\n      swap2\n      pop\n      swap1\n      pop\n      sload\n      dup2\n      jump\t// out\n        /* \"#utility.yul\":7:106   */\n    tag_72:\n        /* \"#utility.yul\":59:65   */\n      0x00\n        /* \"#utility.yul\":93:98   */\n      dup2\n        /* \"#utility.yul\":87:99   */\n      mload\n        /* \"#utility.yul\":77:99   */\n      swap1\n      pop\n        /* \"#utility.yul\":7:106   */\n      swap2\n      swap1\n      pop\n      jump\t// out\n        /* \"#utility.yul\":112:281   */\n    tag_73:\n        /* \"#utility.yul\":196:207   */\n      0x00\n        /* \"#utility.yul\":230:236   */\n      dup3\n        /* \"#utility.yul\":225:228   */\n      dup3\n        /* \"#utility.yul\":218:237   */\n      mstore\n        /* \"#utility.yul\":270:274   */\n      0x20\n        /* \"#utility.yul\":265:268   */\n      dup3\n        /* \"#utility.yul\":261:275   */\n      add\n        /* \"#utility.yul\":246:275   */\n      swap1\n      pop\n        /* \"#utility.yul\":112:281   */\n      swap3\n      swap2\n      pop\n      pop\n      jump\t// out\n        /* \"#utility.yul\":287:533   */\n    tag_74:\n        /* \"#utility.yul\":368:369   */\n      0x00\n        /* \"#utility.yul\":378:491   */\n    tag_117:\n        /* \"#utility.yul\":392:398   */\n      dup4\n        /* \"#utility.yul\":389:390   */\n      dup2\n        /* \"#utility.yul\":386:399   */\n      lt\n        /* \"#utility.yul\":378:491   */\n      iszero\n      tag_119\n      jumpi\n        /* \"#utility.yul\":477:478   */\n      dup1\n        /* \"#utility.yul\":472:475   */\n      dup3\n        /* \"#utility.yul\":468:479   */\n      add\n        /* \"#utility.yul\":462:480   */\n      mload\n        /* \"#utility.yul\":458:459   */\n      dup2\n        /* \"#utility.yul\":453:456   */\n      dup5\n        /* \"#utility.yul\":449:460   */\n      add\n        /* \"#utility.yul\":442:481   */\n      mstore\n        /* \"#utility.yul\":414:416   */\n      0x20\n        /* \"#utility.yul\":411:412   */\n      dup2\n        /* \"#utility.yul\":407:417   */\n      add\n        /* \"#utility.yul\":402:417   */\n      swap1\n      pop\n        /* \"#utility.yul\":378:491   */\n      jump(tag_117)\n    tag_119:\n        /* \"#utility.yul\":525:526   */\n      0x00\n        /* \"#utility.yul\":516:522   */\n      dup5\n        /* \"#utility.yul\":511:514   */\n      dup5\n        /* \"#utility.yul\":507:523   */\n      add\n        /* \"#utility.yul\":500:527   */\n      mstore\n        /* \"#utility.yul\":349:533   */\n      pop\n        /* \"#utility.yul\":287:533   */\n      pop\n      pop\n      pop\n      jump\t// out\n        /* \"#utility.yul\":539:641   */\n    tag_75:\n        /* \"#utility.yul\":580:586   */\n      0x00\n        /* \"#utility.yul\":631:633   */\n      0x1f\n        /* \"#utility.yul\":627:634   */\n      not\n        /* \"#utility.yul\":622:624   */\n      0x1f\n        /* \"#utility.yul\":615:620   */\n      dup4\n        /* \"#utility.yul\":611:625   */\n      add\n        /* \"#utility.yul\":607:635   */\n      and\n        /* \"#utility.yul\":597:635   */\n      swap1\n      pop\n        /* \"#utility.yul\":539:641   */\n      swap2\n      swap1\n      pop\n      jump\t// out\n        /* \"#utility.yul\":647:1024   */\n    tag_76:\n        /* \"#utility.yul\":735:738   */\n      0x00\n        /* \"#utility.yul\":763:802   */\n      tag_122\n        /* \"#utility.yul\":796:801   */\n      dup3\n        /* \"#utility.yul\":763:802   */\n      tag_72\n      jump\t// in\n    tag_122:\n        /* \"#utility.yul\":818:889   */\n      tag_123\n        /* \"#utility.yul\":882:888   */\n      dup2\n        /* \"#utility.yul\":877:880   */\n      dup6\n        /* \"#utility.yul\":818:889   */\n      tag_73\n      jump\t// in\n    tag_123:\n        /* \"#utility.yul\":811:889   */\n      swap4\n      pop\n        /* \"#utility.yul\":898:963   */\n      tag_124\n        /* \"#utility.yul\":956:962   */\n      dup2\n        /* \"#utility.yul\":951:954   */\n      dup6\n        /* \"#utility.yul\":944:948   */\n      0x20\n        /* \"#utility.yul\":937:942   */\n      dup7\n        /* \"#utility.yul\":933:949   */\n      add\n        /* \"#utility.yul\":898:963   */\n      tag_74\n      jump\t// in\n    tag_124:\n        /* \"#utility.yul\":988:1017   */\n      tag_125\n        /* \"#utility.yul\":1010:1016   */\n      dup2\n        /* \"#utility.yul\":988:1017   */\n      tag_75\n      jump\t// in\n    tag_125:\n        /* \"#utility.yul\":983:986   */\n      dup5\n        /* \"#utility.yul\":979:1018   */\n      add\n        /* \"#utility.yul\":972:1018   */\n      swap2\n      pop\n        /* \"#utility.yul\":739:1024   */\n      pop\n        /* \"#utility.yul\":647:1024   */\n      swap3\n      swap2\n      pop\n      pop\n      jump\t// out\n        /* \"#utility.yul\":1030:1343   */\n    tag_14:\n        /* \"#utility.yul\":1143:1147   */\n      0x00\n        /* \"#utility.yul\":1181:1183   */\n      0x20\n        /* \"#utility.yul\":1170:1179   */\n      dup3\n        /* \"#utility.yul\":1166:1184   */\n      add\n        /* \"#utility.yul\":1158:1184   */\n      swap1\n      pop\n        /* \"#utility.yul\":1230:1239   */\n      dup2\n        /* \"#utility.yul\":1224:1228   */\n      dup2\n        /* \"#utility.yul\":1220:1240   */\n      sub\n        /* \"#utility.yul\":1216:1217   */\n      0x00\n        /* \"#utility.yul\":1205:1214   */\n      dup4\n        /* \"#utility.yul\":1201:1218   */\n      add\n        /* \"#utility.yul\":1194:1241   */\n      mstore\n        /* \"#utility.yul\":1258:1336   */\n      tag_127\n        /* \"#utility.yul\":1331:1335   */\n      dup2\n        /* \"#utility.yul\":1322:1328   */\n      dup5\n        /* \"#utility.yul\":1258:1336   */\n      tag_76\n      jump\t// in\n    tag_127:\n        /* \"#utility.yul\":1250:1336   */\n      swap1\n      pop\n        /* \"#utility.yul\":1030:1343   */\n      swap3\n      swap2\n      pop\n      pop\n      jump\t// out\n        /* \"#utility.yul\":1349:1426   */\n    tag_77:\n        /* \"#utility.yul\":1386:1393   */\n      0x00\n        /* \"#utility.yul\":1415:1420   */\n      dup2\n        /* \"#utility.yul\":1404:1420   */\n      swap1\n      pop\n        /* \"#utility.yul\":1349:1426   */\n      swap2\n      swap1\n      pop\n      jump\t// out\n        /* \"#utility.yul\":1432:1550   */\n    tag_78:\n        /* \"#utility.yul\":1519:1543   */\n      tag_130\n        /* \"#utility.yul\":1537:1542   */\n      dup2\n        /* \"#utility.yul\":1519:1543   */\n      tag_77\n      jump\t// in\n    tag_130:\n        /* \"#utility.yul\":1514:1517   */\n      dup3\n        /* \"#utility.yul\":1507:1544   */\n      mstore\n        /* \"#utility.yul\":1432:1550   */\n      pop\n      pop\n      jump\t// out\n        /* \"#utility.yul\":1556:1778   */\n    tag_18:\n        /* \"#utility.yul\":1649:1653   */\n      0x00\n        /* \"#utility.yul\":1687:1689   */\n      0x20\n        /* \"#utility.yul\":1676:1685   */\n      dup3\n        /* \"#utility.yul\":1672:1690   */\n      add\n        /* \"#utility.yul\":1664:1690   */\n      swap1\n      pop\n        /* \"#utility.yul\":1700:1771   */\n      tag_132\n        /* \"#utility.yul\":1768:1769   */\n      0x00\n        /* \"#utility.yul\":1757:1766   */\n      dup4\n        /* \"#utility.yul\":1753:1770   */\n      add\n        /* \"#utility.yul\":1744:1750   */\n      dup5\n        /* \"#utility.yul\":1700:1771   */\n      tag_78\n      jump\t// in\n    tag_132:\n        /* \"#utility.yul\":1556:1778   */\n      swap3\n      swap2\n      pop\n      pop\n      jump\t// out\n        /* \"#utility.yul\":1784:1859   */\n    tag_79:\n        /* \"#utility.yul\":1817:1823   */\n      0x00\n        /* \"#utility.yul\":1850:1852   */\n      0x40\n        /* \"#utility.yul\":1844:1853   */\n      mload\n        /* \"#utility.yul\":1834:1853   */\n      swap1\n      pop\n        /* \"#utility.yul\":1784:1859   */\n      swap1\n      jump\t// out\n        /* \"#utility.yul\":1865:1982   */\n    tag_80:\n        /* \"#utility.yul\":1974:1975   */\n      0x00\n        /* \"#utility.yul\":1971:1972   */\n      dup1\n        /* \"#utility.yul\":1964:1976   */\n      revert\n        /* \"#utility.yul\":1988:2105   */\n    tag_81:\n        /* \"#utility.yul\":2097:2098   */\n      0x00\n        /* \"#utility.yul\":2094:2095   */\n      dup1\n        /* \"#utility.yul\":2087:2099   */\n      revert\n        /* \"#utility.yul\":2111:2228   */\n    tag_82:\n        /* \"#utility.yul\":2220:2221   */\n      0x00\n        /* \"#utility.yul\":2217:2218   */\n      dup1\n        /* \"#utility.yul\":2210:2222   */\n      revert\n        /* \"#utility.yul\":2234:2351   */\n    tag_83:\n        /* \"#utility.yul\":2343:2344   */\n      0x00\n        /* \"#utility.yul\":2340:2341   */\n      dup1\n        /* \"#utility.yul\":2333:2345   */\n      revert\n        /* \"#utility.yul\":2357:2474   */\n    tag_84:\n        /* \"#utility.yul\":2466:2467   */\n      0x00\n        /* \"#utility.yul\":2463:2464   */\n      dup1\n        /* \"#utility.yul\":2456:2468   */\n      revert\n        /* \"#utility.yul\":2494:3047   */\n    tag_85:\n        /* \"#utility.yul\":2552:2560   */\n      0x00\n        /* \"#utility.yul\":2562:2568   */\n      dup1\n        /* \"#utility.yul\":2612:2615   */\n      dup4\n        /* \"#utility.yul\":2605:2609   */\n      0x1f\n        /* \"#utility.yul\":2597:2603   */\n      dup5\n        /* \"#utility.yul\":2593:2610   */\n      add\n        /* \"#utility.yul\":2589:2616   */\n      slt\n        /* \"#utility.yul\":2579:2701   */\n      tag_140\n      jumpi\n        /* \"#utility.yul\":2620:2699   */\n      tag_141\n      tag_82\n      jump\t// in\n    tag_141:\n        /* \"#utility.yul\":2579:2701   */\n    tag_140:\n        /* \"#utility.yul\":2733:2739   */\n      dup3\n        /* \"#utility.yul\":2720:2740   */\n      calldataload\n        /* \"#utility.yul\":2710:2740   */\n      swap1\n      pop\n        /* \"#utility.yul\":2763:2781   */\n      0xffffffffffffffff\n        /* \"#utility.yul\":2755:2761   */\n      dup2\n        /* \"#utility.yul\":2752:2782   */\n      gt\n        /* \"#utility.yul\":2749:2866   */\n      iszero\n      tag_142\n      jumpi\n        /* \"#utility.yul\":2785:2864   */\n      tag_143\n      tag_83\n      jump\t// in\n    tag_143:\n        /* \"#utility.yul\":2749:2866   */\n    tag_142:\n        /* \"#utility.yul\":2899:2903   */\n      0x20\n        /* \"#utility.yul\":2891:2897   */\n      dup4\n        /* \"#utility.yul\":2887:2904   */\n      add\n        /* \"#utility.yul\":2875:2904   */\n      swap2\n      pop\n        /* \"#utility.yul\":2953:2956   */\n      dup4\n        /* \"#utility.yul\":2945:2949   */\n      0x01\n        /* \"#utility.yul\":2937:2943   */\n      dup3\n        /* \"#utility.yul\":2933:2950   */\n      mul\n        /* \"#utility.yul\":2923:2931   */\n      dup4\n        /* \"#utility.yul\":2919:2951   */\n      add\n        /* \"#utility.yul\":2916:2957   */\n      gt\n        /* \"#utility.yul\":2913:3041   */\n      iszero\n      tag_144\n      jumpi\n        /* \"#utility.yul\":2960:3039   */\n      tag_145\n      tag_84\n      jump\t// in\n    tag_145:\n        /* \"#utility.yul\":2913:3041   */\n    tag_144:\n        /* \"#utility.yul\":2494:3047   */\n      swap3\n      pop\n      swap3\n      swap1\n      pop\n      jump\t// out\n        /* \"#utility.yul\":3053:3582   */\n    tag_21:\n        /* \"#utility.yul\":3124:3130   */\n      0x00\n        /* \"#utility.yul\":3132:3138   */\n      dup1\n        /* \"#utility.yul\":3181:3183   */\n      0x20\n        /* \"#utility.yul\":3169:3178   */\n      dup4\n        /* \"#utility.yul\":3160:3167   */\n      dup6\n        /* \"#utility.yul\":3156:3179   */\n      sub\n        /* \"#utility.yul\":3152:3184   */\n      slt\n        /* \"#utility.yul\":3149:3268   */\n      iszero\n      tag_147\n      jumpi\n        /* \"#utility.yul\":3187:3266   */\n      tag_148\n      tag_80\n      jump\t// in\n    tag_148:\n        /* \"#utility.yul\":3149:3268   */\n    tag_147:\n        /* \"#utility.yul\":3335:3336   */\n      0x00\n        /* \"#utility.yul\":3324:3333   */\n      dup4\n        /* \"#utility.yul\":3320:3337   */\n      add\n        /* \"#utility.yul\":3307:3338   */\n      calldataload\n        /* \"#utility.yul\":3365:3383   */\n      0xffffffffffffffff\n        /* \"#utility.yul\":3357:3363   */\n      dup2\n        /* \"#utility.yul\":3354:3384   */\n      gt\n        /* \"#utility.yul\":3351:3468   */\n      iszero\n      tag_149\n      jumpi\n        /* \"#utility.yul\":3387:3466   */\n      tag_150\n      tag_81\n      jump\t// in\n    tag_150:\n        /* \"#utility.yul\":3351:3468   */\n    tag_149:\n        /* \"#utility.yul\":3500:3565   */\n      tag_151\n        /* \"#utility.yul\":3557:3564   */\n      dup6\n        /* \"#utility.yul\":3548:3554   */\n      dup3\n        /* \"#utility.yul\":3537:3546   */\n      dup7\n        /* \"#utility.yul\":3533:3555   */\n      add\n        /* \"#utility.yul\":3500:3565   */\n      tag_85\n      jump\t// in\n    tag_151:\n        /* \"#utility.yul\":3482:3565   */\n      swap3\n      pop\n      swap3\n      pop\n        /* \"#utility.yul\":3278:3575   */\n      pop\n        /* \"#utility.yul\":3053:3582   */\n      swap3\n      pop\n      swap3\n      swap1\n      pop\n      jump\t// out\n        /* \"#utility.yul\":3588:3705   */\n    tag_86:\n        /* \"#utility.yul\":3697:3698   */\n      0x00\n        /* \"#utility.yul\":3694:3695   */\n      dup1\n        /* \"#utility.yul\":3687:3699   */\n      revert\n        /* \"#utility.yul\":3711:3891   */\n    tag_57:\n        /* \"#utility.yul\":3759:3836   */\n      0x4e487b7100000000000000000000000000000000000000000000000000000000\n        /* \"#utility.yul\":3756:3757   */\n      0x00\n        /* \"#utility.yul\":3749:3837   */\n      mstore\n        /* \"#utility.yul\":3856:3860   */\n      0x41\n        /* \"#utility.yul\":3853:3854   */\n      0x04\n        /* \"#utility.yul\":3846:3861   */\n      mstore\n        /* \"#utility.yul\":3880:3884   */\n      0x24\n        /* \"#utility.yul\":3877:3878   */\n      0x00\n        /* \"#utility.yul\":3870:3885   */\n      revert\n        /* \"#utility.yul\":3897:4178   */\n    tag_87:\n        /* \"#utility.yul\":3980:4007   */\n      tag_155\n        /* \"#utility.yul\":4002:4006   */\n      dup3\n        /* \"#utility.yul\":3980:4007   */\n      tag_75\n      jump\t// in\n    tag_155:\n        /* \"#utility.yul\":3972:3978   */\n      dup2\n        /* \"#utility.yul\":3968:4008   */\n      add\n        /* \"#utility.yul\":4110:4116   */\n      dup2\n        /* \"#utility.yul\":4098:4108   */\n      dup2\n        /* \"#utility.yul\":4095:4117   */\n      lt\n        /* \"#utility.yul\":4074:4092   */\n      0xffffffffffffffff\n        /* \"#utility.yul\":4062:4072   */\n      dup3\n        /* \"#utility.yul\":4059:4093   */\n      gt\n        /* \"#utility.yul\":4056:4118   */\n      or\n        /* \"#utility.yul\":4053:4141   */\n      iszero\n      tag_156\n      jumpi\n        /* \"#utility.yul\":4121:4139   */\n      tag_157\n      tag_57\n      jump\t// in\n    tag_157:\n        /* \"#utility.yul\":4053:4141   */\n    tag_156:\n        /* \"#utility.yul\":4161:4171   */\n      dup1\n        /* \"#utility.yul\":4157:4159   */\n      0x40\n        /* \"#utility.yul\":4150:4172   */\n      mstore\n        /* \"#utility.yul\":3940:4178   */\n      pop\n        /* \"#utility.yul\":3897:4178   */\n      pop\n      pop\n      jump\t// out\n        /* \"#utility.yul\":4184:4313   */\n    tag_88:\n        /* \"#utility.yul\":4218:4224   */\n      0x00\n        /* \"#utility.yul\":4245:4265   */\n      tag_159\n      tag_79\n      jump\t// in\n    tag_159:\n        /* \"#utility.yul\":4235:4265   */\n      swap1\n      pop\n        /* \"#utility.yul\":4274:4307   */\n      tag_160\n        /* \"#utility.yul\":4302:4306   */\n      dup3\n        /* \"#utility.yul\":4294:4300   */\n      dup3\n        /* \"#utility.yul\":4274:4307   */\n      tag_87\n      jump\t// in\n    tag_160:\n        /* \"#utility.yul\":4184:4313   */\n      swap2\n      swap1\n      pop\n      jump\t// out\n        /* \"#utility.yul\":4319:4627   */\n    tag_89:\n        /* \"#utility.yul\":4381:4385   */\n      0x00\n        /* \"#utility.yul\":4471:4489   */\n      0xffffffffffffffff\n        /* \"#utility.yul\":4463:4469   */\n      dup3\n        /* \"#utility.yul\":4460:4490   */\n      gt\n        /* \"#utility.yul\":4457:4513   */\n      iszero\n      tag_162\n      jumpi\n        /* \"#utility.yul\":4493:4511   */\n      tag_163\n      tag_57\n      jump\t// in\n    tag_163:\n        /* \"#utility.yul\":4457:4513   */\n    tag_162:\n        /* \"#utility.yul\":4531:4560   */\n      tag_164\n        /* \"#utility.yul\":4553:4559   */\n      dup3\n        /* \"#utility.yul\":4531:4560   */\n      tag_75\n      jump\t// in\n    tag_164:\n        /* \"#utility.yul\":4523:4560   */\n      swap1\n      pop\n        /* \"#utility.yul\":4615:4619   */\n      0x20\n        /* \"#utility.yul\":4609:4613   */\n      dup2\n        /* \"#utility.yul\":4605:4620   */\n      add\n        /* \"#utility.yul\":4597:4620   */\n      swap1\n      pop\n        /* \"#utility.yul\":4319:4627   */\n      swap2\n      swap1\n      pop\n      jump\t// out\n        /* \"#utility.yul\":4633:4779   */\n    tag_90:\n        /* \"#utility.yul\":4730:4736   */\n      dup3\n        /* \"#utility.yul\":4725:4728   */\n      dup2\n        /* \"#utility.yul\":4720:4723   */\n      dup4\n        /* \"#utility.yul\":4707:4737   */\n      calldatacopy\n        /* \"#utility.yul\":4771:4772   */\n      0x00\n        /* \"#utility.yul\":4762:4768   */\n      dup4\n        /* \"#utility.yul\":4757:4760   */\n      dup4\n        /* \"#utility.yul\":4753:4769   */\n      add\n        /* \"#utility.yul\":4746:4773   */\n      mstore\n        /* \"#utility.yul\":4633:4779   */\n      pop\n      pop\n      pop\n      jump\t// out\n        /* \"#utility.yul\":4785:5210   */\n    tag_91:\n        /* \"#utility.yul\":4863:4868   */\n      0x00\n        /* \"#utility.yul\":4888:4954   */\n      tag_167\n        /* \"#utility.yul\":4904:4953   */\n      tag_168\n        /* \"#utility.yul\":4946:4952   */\n      dup5\n        /* \"#utility.yul\":4904:4953   */\n      tag_89\n      jump\t// in\n    tag_168:\n        /* \"#utility.yul\":4888:4954   */\n      tag_88\n      jump\t// in\n    tag_167:\n        /* \"#utility.yul\":4879:4954   */\n      swap1\n      pop\n        /* \"#utility.yul\":4977:4983   */\n      dup3\n        /* \"#utility.yul\":4970:4975   */\n      dup2\n        /* \"#utility.yul\":4963:4984   */\n      mstore\n        /* \"#utility.yul\":5015:5019   */\n      0x20\n        /* \"#utility.yul\":5008:5013   */\n      dup2\n        /* \"#utility.yul\":5004:5020   */\n      add\n        /* \"#utility.yul\":5053:5056   */\n      dup5\n        /* \"#utility.yul\":5044:5050   */\n      dup5\n        /* \"#utility.yul\":5039:5042   */\n      dup5\n        /* \"#utility.yul\":5035:5051   */\n      add\n        /* \"#utility.yul\":5032:5057   */\n      gt\n        /* \"#utility.yul\":5029:5141   */\n      iszero\n      tag_169\n      jumpi\n        /* \"#utility.yul\":5060:5139   */\n      tag_170\n      tag_86\n      jump\t// in\n    tag_170:\n        /* \"#utility.yul\":5029:5141   */\n    tag_169:\n        /* \"#utility.yul\":5150:5204   */\n      tag_171\n        /* \"#utility.yul\":5197:5203   */\n      dup5\n        /* \"#utility.yul\":5192:5195   */\n      dup3\n        /* \"#utility.yul\":5187:5190   */\n      dup6\n        /* \"#utility.yul\":5150:5204   */\n      tag_90\n      jump\t// in\n    tag_171:\n        /* \"#utility.yul\":4869:5210   */\n      pop\n        /* \"#utility.yul\":4785:5210   */\n      swap4\n      swap3\n      pop\n      pop\n      pop\n      jump\t// out\n        /* \"#utility.yul\":5230:5570   */\n    tag_92:\n        /* \"#utility.yul\":5286:5291   */\n      0x00\n        /* \"#utility.yul\":5335:5338   */\n      dup3\n        /* \"#utility.yul\":5328:5332   */\n      0x1f\n        /* \"#utility.yul\":5320:5326   */\n      dup4\n        /* \"#utility.yul\":5316:5333   */\n      add\n        /* \"#utility.yul\":5312:5339   */\n      slt\n        /* \"#utility.yul\":5302:5424   */\n      tag_173\n      jumpi\n        /* \"#utility.yul\":5343:5422   */\n      tag_174\n      tag_82\n      jump\t// in\n    tag_174:\n        /* \"#utility.yul\":5302:5424   */\n    tag_173:\n        /* \"#utility.yul\":5460:5466   */\n      dup2\n        /* \"#utility.yul\":5447:5467   */\n      calldataload\n        /* \"#utility.yul\":5485:5564   */\n      tag_175\n        /* \"#utility.yul\":5560:5563   */\n      dup5\n        /* \"#utility.yul\":5552:5558   */\n      dup3\n        /* \"#utility.yul\":5545:5549   */\n      0x20\n        /* \"#utility.yul\":5537:5543   */\n      dup7\n        /* \"#utility.yul\":5533:5550   */\n      add\n        /* \"#utility.yul\":5485:5564   */\n      tag_91\n      jump\t// in\n    tag_175:\n        /* \"#utility.yul\":5476:5564   */\n      swap2\n      pop\n        /* \"#utility.yul\":5292:5570   */\n      pop\n        /* \"#utility.yul\":5230:5570   */\n      swap3\n      swap2\n      pop\n      pop\n      jump\t// out\n        /* \"#utility.yul\":5576:6085   */\n    tag_26:\n        /* \"#utility.yul\":5645:5651   */\n      0x00\n        /* \"#utility.yul\":5694:5696   */\n      0x20\n        /* \"#utility.yul\":5682:5691   */\n      dup3\n        /* \"#utility.yul\":5673:5680   */\n      dup5\n        /* \"#utility.yul\":5669:5692   */\n      sub\n        /* \"#utility.yul\":5665:5697   */\n      slt\n        /* \"#utility.yul\":5662:5781   */\n      iszero\n      tag_177\n      jumpi\n        /* \"#utility.yul\":5700:5779   */\n      tag_178\n      tag_80\n      jump\t// in\n    tag_178:\n        /* \"#utility.yul\":5662:5781   */\n    tag_177:\n        /* \"#utility.yul\":5848:5849   */\n      0x00\n        /* \"#utility.yul\":5837:5846   */\n      dup3\n        /* \"#utility.yul\":5833:5850   */\n      add\n        /* \"#utility.yul\":5820:5851   */\n      calldataload\n        /* \"#utility.yul\":5878:5896   */\n      0xffffffffffffffff\n        /* \"#utility.yul\":5870:5876   */\n      dup2\n        /* \"#utility.yul\":5867:5897   */\n      gt\n        /* \"#utility.yul\":5864:5981   */\n      iszero\n      tag_179\n      jumpi\n        /* \"#utility.yul\":5900:5979   */\n      tag_180\n      tag_81\n      jump\t// in\n    tag_180:\n        /* \"#utility.yul\":5864:5981   */\n    tag_179:\n        /* \"#utility.yul\":6005:6068   */\n      tag_181\n        /* \"#utility.yul\":6060:6067   */\n      dup5\n        /* \"#utility.yul\":6051:6057   */\n      dup3\n        /* \"#utility.yul\":6040:6049   */\n      dup6\n        /* \"#utility.yul\":6036:6058   */\n      add\n        /* \"#utility.yul\":6005:6068   */\n      tag_92\n      jump\t// in\n    tag_181:\n        /* \"#utility.yul\":5995:6068   */\n      swap2\n      pop\n        /* \"#utility.yul\":5791:6078   */\n      pop\n        /* \"#utility.yul\":5576:6085   */\n      swap3\n      swap2\n      pop\n      pop\n      jump\t// out\n        /* \"#utility.yul\":6091:6213   */\n    tag_93:\n        /* \"#utility.yul\":6164:6188   */\n      tag_183\n        /* \"#utility.yul\":6182:6187   */\n      dup2\n        /* \"#utility.yul\":6164:6188   */\n      tag_77\n      jump\t// in\n    tag_183:\n        /* \"#utility.yul\":6157:6162   */\n      dup2\n        /* \"#utility.yul\":6154:6189   */\n      eq\n        /* \"#utility.yul\":6144:6207   */\n      tag_184\n      jumpi\n        /* \"#utility.yul\":6203:6204   */\n      0x00\n        /* \"#utility.yul\":6200:6201   */\n      dup1\n        /* \"#utility.yul\":6193:6205   */\n      revert\n        /* \"#utility.yul\":6144:6207   */\n    tag_184:\n        /* \"#utility.yul\":6091:6213   */\n      pop\n      jump\t// out\n        /* \"#utility.yul\":6219:6358   */\n    tag_94:\n        /* \"#utility.yul\":6265:6270   */\n      0x00\n        /* \"#utility.yul\":6303:6309   */\n      dup2\n        /* \"#utility.yul\":6290:6310   */\n      calldataload\n        /* \"#utility.yul\":6281:6310   */\n      swap1\n      pop\n        /* \"#utility.yul\":6319:6352   */\n      tag_186\n        /* \"#utility.yul\":6346:6351   */\n      dup2\n        /* \"#utility.yul\":6319:6352   */\n      tag_93\n      jump\t// in\n    tag_186:\n        /* \"#utility.yul\":6219:6358   */\n      swap3\n      swap2\n      pop\n      pop\n      jump\t// out\n        /* \"#utility.yul\":6364:6693   */\n    tag_31:\n        /* \"#utility.yul\":6423:6429   */\n      0x00\n        /* \"#utility.yul\":6472:6474   */\n      0x20\n        /* \"#utility.yul\":6460:6469   */\n      dup3\n        /* \"#utility.yul\":6451:6458   */\n      dup5\n        /* \"#utility.yul\":6447:6470   */\n      sub\n        /* \"#utility.yul\":6443:6475   */\n      slt\n        /* \"#utility.yul\":6440:6559   */\n      iszero\n      tag_188\n      jumpi\n        /* \"#utility.yul\":6478:6557   */\n      tag_189\n      tag_80\n      jump\t// in\n    tag_189:\n        /* \"#utility.yul\":6440:6559   */\n    tag_188:\n        /* \"#utility.yul\":6598:6599   */\n      0x00\n        /* \"#utility.yul\":6623:6676   */\n      tag_190\n        /* \"#utility.yul\":6668:6675   */\n      dup5\n        /* \"#utility.yul\":6659:6665   */\n      dup3\n        /* \"#utility.yul\":6648:6657   */\n      dup6\n        /* \"#utility.yul\":6644:6666   */\n      add\n        /* \"#utility.yul\":6623:6676   */\n      tag_94\n      jump\t// in\n    tag_190:\n        /* \"#utility.yul\":6613:6676   */\n      swap2\n      pop\n        /* \"#utility.yul\":6569:6686   */\n      pop\n        /* \"#utility.yul\":6364:6693   */\n      swap3\n      swap2\n      pop\n      pop\n      jump\t// out\n        /* \"#utility.yul\":6699:6813   */\n    tag_95:\n        /* \"#utility.yul\":6766:6772   */\n      0x00\n        /* \"#utility.yul\":6800:6805   */\n      dup2\n        /* \"#utility.yul\":6794:6806   */\n      mload\n        /* \"#utility.yul\":6784:6806   */\n      swap1\n      pop\n        /* \"#utility.yul\":6699:6813   */\n      swap2\n      swap1\n      pop\n      jump\t// out\n        /* \"#utility.yul\":6819:7003   */\n    tag_96:\n        /* \"#utility.yul\":6918:6929   */\n      0x00\n        /* \"#utility.yul\":6952:6958   */\n      dup3\n        /* \"#utility.yul\":6947:6950   */\n      dup3\n        /* \"#utility.yul\":6940:6959   */\n      mstore\n        /* \"#utility.yul\":6992:6996   */\n      0x20\n        /* \"#utility.yul\":6987:6990   */\n      dup3\n        /* \"#utility.yul\":6983:6997   */\n      add\n        /* \"#utility.yul\":6968:6997   */\n      swap1\n      pop\n        /* \"#utility.yul\":6819:7003   */\n      swap3\n      swap2\n      pop\n      pop\n      jump\t// out\n        /* \"#utility.yul\":7009:7141   */\n    tag_97:\n        /* \"#utility.yul\":7076:7080   */\n      0x00\n        /* \"#utility.yul\":7099:7102   */\n      dup2\n        /* \"#utility.yul\":7091:7102   */\n      swap1\n      pop\n        /* \"#utility.yul\":7129:7133   */\n      0x20\n        /* \"#utility.yul\":7124:7127   */\n      dup3\n        /* \"#utility.yul\":7120:7134   */\n      add\n        /* \"#utility.yul\":7112:7134   */\n      swap1\n      pop\n        /* \"#utility.yul\":7009:7141   */\n      swap2\n      swap1\n      pop\n      jump\t// out\n        /* \"#utility.yul\":7147:7255   */\n    tag_98:\n        /* \"#utility.yul\":7224:7248   */\n      tag_195\n        /* \"#utility.yul\":7242:7247   */\n      dup2\n        /* \"#utility.yul\":7224:7248   */\n      tag_77\n      jump\t// in\n    tag_195:\n        /* \"#utility.yul\":7219:7222   */\n      dup3\n        /* \"#utility.yul\":7212:7249   */\n      mstore\n        /* \"#utility.yul\":7147:7255   */\n      pop\n      pop\n      jump\t// out\n        /* \"#utility.yul\":7261:7440   */\n    tag_99:\n        /* \"#utility.yul\":7330:7340   */\n      0x00\n        /* \"#utility.yul\":7351:7397   */\n      tag_197\n        /* \"#utility.yul\":7393:7396   */\n      dup4\n        /* \"#utility.yul\":7385:7391   */\n      dup4\n        /* \"#utility.yul\":7351:7397   */\n      tag_98\n      jump\t// in\n    tag_197:\n        /* \"#utility.yul\":7429:7433   */\n      0x20\n        /* \"#utility.yul\":7424:7427   */\n      dup4\n        /* \"#utility.yul\":7420:7434   */\n      add\n        /* \"#utility.yul\":7406:7434   */\n      swap1\n      pop\n        /* \"#utility.yul\":7261:7440   */\n      swap3\n      swap2\n      pop\n      pop\n      jump\t// out\n        /* \"#utility.yul\":7446:7559   */\n    tag_100:\n        /* \"#utility.yul\":7516:7520   */\n      0x00\n        /* \"#utility.yul\":7548:7552   */\n      0x20\n        /* \"#utility.yul\":7543:7546   */\n      dup3\n        /* \"#utility.yul\":7539:7553   */\n      add\n        /* \"#utility.yul\":7531:7553   */\n      swap1\n      pop\n        /* \"#utility.yul\":7446:7559   */\n      swap2\n      swap1\n      pop\n      jump\t// out\n        /* \"#utility.yul\":7595:8327   */\n    tag_101:\n        /* \"#utility.yul\":7714:7717   */\n      0x00\n        /* \"#utility.yul\":7743:7797   */\n      tag_200\n        /* \"#utility.yul\":7791:7796   */\n      dup3\n        /* \"#utility.yul\":7743:7797   */\n      tag_95\n      jump\t// in\n    tag_200:\n        /* \"#utility.yul\":7813:7899   */\n      tag_201\n        /* \"#utility.yul\":7892:7898   */\n      dup2\n        /* \"#utility.yul\":7887:7890   */\n      dup6\n        /* \"#utility.yul\":7813:7899   */\n      tag_96\n      jump\t// in\n    tag_201:\n        /* \"#utility.yul\":7806:7899   */\n      swap4\n      pop\n        /* \"#utility.yul\":7923:7979   */\n      tag_202\n        /* \"#utility.yul\":7973:7978   */\n      dup4\n        /* \"#utility.yul\":7923:7979   */\n      tag_97\n      jump\t// in\n    tag_202:\n        /* \"#utility.yul\":8002:8009   */\n      dup1\n        /* \"#utility.yul\":8033:8034   */\n      0x00\n        /* \"#utility.yul\":8018:8302   */\n    tag_203:\n        /* \"#utility.yul\":8043:8049   */\n      dup4\n        /* \"#utility.yul\":8040:8041   */\n      dup2\n        /* \"#utility.yul\":8037:8050   */\n      lt\n        /* \"#utility.yul\":8018:8302   */\n      iszero\n      tag_205\n      jumpi\n        /* \"#utility.yul\":8119:8125   */\n      dup2\n        /* \"#utility.yul\":8113:8126   */\n      mload\n        /* \"#utility.yul\":8146:8209   */\n      tag_206\n        /* \"#utility.yul\":8205:8208   */\n      dup9\n        /* \"#utility.yul\":8190:8203   */\n      dup3\n        /* \"#utility.yul\":8146:8209   */\n      tag_99\n      jump\t// in\n    tag_206:\n        /* \"#utility.yul\":8139:8209   */\n      swap8\n      pop\n        /* \"#utility.yul\":8232:8292   */\n      tag_207\n        /* \"#utility.yul\":8285:8291   */\n      dup4\n        /* \"#utility.yul\":8232:8292   */\n      tag_100\n      jump\t// in\n    tag_207:\n        /* \"#utility.yul\":8222:8292   */\n      swap3\n      pop\n        /* \"#utility.yul\":8078:8302   */\n      pop\n        /* \"#utility.yul\":8065:8066   */\n      0x01\n        /* \"#utility.yul\":8062:8063   */\n      dup2\n        /* \"#utility.yul\":8058:8067   */\n      add\n        /* \"#utility.yul\":8053:8067   */\n      swap1\n      pop\n        /* \"#utility.yul\":8018:8302   */\n      jump(tag_203)\n    tag_205:\n        /* \"#utility.yul\":8022:8036   */\n      pop\n        /* \"#utility.yul\":8318:8321   */\n      dup6\n        /* \"#utility.yul\":8311:8321   */\n      swap4\n      pop\n        /* \"#utility.yul\":7719:8327   */\n      pop\n      pop\n      pop\n        /* \"#utility.yul\":7595:8327   */\n      swap3\n      swap2\n      pop\n      pop\n      jump\t// out\n        /* \"#utility.yul\":8333:8706   */\n    tag_34:\n        /* \"#utility.yul\":8476:8480   */\n      0x00\n        /* \"#utility.yul\":8514:8516   */\n      0x20\n        /* \"#utility.yul\":8503:8512   */\n      dup3\n        /* \"#utility.yul\":8499:8517   */\n      add\n        /* \"#utility.yul\":8491:8517   */\n      swap1\n      pop\n        /* \"#utility.yul\":8563:8572   */\n      dup2\n        /* \"#utility.yul\":8557:8561   */\n      dup2\n        /* \"#utility.yul\":8553:8573   */\n      sub\n        /* \"#utility.yul\":8549:8550   */\n      0x00\n        /* \"#utility.yul\":8538:8547   */\n      dup4\n        /* \"#utility.yul\":8534:8551   */\n      add\n        /* \"#utility.yul\":8527:8574   */\n      mstore\n        /* \"#utility.yul\":8591:8699   */\n      tag_209\n        /* \"#utility.yul\":8694:8698   */\n      dup2\n        /* \"#utility.yul\":8685:8691   */\n      dup5\n        /* \"#utility.yul\":8591:8699   */\n      tag_101\n      jump\t// in\n    tag_209:\n        /* \"#utility.yul\":8583:8699   */\n      swap1\n      pop\n        /* \"#utility.yul\":8333:8706   */\n      swap3\n      swap2\n      pop\n      pop\n      jump\t// out\n        /* \"#utility.yul\":8712:8838   */\n    tag_102:\n        /* \"#utility.yul\":8749:8756   */\n      0x00\n        /* \"#utility.yul\":8789:8831   */\n      0xffffffffffffffffffffffffffffffffffffffff\n        /* \"#utility.yul\":8782:8787   */\n      dup3\n        /* \"#utility.yul\":8778:8832   */\n      and\n        /* \"#utility.yul\":8767:8832   */\n      swap1\n      pop\n        /* \"#utility.yul\":8712:8838   */\n      swap2\n      swap1\n      pop\n      jump\t// out\n        /* \"#utility.yul\":8844:8940   */\n    tag_103:\n        /* \"#utility.yul\":8881:8888   */\n      0x00\n        /* \"#utility.yul\":8910:8934   */\n      tag_212\n        /* \"#utility.yul\":8928:8933   */\n      dup3\n        /* \"#utility.yul\":8910:8934   */\n      tag_102\n      jump\t// in\n    tag_212:\n        /* \"#utility.yul\":8899:8934   */\n      swap1\n      pop\n        /* \"#utility.yul\":8844:8940   */\n      swap2\n      swap1\n      pop\n      jump\t// out\n        /* \"#utility.yul\":8946:9064   */\n    tag_104:\n        /* \"#utility.yul\":9033:9057   */\n      tag_214\n        /* \"#utility.yul\":9051:9056   */\n      dup2\n        /* \"#utility.yul\":9033:9057   */\n      tag_103\n      jump\t// in\n    tag_214:\n        /* \"#utility.yul\":9028:9031   */\n      dup3\n        /* \"#utility.yul\":9021:9058   */\n      mstore\n        /* \"#utility.yul\":8946:9064   */\n      pop\n      pop\n      jump\t// out\n        /* \"#utility.yul\":9070:9292   */\n    tag_38:\n        /* \"#utility.yul\":9163:9167   */\n      0x00\n        /* \"#utility.yul\":9201:9203   */\n      0x20\n        /* \"#utility.yul\":9190:9199   */\n      dup3\n        /* \"#utility.yul\":9186:9204   */\n      add\n        /* \"#utility.yul\":9178:9204   */\n      swap1\n      pop\n        /* \"#utility.yul\":9214:9285   */\n      tag_216\n        /* \"#utility.yul\":9282:9283   */\n      0x00\n        /* \"#utility.yul\":9271:9280   */\n      dup4\n        /* \"#utility.yul\":9267:9284   */\n      add\n        /* \"#utility.yul\":9258:9264   */\n      dup5\n        /* \"#utility.yul\":9214:9285   */\n      tag_104\n      jump\t// in\n    tag_216:\n        /* \"#utility.yul\":9070:9292   */\n      swap3\n      swap2\n      pop\n      pop\n      jump\t// out\n        /* \"#utility.yul\":9298:9478   */\n    tag_105:\n        /* \"#utility.yul\":9346:9423   */\n      0x4e487b7100000000000000000000000000000000000000000000000000000000\n        /* \"#utility.yul\":9343:9344   */\n      0x00\n        /* \"#utility.yul\":9336:9424   */\n      mstore\n        /* \"#utility.yul\":9443:9447   */\n      0x22\n        /* \"#utility.yul\":9440:9441   */\n      0x04\n        /* \"#utility.yul\":9433:9448   */\n      mstore\n        /* \"#utility.yul\":9467:9471   */\n      0x24\n        /* \"#utility.yul\":9464:9465   */\n      0x00\n        /* \"#utility.yul\":9457:9472   */\n      revert\n        /* \"#utility.yul\":9484:9804   */\n    tag_44:\n        /* \"#utility.yul\":9528:9534   */\n      0x00\n        /* \"#utility.yul\":9565:9566   */\n      0x02\n        /* \"#utility.yul\":9559:9563   */\n      dup3\n        /* \"#utility.yul\":9555:9567   */\n      div\n        /* \"#utility.yul\":9545:9567   */\n      swap1\n      pop\n        /* \"#utility.yul\":9612:9613   */\n      0x01\n        /* \"#utility.yul\":9606:9610   */\n      dup3\n        /* \"#utility.yul\":9602:9614   */\n      and\n        /* \"#utility.yul\":9633:9651   */\n      dup1\n        /* \"#utility.yul\":9623:9704   */\n      tag_219\n      jumpi\n        /* \"#utility.yul\":9689:9693   */\n      0x7f\n        /* \"#utility.yul\":9681:9687   */\n      dup3\n        /* \"#utility.yul\":9677:9694   */\n      and\n        /* \"#utility.yul\":9667:9694   */\n      swap2\n      pop\n        /* \"#utility.yul\":9623:9704   */\n    tag_219:\n        /* \"#utility.yul\":9751:9753   */\n      0x20\n        /* \"#utility.yul\":9743:9749   */\n      dup3\n        /* \"#utility.yul\":9740:9754   */\n      lt\n        /* \"#utility.yul\":9720:9738   */\n      dup2\n        /* \"#utility.yul\":9717:9755   */\n      sub\n        /* \"#utility.yul\":9714:9798   */\n      tag_220\n      jumpi\n        /* \"#utility.yul\":9770:9788   */\n      tag_221\n      tag_105\n      jump\t// in\n    tag_221:\n        /* \"#utility.yul\":9714:9798   */\n    tag_220:\n        /* \"#utility.yul\":9535:9804   */\n      pop\n        /* \"#utility.yul\":9484:9804   */\n      swap2\n      swap1\n      pop\n      jump\t// out\n        /* \"#utility.yul\":9810:9958   */\n    tag_106:\n        /* \"#utility.yul\":9912:9923   */\n      0x00\n        /* \"#utility.yul\":9949:9952   */\n      dup2\n        /* \"#utility.yul\":9934:9952   */\n      swap1\n      pop\n        /* \"#utility.yul\":9810:9958   */\n      swap3\n      swap2\n      pop\n      pop\n      jump\t// out\n        /* \"#utility.yul\":9964:10105   */\n    tag_107:\n        /* \"#utility.yul\":10013:10017   */\n      0x00\n        /* \"#utility.yul\":10036:10039   */\n      dup2\n        /* \"#utility.yul\":10028:10039   */\n      swap1\n      pop\n        /* \"#utility.yul\":10059:10062   */\n      dup2\n        /* \"#utility.yul\":10056:10057   */\n      0x00\n        /* \"#utility.yul\":10049:10063   */\n      mstore\n        /* \"#utility.yul\":10093:10097   */\n      0x20\n        /* \"#utility.yul\":10090:10091   */\n      0x00\n        /* \"#utility.yul\":10080:10098   */\n      keccak256\n        /* \"#utility.yul\":10072:10098   */\n      swap1\n      pop\n        /* \"#utility.yul\":9964:10105   */\n      swap2\n      swap1\n      pop\n      jump\t// out\n        /* \"#utility.yul\":10135:11009   */\n    tag_108:\n        /* \"#utility.yul\":10238:10241   */\n      0x00\n        /* \"#utility.yul\":10275:10280   */\n      dup2\n        /* \"#utility.yul\":10269:10281   */\n      sload\n        /* \"#utility.yul\":10304:10340   */\n      tag_225\n        /* \"#utility.yul\":10330:10339   */\n      dup2\n        /* \"#utility.yul\":10304:10340   */\n      tag_44\n      jump\t// in\n    tag_225:\n        /* \"#utility.yul\":10356:10445   */\n      tag_226\n        /* \"#utility.yul\":10438:10444   */\n      dup2\n        /* \"#utility.yul\":10433:10436   */\n      dup7\n        /* \"#utility.yul\":10356:10445   */\n      tag_106\n      jump\t// in\n    tag_226:\n        /* \"#utility.yul\":10349:10445   */\n      swap5\n      pop\n        /* \"#utility.yul\":10476:10477   */\n      0x01\n        /* \"#utility.yul\":10465:10474   */\n      dup3\n        /* \"#utility.yul\":10461:10478   */\n      and\n        /* \"#utility.yul\":10492:10493   */\n      0x00\n        /* \"#utility.yul\":10487:10653   */\n      dup2\n      eq\n      tag_228\n      jumpi\n        /* \"#utility.yul\":10667:10668   */\n      0x01\n        /* \"#utility.yul\":10662:11003   */\n      dup2\n      eq\n      tag_229\n      jumpi\n        /* \"#utility.yul\":10454:11003   */\n      jump(tag_227)\n        /* \"#utility.yul\":10487:10653   */\n    tag_228:\n        /* \"#utility.yul\":10571:10575   */\n      0xff\n        /* \"#utility.yul\":10567:10576   */\n      not\n        /* \"#utility.yul\":10556:10565   */\n      dup4\n        /* \"#utility.yul\":10552:10577   */\n      and\n        /* \"#utility.yul\":10547:10550   */\n      dup7\n        /* \"#utility.yul\":10540:10578   */\n      mstore\n        /* \"#utility.yul\":10633:10639   */\n      dup2\n        /* \"#utility.yul\":10626:10640   */\n      iszero\n        /* \"#utility.yul\":10619:10641   */\n      iszero\n        /* \"#utility.yul\":10611:10617   */\n      dup3\n        /* \"#utility.yul\":10607:10642   */\n      mul\n        /* \"#utility.yul\":10602:10605   */\n      dup7\n        /* \"#utility.yul\":10598:10643   */\n      add\n        /* \"#utility.yul\":10591:10643   */\n      swap4\n      pop\n        /* \"#utility.yul\":10487:10653   */\n      jump(tag_227)\n        /* \"#utility.yul\":10662:11003   */\n    tag_229:\n        /* \"#utility.yul\":10729:10767   */\n      tag_230\n        /* \"#utility.yul\":10761:10766   */\n      dup6\n        /* \"#utility.yul\":10729:10767   */\n      tag_107\n      jump\t// in\n    tag_230:\n        /* \"#utility.yul\":10789:10790   */\n      0x00\n        /* \"#utility.yul\":10803:10957   */\n    tag_231:\n        /* \"#utility.yul\":10817:10823   */\n      dup4\n        /* \"#utility.yul\":10814:10815   */\n      dup2\n        /* \"#utility.yul\":10811:10824   */\n      lt\n        /* \"#utility.yul\":10803:10957   */\n      iszero\n      tag_233\n      jumpi\n        /* \"#utility.yul\":10891:10898   */\n      dup2\n        /* \"#utility.yul\":10885:10899   */\n      sload\n        /* \"#utility.yul\":10881:10882   */\n      dup2\n        /* \"#utility.yul\":10876:10879   */\n      dup10\n        /* \"#utility.yul\":10872:10883   */\n      add\n        /* \"#utility.yul\":10865:10900   */\n      mstore\n        /* \"#utility.yul\":10941:10942   */\n      0x01\n        /* \"#utility.yul\":10932:10939   */\n      dup3\n        /* \"#utility.yul\":10928:10943   */\n      add\n        /* \"#utility.yul\":10917:10943   */\n      swap2\n      pop\n        /* \"#utility.yul\":10839:10843   */\n      0x20\n        /* \"#utility.yul\":10836:10837   */\n      dup2\n        /* \"#utility.yul\":10832:10844   */\n      add\n        /* \"#utility.yul\":10827:10844   */\n      swap1\n      pop\n        /* \"#utility.yul\":10803:10957   */\n      jump(tag_231)\n    tag_233:\n        /* \"#utility.yul\":10986:10992   */\n      dup4\n        /* \"#utility.yul\":10981:10984   */\n      dup9\n        /* \"#utility.yul\":10977:10993   */\n      add\n        /* \"#utility.yul\":10970:10993   */\n      swap6\n      pop\n        /* \"#utility.yul\":10669:11003   */\n      pop\n      pop\n        /* \"#utility.yul\":10454:11003   */\n    tag_227:\n      pop\n        /* \"#utility.yul\":10242:11009   */\n      pop\n      pop\n        /* \"#utility.yul\":10135:11009   */\n      swap3\n      swap2\n      pop\n      pop\n      jump\t// out\n        /* \"#utility.yul\":11015:11168   */\n    tag_109:\n        /* \"#utility.yul\":11155:11160   */\n      0x202b200000000000000000000000000000000000000000000000000000000000\n        /* \"#utility.yul\":11151:11152   */\n      0x00\n        /* \"#utility.yul\":11143:11149   */\n      dup3\n        /* \"#utility.yul\":11139:11153   */\n      add\n        /* \"#utility.yul\":11132:11161   */\n      mstore\n        /* \"#utility.yul\":11015:11168   */\n      pop\n      jump\t// out\n        /* \"#utility.yul\":11174:11574   */\n    tag_110:\n        /* \"#utility.yul\":11334:11337   */\n      0x00\n        /* \"#utility.yul\":11355:11439   */\n      tag_236\n        /* \"#utility.yul\":11437:11438   */\n      0x03\n        /* \"#utility.yul\":11432:11435   */\n      dup4\n        /* \"#utility.yul\":11355:11439   */\n      tag_106\n      jump\t// in\n    tag_236:\n        /* \"#utility.yul\":11348:11439   */\n      swap2\n      pop\n        /* \"#utility.yul\":11448:11541   */\n      tag_237\n        /* \"#utility.yul\":11537:11540   */\n      dup3\n        /* \"#utility.yul\":11448:11541   */\n      tag_109\n      jump\t// in\n    tag_237:\n        /* \"#utility.yul\":11566:11567   */\n      0x03\n        /* \"#utility.yul\":11561:11564   */\n      dup3\n        /* \"#utility.yul\":11557:11568   */\n      add\n        /* \"#utility.yul\":11550:11568   */\n      swap1\n      pop\n        /* \"#utility.yul\":11174:11574   */\n      swap2\n      swap1\n      pop\n      jump\t// out\n        /* \"#utility.yul\":11580:11970   */\n    tag_111:\n        /* \"#utility.yul\":11686:11689   */\n      0x00\n        /* \"#utility.yul\":11714:11753   */\n      tag_239\n        /* \"#utility.yul\":11747:11752   */\n      dup3\n        /* \"#utility.yul\":11714:11753   */\n      tag_72\n      jump\t// in\n    tag_239:\n        /* \"#utility.yul\":11769:11858   */\n      tag_240\n        /* \"#utility.yul\":11851:11857   */\n      dup2\n        /* \"#utility.yul\":11846:11849   */\n      dup6\n        /* \"#utility.yul\":11769:11858   */\n      tag_106\n      jump\t// in\n    tag_240:\n        /* \"#utility.yul\":11762:11858   */\n      swap4\n      pop\n        /* \"#utility.yul\":11867:11932   */\n      tag_241\n        /* \"#utility.yul\":11925:11931   */\n      dup2\n        /* \"#utility.yul\":11920:11923   */\n      dup6\n        /* \"#utility.yul\":11913:11917   */\n      0x20\n        /* \"#utility.yul\":11906:11911   */\n      dup7\n        /* \"#utility.yul\":11902:11918   */\n      add\n        /* \"#utility.yul\":11867:11932   */\n      tag_74\n      jump\t// in\n    tag_241:\n        /* \"#utility.yul\":11957:11963   */\n      dup1\n        /* \"#utility.yul\":11952:11955   */\n      dup5\n        /* \"#utility.yul\":11948:11964   */\n      add\n        /* \"#utility.yul\":11941:11964   */\n      swap2\n      pop\n        /* \"#utility.yul\":11690:11970   */\n      pop\n        /* \"#utility.yul\":11580:11970   */\n      swap3\n      swap2\n      pop\n      pop\n      jump\t// out\n        /* \"#utility.yul\":11976:12671   */\n    tag_52:\n        /* \"#utility.yul\":12254:12257   */\n      0x00\n        /* \"#utility.yul\":12276:12368   */\n      tag_243\n        /* \"#utility.yul\":12364:12367   */\n      dup3\n        /* \"#utility.yul\":12355:12361   */\n      dup6\n        /* \"#utility.yul\":12276:12368   */\n      tag_108\n      jump\t// in\n    tag_243:\n        /* \"#utility.yul\":12269:12368   */\n      swap2\n      pop\n        /* \"#utility.yul\":12385:12533   */\n      tag_244\n        /* \"#utility.yul\":12529:12532   */\n      dup3\n        /* \"#utility.yul\":12385:12533   */\n      tag_110\n      jump\t// in\n    tag_244:\n        /* \"#utility.yul\":12378:12533   */\n      swap2\n      pop\n        /* \"#utility.yul\":12550:12645   */\n      tag_245\n        /* \"#utility.yul\":12641:12644   */\n      dup3\n        /* \"#utility.yul\":12632:12638   */\n      dup5\n        /* \"#utility.yul\":12550:12645   */\n      tag_111\n      jump\t// in\n    tag_245:\n        /* \"#utility.yul\":12543:12645   */\n      swap2\n      pop\n        /* \"#utility.yul\":12662:12665   */\n      dup2\n        /* \"#utility.yul\":12655:12665   */\n      swap1\n      pop\n        /* \"#utility.yul\":11976:12671   */\n      swap4\n      swap3\n      pop\n      pop\n      pop\n      jump\t// out\n        /* \"#utility.yul\":12677:12857   */\n    tag_64:\n        /* \"#utility.yul\":12725:12802   */\n      0x4e487b7100000000000000000000000000000000000000000000000000000000\n        /* \"#utility.yul\":12722:12723   */\n      0x00\n        /* \"#utility.yul\":12715:12803   */\n      mstore\n        /* \"#utility.yul\":12822:12826   */\n      0x32\n        /* \"#utility.yul\":12819:12820   */\n      0x04\n        /* \"#utility.yul\":12812:12827   */\n      mstore\n        /* \"#utility.yul\":12846:12850   */\n      0x24\n        /* \"#utility.yul\":12843:12844   */\n      0x00\n        /* \"#utility.yul\":12836:12851   */\n      revert\n        /* \"#utility.yul\":12863:13043   */\n    tag_112:\n        /* \"#utility.yul\":12911:12988   */\n      0x4e487b7100000000000000000000000000000000000000000000000000000000\n        /* \"#utility.yul\":12908:12909   */\n      0x00\n        /* \"#utility.yul\":12901:12989   */\n      mstore\n        /* \"#utility.yul\":13008:13012   */\n      0x11\n        /* \"#utility.yul\":13005:13006   */\n      0x04\n        /* \"#utility.yul\":12998:13013   */\n      mstore\n        /* \"#utility.yul\":13032:13036   */\n      0x24\n        /* \"#utility.yul\":13029:13030   */\n      0x00\n        /* \"#utility.yul\":13022:13037   */\n      revert\n        /* \"#utility.yul\":13049:13282   */\n    tag_69:\n        /* \"#utility.yul\":13088:13091   */\n      0x00\n        /* \"#utility.yul\":13111:13135   */\n      tag_249\n        /* \"#utility.yul\":13129:13134   */\n      dup3\n        /* \"#utility.yul\":13111:13135   */\n      tag_77\n      jump\t// in\n    tag_249:\n        /* \"#utility.yul\":13102:13135   */\n      swap2\n      pop\n        /* \"#utility.yul\":13157:13223   */\n      0xffffffffffffffffffffffffffffffffffffffffffffffffffffffffffffffff\n        /* \"#utility.yul\":13150:13155   */\n      dup3\n        /* \"#utility.yul\":13147:13224   */\n      sub\n        /* \"#utility.yul\":13144:13247   */\n      tag_250\n      jumpi\n        /* \"#utility.yul\":13227:13245   */\n      tag_251\n      tag_112\n      jump\t// in\n    tag_251:\n        /* \"#utility.yul\":13144:13247   */\n    tag_250:\n        /* \"#utility.yul\":13274:13275   */\n      0x01\n        /* \"#utility.yul\":13267:13272   */\n      dup3\n        /* \"#utility.yul\":13263:13276   */\n      add\n        /* \"#utility.yul\":13256:13276   */\n      swap1\n      pop\n        /* \"#utility.yul\":13049:13282   */\n      swap2\n      swap1\n      pop\n      jump\t// out\n\n    auxdata: 0xa2646970667358221220ef3ee556788fa2d93791e7914413669392301db0a4700227dea439cb67ca81a564736f6c63430008100033\n}\n",
				"bytecode": {
					"linkReferences": {},
					"object": "60a060405260405180606001604052806024815260200162000f4060249139600090816200002e919062000319565b503480156200003c57600080fd5b503373ffffffffffffffffffffffffffffffffffffffff1660808173ffffffffffffffffffffffffffffffffffffffff16815250506001808060018154018082558091505060019003906000526020600020016000909190919091505562000400565b600081519050919050565b7f4e487b7100000000000000000000000000000000000000000000000000000000600052604160045260246000fd5b7f4e487b7100000000000000000000000000000000000000000000000000000000600052602260045260246000fd5b600060028204905060018216806200012157607f821691505b602082108103620001375762000136620000d9565b5b50919050565b60008190508160005260206000209050919050565b60006020601f8301049050919050565b600082821b905092915050565b600060088302620001a17fffffffffffffffffffffffffffffffffffffffffffffffffffffffffffffffff8262000162565b620001ad868362000162565b95508019841693508086168417925050509392505050565b6000819050919050565b6000819050919050565b6000620001fa620001f4620001ee84620001c5565b620001cf565b620001c5565b9050919050565b6000819050919050565b6200021683620001d9565b6200022e620002258262000201565b8484546200016f565b825550505050565b600090565b6200024562000236565b620002528184846200020b565b505050565b5b818110156200027a576200026e6000826200023b565b60018101905062000258565b5050565b601f821115620002c95762000293816200013d565b6200029e8462000152565b81016020851015620002ae578190505b620002c6620002bd8562000152565b83018262000257565b50505b505050565b600082821c905092915050565b6000620002ee60001984600802620002ce565b1980831691505092915050565b6000620003098383620002db565b9150826002028217905092915050565b62000324826200009f565b67ffffffffffffffff81111562000340576200033f620000aa565b5b6200034c825462000108565b620003598282856200027e565b600060209050601f8311600181146200039157600084156200037c578287015190505b620003888582620002fb565b865550620003f8565b601f198416620003a1866200013d565b60005b82811015620003cb57848901518255600182019150602085019450602081019050620003a4565b86831015620003eb5784890151620003e7601f891682620002db565b8355505b6001600288020188555050505b505050505050565b608051610b246200041c60003960006103990152610b246000f3fe608060405234801561001057600080fd5b506004361061007d5760003560e01c8063b39e12b51161005b578063b39e12b5146100ee578063b9b6d6e41461011e578063c1b8411a1461014e578063d39fa2331461016c5761007d565b80632a1afcd9146100825780635998e635146100a05780637c216809146100be575b600080fd5b61008a61019c565b604051610097919061046f565b60405180910390f35b6100a861022a565b6040516100b591906104aa565b60405180910390f35b6100d860048036038101906100d3919061053e565b61022f565b6040516100e5919061046f565b60405180910390f35b610108600480360381019061010391906106bb565b61027e565b604051610115919061046f565b60405180910390f35b61013860048036038101906101339190610730565b6102af565b604051610145919061081b565b60405180910390f35b610156610397565b604051610163919061087e565b60405180910390f35b61018660048036038101906101819190610730565b6103bb565b60405161019391906104aa565b60405180910390f35b600080546101a9906108c8565b80601f01602080910402602001604051908101604052809291908181526020018280546101d5906108c8565b80156102225780601f106101f757610100808354040283529160200191610222565b820191906000526020600020905b81548152906001019060200180831161020557829003601f168201915b505050505081565b606481565b606082828080601f016020809104026020016040519081016040528093929190818152602001838380828437600081840152601f19601f82011690508083019250505050505050905092915050565b606060008083604051602001610295929190610a19565b604051602081830303815290604052905080915050919050565b60606001829080600181540180825580915050600190039060005260206000200160009091909190915055600060018054905067ffffffffffffffff8111156102fb576102fa610590565b5b6040519080825280602002602001820160405280156103295781602001602082028036833780820191505090505b50905060005b60018054905081101561038d57600181815481106103505761034f610a48565b5b906000526020600020015482828151811061036e5761036d610a48565b5b602002602001018181525050808061038590610aa6565b91505061032f565b5080915050919050565b7f000000000000000000000000000000000000000000000000000000000000000081565b600181815481106103cb57600080fd5b906000526020600020016000915090505481565b600081519050919050565b600082825260208201905092915050565b60005b838110156104195780820151818401526020810190506103fe565b60008484015250505050565b6000601f19601f8301169050919050565b6000610441826103df565b61044b81856103ea565b935061045b8185602086016103fb565b61046481610425565b840191505092915050565b600060208201905081810360008301526104898184610436565b905092915050565b6000819050919050565b6104a481610491565b82525050565b60006020820190506104bf600083018461049b565b92915050565b6000604051905090565b600080fd5b600080fd5b600080fd5b600080fd5b600080fd5b60008083601f8401126104fe576104fd6104d9565b5b8235905067ffffffffffffffff81111561051b5761051a6104de565b5b602083019150836001820283011115610537576105366104e3565b5b9250929050565b60008060208385031215610555576105546104cf565b5b600083013567ffffffffffffffff811115610573576105726104d4565b5b61057f858286016104e8565b92509250509250929050565b600080fd5b7f4e487b7100000000000000000000000000000000000000000000000000000000600052604160045260246000fd5b6105c882610425565b810181811067ffffffffffffffff821117156105e7576105e6610590565b5b80604052505050565b60006105fa6104c5565b905061060682826105bf565b919050565b600067ffffffffffffffff82111561062657610625610590565b5b61062f82610425565b9050602081019050919050565b82818337600083830152505050565b600061065e6106598461060b565b6105f0565b90508281526020810184848401111561067a5761067961058b565b5b61068584828561063c565b509392505050565b600082601f8301126106a2576106a16104d9565b5b81356106b284826020860161064b565b91505092915050565b6000602082840312156106d1576106d06104cf565b5b600082013567ffffffffffffffff8111156106ef576106ee6104d4565b5b6106fb8482850161068d565b91505092915050565b61070d81610491565b811461071857600080fd5b50565b60008135905061072a81610704565b92915050565b600060208284031215610746576107456104cf565b5b60006107548482850161071b565b91505092915050565b600081519050919050565b600082825260208201905092915050565b6000819050602082019050919050565b61079281610491565b82525050565b60006107a48383610789565b60208301905092915050565b6000602082019050919050565b60006107c88261075d565b6107d28185610768565b93506107dd83610779565b8060005b8381101561080e5781516107f58882610798565b9750610800836107b0565b9250506001810190506107e1565b5085935050505092915050565b6000602082019050818103600083015261083581846107bd565b905092915050565b600073ffffffffffffffffffffffffffffffffffffffff82169050919050565b60006108688261083d565b9050919050565b6108788161085d565b82525050565b6000602082019050610893600083018461086f565b92915050565b7f4e487b7100000000000000000000000000000000000000000000000000000000600052602260045260246000fd5b600060028204905060018216806108e057607f821691505b6020821081036108f3576108f2610899565b5b50919050565b600081905092915050565b60008190508160005260206000209050919050565b60008154610926816108c8565b61093081866108f9565b9450600182166000811461094b576001811461096057610993565b60ff1983168652811515820286019350610993565b61096985610904565b60005b8381101561098b5781548189015260018201915060208101905061096c565b838801955050505b50505092915050565b7f202b200000000000000000000000000000000000000000000000000000000000600082015250565b60006109d26003836108f9565b91506109dd8261099c565b600382019050919050565b60006109f3826103df565b6109fd81856108f9565b9350610a0d8185602086016103fb565b80840191505092915050565b6000610a258285610919565b9150610a30826109c5565b9150610a3c82846109e8565b91508190509392505050565b7f4e487b7100000000000000000000000000000000000000000000000000000000600052603260045260246000fd5b7f4e487b7100000000000000000000000000000000000000000000000000000000600052601160045260246000fd5b6000610ab182610491565b91507fffffffffffffffffffffffffffffffffffffffffffffffffffffffffffffffff8203610ae357610ae2610a77565b5b60018201905091905056fea2646970667358221220ef3ee556788fa2d93791e7914413669392301db0a4700227dea439cb67ca81a564736f6c63430008100033546869732069732073746f72656420696e20626c6f636b636861696e2073746f72616765",
					"opcodes": "PUSH1 0xA0 PUSH1 0x40 MSTORE PUSH1 0x40 MLOAD DUP1 PUSH1 0x60 ADD PUSH1 0x40 MSTORE DUP1 PUSH1 0x24 DUP2 MSTORE PUSH1 0x20 ADD PUSH3 0xF40 PUSH1 0x24 SWAP2 CODECOPY PUSH1 0x0 SWAP1 DUP2 PUSH3 0x2E SWAP2 SWAP1 PUSH3 0x319 JUMP JUMPDEST POP CALLVALUE DUP1 ISZERO PUSH3 0x3C JUMPI PUSH1 0x0 DUP1 REVERT JUMPDEST POP CALLER PUSH20 0xFFFFFFFFFFFFFFFFFFFFFFFFFFFFFFFFFFFFFFFF AND PUSH1 0x80 DUP2 PUSH20 0xFFFFFFFFFFFFFFFFFFFFFFFFFFFFFFFFFFFFFFFF AND DUP2 MSTORE POP POP PUSH1 0x1 DUP1 DUP1 PUSH1 0x1 DUP2 SLOAD ADD DUP1 DUP3 SSTORE DUP1 SWAP2 POP POP PUSH1 0x1 SWAP1 SUB SWAP1 PUSH1 0x0 MSTORE PUSH1 0x20 PUSH1 0x0 KECCAK256 ADD PUSH1 0x0 SWAP1 SWAP2 SWAP1 SWAP2 SWAP1 SWAP2 POP SSTORE PUSH3 0x400 JUMP JUMPDEST PUSH1 0x0 DUP2 MLOAD SWAP1 POP SWAP2 SWAP1 POP JUMP JUMPDEST PUSH32 0x4E487B7100000000000000000000000000000000000000000000000000000000 PUSH1 0x0 MSTORE PUSH1 0x41 PUSH1 0x4 MSTORE PUSH1 0x24 PUSH1 0x0 REVERT JUMPDEST PUSH32 0x4E487B7100000000000000000000000000000000000000000000000000000000 PUSH1 0x0 MSTORE PUSH1 0x22 PUSH1 0x4 MSTORE PUSH1 0x24 PUSH1 0x0 REVERT JUMPDEST PUSH1 0x0 PUSH1 0x2 DUP3 DIV SWAP1 POP PUSH1 0x1 DUP3 AND DUP1 PUSH3 0x121 JUMPI PUSH1 0x7F DUP3 AND SWAP2 POP JUMPDEST PUSH1 0x20 DUP3 LT DUP2 SUB PUSH3 0x137 JUMPI PUSH3 0x136 PUSH3 0xD9 JUMP JUMPDEST JUMPDEST POP SWAP2 SWAP1 POP JUMP JUMPDEST PUSH1 0x0 DUP2 SWAP1 POP DUP2 PUSH1 0x0 MSTORE PUSH1 0x20 PUSH1 0x0 KECCAK256 SWAP1 POP SWAP2 SWAP1 POP JUMP JUMPDEST PUSH1 0x0 PUSH1 0x20 PUSH1 0x1F DUP4 ADD DIV SWAP1 POP SWAP2 SWAP1 POP JUMP JUMPDEST PUSH1 0x0 DUP3 DUP3 SHL SWAP1 POP SWAP3 SWAP2 POP POP JUMP JUMPDEST PUSH1 0x0 PUSH1 0x8 DUP4 MUL PUSH3 0x1A1 PUSH32 0xFFFFFFFFFFFFFFFFFFFFFFFFFFFFFFFFFFFFFFFFFFFFFFFFFFFFFFFFFFFFFFFF DUP3 PUSH3 0x162 JUMP JUMPDEST PUSH3 0x1AD DUP7 DUP4 PUSH3 0x162 JUMP JUMPDEST SWAP6 POP DUP1 NOT DUP5 AND SWAP4 POP DUP1 DUP7 AND DUP5 OR SWAP3 POP POP POP SWAP4 SWAP3 POP POP POP JUMP JUMPDEST PUSH1 0x0 DUP2 SWAP1 POP SWAP2 SWAP1 POP JUMP JUMPDEST PUSH1 0x0 DUP2 SWAP1 POP SWAP2 SWAP1 POP JUMP JUMPDEST PUSH1 0x0 PUSH3 0x1FA PUSH3 0x1F4 PUSH3 0x1EE DUP5 PUSH3 0x1C5 JUMP JUMPDEST PUSH3 0x1CF JUMP JUMPDEST PUSH3 0x1C5 JUMP JUMPDEST SWAP1 POP SWAP2 SWAP1 POP JUMP JUMPDEST PUSH1 0x0 DUP2 SWAP1 POP SWAP2 SWAP1 POP JUMP JUMPDEST PUSH3 0x216 DUP4 PUSH3 0x1D9 JUMP JUMPDEST PUSH3 0x22E PUSH3 0x225 DUP3 PUSH3 0x201 JUMP JUMPDEST DUP5 DUP5 SLOAD PUSH3 0x16F JUMP JUMPDEST DUP3 SSTORE POP POP POP POP JUMP JUMPDEST PUSH1 0x0 SWAP1 JUMP JUMPDEST PUSH3 0x245 PUSH3 0x236 JUMP JUMPDEST PUSH3 0x252 DUP2 DUP5 DUP5 PUSH3 0x20B JUMP JUMPDEST POP POP POP JUMP JUMPDEST JUMPDEST DUP2 DUP2 LT ISZERO PUSH3 0x27A JUMPI PUSH3 0x26E PUSH1 0x0 DUP3 PUSH3 0x23B JUMP JUMPDEST PUSH1 0x1 DUP2 ADD SWAP1 POP PUSH3 0x258 JUMP JUMPDEST POP POP JUMP JUMPDEST PUSH1 0x1F DUP3 GT ISZERO PUSH3 0x2C9 JUMPI PUSH3 0x293 DUP2 PUSH3 0x13D JUMP JUMPDEST PUSH3 0x29E DUP5 PUSH3 0x152 JUMP JUMPDEST DUP2 ADD PUSH1 0x20 DUP6 LT ISZERO PUSH3 0x2AE JUMPI DUP2 SWAP1 POP JUMPDEST PUSH3 0x2C6 PUSH3 0x2BD DUP6 PUSH3 0x152 JUMP JUMPDEST DUP4 ADD DUP3 PUSH3 0x257 JUMP JUMPDEST POP POP JUMPDEST POP POP POP JUMP JUMPDEST PUSH1 0x0 DUP3 DUP3 SHR SWAP1 POP SWAP3 SWAP2 POP POP JUMP JUMPDEST PUSH1 0x0 PUSH3 0x2EE PUSH1 0x0 NOT DUP5 PUSH1 0x8 MUL PUSH3 0x2CE JUMP JUMPDEST NOT DUP1 DUP4 AND SWAP2 POP POP SWAP3 SWAP2 POP POP JUMP JUMPDEST PUSH1 0x0 PUSH3 0x309 DUP4 DUP4 PUSH3 0x2DB JUMP JUMPDEST SWAP2 POP DUP3 PUSH1 0x2 MUL DUP3 OR SWAP1 POP SWAP3 SWAP2 POP POP JUMP JUMPDEST PUSH3 0x324 DUP3 PUSH3 0x9F JUMP JUMPDEST PUSH8 0xFFFFFFFFFFFFFFFF DUP2 GT ISZERO PUSH3 0x340 JUMPI PUSH3 0x33F PUSH3 0xAA JUMP JUMPDEST JUMPDEST PUSH3 0x34C DUP3 SLOAD PUSH3 0x108 JUMP JUMPDEST PUSH3 0x359 DUP3 DUP3 DUP6 PUSH3 0x27E JUMP JUMPDEST PUSH1 0x0 PUSH1 0x20 SWAP1 POP PUSH1 0x1F DUP4 GT PUSH1 0x1 DUP2 EQ PUSH3 0x391 JUMPI PUSH1 0x0 DUP5 ISZERO PUSH3 0x37C JUMPI DUP3 DUP8 ADD MLOAD SWAP1 POP JUMPDEST PUSH3 0x388 DUP6 DUP3 PUSH3 0x2FB JUMP JUMPDEST DUP7 SSTORE POP PUSH3 0x3F8 JUMP JUMPDEST PUSH1 0x1F NOT DUP5 AND PUSH3 0x3A1 DUP7 PUSH3 0x13D JUMP JUMPDEST PUSH1 0x0 JUMPDEST DUP3 DUP2 LT ISZERO PUSH3 0x3CB JUMPI DUP5 DUP10 ADD MLOAD DUP3 SSTORE PUSH1 0x1 DUP3 ADD SWAP2 POP PUSH1 0x20 DUP6 ADD SWAP5 POP PUSH1 0x20 DUP2 ADD SWAP1 POP PUSH3 0x3A4 JUMP JUMPDEST DUP7 DUP4 LT ISZERO PUSH3 0x3EB JUMPI DUP5 DUP10 ADD MLOAD PUSH3 0x3E7 PUSH1 0x1F DUP10 AND DUP3 PUSH3 0x2DB JUMP JUMPDEST DUP4 SSTORE POP JUMPDEST PUSH1 0x1 PUSH1 0x2 DUP9 MUL ADD DUP9 SSTORE POP POP POP JUMPDEST POP POP POP POP POP POP JUMP JUMPDEST PUSH1 0x80 MLOAD PUSH2 0xB24 PUSH3 0x41C PUSH1 0x0 CODECOPY PUSH1 0x0 PUSH2 0x399 ADD MSTORE PUSH2 0xB24 PUSH1 0x0 RETURN INVALID PUSH1 0x80 PUSH1 0x40 MSTORE CALLVALUE DUP1 ISZERO PUSH2 0x10 JUMPI PUSH1 0x0 DUP1 REVERT JUMPDEST POP PUSH1 0x4 CALLDATASIZE LT PUSH2 0x7D JUMPI PUSH1 0x0 CALLDATALOAD PUSH1 0xE0 SHR DUP1 PUSH4 0xB39E12B5 GT PUSH2 0x5B JUMPI DUP1 PUSH4 0xB39E12B5 EQ PUSH2 0xEE JUMPI DUP1 PUSH4 0xB9B6D6E4 EQ PUSH2 0x11E JUMPI DUP1 PUSH4 0xC1B8411A EQ PUSH2 0x14E JUMPI DUP1 PUSH4 0xD39FA233 EQ PUSH2 0x16C JUMPI PUSH2 0x7D JUMP JUMPDEST DUP1 PUSH4 0x2A1AFCD9 EQ PUSH2 0x82 JUMPI DUP1 PUSH4 0x5998E635 EQ PUSH2 0xA0 JUMPI DUP1 PUSH4 0x7C216809 EQ PUSH2 0xBE JUMPI JUMPDEST PUSH1 0x0 DUP1 REVERT JUMPDEST PUSH2 0x8A PUSH2 0x19C JUMP JUMPDEST PUSH1 0x40 MLOAD PUSH2 0x97 SWAP2 SWAP1 PUSH2 0x46F JUMP JUMPDEST PUSH1 0x40 MLOAD DUP1 SWAP2 SUB SWAP1 RETURN JUMPDEST PUSH2 0xA8 PUSH2 0x22A JUMP JUMPDEST PUSH1 0x40 MLOAD PUSH2 0xB5 SWAP2 SWAP1 PUSH2 0x4AA JUMP JUMPDEST PUSH1 0x40 MLOAD DUP1 SWAP2 SUB SWAP1 RETURN JUMPDEST PUSH2 0xD8 PUSH1 0x4 DUP1 CALLDATASIZE SUB DUP2 ADD SWAP1 PUSH2 0xD3 SWAP2 SWAP1 PUSH2 0x53E JUMP JUMPDEST PUSH2 0x22F JUMP JUMPDEST PUSH1 0x40 MLOAD PUSH2 0xE5 SWAP2 SWAP1 PUSH2 0x46F JUMP JUMPDEST PUSH1 0x40 MLOAD DUP1 SWAP2 SUB SWAP1 RETURN JUMPDEST PUSH2 0x108 PUSH1 0x4 DUP1 CALLDATASIZE SUB DUP2 ADD SWAP1 PUSH2 0x103 SWAP2 SWAP1 PUSH2 0x6BB JUMP JUMPDEST PUSH2 0x27E JUMP JUMPDEST PUSH1 0x40 MLOAD PUSH2 0x115 SWAP2 SWAP1 PUSH2 0x46F JUMP JUMPDEST PUSH1 0x40 MLOAD DUP1 SWAP2 SUB SWAP1 RETURN JUMPDEST PUSH2 0x138 PUSH1 0x4 DUP1 CALLDATASIZE SUB DUP2 ADD SWAP1 PUSH2 0x133 SWAP2 SWAP1 PUSH2 0x730 JUMP JUMPDEST PUSH2 0x2AF JUMP JUMPDEST PUSH1 0x40 MLOAD PUSH2 0x145 SWAP2 SWAP1 PUSH2 0x81B JUMP JUMPDEST PUSH1 0x40 MLOAD DUP1 SWAP2 SUB SWAP1 RETURN JUMPDEST PUSH2 0x156 PUSH2 0x397 JUMP JUMPDEST PUSH1 0x40 MLOAD PUSH2 0x163 SWAP2 SWAP1 PUSH2 0x87E JUMP JUMPDEST PUSH1 0x40 MLOAD DUP1 SWAP2 SUB SWAP1 RETURN JUMPDEST PUSH2 0x186 PUSH1 0x4 DUP1 CALLDATASIZE SUB DUP2 ADD SWAP1 PUSH2 0x181 SWAP2 SWAP1 PUSH2 0x730 JUMP JUMPDEST PUSH2 0x3BB JUMP JUMPDEST PUSH1 0x40 MLOAD PUSH2 0x193 SWAP2 SWAP1 PUSH2 0x4AA JUMP JUMPDEST PUSH1 0x40 MLOAD DUP1 SWAP2 SUB SWAP1 RETURN JUMPDEST PUSH1 0x0 DUP1 SLOAD PUSH2 0x1A9 SWAP1 PUSH2 0x8C8 JUMP JUMPDEST DUP1 PUSH1 0x1F ADD PUSH1 0x20 DUP1 SWAP2 DIV MUL PUSH1 0x20 ADD PUSH1 0x40 MLOAD SWAP1 DUP2 ADD PUSH1 0x40 MSTORE DUP1 SWAP3 SWAP2 SWAP1 DUP2 DUP2 MSTORE PUSH1 0x20 ADD DUP3 DUP1 SLOAD PUSH2 0x1D5 SWAP1 PUSH2 0x8C8 JUMP JUMPDEST DUP1 ISZERO PUSH2 0x222 JUMPI DUP1 PUSH1 0x1F LT PUSH2 0x1F7 JUMPI PUSH2 0x100 DUP1 DUP4 SLOAD DIV MUL DUP4 MSTORE SWAP2 PUSH1 0x20 ADD SWAP2 PUSH2 0x222 JUMP JUMPDEST DUP3 ADD SWAP2 SWAP1 PUSH1 0x0 MSTORE PUSH1 0x20 PUSH1 0x0 KECCAK256 SWAP1 JUMPDEST DUP2 SLOAD DUP2 MSTORE SWAP1 PUSH1 0x1 ADD SWAP1 PUSH1 0x20 ADD DUP1 DUP4 GT PUSH2 0x205 JUMPI DUP3 SWAP1 SUB PUSH1 0x1F AND DUP3 ADD SWAP2 JUMPDEST POP POP POP POP POP DUP2 JUMP JUMPDEST PUSH1 0x64 DUP2 JUMP JUMPDEST PUSH1 0x60 DUP3 DUP3 DUP1 DUP1 PUSH1 0x1F ADD PUSH1 0x20 DUP1 SWAP2 DIV MUL PUSH1 0x20 ADD PUSH1 0x40 MLOAD SWAP1 DUP2 ADD PUSH1 0x40 MSTORE DUP1 SWAP4 SWAP3 SWAP2 SWAP1 DUP2 DUP2 MSTORE PUSH1 0x20 ADD DUP4 DUP4 DUP1 DUP3 DUP5 CALLDATACOPY PUSH1 0x0 DUP2 DUP5 ADD MSTORE PUSH1 0x1F NOT PUSH1 0x1F DUP3 ADD AND SWAP1 POP DUP1 DUP4 ADD SWAP3 POP POP POP POP POP POP POP SWAP1 POP SWAP3 SWAP2 POP POP JUMP JUMPDEST PUSH1 0x60 PUSH1 0x0 DUP1 DUP4 PUSH1 0x40 MLOAD PUSH1 0x20 ADD PUSH2 0x295 SWAP3 SWAP2 SWAP1 PUSH2 0xA19 JUMP JUMPDEST PUSH1 0x40 MLOAD PUSH1 0x20 DUP2 DUP4 SUB SUB DUP2 MSTORE SWAP1 PUSH1 0x40 MSTORE SWAP1 POP DUP1 SWAP2 POP POP SWAP2 SWAP1 POP JUMP JUMPDEST PUSH1 0x60 PUSH1 0x1 DUP3 SWAP1 DUP1 PUSH1 0x1 DUP2 SLOAD ADD DUP1 DUP3 SSTORE DUP1 SWAP2 POP POP PUSH1 0x1 SWAP1 SUB SWAP1 PUSH1 0x0 MSTORE PUSH1 0x20 PUSH1 0x0 KECCAK256 ADD PUSH1 0x0 SWAP1 SWAP2 SWAP1 SWAP2 SWAP1 SWAP2 POP SSTORE PUSH1 0x0 PUSH1 0x1 DUP1 SLOAD SWAP1 POP PUSH8 0xFFFFFFFFFFFFFFFF DUP2 GT ISZERO PUSH2 0x2FB JUMPI PUSH2 0x2FA PUSH2 0x590 JUMP JUMPDEST JUMPDEST PUSH1 0x40 MLOAD SWAP1 DUP1 DUP3 MSTORE DUP1 PUSH1 0x20 MUL PUSH1 0x20 ADD DUP3 ADD PUSH1 0x40 MSTORE DUP1 ISZERO PUSH2 0x329 JUMPI DUP2 PUSH1 0x20 ADD PUSH1 0x20 DUP3 MUL DUP1 CALLDATASIZE DUP4 CALLDATACOPY DUP1 DUP3 ADD SWAP2 POP POP SWAP1 POP JUMPDEST POP SWAP1 POP PUSH1 0x0 JUMPDEST PUSH1 0x1 DUP1 SLOAD SWAP1 POP DUP2 LT ISZERO PUSH2 0x38D JUMPI PUSH1 0x1 DUP2 DUP2 SLOAD DUP2 LT PUSH2 0x350 JUMPI PUSH2 0x34F PUSH2 0xA48 JUMP JUMPDEST JUMPDEST SWAP1 PUSH1 0x0 MSTORE PUSH1 0x20 PUSH1 0x0 KECCAK256 ADD SLOAD DUP3 DUP3 DUP2 MLOAD DUP2 LT PUSH2 0x36E JUMPI PUSH2 0x36D PUSH2 0xA48 JUMP JUMPDEST JUMPDEST PUSH1 0x20 MUL PUSH1 0x20 ADD ADD DUP2 DUP2 MSTORE POP POP DUP1 DUP1 PUSH2 0x385 SWAP1 PUSH2 0xAA6 JUMP JUMPDEST SWAP2 POP POP PUSH2 0x32F JUMP JUMPDEST POP DUP1 SWAP2 POP POP SWAP2 SWAP1 POP JUMP JUMPDEST PUSH32 0x0 DUP2 JUMP JUMPDEST PUSH1 0x1 DUP2 DUP2 SLOAD DUP2 LT PUSH2 0x3CB JUMPI PUSH1 0x0 DUP1 REVERT JUMPDEST SWAP1 PUSH1 0x0 MSTORE PUSH1 0x20 PUSH1 0x0 KECCAK256 ADD PUSH1 0x0 SWAP2 POP SWAP1 POP SLOAD DUP2 JUMP JUMPDEST PUSH1 0x0 DUP2 MLOAD SWAP1 POP SWAP2 SWAP1 POP JUMP JUMPDEST PUSH1 0x0 DUP3 DUP3 MSTORE PUSH1 0x20 DUP3 ADD SWAP1 POP SWAP3 SWAP2 POP POP JUMP JUMPDEST PUSH1 0x0 JUMPDEST DUP4 DUP2 LT ISZERO PUSH2 0x419 JUMPI DUP1 DUP3 ADD MLOAD DUP2 DUP5 ADD MSTORE PUSH1 0x20 DUP2 ADD SWAP1 POP PUSH2 0x3FE JUMP JUMPDEST PUSH1 0x0 DUP5 DUP5 ADD MSTORE POP POP POP POP JUMP JUMPDEST PUSH1 0x0 PUSH1 0x1F NOT PUSH1 0x1F DUP4 ADD AND SWAP1 POP SWAP2 SWAP1 POP JUMP JUMPDEST PUSH1 0x0 PUSH2 0x441 DUP3 PUSH2 0x3DF JUMP JUMPDEST PUSH2 0x44B DUP2 DUP6 PUSH2 0x3EA JUMP JUMPDEST SWAP4 POP PUSH2 0x45B DUP2 DUP6 PUSH1 0x20 DUP7 ADD PUSH2 0x3FB JUMP JUMPDEST PUSH2 0x464 DUP2 PUSH2 0x425 JUMP JUMPDEST DUP5 ADD SWAP2 POP POP SWAP3 SWAP2 POP POP JUMP JUMPDEST PUSH1 0x0 PUSH1 0x20 DUP3 ADD SWAP1 POP DUP2 DUP2 SUB PUSH1 0x0 DUP4 ADD MSTORE PUSH2 0x489 DUP2 DUP5 PUSH2 0x436 JUMP JUMPDEST SWAP1 POP SWAP3 SWAP2 POP POP JUMP JUMPDEST PUSH1 0x0 DUP2 SWAP1 POP SWAP2 SWAP1 POP JUMP JUMPDEST PUSH2 0x4A4 DUP2 PUSH2 0x491 JUMP JUMPDEST DUP3 MSTORE POP POP JUMP JUMPDEST PUSH1 0x0 PUSH1 0x20 DUP3 ADD SWAP1 POP PUSH2 0x4BF PUSH1 0x0 DUP4 ADD DUP5 PUSH2 0x49B JUMP JUMPDEST SWAP3 SWAP2 POP POP JUMP JUMPDEST PUSH1 0x0 PUSH1 0x40 MLOAD SWAP1 POP SWAP1 JUMP JUMPDEST PUSH1 0x0 DUP1 REVERT JUMPDEST PUSH1 0x0 DUP1 REVERT JUMPDEST PUSH1 0x0 DUP1 REVERT JUMPDEST PUSH1 0x0 DUP1 REVERT JUMPDEST PUSH1 0x0 DUP1 REVERT JUMPDEST PUSH1 0x0 DUP1 DUP4 PUSH1 0x1F DUP5 ADD SLT PUSH2 0x4FE JUMPI PUSH2 0x4FD PUSH2 0x4D9 JUMP JUMPDEST JUMPDEST DUP3 CALLDATALOAD SWAP1 POP PUSH8 0xFFFFFFFFFFFFFFFF DUP2 GT ISZERO PUSH2 0x51B JUMPI PUSH2 0x51A PUSH2 0x4DE JUMP JUMPDEST JUMPDEST PUSH1 0x20 DUP4 ADD SWAP2 POP DUP4 PUSH1 0x1 DUP3 MUL DUP4 ADD GT ISZERO PUSH2 0x537 JUMPI PUSH2 0x536 PUSH2 0x4E3 JUMP JUMPDEST JUMPDEST SWAP3 POP SWAP3 SWAP1 POP JUMP JUMPDEST PUSH1 0x0 DUP1 PUSH1 0x20 DUP4 DUP6 SUB SLT ISZERO PUSH2 0x555 JUMPI PUSH2 0x554 PUSH2 0x4CF JUMP JUMPDEST JUMPDEST PUSH1 0x0 DUP4 ADD CALLDATALOAD PUSH8 0xFFFFFFFFFFFFFFFF DUP2 GT ISZERO PUSH2 0x573 JUMPI PUSH2 0x572 PUSH2 0x4D4 JUMP JUMPDEST JUMPDEST PUSH2 0x57F DUP6 DUP3 DUP7 ADD PUSH2 0x4E8 JUMP JUMPDEST SWAP3 POP SWAP3 POP POP SWAP3 POP SWAP3 SWAP1 POP JUMP JUMPDEST PUSH1 0x0 DUP1 REVERT JUMPDEST PUSH32 0x4E487B7100000000000000000000000000000000000000000000000000000000 PUSH1 0x0 MSTORE PUSH1 0x41 PUSH1 0x4 MSTORE PUSH1 0x24 PUSH1 0x0 REVERT JUMPDEST PUSH2 0x5C8 DUP3 PUSH2 0x425 JUMP JUMPDEST DUP2 ADD DUP2 DUP2 LT PUSH8 0xFFFFFFFFFFFFFFFF DUP3 GT OR ISZERO PUSH2 0x5E7 JUMPI PUSH2 0x5E6 PUSH2 0x590 JUMP JUMPDEST JUMPDEST DUP1 PUSH1 0x40 MSTORE POP POP POP JUMP JUMPDEST PUSH1 0x0 PUSH2 0x5FA PUSH2 0x4C5 JUMP JUMPDEST SWAP1 POP PUSH2 0x606 DUP3 DUP3 PUSH2 0x5BF JUMP JUMPDEST SWAP2 SWAP1 POP JUMP JUMPDEST PUSH1 0x0 PUSH8 0xFFFFFFFFFFFFFFFF DUP3 GT ISZERO PUSH2 0x626 JUMPI PUSH2 0x625 PUSH2 0x590 JUMP JUMPDEST JUMPDEST PUSH2 0x62F DUP3 PUSH2 0x425 JUMP JUMPDEST SWAP1 POP PUSH1 0x20 DUP2 ADD SWAP1 POP SWAP2 SWAP1 POP JUMP JUMPDEST DUP3 DUP2 DUP4 CALLDATACOPY PUSH1 0x0 DUP4 DUP4 ADD MSTORE POP POP POP JUMP JUMPDEST PUSH1 0x0 PUSH2 0x65E PUSH2 0x659 DUP5 PUSH2 0x60B JUMP JUMPDEST PUSH2 0x5F0 JUMP JUMPDEST SWAP1 POP DUP3 DUP2 MSTORE PUSH1 0x20 DUP2 ADD DUP5 DUP5 DUP5 ADD GT ISZERO PUSH2 0x67A JUMPI PUSH2 0x679 PUSH2 0x58B JUMP JUMPDEST JUMPDEST PUSH2 0x685 DUP5 DUP3 DUP6 PUSH2 0x63C JUMP JUMPDEST POP SWAP4 SWAP3 POP POP POP JUMP JUMPDEST PUSH1 0x0 DUP3 PUSH1 0x1F DUP4 ADD SLT PUSH2 0x6A2 JUMPI PUSH2 0x6A1 PUSH2 0x4D9 JUMP JUMPDEST JUMPDEST DUP2 CALLDATALOAD PUSH2 0x6B2 DUP5 DUP3 PUSH1 0x20 DUP7 ADD PUSH2 0x64B JUMP JUMPDEST SWAP2 POP POP SWAP3 SWAP2 POP POP JUMP JUMPDEST PUSH1 0x0 PUSH1 0x20 DUP3 DUP5 SUB SLT ISZERO PUSH2 0x6D1 JUMPI PUSH2 0x6D0 PUSH2 0x4CF JUMP JUMPDEST JUMPDEST PUSH1 0x0 DUP3 ADD CALLDATALOAD PUSH8 0xFFFFFFFFFFFFFFFF DUP2 GT ISZERO PUSH2 0x6EF JUMPI PUSH2 0x6EE PUSH2 0x4D4 JUMP JUMPDEST JUMPDEST PUSH2 0x6FB DUP5 DUP3 DUP6 ADD PUSH2 0x68D JUMP JUMPDEST SWAP2 POP POP SWAP3 SWAP2 POP POP JUMP JUMPDEST PUSH2 0x70D DUP2 PUSH2 0x491 JUMP JUMPDEST DUP2 EQ PUSH2 0x718 JUMPI PUSH1 0x0 DUP1 REVERT JUMPDEST POP JUMP JUMPDEST PUSH1 0x0 DUP2 CALLDATALOAD SWAP1 POP PUSH2 0x72A DUP2 PUSH2 0x704 JUMP JUMPDEST SWAP3 SWAP2 POP POP JUMP JUMPDEST PUSH1 0x0 PUSH1 0x20 DUP3 DUP5 SUB SLT ISZERO PUSH2 0x746 JUMPI PUSH2 0x745 PUSH2 0x4CF JUMP JUMPDEST JUMPDEST PUSH1 0x0 PUSH2 0x754 DUP5 DUP3 DUP6 ADD PUSH2 0x71B JUMP JUMPDEST SWAP2 POP POP SWAP3 SWAP2 POP POP JUMP JUMPDEST PUSH1 0x0 DUP2 MLOAD SWAP1 POP SWAP2 SWAP1 POP JUMP JUMPDEST PUSH1 0x0 DUP3 DUP3 MSTORE PUSH1 0x20 DUP3 ADD SWAP1 POP SWAP3 SWAP2 POP POP JUMP JUMPDEST PUSH1 0x0 DUP2 SWAP1 POP PUSH1 0x20 DUP3 ADD SWAP1 POP SWAP2 SWAP1 POP JUMP JUMPDEST PUSH2 0x792 DUP2 PUSH2 0x491 JUMP JUMPDEST DUP3 MSTORE POP POP JUMP JUMPDEST PUSH1 0x0 PUSH2 0x7A4 DUP4 DUP4 PUSH2 0x789 JUMP JUMPDEST PUSH1 0x20 DUP4 ADD SWAP1 POP SWAP3 SWAP2 POP POP JUMP JUMPDEST PUSH1 0x0 PUSH1 0x20 DUP3 ADD SWAP1 POP SWAP2 SWAP1 POP JUMP JUMPDEST PUSH1 0x0 PUSH2 0x7C8 DUP3 PUSH2 0x75D JUMP JUMPDEST PUSH2 0x7D2 DUP2 DUP6 PUSH2 0x768 JUMP JUMPDEST SWAP4 POP PUSH2 0x7DD DUP4 PUSH2 0x779 JUMP JUMPDEST DUP1 PUSH1 0x0 JUMPDEST DUP4 DUP2 LT ISZERO PUSH2 0x80E JUMPI DUP2 MLOAD PUSH2 0x7F5 DUP9 DUP3 PUSH2 0x798 JUMP JUMPDEST SWAP8 POP PUSH2 0x800 DUP4 PUSH2 0x7B0 JUMP JUMPDEST SWAP3 POP POP PUSH1 0x1 DUP2 ADD SWAP1 POP PUSH2 0x7E1 JUMP JUMPDEST POP DUP6 SWAP4 POP POP POP POP SWAP3 SWAP2 POP POP JUMP JUMPDEST PUSH1 0x0 PUSH1 0x20 DUP3 ADD SWAP1 POP DUP2 DUP2 SUB PUSH1 0x0 DUP4 ADD MSTORE PUSH2 0x835 DUP2 DUP5 PUSH2 0x7BD JUMP JUMPDEST SWAP1 POP SWAP3 SWAP2 POP POP JUMP JUMPDEST PUSH1 0x0 PUSH20 0xFFFFFFFFFFFFFFFFFFFFFFFFFFFFFFFFFFFFFFFF DUP3 AND SWAP1 POP SWAP2 SWAP1 POP JUMP JUMPDEST PUSH1 0x0 PUSH2 0x868 DUP3 PUSH2 0x83D JUMP JUMPDEST SWAP1 POP SWAP2 SWAP1 POP JUMP JUMPDEST PUSH2 0x878 DUP2 PUSH2 0x85D JUMP JUMPDEST DUP3 MSTORE POP POP JUMP JUMPDEST PUSH1 0x0 PUSH1 0x20 DUP3 ADD SWAP1 POP PUSH2 0x893 PUSH1 0x0 DUP4 ADD DUP5 PUSH2 0x86F JUMP JUMPDEST SWAP3 SWAP2 POP POP JUMP JUMPDEST PUSH32 0x4E487B7100000000000000000000000000000000000000000000000000000000 PUSH1 0x0 MSTORE PUSH1 0x22 PUSH1 0x4 MSTORE PUSH1 0x24 PUSH1 0x0 REVERT JUMPDEST PUSH1 0x0 PUSH1 0x2 DUP3 DIV SWAP1 POP PUSH1 0x1 DUP3 AND DUP1 PUSH2 0x8E0 JUMPI PUSH1 0x7F DUP3 AND SWAP2 POP JUMPDEST PUSH1 0x20 DUP3 LT DUP2 SUB PUSH2 0x8F3 JUMPI PUSH2 0x8F2 PUSH2 0x899 JUMP JUMPDEST JUMPDEST POP SWAP2 SWAP1 POP JUMP JUMPDEST PUSH1 0x0 DUP2 SWAP1 POP SWAP3 SWAP2 POP POP JUMP JUMPDEST PUSH1 0x0 DUP2 SWAP1 POP DUP2 PUSH1 0x0 MSTORE PUSH1 0x20 PUSH1 0x0 KECCAK256 SWAP1 POP SWAP2 SWAP1 POP JUMP JUMPDEST PUSH1 0x0 DUP2 SLOAD PUSH2 0x926 DUP2 PUSH2 0x8C8 JUMP JUMPDEST PUSH2 0x930 DUP2 DUP7 PUSH2 0x8F9 JUMP JUMPDEST SWAP5 POP PUSH1 0x1 DUP3 AND PUSH1 0x0 DUP2 EQ PUSH2 0x94B JUMPI PUSH1 0x1 DUP2 EQ PUSH2 0x960 JUMPI PUSH2 0x993 JUMP JUMPDEST PUSH1 0xFF NOT DUP4 AND DUP7 MSTORE DUP2 ISZERO ISZERO DUP3 MUL DUP7 ADD SWAP4 POP PUSH2 0x993 JUMP JUMPDEST PUSH2 0x969 DUP6 PUSH2 0x904 JUMP JUMPDEST PUSH1 0x0 JUMPDEST DUP4 DUP2 LT ISZERO PUSH2 0x98B JUMPI DUP2 SLOAD DUP2 DUP10 ADD MSTORE PUSH1 0x1 DUP3 ADD SWAP2 POP PUSH1 0x20 DUP2 ADD SWAP1 POP PUSH2 0x96C JUMP JUMPDEST DUP4 DUP9 ADD SWAP6 POP POP POP JUMPDEST POP POP POP SWAP3 SWAP2 POP POP JUMP JUMPDEST PUSH32 0x202B200000000000000000000000000000000000000000000000000000000000 PUSH1 0x0 DUP3 ADD MSTORE POP JUMP JUMPDEST PUSH1 0x0 PUSH2 0x9D2 PUSH1 0x3 DUP4 PUSH2 0x8F9 JUMP JUMPDEST SWAP2 POP PUSH2 0x9DD DUP3 PUSH2 0x99C JUMP JUMPDEST PUSH1 0x3 DUP3 ADD SWAP1 POP SWAP2 SWAP1 POP JUMP JUMPDEST PUSH1 0x0 PUSH2 0x9F3 DUP3 PUSH2 0x3DF JUMP JUMPDEST PUSH2 0x9FD DUP2 DUP6 PUSH2 0x8F9 JUMP JUMPDEST SWAP4 POP PUSH2 0xA0D DUP2 DUP6 PUSH1 0x20 DUP7 ADD PUSH2 0x3FB JUMP JUMPDEST DUP1 DUP5 ADD SWAP2 POP POP SWAP3 SWAP2 POP POP JUMP JUMPDEST PUSH1 0x0 PUSH2 0xA25 DUP3 DUP6 PUSH2 0x919 JUMP JUMPDEST SWAP2 POP PUSH2 0xA30 DUP3 PUSH2 0x9C5 JUMP JUMPDEST SWAP2 POP PUSH2 0xA3C DUP3 DUP5 PUSH2 0x9E8 JUMP JUMPDEST SWAP2 POP DUP2 SWAP1 POP SWAP4 SWAP3 POP POP POP JUMP JUMPDEST PUSH32 0x4E487B7100000000000000000000000000000000000000000000000000000000 PUSH1 0x0 MSTORE PUSH1 0x32 PUSH1 0x4 MSTORE PUSH1 0x24 PUSH1 0x0 REVERT JUMPDEST PUSH32 0x4E487B7100000000000000000000000000000000000000000000000000000000 PUSH1 0x0 MSTORE PUSH1 0x11 PUSH1 0x4 MSTORE PUSH1 0x24 PUSH1 0x0 REVERT JUMPDEST PUSH1 0x0 PUSH2 0xAB1 DUP3 PUSH2 0x491 JUMP JUMPDEST SWAP2 POP PUSH32 0xFFFFFFFFFFFFFFFFFFFFFFFFFFFFFFFFFFFFFFFFFFFFFFFFFFFFFFFFFFFFFFFF DUP3 SUB PUSH2 0xAE3 JUMPI PUSH2 0xAE2 PUSH2 0xA77 JUMP JUMPDEST JUMPDEST PUSH1 0x1 DUP3 ADD SWAP1 POP SWAP2 SWAP1 POP JUMP INVALID LOG2 PUSH5 0x6970667358 0x22 SLT KECCAK256 0xEF RETURNDATACOPY 0xE5 JUMP PUSH25 0x8FA2D93791E7914413669392301DB0A4700227DEA439CB67CA DUP2 0xA5 PUSH5 0x736F6C6343 STOP ADDMOD LT STOP CALLER SLOAD PUSH9 0x69732069732073746F PUSH19 0x656420696E20626C6F636B636861696E207374 PUSH16 0x72616765000000000000000000000000 "
				},
				"gasEstimates": {
					"creation": {
						"codeDepositCost": "570400",
						"executionCost": "infinite",
						"totalCost": "infinite"
					},
					"external": {
						"DEPLOYER()": "infinite",
						"MAX_NUMBERS()": "352",
						"concatenateString(string)": "infinite",
						"numbers(uint256)": "infinite",
						"processString(string)": "infinite",
						"storedData()": "infinite",
						"updateAndReturn(uint256)": "infinite"
					}
				},
				"methodIdentifiers": {
					"DEPLOYER()": "c1b8411a",
					"MAX_NUMBERS()": "5998e635",
					"concatenateString(string)": "b39e12b5",
					"numbers(uint256)": "d39fa233",
					"processString(string)": "7c216809",
					"storedData()": "2a1afcd9",
					"updateAndReturn(uint256)": "b9b6d6e4"
				}
			},
			"storageLayout": {
				"storage": [
					{
						"astId": 4,
						"contract": "contracts/vsdv.sol:VariableTypes",
						"label": "storedData",
						"offset": 0,
						"slot": "0",
						"type": "t_string_storage"
					},
					{
						"astId": 7,
						"contract": "contracts/vsdv.sol:VariableTypes",
						"label": "numbers",
						"offset": 0,
						"slot": "1",
						"type": "t_array(t_uint256)dyn_storage"
					}
				],
				"types": {
					"t_array(t_uint256)dyn_storage": {
						"base": "t_uint256",
						"encoding": "dynamic_array",
						"label": "uint256[]",
						"numberOfBytes": "32"
					},
					"t_string_storage": {
						"encoding": "bytes",
						"label": "string",
						"numberOfBytes": "32"
					},
					"t_uint256": {
						"encoding": "inplace",
						"label": "uint256",
						"numberOfBytes": "32"
					}
				}
			},
			"userdoc": {
				"kind": "user",
				"methods": {},
				"version": 1
			}
		}
	}
}