{
	"contracts/vds.sol": {
		"GasOptimization": {
			"abi": [
				{
					"anonymous": false,
					"inputs": [
						{
							"indexed": false,
							"internalType": "uint256",
							"name": "newValue",
							"type": "uint256"
						}
					],
					"name": "ValueChanged",
					"type": "event"
				},
				{
					"inputs": [],
					"name": "HASH",
					"outputs": [
						{
							"internalType": "bytes32",
							"name": "",
							"type": "bytes32"
						}
					],
					"stateMutability": "view",
					"type": "function"
				},
				{
					"inputs": [
						{
							"internalType": "uint256[]",
							"name": "newValues",
							"type": "uint256[]"
						}
					],
					"name": "addMultipleValues",
					"outputs": [],
					"stateMutability": "nonpayable",
					"type": "function"
				},
				{
					"inputs": [],
					"name": "bigNumber",
					"outputs": [
						{
							"internalType": "uint256",
							"name": "",
							"type": "uint256"
						}
					],
					"stateMutability": "view",
					"type": "function"
				},
				{
					"inputs": [
						{
							"internalType": "uint256",
							"name": "x",
							"type": "uint256"
						},
						{
							"internalType": "uint256",
							"name": "y",
							"type": "uint256"
						}
					],
					"name": "complexCheck",
					"outputs": [
						{
							"internalType": "bool",
							"name": "",
							"type": "bool"
						}
					],
					"stateMutability": "pure",
					"type": "function"
				},
				{
					"inputs": [
						{
							"internalType": "uint256",
							"name": "",
							"type": "uint256"
						}
					],
					"name": "fixedArray",
					"outputs": [
						{
							"internalType": "uint256",
							"name": "",
							"type": "uint256"
						}
					],
					"stateMutability": "view",
					"type": "function"
				},
				{
					"inputs": [],
					"name": "flag",
					"outputs": [
						{
							"internalType": "bool",
							"name": "",
							"type": "bool"
						}
					],
					"stateMutability": "view",
					"type": "function"
				},
				{
					"inputs": [],
					"name": "number1",
					"outputs": [
						{
							"internalType": "uint128",
							"name": "",
							"type": "uint128"
						}
					],
					"stateMutability": "view",
					"type": "function"
				},
				{
					"inputs": [],
					"name": "number2",
					"outputs": [
						{
							"internalType": "uint96",
							"name": "",
							"type": "uint96"
						}
					],
					"stateMutability": "view",
					"type": "function"
				},
				{
					"inputs": [],
					"name": "number3",
					"outputs": [
						{
							"internalType": "uint16",
							"name": "",
							"type": "uint16"
						}
					],
					"stateMutability": "view",
					"type": "function"
				},
				{
					"inputs": [],
					"name": "number4",
					"outputs": [
						{
							"internalType": "uint8",
							"name": "",
							"type": "uint8"
						}
					],
					"stateMutability": "view",
					"type": "function"
				},
				{
					"inputs": [
						{
							"internalType": "uint256[]",
							"name": "arr",
							"type": "uint256[]"
						}
					],
					"name": "processArray",
					"outputs": [
						{
							"internalType": "uint256",
							"name": "",
							"type": "uint256"
						}
					],
					"stateMutability": "pure",
					"type": "function"
				},
				{
					"inputs": [
						{
							"internalType": "string",
							"name": "str",
							"type": "string"
						}
					],
					"name": "processString",
					"outputs": [
						{
							"internalType": "bytes32",
							"name": "",
							"type": "bytes32"
						}
					],
					"stateMutability": "pure",
					"type": "function"
				},
				{
					"inputs": [],
					"name": "smallNumber",
					"outputs": [
						{
							"internalType": "uint8",
							"name": "",
							"type": "uint8"
						}
					],
					"stateMutability": "view",
					"type": "function"
				},
				{
					"inputs": [
						{
							"internalType": "uint256[]",
							"name": "arr",
							"type": "uint256[]"
						}
					],
					"name": "sumArray",
					"outputs": [
						{
							"internalType": "uint256",
							"name": "",
							"type": "uint256"
						}
					],
					"stateMutability": "pure",
					"type": "function"
				},
				{
					"inputs": [
						{
							"internalType": "uint256",
							"name": "",
							"type": "uint256"
						}
					],
					"name": "values",
					"outputs": [
						{
							"internalType": "uint256",
							"name": "",
							"type": "uint256"
						}
					],
					"stateMutability": "view",
					"type": "function"
				}
			],
			"devdoc": {
				"kind": "dev",
				"methods": {},
				"version": 1
			},
			"evm": {
				"assembly": "    /* \"contracts/vds.sol\":61:2197  contract GasOptimization {... */\n  mstore(0x40, 0x80)\n  callvalue\n  dup1\n  iszero\n  tag_1\n  jumpi\n  0x00\n  dup1\n  revert\ntag_1:\n  pop\n  dataSize(sub_0)\n  dup1\n  dataOffset(sub_0)\n  0x00\n  codecopy\n  0x00\n  return\nstop\n\nsub_0: assembly {\n        /* \"contracts/vds.sol\":61:2197  contract GasOptimization {... */\n      mstore(0x40, 0x80)\n      callvalue\n      dup1\n      iszero\n      tag_1\n      jumpi\n      0x00\n      dup1\n      revert\n    tag_1:\n      pop\n      jumpi(tag_2, lt(calldatasize, 0x04))\n      shr(0xe0, calldataload(0x00))\n      dup1\n      0x890eba68\n      gt\n      tag_18\n      jumpi\n      dup1\n      0xc223a39e\n      gt\n      tag_19\n      jumpi\n      dup1\n      0xc223a39e\n      eq\n      tag_14\n      jumpi\n      dup1\n      0xc6cfdbd1\n      eq\n      tag_15\n      jumpi\n      dup1\n      0xd6980dfd\n      eq\n      tag_16\n      jumpi\n      dup1\n      0xe7e23780\n      eq\n      tag_17\n      jumpi\n      jump(tag_2)\n    tag_19:\n      dup1\n      0x890eba68\n      eq\n      tag_10\n      jumpi\n      dup1\n      0x90c52443\n      eq\n      tag_11\n      jumpi\n      dup1\n      0x9a5009ac\n      eq\n      tag_12\n      jumpi\n      dup1\n      0xbc56fd47\n      eq\n      tag_13\n      jumpi\n      jump(tag_2)\n    tag_18:\n      dup1\n      0x5e383d21\n      gt\n      tag_20\n      jumpi\n      dup1\n      0x5e383d21\n      eq\n      tag_6\n      jumpi\n      dup1\n      0x6670cde0\n      eq\n      tag_7\n      jumpi\n      dup1\n      0x7c216809\n      eq\n      tag_8\n      jumpi\n      dup1\n      0x86c72429\n      eq\n      tag_9\n      jumpi\n      jump(tag_2)\n    tag_20:\n      dup1\n      0x0322ed08\n      eq\n      tag_3\n      jumpi\n      dup1\n      0x1e2aea06\n      eq\n      tag_4\n      jumpi\n      dup1\n      0x45964e9e\n      eq\n      tag_5\n      jumpi\n    tag_2:\n      0x00\n      dup1\n      revert\n        /* \"contracts/vds.sol\":694:746  bytes32 public constant HASH = keccak256(\"MyString\") */\n    tag_3:\n      tag_21\n      tag_22\n      jump\t// in\n    tag_21:\n      mload(0x40)\n      tag_23\n      swap2\n      swap1\n      tag_24\n      jump\t// in\n    tag_23:\n      mload(0x40)\n      dup1\n      swap2\n      sub\n      swap1\n      return\n        /* \"contracts/vds.sol\":885:1142  function sumArray(uint256[] calldata arr) public pure returns (uint256) {... */\n    tag_4:\n      tag_25\n      0x04\n      dup1\n      calldatasize\n      sub\n      dup2\n      add\n      swap1\n      tag_26\n      swap2\n      swap1\n      tag_27\n      jump\t// in\n    tag_26:\n      tag_28\n      jump\t// in\n    tag_25:\n      mload(0x40)\n      tag_29\n      swap2\n      swap1\n      tag_30\n      jump\t// in\n    tag_29:\n      mload(0x40)\n      dup1\n      swap2\n      sub\n      swap1\n      return\n        /* \"contracts/vds.sol\":465:489  uint256 public bigNumber */\n    tag_5:\n      tag_31\n      tag_32\n      jump\t// in\n    tag_31:\n      mload(0x40)\n      tag_33\n      swap2\n      swap1\n      tag_30\n      jump\t// in\n    tag_33:\n      mload(0x40)\n      dup1\n      swap2\n      sub\n      swap1\n      return\n        /* \"contracts/vds.sol\":1950:1973  uint256[] public values */\n    tag_6:\n      tag_34\n      0x04\n      dup1\n      calldatasize\n      sub\n      dup2\n      add\n      swap1\n      tag_35\n      swap2\n      swap1\n      tag_36\n      jump\t// in\n    tag_35:\n      tag_37\n      jump\t// in\n    tag_34:\n      mload(0x40)\n      tag_38\n      swap2\n      swap1\n      tag_30\n      jump\t// in\n    tag_38:\n      mload(0x40)\n      dup1\n      swap2\n      sub\n      swap1\n      return\n        /* \"contracts/vds.sol\":510:534  uint8 public smallNumber */\n    tag_7:\n      tag_39\n      tag_40\n      jump\t// in\n    tag_39:\n      mload(0x40)\n      tag_41\n      swap2\n      swap1\n      tag_42\n      jump\t// in\n    tag_41:\n      mload(0x40)\n      dup1\n      swap2\n      sub\n      swap1\n      return\n        /* \"contracts/vds.sol\":1780:1901  function processString(string calldata str) public pure returns (bytes32) {... */\n    tag_8:\n      tag_43\n      0x04\n      dup1\n      calldatasize\n      sub\n      dup2\n      add\n      swap1\n      tag_44\n      swap2\n      swap1\n      tag_45\n      jump\t// in\n    tag_44:\n      tag_46\n      jump\t// in\n    tag_43:\n      mload(0x40)\n      tag_47\n      swap2\n      swap1\n      tag_24\n      jump\t// in\n    tag_47:\n      mload(0x40)\n      dup1\n      swap2\n      sub\n      swap1\n      return\n        /* \"contracts/vds.sol\":332:352  uint8 public number4 */\n    tag_9:\n      tag_48\n      tag_49\n      jump\t// in\n    tag_48:\n      mload(0x40)\n      tag_50\n      swap2\n      swap1\n      tag_42\n      jump\t// in\n    tag_50:\n      mload(0x40)\n      dup1\n      swap2\n      sub\n      swap1\n      return\n        /* \"contracts/vds.sol\":375:391  bool public flag */\n    tag_10:\n      tag_51\n      tag_52\n      jump\t// in\n    tag_51:\n      mload(0x40)\n      tag_53\n      swap2\n      swap1\n      tag_54\n      jump\t// in\n    tag_53:\n      mload(0x40)\n      dup1\n      swap2\n      sub\n      swap1\n      return\n        /* \"contracts/vds.sol\":243:264  uint96 public number2 */\n    tag_11:\n      tag_55\n      tag_56\n      jump\t// in\n    tag_55:\n      mload(0x40)\n      tag_57\n      swap2\n      swap1\n      tag_58\n      jump\t// in\n    tag_57:\n      mload(0x40)\n      dup1\n      swap2\n      sub\n      swap1\n      return\n        /* \"contracts/vds.sol\":627:653  uint[10] public fixedArray */\n    tag_12:\n      tag_59\n      0x04\n      dup1\n      calldatasize\n      sub\n      dup2\n      add\n      swap1\n      tag_60\n      swap2\n      swap1\n      tag_36\n      jump\t// in\n    tag_60:\n      tag_61\n      jump\t// in\n    tag_59:\n      mload(0x40)\n      tag_62\n      swap2\n      swap1\n      tag_30\n      jump\t// in\n    tag_62:\n      mload(0x40)\n      dup1\n      swap2\n      sub\n      swap1\n      return\n        /* \"contracts/vds.sol\":1986:2194  function addMultipleValues(uint256[] calldata newValues) public {... */\n    tag_13:\n      tag_63\n      0x04\n      dup1\n      calldatasize\n      sub\n      dup2\n      add\n      swap1\n      tag_64\n      swap2\n      swap1\n      tag_27\n      jump\t// in\n    tag_64:\n      tag_65\n      jump\t// in\n    tag_63:\n      stop\n        /* \"contracts/vds.sol\":198:220  uint128 public number1 */\n    tag_14:\n      tag_66\n      tag_67\n      jump\t// in\n    tag_66:\n      mload(0x40)\n      tag_68\n      swap2\n      swap1\n      tag_69\n      jump\t// in\n    tag_68:\n      mload(0x40)\n      dup1\n      swap2\n      sub\n      swap1\n      return\n        /* \"contracts/vds.sol\":1188:1351  function complexCheck(uint256 x, uint256 y) public pure returns (bool) {... */\n    tag_15:\n      tag_70\n      0x04\n      dup1\n      calldatasize\n      sub\n      dup2\n      add\n      swap1\n      tag_71\n      swap2\n      swap1\n      tag_72\n      jump\t// in\n    tag_71:\n      tag_73\n      jump\t// in\n    tag_70:\n      mload(0x40)\n      tag_74\n      swap2\n      swap1\n      tag_54\n      jump\t// in\n    tag_74:\n      mload(0x40)\n      dup1\n      swap2\n      sub\n      swap1\n      return\n        /* \"contracts/vds.sol\":288:309  uint16 public number3 */\n    tag_16:\n      tag_75\n      tag_76\n      jump\t// in\n    tag_75:\n      mload(0x40)\n      tag_77\n      swap2\n      swap1\n      tag_78\n      jump\t// in\n    tag_77:\n      mload(0x40)\n      dup1\n      swap2\n      sub\n      swap1\n      return\n        /* \"contracts/vds.sol\":1601:1709  function processArray(uint256[] calldata arr) public pure returns (uint256) {... */\n    tag_17:\n      tag_79\n      0x04\n      dup1\n      calldatasize\n      sub\n      dup2\n      add\n      swap1\n      tag_80\n      swap2\n      swap1\n      tag_27\n      jump\t// in\n    tag_80:\n      tag_81\n      jump\t// in\n    tag_79:\n      mload(0x40)\n      tag_82\n      swap2\n      swap1\n      tag_30\n      jump\t// in\n    tag_82:\n      mload(0x40)\n      dup1\n      swap2\n      sub\n      swap1\n      return\n        /* \"contracts/vds.sol\":694:746  bytes32 public constant HASH = keccak256(\"MyString\") */\n    tag_22:\n        /* \"contracts/vds.sol\":725:746  keccak256(\"MyString\") */\n      0x853493f56f99a724810d046e60d8e68c31a4651d80fe52d324631d8f22b5846b\n        /* \"contracts/vds.sol\":694:746  bytes32 public constant HASH = keccak256(\"MyString\") */\n      dup2\n      jump\t// out\n        /* \"contracts/vds.sol\":885:1142  function sumArray(uint256[] calldata arr) public pure returns (uint256) {... */\n    tag_28:\n        /* \"contracts/vds.sol\":948:955  uint256 */\n      0x00\n        /* \"contracts/vds.sol\":968:979  uint256 sum */\n      dup1\n        /* \"contracts/vds.sol\":1019:1028  uint256 i */\n      0x00\n        /* \"contracts/vds.sol\":1015:1103  for(uint256 i = 0; i < arr.length; i++) {... */\n    tag_84:\n        /* \"contracts/vds.sol\":1038:1041  arr */\n      dup5\n      dup5\n        /* \"contracts/vds.sol\":1038:1048  arr.length */\n      swap1\n      pop\n        /* \"contracts/vds.sol\":1034:1035  i */\n      dup2\n        /* \"contracts/vds.sol\":1034:1048  i < arr.length */\n      lt\n        /* \"contracts/vds.sol\":1015:1103  for(uint256 i = 0; i < arr.length; i++) {... */\n      iszero\n      tag_85\n      jumpi\n        /* \"contracts/vds.sol\":1081:1084  arr */\n      dup5\n      dup5\n        /* \"contracts/vds.sol\":1085:1086  i */\n      dup3\n        /* \"contracts/vds.sol\":1081:1087  arr[i] */\n      dup2\n      dup2\n      lt\n      tag_87\n      jumpi\n      tag_88\n      tag_89\n      jump\t// in\n    tag_88:\n    tag_87:\n      swap1\n      pop\n      0x20\n      mul\n      add\n      calldataload\n        /* \"contracts/vds.sol\":1074:1087  sum += arr[i] */\n      dup3\n      add\n      swap2\n      pop\n        /* \"contracts/vds.sol\":1050:1053  i++ */\n      dup1\n      dup1\n      0x01\n      add\n      swap2\n      pop\n      pop\n        /* \"contracts/vds.sol\":1015:1103  for(uint256 i = 0; i < arr.length; i++) {... */\n      jump(tag_84)\n    tag_85:\n      pop\n        /* \"contracts/vds.sol\":1131:1134  sum */\n      dup1\n        /* \"contracts/vds.sol\":1124:1134  return sum */\n      swap2\n      pop\n      pop\n        /* \"contracts/vds.sol\":885:1142  function sumArray(uint256[] calldata arr) public pure returns (uint256) {... */\n      swap3\n      swap2\n      pop\n      pop\n      jump\t// out\n        /* \"contracts/vds.sol\":465:489  uint256 public bigNumber */\n    tag_32:\n      sload(0x01)\n      dup2\n      jump\t// out\n        /* \"contracts/vds.sol\":1950:1973  uint256[] public values */\n    tag_37:\n      0x0d\n      dup2\n      dup2\n      sload\n      dup2\n      lt\n      tag_90\n      jumpi\n      0x00\n      dup1\n      revert\n    tag_90:\n      swap1\n      0x00\n      mstore\n      keccak256(0x00, 0x20)\n      add\n      0x00\n      swap2\n      pop\n      swap1\n      pop\n      sload\n      dup2\n      jump\t// out\n        /* \"contracts/vds.sol\":510:534  uint8 public smallNumber */\n    tag_40:\n      0x02\n      0x00\n      swap1\n      sload\n      swap1\n      0x0100\n      exp\n      swap1\n      div\n      0xff\n      and\n      dup2\n      jump\t// out\n        /* \"contracts/vds.sol\":1780:1901  function processString(string calldata str) public pure returns (bytes32) {... */\n    tag_46:\n        /* \"contracts/vds.sol\":1845:1852  bytes32 */\n      0x00\n        /* \"contracts/vds.sol\":1888:1891  str */\n      dup3\n      dup3\n        /* \"contracts/vds.sol\":1872:1893  keccak256(bytes(str)) */\n      mload(0x40)\n      tag_93\n      swap3\n      swap2\n      swap1\n      tag_94\n      jump\t// in\n    tag_93:\n      mload(0x40)\n      dup1\n      swap2\n      sub\n      swap1\n      keccak256\n        /* \"contracts/vds.sol\":1865:1893  return keccak256(bytes(str)) */\n      swap1\n      pop\n        /* \"contracts/vds.sol\":1780:1901  function processString(string calldata str) public pure returns (bytes32) {... */\n      swap3\n      swap2\n      pop\n      pop\n      jump\t// out\n        /* \"contracts/vds.sol\":332:352  uint8 public number4 */\n    tag_49:\n      0x00\n      0x1e\n      swap1\n      sload\n      swap1\n      0x0100\n      exp\n      swap1\n      div\n      0xff\n      and\n      dup2\n      jump\t// out\n        /* \"contracts/vds.sol\":375:391  bool public flag */\n    tag_52:\n      0x00\n      0x1f\n      swap1\n      sload\n      swap1\n      0x0100\n      exp\n      swap1\n      div\n      0xff\n      and\n      dup2\n      jump\t// out\n        /* \"contracts/vds.sol\":243:264  uint96 public number2 */\n    tag_56:\n      0x00\n      0x10\n      swap1\n      sload\n      swap1\n      0x0100\n      exp\n      swap1\n      div\n      0xffffffffffffffffffffffff\n      and\n      dup2\n      jump\t// out\n        /* \"contracts/vds.sol\":627:653  uint[10] public fixedArray */\n    tag_61:\n      0x03\n      dup2\n      0x0a\n      dup2\n      lt\n      tag_95\n      jumpi\n      0x00\n      dup1\n      revert\n    tag_95:\n      add\n      0x00\n      swap2\n      pop\n      swap1\n      pop\n      sload\n      dup2\n      jump\t// out\n        /* \"contracts/vds.sol\":1986:2194  function addMultipleValues(uint256[] calldata newValues) public {... */\n    tag_65:\n        /* \"contracts/vds.sol\":2061:2072  uint256 len */\n      0x00\n        /* \"contracts/vds.sol\":2075:2084  newValues */\n      dup3\n      dup3\n        /* \"contracts/vds.sol\":2075:2091  newValues.length */\n      swap1\n      pop\n        /* \"contracts/vds.sol\":2061:2091  uint256 len = newValues.length */\n      swap1\n      pop\n        /* \"contracts/vds.sol\":2106:2115  uint256 i */\n      0x00\n        /* \"contracts/vds.sol\":2102:2187  for(uint256 i = 0; i < len; i++) {... */\n    tag_98:\n        /* \"contracts/vds.sol\":2125:2128  len */\n      dup2\n        /* \"contracts/vds.sol\":2121:2122  i */\n      dup2\n        /* \"contracts/vds.sol\":2121:2128  i < len */\n      lt\n        /* \"contracts/vds.sol\":2102:2187  for(uint256 i = 0; i < len; i++) {... */\n      iszero\n      tag_99\n      jumpi\n        /* \"contracts/vds.sol\":2150:2156  values */\n      0x0d\n        /* \"contracts/vds.sol\":2162:2171  newValues */\n      dup5\n      dup5\n        /* \"contracts/vds.sol\":2172:2173  i */\n      dup4\n        /* \"contracts/vds.sol\":2162:2174  newValues[i] */\n      dup2\n      dup2\n      lt\n      tag_101\n      jumpi\n      tag_102\n      tag_89\n      jump\t// in\n    tag_102:\n    tag_101:\n      swap1\n      pop\n      0x20\n      mul\n      add\n      calldataload\n        /* \"contracts/vds.sol\":2150:2175  values.push(newValues[i]) */\n      swap1\n      dup1\n      0x01\n      dup2\n      sload\n      add\n      dup1\n      dup3\n      sstore\n      dup1\n      swap2\n      pop\n      pop\n      0x01\n      swap1\n      sub\n      swap1\n      0x00\n      mstore\n      keccak256(0x00, 0x20)\n      add\n      0x00\n      swap1\n      swap2\n      swap1\n      swap2\n      swap1\n      swap2\n      pop\n      sstore\n        /* \"contracts/vds.sol\":2130:2133  i++ */\n      dup1\n      dup1\n      tag_104\n      swap1\n      tag_105\n      jump\t// in\n    tag_104:\n      swap2\n      pop\n      pop\n        /* \"contracts/vds.sol\":2102:2187  for(uint256 i = 0; i < len; i++) {... */\n      jump(tag_98)\n    tag_99:\n      pop\n        /* \"contracts/vds.sol\":2050:2194  {... */\n      pop\n        /* \"contracts/vds.sol\":1986:2194  function addMultipleValues(uint256[] calldata newValues) public {... */\n      pop\n      pop\n      jump\t// out\n        /* \"contracts/vds.sol\":198:220  uint128 public number1 */\n    tag_67:\n      0x00\n      dup1\n      sload\n      swap1\n      0x0100\n      exp\n      swap1\n      div\n      0xffffffffffffffffffffffffffffffff\n      and\n      dup2\n      jump\t// out\n        /* \"contracts/vds.sol\":1188:1351  function complexCheck(uint256 x, uint256 y) public pure returns (bool) {... */\n    tag_73:\n        /* \"contracts/vds.sol\":1253:1257  bool */\n      0x00\n        /* \"contracts/vds.sol\":1317:1320  100 */\n      0x64\n        /* \"contracts/vds.sol\":1313:1314  x */\n      dup4\n        /* \"contracts/vds.sol\":1313:1320  x < 100 */\n      lt\n        /* \"contracts/vds.sol\":1313:1343  x < 100 && complexOperation(y) */\n      dup1\n      iszero\n      tag_107\n      jumpi\n      pop\n        /* \"contracts/vds.sol\":1324:1343  complexOperation(y) */\n      tag_108\n        /* \"contracts/vds.sol\":1341:1342  y */\n      dup3\n        /* \"contracts/vds.sol\":1324:1340  complexOperation */\n      tag_109\n        /* \"contracts/vds.sol\":1324:1343  complexOperation(y) */\n      jump\t// in\n    tag_108:\n        /* \"contracts/vds.sol\":1313:1343  x < 100 && complexOperation(y) */\n    tag_107:\n        /* \"contracts/vds.sol\":1306:1343  return x < 100 && complexOperation(y) */\n      swap1\n      pop\n        /* \"contracts/vds.sol\":1188:1351  function complexCheck(uint256 x, uint256 y) public pure returns (bool) {... */\n      swap3\n      swap2\n      pop\n      pop\n      jump\t// out\n        /* \"contracts/vds.sol\":288:309  uint16 public number3 */\n    tag_76:\n      0x00\n      0x1c\n      swap1\n      sload\n      swap1\n      0x0100\n      exp\n      swap1\n      div\n      0xffff\n      and\n      dup2\n      jump\t// out\n        /* \"contracts/vds.sol\":1601:1709  function processArray(uint256[] calldata arr) public pure returns (uint256) {... */\n    tag_81:\n        /* \"contracts/vds.sol\":1668:1675  uint256 */\n      0x00\n        /* \"contracts/vds.sol\":1695:1698  arr */\n      dup3\n      dup3\n        /* \"contracts/vds.sol\":1699:1700  0 */\n      0x00\n        /* \"contracts/vds.sol\":1695:1701  arr[0] */\n      dup2\n      dup2\n      lt\n      tag_111\n      jumpi\n      tag_112\n      tag_89\n      jump\t// in\n    tag_112:\n    tag_111:\n      swap1\n      pop\n      0x20\n      mul\n      add\n      calldataload\n        /* \"contracts/vds.sol\":1688:1701  return arr[0] */\n      swap1\n      pop\n        /* \"contracts/vds.sol\":1601:1709  function processArray(uint256[] calldata arr) public pure returns (uint256) {... */\n      swap3\n      swap2\n      pop\n      pop\n      jump\t// out\n        /* \"contracts/vds.sol\":1363:1529  function complexOperation(uint256 y) private pure returns (bool) {... */\n    tag_109:\n        /* \"contracts/vds.sol\":1422:1426  bool */\n      0x00\n        /* \"contracts/vds.sol\":1519:1520  0 */\n      dup1\n        /* \"contracts/vds.sol\":1511:1521  bytes32(0) */\n      0x00\n      shl\n        /* \"contracts/vds.sol\":1505:1506  y */\n      dup3\n        /* \"contracts/vds.sol\":1488:1507  abi.encodePacked(y) */\n      add(0x20, mload(0x40))\n      tag_114\n      swap2\n      swap1\n      tag_115\n      jump\t// in\n    tag_114:\n      mload(0x40)\n      0x20\n      dup2\n      dup4\n      sub\n      sub\n      dup2\n      mstore\n      swap1\n      0x40\n      mstore\n        /* \"contracts/vds.sol\":1478:1508  keccak256(abi.encodePacked(y)) */\n      dup1\n      mload\n      swap1\n      0x20\n      add\n      keccak256\n        /* \"contracts/vds.sol\":1478:1521  keccak256(abi.encodePacked(y)) > bytes32(0) */\n      gt\n        /* \"contracts/vds.sol\":1471:1521  return keccak256(abi.encodePacked(y)) > bytes32(0) */\n      swap1\n      pop\n        /* \"contracts/vds.sol\":1363:1529  function complexOperation(uint256 y) private pure returns (bool) {... */\n      swap2\n      swap1\n      pop\n      jump\t// out\n        /* \"#utility.yul\":7:84   */\n    tag_116:\n        /* \"#utility.yul\":44:51   */\n      0x00\n        /* \"#utility.yul\":73:78   */\n      dup2\n        /* \"#utility.yul\":62:78   */\n      swap1\n      pop\n        /* \"#utility.yul\":7:84   */\n      swap2\n      swap1\n      pop\n      jump\t// out\n        /* \"#utility.yul\":90:208   */\n    tag_117:\n        /* \"#utility.yul\":177:201   */\n      tag_149\n        /* \"#utility.yul\":195:200   */\n      dup2\n        /* \"#utility.yul\":177:201   */\n      tag_116\n      jump\t// in\n    tag_149:\n        /* \"#utility.yul\":172:175   */\n      dup3\n        /* \"#utility.yul\":165:202   */\n      mstore\n        /* \"#utility.yul\":90:208   */\n      pop\n      pop\n      jump\t// out\n        /* \"#utility.yul\":214:436   */\n    tag_24:\n        /* \"#utility.yul\":307:311   */\n      0x00\n        /* \"#utility.yul\":345:347   */\n      0x20\n        /* \"#utility.yul\":334:343   */\n      dup3\n        /* \"#utility.yul\":330:348   */\n      add\n        /* \"#utility.yul\":322:348   */\n      swap1\n      pop\n        /* \"#utility.yul\":358:429   */\n      tag_151\n        /* \"#utility.yul\":426:427   */\n      0x00\n        /* \"#utility.yul\":415:424   */\n      dup4\n        /* \"#utility.yul\":411:428   */\n      add\n        /* \"#utility.yul\":402:408   */\n      dup5\n        /* \"#utility.yul\":358:429   */\n      tag_117\n      jump\t// in\n    tag_151:\n        /* \"#utility.yul\":214:436   */\n      swap3\n      swap2\n      pop\n      pop\n      jump\t// out\n        /* \"#utility.yul\":523:640   */\n    tag_119:\n        /* \"#utility.yul\":632:633   */\n      0x00\n        /* \"#utility.yul\":629:630   */\n      dup1\n        /* \"#utility.yul\":622:634   */\n      revert\n        /* \"#utility.yul\":646:763   */\n    tag_120:\n        /* \"#utility.yul\":755:756   */\n      0x00\n        /* \"#utility.yul\":752:753   */\n      dup1\n        /* \"#utility.yul\":745:757   */\n      revert\n        /* \"#utility.yul\":769:886   */\n    tag_121:\n        /* \"#utility.yul\":878:879   */\n      0x00\n        /* \"#utility.yul\":875:876   */\n      dup1\n        /* \"#utility.yul\":868:880   */\n      revert\n        /* \"#utility.yul\":892:1009   */\n    tag_122:\n        /* \"#utility.yul\":1001:1002   */\n      0x00\n        /* \"#utility.yul\":998:999   */\n      dup1\n        /* \"#utility.yul\":991:1003   */\n      revert\n        /* \"#utility.yul\":1015:1132   */\n    tag_123:\n        /* \"#utility.yul\":1124:1125   */\n      0x00\n        /* \"#utility.yul\":1121:1122   */\n      dup1\n        /* \"#utility.yul\":1114:1126   */\n      revert\n        /* \"#utility.yul\":1155:1723   */\n    tag_124:\n        /* \"#utility.yul\":1228:1236   */\n      0x00\n        /* \"#utility.yul\":1238:1244   */\n      dup1\n        /* \"#utility.yul\":1288:1291   */\n      dup4\n        /* \"#utility.yul\":1281:1285   */\n      0x1f\n        /* \"#utility.yul\":1273:1279   */\n      dup5\n        /* \"#utility.yul\":1269:1286   */\n      add\n        /* \"#utility.yul\":1265:1292   */\n      slt\n        /* \"#utility.yul\":1255:1377   */\n      tag_159\n      jumpi\n        /* \"#utility.yul\":1296:1375   */\n      tag_160\n      tag_121\n      jump\t// in\n    tag_160:\n        /* \"#utility.yul\":1255:1377   */\n    tag_159:\n        /* \"#utility.yul\":1409:1415   */\n      dup3\n        /* \"#utility.yul\":1396:1416   */\n      calldataload\n        /* \"#utility.yul\":1386:1416   */\n      swap1\n      pop\n        /* \"#utility.yul\":1439:1457   */\n      0xffffffffffffffff\n        /* \"#utility.yul\":1431:1437   */\n      dup2\n        /* \"#utility.yul\":1428:1458   */\n      gt\n        /* \"#utility.yul\":1425:1542   */\n      iszero\n      tag_161\n      jumpi\n        /* \"#utility.yul\":1461:1540   */\n      tag_162\n      tag_122\n      jump\t// in\n    tag_162:\n        /* \"#utility.yul\":1425:1542   */\n    tag_161:\n        /* \"#utility.yul\":1575:1579   */\n      0x20\n        /* \"#utility.yul\":1567:1573   */\n      dup4\n        /* \"#utility.yul\":1563:1580   */\n      add\n        /* \"#utility.yul\":1551:1580   */\n      swap2\n      pop\n        /* \"#utility.yul\":1629:1632   */\n      dup4\n        /* \"#utility.yul\":1621:1625   */\n      0x20\n        /* \"#utility.yul\":1613:1619   */\n      dup3\n        /* \"#utility.yul\":1609:1626   */\n      mul\n        /* \"#utility.yul\":1599:1607   */\n      dup4\n        /* \"#utility.yul\":1595:1627   */\n      add\n        /* \"#utility.yul\":1592:1633   */\n      gt\n        /* \"#utility.yul\":1589:1717   */\n      iszero\n      tag_163\n      jumpi\n        /* \"#utility.yul\":1636:1715   */\n      tag_164\n      tag_123\n      jump\t// in\n    tag_164:\n        /* \"#utility.yul\":1589:1717   */\n    tag_163:\n        /* \"#utility.yul\":1155:1723   */\n      swap3\n      pop\n      swap3\n      swap1\n      pop\n      jump\t// out\n        /* \"#utility.yul\":1729:2288   */\n    tag_27:\n        /* \"#utility.yul\":1815:1821   */\n      0x00\n        /* \"#utility.yul\":1823:1829   */\n      dup1\n        /* \"#utility.yul\":1872:1874   */\n      0x20\n        /* \"#utility.yul\":1860:1869   */\n      dup4\n        /* \"#utility.yul\":1851:1858   */\n      dup6\n        /* \"#utility.yul\":1847:1870   */\n      sub\n        /* \"#utility.yul\":1843:1875   */\n      slt\n        /* \"#utility.yul\":1840:1959   */\n      iszero\n      tag_166\n      jumpi\n        /* \"#utility.yul\":1878:1957   */\n      tag_167\n      tag_119\n      jump\t// in\n    tag_167:\n        /* \"#utility.yul\":1840:1959   */\n    tag_166:\n        /* \"#utility.yul\":2026:2027   */\n      0x00\n        /* \"#utility.yul\":2015:2024   */\n      dup4\n        /* \"#utility.yul\":2011:2028   */\n      add\n        /* \"#utility.yul\":1998:2029   */\n      calldataload\n        /* \"#utility.yul\":2056:2074   */\n      0xffffffffffffffff\n        /* \"#utility.yul\":2048:2054   */\n      dup2\n        /* \"#utility.yul\":2045:2075   */\n      gt\n        /* \"#utility.yul\":2042:2159   */\n      iszero\n      tag_168\n      jumpi\n        /* \"#utility.yul\":2078:2157   */\n      tag_169\n      tag_120\n      jump\t// in\n    tag_169:\n        /* \"#utility.yul\":2042:2159   */\n    tag_168:\n        /* \"#utility.yul\":2191:2271   */\n      tag_170\n        /* \"#utility.yul\":2263:2270   */\n      dup6\n        /* \"#utility.yul\":2254:2260   */\n      dup3\n        /* \"#utility.yul\":2243:2252   */\n      dup7\n        /* \"#utility.yul\":2239:2261   */\n      add\n        /* \"#utility.yul\":2191:2271   */\n      tag_124\n      jump\t// in\n    tag_170:\n        /* \"#utility.yul\":2173:2271   */\n      swap3\n      pop\n      swap3\n      pop\n        /* \"#utility.yul\":1969:2281   */\n      pop\n        /* \"#utility.yul\":1729:2288   */\n      swap3\n      pop\n      swap3\n      swap1\n      pop\n      jump\t// out\n        /* \"#utility.yul\":2294:2371   */\n    tag_125:\n        /* \"#utility.yul\":2331:2338   */\n      0x00\n        /* \"#utility.yul\":2360:2365   */\n      dup2\n        /* \"#utility.yul\":2349:2365   */\n      swap1\n      pop\n        /* \"#utility.yul\":2294:2371   */\n      swap2\n      swap1\n      pop\n      jump\t// out\n        /* \"#utility.yul\":2377:2495   */\n    tag_126:\n        /* \"#utility.yul\":2464:2488   */\n      tag_173\n        /* \"#utility.yul\":2482:2487   */\n      dup2\n        /* \"#utility.yul\":2464:2488   */\n      tag_125\n      jump\t// in\n    tag_173:\n        /* \"#utility.yul\":2459:2462   */\n      dup3\n        /* \"#utility.yul\":2452:2489   */\n      mstore\n        /* \"#utility.yul\":2377:2495   */\n      pop\n      pop\n      jump\t// out\n        /* \"#utility.yul\":2501:2723   */\n    tag_30:\n        /* \"#utility.yul\":2594:2598   */\n      0x00\n        /* \"#utility.yul\":2632:2634   */\n      0x20\n        /* \"#utility.yul\":2621:2630   */\n      dup3\n        /* \"#utility.yul\":2617:2635   */\n      add\n        /* \"#utility.yul\":2609:2635   */\n      swap1\n      pop\n        /* \"#utility.yul\":2645:2716   */\n      tag_175\n        /* \"#utility.yul\":2713:2714   */\n      0x00\n        /* \"#utility.yul\":2702:2711   */\n      dup4\n        /* \"#utility.yul\":2698:2715   */\n      add\n        /* \"#utility.yul\":2689:2695   */\n      dup5\n        /* \"#utility.yul\":2645:2716   */\n      tag_126\n      jump\t// in\n    tag_175:\n        /* \"#utility.yul\":2501:2723   */\n      swap3\n      swap2\n      pop\n      pop\n      jump\t// out\n        /* \"#utility.yul\":2729:2851   */\n    tag_127:\n        /* \"#utility.yul\":2802:2826   */\n      tag_177\n        /* \"#utility.yul\":2820:2825   */\n      dup2\n        /* \"#utility.yul\":2802:2826   */\n      tag_125\n      jump\t// in\n    tag_177:\n        /* \"#utility.yul\":2795:2800   */\n      dup2\n        /* \"#utility.yul\":2792:2827   */\n      eq\n        /* \"#utility.yul\":2782:2845   */\n      tag_178\n      jumpi\n        /* \"#utility.yul\":2841:2842   */\n      0x00\n        /* \"#utility.yul\":2838:2839   */\n      dup1\n        /* \"#utility.yul\":2831:2843   */\n      revert\n        /* \"#utility.yul\":2782:2845   */\n    tag_178:\n        /* \"#utility.yul\":2729:2851   */\n      pop\n      jump\t// out\n        /* \"#utility.yul\":2857:2996   */\n    tag_128:\n        /* \"#utility.yul\":2903:2908   */\n      0x00\n        /* \"#utility.yul\":2941:2947   */\n      dup2\n        /* \"#utility.yul\":2928:2948   */\n      calldataload\n        /* \"#utility.yul\":2919:2948   */\n      swap1\n      pop\n        /* \"#utility.yul\":2957:2990   */\n      tag_180\n        /* \"#utility.yul\":2984:2989   */\n      dup2\n        /* \"#utility.yul\":2957:2990   */\n      tag_127\n      jump\t// in\n    tag_180:\n        /* \"#utility.yul\":2857:2996   */\n      swap3\n      swap2\n      pop\n      pop\n      jump\t// out\n        /* \"#utility.yul\":3002:3331   */\n    tag_36:\n        /* \"#utility.yul\":3061:3067   */\n      0x00\n        /* \"#utility.yul\":3110:3112   */\n      0x20\n        /* \"#utility.yul\":3098:3107   */\n      dup3\n        /* \"#utility.yul\":3089:3096   */\n      dup5\n        /* \"#utility.yul\":3085:3108   */\n      sub\n        /* \"#utility.yul\":3081:3113   */\n      slt\n        /* \"#utility.yul\":3078:3197   */\n      iszero\n      tag_182\n      jumpi\n        /* \"#utility.yul\":3116:3195   */\n      tag_183\n      tag_119\n      jump\t// in\n    tag_183:\n        /* \"#utility.yul\":3078:3197   */\n    tag_182:\n        /* \"#utility.yul\":3236:3237   */\n      0x00\n        /* \"#utility.yul\":3261:3314   */\n      tag_184\n        /* \"#utility.yul\":3306:3313   */\n      dup5\n        /* \"#utility.yul\":3297:3303   */\n      dup3\n        /* \"#utility.yul\":3286:3295   */\n      dup6\n        /* \"#utility.yul\":3282:3304   */\n      add\n        /* \"#utility.yul\":3261:3314   */\n      tag_128\n      jump\t// in\n    tag_184:\n        /* \"#utility.yul\":3251:3314   */\n      swap2\n      pop\n        /* \"#utility.yul\":3207:3324   */\n      pop\n        /* \"#utility.yul\":3002:3331   */\n      swap3\n      swap2\n      pop\n      pop\n      jump\t// out\n        /* \"#utility.yul\":3337:3423   */\n    tag_129:\n        /* \"#utility.yul\":3372:3379   */\n      0x00\n        /* \"#utility.yul\":3412:3416   */\n      0xff\n        /* \"#utility.yul\":3405:3410   */\n      dup3\n        /* \"#utility.yul\":3401:3417   */\n      and\n        /* \"#utility.yul\":3390:3417   */\n      swap1\n      pop\n        /* \"#utility.yul\":3337:3423   */\n      swap2\n      swap1\n      pop\n      jump\t// out\n        /* \"#utility.yul\":3429:3541   */\n    tag_130:\n        /* \"#utility.yul\":3512:3534   */\n      tag_187\n        /* \"#utility.yul\":3528:3533   */\n      dup2\n        /* \"#utility.yul\":3512:3534   */\n      tag_129\n      jump\t// in\n    tag_187:\n        /* \"#utility.yul\":3507:3510   */\n      dup3\n        /* \"#utility.yul\":3500:3535   */\n      mstore\n        /* \"#utility.yul\":3429:3541   */\n      pop\n      pop\n      jump\t// out\n        /* \"#utility.yul\":3547:3761   */\n    tag_42:\n        /* \"#utility.yul\":3636:3640   */\n      0x00\n        /* \"#utility.yul\":3674:3676   */\n      0x20\n        /* \"#utility.yul\":3663:3672   */\n      dup3\n        /* \"#utility.yul\":3659:3677   */\n      add\n        /* \"#utility.yul\":3651:3677   */\n      swap1\n      pop\n        /* \"#utility.yul\":3687:3754   */\n      tag_189\n        /* \"#utility.yul\":3751:3752   */\n      0x00\n        /* \"#utility.yul\":3740:3749   */\n      dup4\n        /* \"#utility.yul\":3736:3753   */\n      add\n        /* \"#utility.yul\":3727:3733   */\n      dup5\n        /* \"#utility.yul\":3687:3754   */\n      tag_130\n      jump\t// in\n    tag_189:\n        /* \"#utility.yul\":3547:3761   */\n      swap3\n      swap2\n      pop\n      pop\n      jump\t// out\n        /* \"#utility.yul\":3781:4334   */\n    tag_131:\n        /* \"#utility.yul\":3839:3847   */\n      0x00\n        /* \"#utility.yul\":3849:3855   */\n      dup1\n        /* \"#utility.yul\":3899:3902   */\n      dup4\n        /* \"#utility.yul\":3892:3896   */\n      0x1f\n        /* \"#utility.yul\":3884:3890   */\n      dup5\n        /* \"#utility.yul\":3880:3897   */\n      add\n        /* \"#utility.yul\":3876:3903   */\n      slt\n        /* \"#utility.yul\":3866:3988   */\n      tag_191\n      jumpi\n        /* \"#utility.yul\":3907:3986   */\n      tag_192\n      tag_121\n      jump\t// in\n    tag_192:\n        /* \"#utility.yul\":3866:3988   */\n    tag_191:\n        /* \"#utility.yul\":4020:4026   */\n      dup3\n        /* \"#utility.yul\":4007:4027   */\n      calldataload\n        /* \"#utility.yul\":3997:4027   */\n      swap1\n      pop\n        /* \"#utility.yul\":4050:4068   */\n      0xffffffffffffffff\n        /* \"#utility.yul\":4042:4048   */\n      dup2\n        /* \"#utility.yul\":4039:4069   */\n      gt\n        /* \"#utility.yul\":4036:4153   */\n      iszero\n      tag_193\n      jumpi\n        /* \"#utility.yul\":4072:4151   */\n      tag_194\n      tag_122\n      jump\t// in\n    tag_194:\n        /* \"#utility.yul\":4036:4153   */\n    tag_193:\n        /* \"#utility.yul\":4186:4190   */\n      0x20\n        /* \"#utility.yul\":4178:4184   */\n      dup4\n        /* \"#utility.yul\":4174:4191   */\n      add\n        /* \"#utility.yul\":4162:4191   */\n      swap2\n      pop\n        /* \"#utility.yul\":4240:4243   */\n      dup4\n        /* \"#utility.yul\":4232:4236   */\n      0x01\n        /* \"#utility.yul\":4224:4230   */\n      dup3\n        /* \"#utility.yul\":4220:4237   */\n      mul\n        /* \"#utility.yul\":4210:4218   */\n      dup4\n        /* \"#utility.yul\":4206:4238   */\n      add\n        /* \"#utility.yul\":4203:4244   */\n      gt\n        /* \"#utility.yul\":4200:4328   */\n      iszero\n      tag_195\n      jumpi\n        /* \"#utility.yul\":4247:4326   */\n      tag_196\n      tag_123\n      jump\t// in\n    tag_196:\n        /* \"#utility.yul\":4200:4328   */\n    tag_195:\n        /* \"#utility.yul\":3781:4334   */\n      swap3\n      pop\n      swap3\n      swap1\n      pop\n      jump\t// out\n        /* \"#utility.yul\":4340:4869   */\n    tag_45:\n        /* \"#utility.yul\":4411:4417   */\n      0x00\n        /* \"#utility.yul\":4419:4425   */\n      dup1\n        /* \"#utility.yul\":4468:4470   */\n      0x20\n        /* \"#utility.yul\":4456:4465   */\n      dup4\n        /* \"#utility.yul\":4447:4454   */\n      dup6\n        /* \"#utility.yul\":4443:4466   */\n      sub\n        /* \"#utility.yul\":4439:4471   */\n      slt\n        /* \"#utility.yul\":4436:4555   */\n      iszero\n      tag_198\n      jumpi\n        /* \"#utility.yul\":4474:4553   */\n      tag_199\n      tag_119\n      jump\t// in\n    tag_199:\n        /* \"#utility.yul\":4436:4555   */\n    tag_198:\n        /* \"#utility.yul\":4622:4623   */\n      0x00\n        /* \"#utility.yul\":4611:4620   */\n      dup4\n        /* \"#utility.yul\":4607:4624   */\n      add\n        /* \"#utility.yul\":4594:4625   */\n      calldataload\n        /* \"#utility.yul\":4652:4670   */\n      0xffffffffffffffff\n        /* \"#utility.yul\":4644:4650   */\n      dup2\n        /* \"#utility.yul\":4641:4671   */\n      gt\n        /* \"#utility.yul\":4638:4755   */\n      iszero\n      tag_200\n      jumpi\n        /* \"#utility.yul\":4674:4753   */\n      tag_201\n      tag_120\n      jump\t// in\n    tag_201:\n        /* \"#utility.yul\":4638:4755   */\n    tag_200:\n        /* \"#utility.yul\":4787:4852   */\n      tag_202\n        /* \"#utility.yul\":4844:4851   */\n      dup6\n        /* \"#utility.yul\":4835:4841   */\n      dup3\n        /* \"#utility.yul\":4824:4833   */\n      dup7\n        /* \"#utility.yul\":4820:4842   */\n      add\n        /* \"#utility.yul\":4787:4852   */\n      tag_131\n      jump\t// in\n    tag_202:\n        /* \"#utility.yul\":4769:4852   */\n      swap3\n      pop\n      swap3\n      pop\n        /* \"#utility.yul\":4565:4862   */\n      pop\n        /* \"#utility.yul\":4340:4869   */\n      swap3\n      pop\n      swap3\n      swap1\n      pop\n      jump\t// out\n        /* \"#utility.yul\":4875:4965   */\n    tag_132:\n        /* \"#utility.yul\":4909:4916   */\n      0x00\n        /* \"#utility.yul\":4952:4957   */\n      dup2\n        /* \"#utility.yul\":4945:4958   */\n      iszero\n        /* \"#utility.yul\":4938:4959   */\n      iszero\n        /* \"#utility.yul\":4927:4959   */\n      swap1\n      pop\n        /* \"#utility.yul\":4875:4965   */\n      swap2\n      swap1\n      pop\n      jump\t// out\n        /* \"#utility.yul\":4971:5080   */\n    tag_133:\n        /* \"#utility.yul\":5052:5073   */\n      tag_205\n        /* \"#utility.yul\":5067:5072   */\n      dup2\n        /* \"#utility.yul\":5052:5073   */\n      tag_132\n      jump\t// in\n    tag_205:\n        /* \"#utility.yul\":5047:5050   */\n      dup3\n        /* \"#utility.yul\":5040:5074   */\n      mstore\n        /* \"#utility.yul\":4971:5080   */\n      pop\n      pop\n      jump\t// out\n        /* \"#utility.yul\":5086:5296   */\n    tag_54:\n        /* \"#utility.yul\":5173:5177   */\n      0x00\n        /* \"#utility.yul\":5211:5213   */\n      0x20\n        /* \"#utility.yul\":5200:5209   */\n      dup3\n        /* \"#utility.yul\":5196:5214   */\n      add\n        /* \"#utility.yul\":5188:5214   */\n      swap1\n      pop\n        /* \"#utility.yul\":5224:5289   */\n      tag_207\n        /* \"#utility.yul\":5286:5287   */\n      0x00\n        /* \"#utility.yul\":5275:5284   */\n      dup4\n        /* \"#utility.yul\":5271:5288   */\n      add\n        /* \"#utility.yul\":5262:5268   */\n      dup5\n        /* \"#utility.yul\":5224:5289   */\n      tag_133\n      jump\t// in\n    tag_207:\n        /* \"#utility.yul\":5086:5296   */\n      swap3\n      swap2\n      pop\n      pop\n      jump\t// out\n        /* \"#utility.yul\":5302:5411   */\n    tag_134:\n        /* \"#utility.yul\":5338:5345   */\n      0x00\n        /* \"#utility.yul\":5378:5404   */\n      0xffffffffffffffffffffffff\n        /* \"#utility.yul\":5371:5376   */\n      dup3\n        /* \"#utility.yul\":5367:5405   */\n      and\n        /* \"#utility.yul\":5356:5405   */\n      swap1\n      pop\n        /* \"#utility.yul\":5302:5411   */\n      swap2\n      swap1\n      pop\n      jump\t// out\n        /* \"#utility.yul\":5417:5532   */\n    tag_135:\n        /* \"#utility.yul\":5502:5525   */\n      tag_210\n        /* \"#utility.yul\":5519:5524   */\n      dup2\n        /* \"#utility.yul\":5502:5525   */\n      tag_134\n      jump\t// in\n    tag_210:\n        /* \"#utility.yul\":5497:5500   */\n      dup3\n        /* \"#utility.yul\":5490:5526   */\n      mstore\n        /* \"#utility.yul\":5417:5532   */\n      pop\n      pop\n      jump\t// out\n        /* \"#utility.yul\":5538:5756   */\n    tag_58:\n        /* \"#utility.yul\":5629:5633   */\n      0x00\n        /* \"#utility.yul\":5667:5669   */\n      0x20\n        /* \"#utility.yul\":5656:5665   */\n      dup3\n        /* \"#utility.yul\":5652:5670   */\n      add\n        /* \"#utility.yul\":5644:5670   */\n      swap1\n      pop\n        /* \"#utility.yul\":5680:5749   */\n      tag_212\n        /* \"#utility.yul\":5746:5747   */\n      0x00\n        /* \"#utility.yul\":5735:5744   */\n      dup4\n        /* \"#utility.yul\":5731:5748   */\n      add\n        /* \"#utility.yul\":5722:5728   */\n      dup5\n        /* \"#utility.yul\":5680:5749   */\n      tag_135\n      jump\t// in\n    tag_212:\n        /* \"#utility.yul\":5538:5756   */\n      swap3\n      swap2\n      pop\n      pop\n      jump\t// out\n        /* \"#utility.yul\":5762:5880   */\n    tag_136:\n        /* \"#utility.yul\":5799:5806   */\n      0x00\n        /* \"#utility.yul\":5839:5873   */\n      0xffffffffffffffffffffffffffffffff\n        /* \"#utility.yul\":5832:5837   */\n      dup3\n        /* \"#utility.yul\":5828:5874   */\n      and\n        /* \"#utility.yul\":5817:5874   */\n      swap1\n      pop\n        /* \"#utility.yul\":5762:5880   */\n      swap2\n      swap1\n      pop\n      jump\t// out\n        /* \"#utility.yul\":5886:6004   */\n    tag_137:\n        /* \"#utility.yul\":5973:5997   */\n      tag_215\n        /* \"#utility.yul\":5991:5996   */\n      dup2\n        /* \"#utility.yul\":5973:5997   */\n      tag_136\n      jump\t// in\n    tag_215:\n        /* \"#utility.yul\":5968:5971   */\n      dup3\n        /* \"#utility.yul\":5961:5998   */\n      mstore\n        /* \"#utility.yul\":5886:6004   */\n      pop\n      pop\n      jump\t// out\n        /* \"#utility.yul\":6010:6232   */\n    tag_69:\n        /* \"#utility.yul\":6103:6107   */\n      0x00\n        /* \"#utility.yul\":6141:6143   */\n      0x20\n        /* \"#utility.yul\":6130:6139   */\n      dup3\n        /* \"#utility.yul\":6126:6144   */\n      add\n        /* \"#utility.yul\":6118:6144   */\n      swap1\n      pop\n        /* \"#utility.yul\":6154:6225   */\n      tag_217\n        /* \"#utility.yul\":6222:6223   */\n      0x00\n        /* \"#utility.yul\":6211:6220   */\n      dup4\n        /* \"#utility.yul\":6207:6224   */\n      add\n        /* \"#utility.yul\":6198:6204   */\n      dup5\n        /* \"#utility.yul\":6154:6225   */\n      tag_137\n      jump\t// in\n    tag_217:\n        /* \"#utility.yul\":6010:6232   */\n      swap3\n      swap2\n      pop\n      pop\n      jump\t// out\n        /* \"#utility.yul\":6238:6712   */\n    tag_72:\n        /* \"#utility.yul\":6306:6312   */\n      0x00\n        /* \"#utility.yul\":6314:6320   */\n      dup1\n        /* \"#utility.yul\":6363:6365   */\n      0x40\n        /* \"#utility.yul\":6351:6360   */\n      dup4\n        /* \"#utility.yul\":6342:6349   */\n      dup6\n        /* \"#utility.yul\":6338:6361   */\n      sub\n        /* \"#utility.yul\":6334:6366   */\n      slt\n        /* \"#utility.yul\":6331:6450   */\n      iszero\n      tag_219\n      jumpi\n        /* \"#utility.yul\":6369:6448   */\n      tag_220\n      tag_119\n      jump\t// in\n    tag_220:\n        /* \"#utility.yul\":6331:6450   */\n    tag_219:\n        /* \"#utility.yul\":6489:6490   */\n      0x00\n        /* \"#utility.yul\":6514:6567   */\n      tag_221\n        /* \"#utility.yul\":6559:6566   */\n      dup6\n        /* \"#utility.yul\":6550:6556   */\n      dup3\n        /* \"#utility.yul\":6539:6548   */\n      dup7\n        /* \"#utility.yul\":6535:6557   */\n      add\n        /* \"#utility.yul\":6514:6567   */\n      tag_128\n      jump\t// in\n    tag_221:\n        /* \"#utility.yul\":6504:6567   */\n      swap3\n      pop\n        /* \"#utility.yul\":6460:6577   */\n      pop\n        /* \"#utility.yul\":6616:6618   */\n      0x20\n        /* \"#utility.yul\":6642:6695   */\n      tag_222\n        /* \"#utility.yul\":6687:6694   */\n      dup6\n        /* \"#utility.yul\":6678:6684   */\n      dup3\n        /* \"#utility.yul\":6667:6676   */\n      dup7\n        /* \"#utility.yul\":6663:6685   */\n      add\n        /* \"#utility.yul\":6642:6695   */\n      tag_128\n      jump\t// in\n    tag_222:\n        /* \"#utility.yul\":6632:6695   */\n      swap2\n      pop\n        /* \"#utility.yul\":6587:6705   */\n      pop\n        /* \"#utility.yul\":6238:6712   */\n      swap3\n      pop\n      swap3\n      swap1\n      pop\n      jump\t// out\n        /* \"#utility.yul\":6718:6807   */\n    tag_138:\n        /* \"#utility.yul\":6754:6761   */\n      0x00\n        /* \"#utility.yul\":6794:6800   */\n      0xffff\n        /* \"#utility.yul\":6787:6792   */\n      dup3\n        /* \"#utility.yul\":6783:6801   */\n      and\n        /* \"#utility.yul\":6772:6801   */\n      swap1\n      pop\n        /* \"#utility.yul\":6718:6807   */\n      swap2\n      swap1\n      pop\n      jump\t// out\n        /* \"#utility.yul\":6813:6928   */\n    tag_139:\n        /* \"#utility.yul\":6898:6921   */\n      tag_225\n        /* \"#utility.yul\":6915:6920   */\n      dup2\n        /* \"#utility.yul\":6898:6921   */\n      tag_138\n      jump\t// in\n    tag_225:\n        /* \"#utility.yul\":6893:6896   */\n      dup3\n        /* \"#utility.yul\":6886:6922   */\n      mstore\n        /* \"#utility.yul\":6813:6928   */\n      pop\n      pop\n      jump\t// out\n        /* \"#utility.yul\":6934:7152   */\n    tag_78:\n        /* \"#utility.yul\":7025:7029   */\n      0x00\n        /* \"#utility.yul\":7063:7065   */\n      0x20\n        /* \"#utility.yul\":7052:7061   */\n      dup3\n        /* \"#utility.yul\":7048:7066   */\n      add\n        /* \"#utility.yul\":7040:7066   */\n      swap1\n      pop\n        /* \"#utility.yul\":7076:7145   */\n      tag_227\n        /* \"#utility.yul\":7142:7143   */\n      0x00\n        /* \"#utility.yul\":7131:7140   */\n      dup4\n        /* \"#utility.yul\":7127:7144   */\n      add\n        /* \"#utility.yul\":7118:7124   */\n      dup5\n        /* \"#utility.yul\":7076:7145   */\n      tag_139\n      jump\t// in\n    tag_227:\n        /* \"#utility.yul\":6934:7152   */\n      swap3\n      swap2\n      pop\n      pop\n      jump\t// out\n        /* \"#utility.yul\":7158:7338   */\n    tag_89:\n        /* \"#utility.yul\":7206:7283   */\n      0x4e487b7100000000000000000000000000000000000000000000000000000000\n        /* \"#utility.yul\":7203:7204   */\n      0x00\n        /* \"#utility.yul\":7196:7284   */\n      mstore\n        /* \"#utility.yul\":7303:7307   */\n      0x32\n        /* \"#utility.yul\":7300:7301   */\n      0x04\n        /* \"#utility.yul\":7293:7308   */\n      mstore\n        /* \"#utility.yul\":7327:7331   */\n      0x24\n        /* \"#utility.yul\":7324:7325   */\n      0x00\n        /* \"#utility.yul\":7317:7332   */\n      revert\n        /* \"#utility.yul\":7344:7491   */\n    tag_140:\n        /* \"#utility.yul\":7445:7456   */\n      0x00\n        /* \"#utility.yul\":7482:7485   */\n      dup2\n        /* \"#utility.yul\":7467:7485   */\n      swap1\n      pop\n        /* \"#utility.yul\":7344:7491   */\n      swap3\n      swap2\n      pop\n      pop\n      jump\t// out\n        /* \"#utility.yul\":7497:7643   */\n    tag_141:\n        /* \"#utility.yul\":7594:7600   */\n      dup3\n        /* \"#utility.yul\":7589:7592   */\n      dup2\n        /* \"#utility.yul\":7584:7587   */\n      dup4\n        /* \"#utility.yul\":7571:7601   */\n      calldatacopy\n        /* \"#utility.yul\":7635:7636   */\n      0x00\n        /* \"#utility.yul\":7626:7632   */\n      dup4\n        /* \"#utility.yul\":7621:7624   */\n      dup4\n        /* \"#utility.yul\":7617:7633   */\n      add\n        /* \"#utility.yul\":7610:7637   */\n      mstore\n        /* \"#utility.yul\":7497:7643   */\n      pop\n      pop\n      pop\n      jump\t// out\n        /* \"#utility.yul\":7671:7998   */\n    tag_142:\n        /* \"#utility.yul\":7785:7788   */\n      0x00\n        /* \"#utility.yul\":7806:7894   */\n      tag_232\n        /* \"#utility.yul\":7887:7893   */\n      dup4\n        /* \"#utility.yul\":7882:7885   */\n      dup6\n        /* \"#utility.yul\":7806:7894   */\n      tag_140\n      jump\t// in\n    tag_232:\n        /* \"#utility.yul\":7799:7894   */\n      swap4\n      pop\n        /* \"#utility.yul\":7904:7960   */\n      tag_233\n        /* \"#utility.yul\":7953:7959   */\n      dup4\n        /* \"#utility.yul\":7948:7951   */\n      dup6\n        /* \"#utility.yul\":7941:7946   */\n      dup5\n        /* \"#utility.yul\":7904:7960   */\n      tag_141\n      jump\t// in\n    tag_233:\n        /* \"#utility.yul\":7985:7991   */\n      dup3\n        /* \"#utility.yul\":7980:7983   */\n      dup5\n        /* \"#utility.yul\":7976:7992   */\n      add\n        /* \"#utility.yul\":7969:7992   */\n      swap1\n      pop\n        /* \"#utility.yul\":7671:7998   */\n      swap4\n      swap3\n      pop\n      pop\n      pop\n      jump\t// out\n        /* \"#utility.yul\":8004:8295   */\n    tag_94:\n        /* \"#utility.yul\":8144:8147   */\n      0x00\n        /* \"#utility.yul\":8166:8269   */\n      tag_235\n        /* \"#utility.yul\":8265:8268   */\n      dup3\n        /* \"#utility.yul\":8256:8262   */\n      dup5\n        /* \"#utility.yul\":8248:8254   */\n      dup7\n        /* \"#utility.yul\":8166:8269   */\n      tag_142\n      jump\t// in\n    tag_235:\n        /* \"#utility.yul\":8159:8269   */\n      swap2\n      pop\n        /* \"#utility.yul\":8286:8289   */\n      dup2\n        /* \"#utility.yul\":8279:8289   */\n      swap1\n      pop\n        /* \"#utility.yul\":8004:8295   */\n      swap4\n      swap3\n      pop\n      pop\n      pop\n      jump\t// out\n        /* \"#utility.yul\":8301:8481   */\n    tag_143:\n        /* \"#utility.yul\":8349:8426   */\n      0x4e487b7100000000000000000000000000000000000000000000000000000000\n        /* \"#utility.yul\":8346:8347   */\n      0x00\n        /* \"#utility.yul\":8339:8427   */\n      mstore\n        /* \"#utility.yul\":8446:8450   */\n      0x11\n        /* \"#utility.yul\":8443:8444   */\n      0x04\n        /* \"#utility.yul\":8436:8451   */\n      mstore\n        /* \"#utility.yul\":8470:8474   */\n      0x24\n        /* \"#utility.yul\":8467:8468   */\n      0x00\n        /* \"#utility.yul\":8460:8475   */\n      revert\n        /* \"#utility.yul\":8487:8720   */\n    tag_105:\n        /* \"#utility.yul\":8526:8529   */\n      0x00\n        /* \"#utility.yul\":8549:8573   */\n      tag_238\n        /* \"#utility.yul\":8567:8572   */\n      dup3\n        /* \"#utility.yul\":8549:8573   */\n      tag_125\n      jump\t// in\n    tag_238:\n        /* \"#utility.yul\":8540:8573   */\n      swap2\n      pop\n        /* \"#utility.yul\":8595:8661   */\n      0xffffffffffffffffffffffffffffffffffffffffffffffffffffffffffffffff\n        /* \"#utility.yul\":8588:8593   */\n      dup3\n        /* \"#utility.yul\":8585:8662   */\n      sub\n        /* \"#utility.yul\":8582:8685   */\n      tag_239\n      jumpi\n        /* \"#utility.yul\":8665:8683   */\n      tag_240\n      tag_143\n      jump\t// in\n    tag_240:\n        /* \"#utility.yul\":8582:8685   */\n    tag_239:\n        /* \"#utility.yul\":8712:8713   */\n      0x01\n        /* \"#utility.yul\":8705:8710   */\n      dup3\n        /* \"#utility.yul\":8701:8714   */\n      add\n        /* \"#utility.yul\":8694:8714   */\n      swap1\n      pop\n        /* \"#utility.yul\":8487:8720   */\n      swap2\n      swap1\n      pop\n      jump\t// out\n        /* \"#utility.yul\":8726:8805   */\n    tag_144:\n        /* \"#utility.yul\":8765:8772   */\n      0x00\n        /* \"#utility.yul\":8794:8799   */\n      dup2\n        /* \"#utility.yul\":8783:8799   */\n      swap1\n      pop\n        /* \"#utility.yul\":8726:8805   */\n      swap2\n      swap1\n      pop\n      jump\t// out\n        /* \"#utility.yul\":8811:8968   */\n    tag_145:\n        /* \"#utility.yul\":8916:8961   */\n      tag_243\n        /* \"#utility.yul\":8936:8960   */\n      tag_244\n        /* \"#utility.yul\":8954:8959   */\n      dup3\n        /* \"#utility.yul\":8936:8960   */\n      tag_125\n      jump\t// in\n    tag_244:\n        /* \"#utility.yul\":8916:8961   */\n      tag_144\n      jump\t// in\n    tag_243:\n        /* \"#utility.yul\":8911:8914   */\n      dup3\n        /* \"#utility.yul\":8904:8962   */\n      mstore\n        /* \"#utility.yul\":8811:8968   */\n      pop\n      pop\n      jump\t// out\n        /* \"#utility.yul\":8974:9230   */\n    tag_115:\n        /* \"#utility.yul\":9086:9089   */\n      0x00\n        /* \"#utility.yul\":9101:9176   */\n      tag_246\n        /* \"#utility.yul\":9172:9175   */\n      dup3\n        /* \"#utility.yul\":9163:9169   */\n      dup5\n        /* \"#utility.yul\":9101:9176   */\n      tag_145\n      jump\t// in\n    tag_246:\n        /* \"#utility.yul\":9201:9203   */\n      0x20\n        /* \"#utility.yul\":9196:9199   */\n      dup3\n        /* \"#utility.yul\":9192:9204   */\n      add\n        /* \"#utility.yul\":9185:9204   */\n      swap2\n      pop\n        /* \"#utility.yul\":9221:9224   */\n      dup2\n        /* \"#utility.yul\":9214:9224   */\n      swap1\n      pop\n        /* \"#utility.yul\":8974:9230   */\n      swap3\n      swap2\n      pop\n      pop\n      jump\t// out\n\n    auxdata: 0xa264697066735822122050c473f23790e6bcd10812577c3fb23dce8353ae6c3dfaa85b4e11b2e3b907b764736f6c63430008100033\n}\n",
				"bytecode": {
					"linkReferences": {},
					"object": "608060405234801561001057600080fd5b50610a67806100206000396000f3fe608060405234801561001057600080fd5b50600436106100f55760003560e01c8063890eba6811610097578063c223a39e11610066578063c223a39e1461028a578063c6cfdbd1146102a8578063d6980dfd146102d8578063e7e23780146102f6576100f5565b8063890eba681461020257806390c52443146102205780639a5009ac1461023e578063bc56fd471461026e576100f5565b80635e383d21116100d35780635e383d21146101665780636670cde0146101965780637c216809146101b457806386c72429146101e4576100f5565b80630322ed08146100fa5780631e2aea061461011857806345964e9e14610148575b600080fd5b610102610326565b60405161010f9190610583565b60405180910390f35b610132600480360381019061012d919061060d565b61034a565b60405161013f9190610673565b60405180910390f35b610150610391565b60405161015d9190610673565b60405180910390f35b610180600480360381019061017b91906106ba565b610397565b60405161018d9190610673565b60405180910390f35b61019e6103bb565b6040516101ab9190610703565b60405180910390f35b6101ce60048036038101906101c99190610774565b6103ce565b6040516101db9190610583565b60405180910390f35b6101ec6103f0565b6040516101f99190610703565b60405180910390f35b61020a610403565b60405161021791906107dc565b60405180910390f35b610228610416565b604051610235919061081e565b60405180910390f35b610258600480360381019061025391906106ba565b610434565b6040516102659190610673565b60405180910390f35b6102886004803603810190610283919061060d565b61044f565b005b6102926104bd565b60405161029f9190610864565b60405180910390f35b6102c260048036038101906102bd919061087f565b6104dd565b6040516102cf91906107dc565b60405180910390f35b6102e06104fc565b6040516102ed91906108dc565b60405180910390f35b610310600480360381019061030b919061060d565b610510565b60405161031d9190610673565b60405180910390f35b7f853493f56f99a724810d046e60d8e68c31a4651d80fe52d324631d8f22b5846b81565b60008060005b848490508110156103865784848281811061036e5761036d6108f7565b5b90506020020135820191508080600101915050610350565b508091505092915050565b60015481565b600d81815481106103a757600080fd5b906000526020600020016000915090505481565b600260009054906101000a900460ff1681565b600082826040516103e0929190610965565b6040518091039020905092915050565b6000601e9054906101000a900460ff1681565b6000601f9054906101000a900460ff1681565b600060109054906101000a90046bffffffffffffffffffffffff1681565b600381600a811061044457600080fd5b016000915090505481565b600082829050905060005b818110156104b757600d848483818110610477576104766108f7565b5b90506020020135908060018154018082558091505060019003906000526020600020016000909190919091505580806104af906109ad565b91505061045a565b50505050565b60008054906101000a90046fffffffffffffffffffffffffffffffff1681565b60006064831080156104f457506104f382610535565b5b905092915050565b6000601c9054906101000a900461ffff1681565b600082826000818110610526576105256108f7565b5b90506020020135905092915050565b60008060001b8260405160200161054c9190610a16565b60405160208183030381529060405280519060200120119050919050565b6000819050919050565b61057d8161056a565b82525050565b60006020820190506105986000830184610574565b92915050565b600080fd5b600080fd5b600080fd5b600080fd5b600080fd5b60008083601f8401126105cd576105cc6105a8565b5b8235905067ffffffffffffffff8111156105ea576105e96105ad565b5b602083019150836020820283011115610606576106056105b2565b5b9250929050565b600080602083850312156106245761062361059e565b5b600083013567ffffffffffffffff811115610642576106416105a3565b5b61064e858286016105b7565b92509250509250929050565b6000819050919050565b61066d8161065a565b82525050565b60006020820190506106886000830184610664565b92915050565b6106978161065a565b81146106a257600080fd5b50565b6000813590506106b48161068e565b92915050565b6000602082840312156106d0576106cf61059e565b5b60006106de848285016106a5565b91505092915050565b600060ff82169050919050565b6106fd816106e7565b82525050565b600060208201905061071860008301846106f4565b92915050565b60008083601f840112610734576107336105a8565b5b8235905067ffffffffffffffff811115610751576107506105ad565b5b60208301915083600182028301111561076d5761076c6105b2565b5b9250929050565b6000806020838503121561078b5761078a61059e565b5b600083013567ffffffffffffffff8111156107a9576107a86105a3565b5b6107b58582860161071e565b92509250509250929050565b60008115159050919050565b6107d6816107c1565b82525050565b60006020820190506107f160008301846107cd565b92915050565b60006bffffffffffffffffffffffff82169050919050565b610818816107f7565b82525050565b6000602082019050610833600083018461080f565b92915050565b60006fffffffffffffffffffffffffffffffff82169050919050565b61085e81610839565b82525050565b60006020820190506108796000830184610855565b92915050565b600080604083850312156108965761089561059e565b5b60006108a4858286016106a5565b92505060206108b5858286016106a5565b9150509250929050565b600061ffff82169050919050565b6108d6816108bf565b82525050565b60006020820190506108f160008301846108cd565b92915050565b7f4e487b7100000000000000000000000000000000000000000000000000000000600052603260045260246000fd5b600081905092915050565b82818337600083830152505050565b600061094c8385610926565b9350610959838584610931565b82840190509392505050565b6000610972828486610940565b91508190509392505050565b7f4e487b7100000000000000000000000000000000000000000000000000000000600052601160045260246000fd5b60006109b88261065a565b91507fffffffffffffffffffffffffffffffffffffffffffffffffffffffffffffffff82036109ea576109e961097e565b5b600182019050919050565b6000819050919050565b610a10610a0b8261065a565b6109f5565b82525050565b6000610a2282846109ff565b6020820191508190509291505056fea264697066735822122050c473f23790e6bcd10812577c3fb23dce8353ae6c3dfaa85b4e11b2e3b907b764736f6c63430008100033",
					"opcodes": "PUSH1 0x80 PUSH1 0x40 MSTORE CALLVALUE DUP1 ISZERO PUSH2 0x10 JUMPI PUSH1 0x0 DUP1 REVERT JUMPDEST POP PUSH2 0xA67 DUP1 PUSH2 0x20 PUSH1 0x0 CODECOPY PUSH1 0x0 RETURN INVALID PUSH1 0x80 PUSH1 0x40 MSTORE CALLVALUE DUP1 ISZERO PUSH2 0x10 JUMPI PUSH1 0x0 DUP1 REVERT JUMPDEST POP PUSH1 0x4 CALLDATASIZE LT PUSH2 0xF5 JUMPI PUSH1 0x0 CALLDATALOAD PUSH1 0xE0 SHR DUP1 PUSH4 0x890EBA68 GT PUSH2 0x97 JUMPI DUP1 PUSH4 0xC223A39E GT PUSH2 0x66 JUMPI DUP1 PUSH4 0xC223A39E EQ PUSH2 0x28A JUMPI DUP1 PUSH4 0xC6CFDBD1 EQ PUSH2 0x2A8 JUMPI DUP1 PUSH4 0xD6980DFD EQ PUSH2 0x2D8 JUMPI DUP1 PUSH4 0xE7E23780 EQ PUSH2 0x2F6 JUMPI PUSH2 0xF5 JUMP JUMPDEST DUP1 PUSH4 0x890EBA68 EQ PUSH2 0x202 JUMPI DUP1 PUSH4 0x90C52443 EQ PUSH2 0x220 JUMPI DUP1 PUSH4 0x9A5009AC EQ PUSH2 0x23E JUMPI DUP1 PUSH4 0xBC56FD47 EQ PUSH2 0x26E JUMPI PUSH2 0xF5 JUMP JUMPDEST DUP1 PUSH4 0x5E383D21 GT PUSH2 0xD3 JUMPI DUP1 PUSH4 0x5E383D21 EQ PUSH2 0x166 JUMPI DUP1 PUSH4 0x6670CDE0 EQ PUSH2 0x196 JUMPI DUP1 PUSH4 0x7C216809 EQ PUSH2 0x1B4 JUMPI DUP1 PUSH4 0x86C72429 EQ PUSH2 0x1E4 JUMPI PUSH2 0xF5 JUMP JUMPDEST DUP1 PUSH4 0x322ED08 EQ PUSH2 0xFA JUMPI DUP1 PUSH4 0x1E2AEA06 EQ PUSH2 0x118 JUMPI DUP1 PUSH4 0x45964E9E EQ PUSH2 0x148 JUMPI JUMPDEST PUSH1 0x0 DUP1 REVERT JUMPDEST PUSH2 0x102 PUSH2 0x326 JUMP JUMPDEST PUSH1 0x40 MLOAD PUSH2 0x10F SWAP2 SWAP1 PUSH2 0x583 JUMP JUMPDEST PUSH1 0x40 MLOAD DUP1 SWAP2 SUB SWAP1 RETURN JUMPDEST PUSH2 0x132 PUSH1 0x4 DUP1 CALLDATASIZE SUB DUP2 ADD SWAP1 PUSH2 0x12D SWAP2 SWAP1 PUSH2 0x60D JUMP JUMPDEST PUSH2 0x34A JUMP JUMPDEST PUSH1 0x40 MLOAD PUSH2 0x13F SWAP2 SWAP1 PUSH2 0x673 JUMP JUMPDEST PUSH1 0x40 MLOAD DUP1 SWAP2 SUB SWAP1 RETURN JUMPDEST PUSH2 0x150 PUSH2 0x391 JUMP JUMPDEST PUSH1 0x40 MLOAD PUSH2 0x15D SWAP2 SWAP1 PUSH2 0x673 JUMP JUMPDEST PUSH1 0x40 MLOAD DUP1 SWAP2 SUB SWAP1 RETURN JUMPDEST PUSH2 0x180 PUSH1 0x4 DUP1 CALLDATASIZE SUB DUP2 ADD SWAP1 PUSH2 0x17B SWAP2 SWAP1 PUSH2 0x6BA JUMP JUMPDEST PUSH2 0x397 JUMP JUMPDEST PUSH1 0x40 MLOAD PUSH2 0x18D SWAP2 SWAP1 PUSH2 0x673 JUMP JUMPDEST PUSH1 0x40 MLOAD DUP1 SWAP2 SUB SWAP1 RETURN JUMPDEST PUSH2 0x19E PUSH2 0x3BB JUMP JUMPDEST PUSH1 0x40 MLOAD PUSH2 0x1AB SWAP2 SWAP1 PUSH2 0x703 JUMP JUMPDEST PUSH1 0x40 MLOAD DUP1 SWAP2 SUB SWAP1 RETURN JUMPDEST PUSH2 0x1CE PUSH1 0x4 DUP1 CALLDATASIZE SUB DUP2 ADD SWAP1 PUSH2 0x1C9 SWAP2 SWAP1 PUSH2 0x774 JUMP JUMPDEST PUSH2 0x3CE JUMP JUMPDEST PUSH1 0x40 MLOAD PUSH2 0x1DB SWAP2 SWAP1 PUSH2 0x583 JUMP JUMPDEST PUSH1 0x40 MLOAD DUP1 SWAP2 SUB SWAP1 RETURN JUMPDEST PUSH2 0x1EC PUSH2 0x3F0 JUMP JUMPDEST PUSH1 0x40 MLOAD PUSH2 0x1F9 SWAP2 SWAP1 PUSH2 0x703 JUMP JUMPDEST PUSH1 0x40 MLOAD DUP1 SWAP2 SUB SWAP1 RETURN JUMPDEST PUSH2 0x20A PUSH2 0x403 JUMP JUMPDEST PUSH1 0x40 MLOAD PUSH2 0x217 SWAP2 SWAP1 PUSH2 0x7DC JUMP JUMPDEST PUSH1 0x40 MLOAD DUP1 SWAP2 SUB SWAP1 RETURN JUMPDEST PUSH2 0x228 PUSH2 0x416 JUMP JUMPDEST PUSH1 0x40 MLOAD PUSH2 0x235 SWAP2 SWAP1 PUSH2 0x81E JUMP JUMPDEST PUSH1 0x40 MLOAD DUP1 SWAP2 SUB SWAP1 RETURN JUMPDEST PUSH2 0x258 PUSH1 0x4 DUP1 CALLDATASIZE SUB DUP2 ADD SWAP1 PUSH2 0x253 SWAP2 SWAP1 PUSH2 0x6BA JUMP JUMPDEST PUSH2 0x434 JUMP JUMPDEST PUSH1 0x40 MLOAD PUSH2 0x265 SWAP2 SWAP1 PUSH2 0x673 JUMP JUMPDEST PUSH1 0x40 MLOAD DUP1 SWAP2 SUB SWAP1 RETURN JUMPDEST PUSH2 0x288 PUSH1 0x4 DUP1 CALLDATASIZE SUB DUP2 ADD SWAP1 PUSH2 0x283 SWAP2 SWAP1 PUSH2 0x60D JUMP JUMPDEST PUSH2 0x44F JUMP JUMPDEST STOP JUMPDEST PUSH2 0x292 PUSH2 0x4BD JUMP JUMPDEST PUSH1 0x40 MLOAD PUSH2 0x29F SWAP2 SWAP1 PUSH2 0x864 JUMP JUMPDEST PUSH1 0x40 MLOAD DUP1 SWAP2 SUB SWAP1 RETURN JUMPDEST PUSH2 0x2C2 PUSH1 0x4 DUP1 CALLDATASIZE SUB DUP2 ADD SWAP1 PUSH2 0x2BD SWAP2 SWAP1 PUSH2 0x87F JUMP JUMPDEST PUSH2 0x4DD JUMP JUMPDEST PUSH1 0x40 MLOAD PUSH2 0x2CF SWAP2 SWAP1 PUSH2 0x7DC JUMP JUMPDEST PUSH1 0x40 MLOAD DUP1 SWAP2 SUB SWAP1 RETURN JUMPDEST PUSH2 0x2E0 PUSH2 0x4FC JUMP JUMPDEST PUSH1 0x40 MLOAD PUSH2 0x2ED SWAP2 SWAP1 PUSH2 0x8DC JUMP JUMPDEST PUSH1 0x40 MLOAD DUP1 SWAP2 SUB SWAP1 RETURN JUMPDEST PUSH2 0x310 PUSH1 0x4 DUP1 CALLDATASIZE SUB DUP2 ADD SWAP1 PUSH2 0x30B SWAP2 SWAP1 PUSH2 0x60D JUMP JUMPDEST PUSH2 0x510 JUMP JUMPDEST PUSH1 0x40 MLOAD PUSH2 0x31D SWAP2 SWAP1 PUSH2 0x673 JUMP JUMPDEST PUSH1 0x40 MLOAD DUP1 SWAP2 SUB SWAP1 RETURN JUMPDEST PUSH32 0x853493F56F99A724810D046E60D8E68C31A4651D80FE52D324631D8F22B5846B DUP2 JUMP JUMPDEST PUSH1 0x0 DUP1 PUSH1 0x0 JUMPDEST DUP5 DUP5 SWAP1 POP DUP2 LT ISZERO PUSH2 0x386 JUMPI DUP5 DUP5 DUP3 DUP2 DUP2 LT PUSH2 0x36E JUMPI PUSH2 0x36D PUSH2 0x8F7 JUMP JUMPDEST JUMPDEST SWAP1 POP PUSH1 0x20 MUL ADD CALLDATALOAD DUP3 ADD SWAP2 POP DUP1 DUP1 PUSH1 0x1 ADD SWAP2 POP POP PUSH2 0x350 JUMP JUMPDEST POP DUP1 SWAP2 POP POP SWAP3 SWAP2 POP POP JUMP JUMPDEST PUSH1 0x1 SLOAD DUP2 JUMP JUMPDEST PUSH1 0xD DUP2 DUP2 SLOAD DUP2 LT PUSH2 0x3A7 JUMPI PUSH1 0x0 DUP1 REVERT JUMPDEST SWAP1 PUSH1 0x0 MSTORE PUSH1 0x20 PUSH1 0x0 KECCAK256 ADD PUSH1 0x0 SWAP2 POP SWAP1 POP SLOAD DUP2 JUMP JUMPDEST PUSH1 0x2 PUSH1 0x0 SWAP1 SLOAD SWAP1 PUSH2 0x100 EXP SWAP1 DIV PUSH1 0xFF AND DUP2 JUMP JUMPDEST PUSH1 0x0 DUP3 DUP3 PUSH1 0x40 MLOAD PUSH2 0x3E0 SWAP3 SWAP2 SWAP1 PUSH2 0x965 JUMP JUMPDEST PUSH1 0x40 MLOAD DUP1 SWAP2 SUB SWAP1 KECCAK256 SWAP1 POP SWAP3 SWAP2 POP POP JUMP JUMPDEST PUSH1 0x0 PUSH1 0x1E SWAP1 SLOAD SWAP1 PUSH2 0x100 EXP SWAP1 DIV PUSH1 0xFF AND DUP2 JUMP JUMPDEST PUSH1 0x0 PUSH1 0x1F SWAP1 SLOAD SWAP1 PUSH2 0x100 EXP SWAP1 DIV PUSH1 0xFF AND DUP2 JUMP JUMPDEST PUSH1 0x0 PUSH1 0x10 SWAP1 SLOAD SWAP1 PUSH2 0x100 EXP SWAP1 DIV PUSH12 0xFFFFFFFFFFFFFFFFFFFFFFFF AND DUP2 JUMP JUMPDEST PUSH1 0x3 DUP2 PUSH1 0xA DUP2 LT PUSH2 0x444 JUMPI PUSH1 0x0 DUP1 REVERT JUMPDEST ADD PUSH1 0x0 SWAP2 POP SWAP1 POP SLOAD DUP2 JUMP JUMPDEST PUSH1 0x0 DUP3 DUP3 SWAP1 POP SWAP1 POP PUSH1 0x0 JUMPDEST DUP2 DUP2 LT ISZERO PUSH2 0x4B7 JUMPI PUSH1 0xD DUP5 DUP5 DUP4 DUP2 DUP2 LT PUSH2 0x477 JUMPI PUSH2 0x476 PUSH2 0x8F7 JUMP JUMPDEST JUMPDEST SWAP1 POP PUSH1 0x20 MUL ADD CALLDATALOAD SWAP1 DUP1 PUSH1 0x1 DUP2 SLOAD ADD DUP1 DUP3 SSTORE DUP1 SWAP2 POP POP PUSH1 0x1 SWAP1 SUB SWAP1 PUSH1 0x0 MSTORE PUSH1 0x20 PUSH1 0x0 KECCAK256 ADD PUSH1 0x0 SWAP1 SWAP2 SWAP1 SWAP2 SWAP1 SWAP2 POP SSTORE DUP1 DUP1 PUSH2 0x4AF SWAP1 PUSH2 0x9AD JUMP JUMPDEST SWAP2 POP POP PUSH2 0x45A JUMP JUMPDEST POP POP POP POP JUMP JUMPDEST PUSH1 0x0 DUP1 SLOAD SWAP1 PUSH2 0x100 EXP SWAP1 DIV PUSH16 0xFFFFFFFFFFFFFFFFFFFFFFFFFFFFFFFF AND DUP2 JUMP JUMPDEST PUSH1 0x0 PUSH1 0x64 DUP4 LT DUP1 ISZERO PUSH2 0x4F4 JUMPI POP PUSH2 0x4F3 DUP3 PUSH2 0x535 JUMP JUMPDEST JUMPDEST SWAP1 POP SWAP3 SWAP2 POP POP JUMP JUMPDEST PUSH1 0x0 PUSH1 0x1C SWAP1 SLOAD SWAP1 PUSH2 0x100 EXP SWAP1 DIV PUSH2 0xFFFF AND DUP2 JUMP JUMPDEST PUSH1 0x0 DUP3 DUP3 PUSH1 0x0 DUP2 DUP2 LT PUSH2 0x526 JUMPI PUSH2 0x525 PUSH2 0x8F7 JUMP JUMPDEST JUMPDEST SWAP1 POP PUSH1 0x20 MUL ADD CALLDATALOAD SWAP1 POP SWAP3 SWAP2 POP POP JUMP JUMPDEST PUSH1 0x0 DUP1 PUSH1 0x0 SHL DUP3 PUSH1 0x40 MLOAD PUSH1 0x20 ADD PUSH2 0x54C SWAP2 SWAP1 PUSH2 0xA16 JUMP JUMPDEST PUSH1 0x40 MLOAD PUSH1 0x20 DUP2 DUP4 SUB SUB DUP2 MSTORE SWAP1 PUSH1 0x40 MSTORE DUP1 MLOAD SWAP1 PUSH1 0x20 ADD KECCAK256 GT SWAP1 POP SWAP2 SWAP1 POP JUMP JUMPDEST PUSH1 0x0 DUP2 SWAP1 POP SWAP2 SWAP1 POP JUMP JUMPDEST PUSH2 0x57D DUP2 PUSH2 0x56A JUMP JUMPDEST DUP3 MSTORE POP POP JUMP JUMPDEST PUSH1 0x0 PUSH1 0x20 DUP3 ADD SWAP1 POP PUSH2 0x598 PUSH1 0x0 DUP4 ADD DUP5 PUSH2 0x574 JUMP JUMPDEST SWAP3 SWAP2 POP POP JUMP JUMPDEST PUSH1 0x0 DUP1 REVERT JUMPDEST PUSH1 0x0 DUP1 REVERT JUMPDEST PUSH1 0x0 DUP1 REVERT JUMPDEST PUSH1 0x0 DUP1 REVERT JUMPDEST PUSH1 0x0 DUP1 REVERT JUMPDEST PUSH1 0x0 DUP1 DUP4 PUSH1 0x1F DUP5 ADD SLT PUSH2 0x5CD JUMPI PUSH2 0x5CC PUSH2 0x5A8 JUMP JUMPDEST JUMPDEST DUP3 CALLDATALOAD SWAP1 POP PUSH8 0xFFFFFFFFFFFFFFFF DUP2 GT ISZERO PUSH2 0x5EA JUMPI PUSH2 0x5E9 PUSH2 0x5AD JUMP JUMPDEST JUMPDEST PUSH1 0x20 DUP4 ADD SWAP2 POP DUP4 PUSH1 0x20 DUP3 MUL DUP4 ADD GT ISZERO PUSH2 0x606 JUMPI PUSH2 0x605 PUSH2 0x5B2 JUMP JUMPDEST JUMPDEST SWAP3 POP SWAP3 SWAP1 POP JUMP JUMPDEST PUSH1 0x0 DUP1 PUSH1 0x20 DUP4 DUP6 SUB SLT ISZERO PUSH2 0x624 JUMPI PUSH2 0x623 PUSH2 0x59E JUMP JUMPDEST JUMPDEST PUSH1 0x0 DUP4 ADD CALLDATALOAD PUSH8 0xFFFFFFFFFFFFFFFF DUP2 GT ISZERO PUSH2 0x642 JUMPI PUSH2 0x641 PUSH2 0x5A3 JUMP JUMPDEST JUMPDEST PUSH2 0x64E DUP6 DUP3 DUP7 ADD PUSH2 0x5B7 JUMP JUMPDEST SWAP3 POP SWAP3 POP POP SWAP3 POP SWAP3 SWAP1 POP JUMP JUMPDEST PUSH1 0x0 DUP2 SWAP1 POP SWAP2 SWAP1 POP JUMP JUMPDEST PUSH2 0x66D DUP2 PUSH2 0x65A JUMP JUMPDEST DUP3 MSTORE POP POP JUMP JUMPDEST PUSH1 0x0 PUSH1 0x20 DUP3 ADD SWAP1 POP PUSH2 0x688 PUSH1 0x0 DUP4 ADD DUP5 PUSH2 0x664 JUMP JUMPDEST SWAP3 SWAP2 POP POP JUMP JUMPDEST PUSH2 0x697 DUP2 PUSH2 0x65A JUMP JUMPDEST DUP2 EQ PUSH2 0x6A2 JUMPI PUSH1 0x0 DUP1 REVERT JUMPDEST POP JUMP JUMPDEST PUSH1 0x0 DUP2 CALLDATALOAD SWAP1 POP PUSH2 0x6B4 DUP2 PUSH2 0x68E JUMP JUMPDEST SWAP3 SWAP2 POP POP JUMP JUMPDEST PUSH1 0x0 PUSH1 0x20 DUP3 DUP5 SUB SLT ISZERO PUSH2 0x6D0 JUMPI PUSH2 0x6CF PUSH2 0x59E JUMP JUMPDEST JUMPDEST PUSH1 0x0 PUSH2 0x6DE DUP5 DUP3 DUP6 ADD PUSH2 0x6A5 JUMP JUMPDEST SWAP2 POP POP SWAP3 SWAP2 POP POP JUMP JUMPDEST PUSH1 0x0 PUSH1 0xFF DUP3 AND SWAP1 POP SWAP2 SWAP1 POP JUMP JUMPDEST PUSH2 0x6FD DUP2 PUSH2 0x6E7 JUMP JUMPDEST DUP3 MSTORE POP POP JUMP JUMPDEST PUSH1 0x0 PUSH1 0x20 DUP3 ADD SWAP1 POP PUSH2 0x718 PUSH1 0x0 DUP4 ADD DUP5 PUSH2 0x6F4 JUMP JUMPDEST SWAP3 SWAP2 POP POP JUMP JUMPDEST PUSH1 0x0 DUP1 DUP4 PUSH1 0x1F DUP5 ADD SLT PUSH2 0x734 JUMPI PUSH2 0x733 PUSH2 0x5A8 JUMP JUMPDEST JUMPDEST DUP3 CALLDATALOAD SWAP1 POP PUSH8 0xFFFFFFFFFFFFFFFF DUP2 GT ISZERO PUSH2 0x751 JUMPI PUSH2 0x750 PUSH2 0x5AD JUMP JUMPDEST JUMPDEST PUSH1 0x20 DUP4 ADD SWAP2 POP DUP4 PUSH1 0x1 DUP3 MUL DUP4 ADD GT ISZERO PUSH2 0x76D JUMPI PUSH2 0x76C PUSH2 0x5B2 JUMP JUMPDEST JUMPDEST SWAP3 POP SWAP3 SWAP1 POP JUMP JUMPDEST PUSH1 0x0 DUP1 PUSH1 0x20 DUP4 DUP6 SUB SLT ISZERO PUSH2 0x78B JUMPI PUSH2 0x78A PUSH2 0x59E JUMP JUMPDEST JUMPDEST PUSH1 0x0 DUP4 ADD CALLDATALOAD PUSH8 0xFFFFFFFFFFFFFFFF DUP2 GT ISZERO PUSH2 0x7A9 JUMPI PUSH2 0x7A8 PUSH2 0x5A3 JUMP JUMPDEST JUMPDEST PUSH2 0x7B5 DUP6 DUP3 DUP7 ADD PUSH2 0x71E JUMP JUMPDEST SWAP3 POP SWAP3 POP POP SWAP3 POP SWAP3 SWAP1 POP JUMP JUMPDEST PUSH1 0x0 DUP2 ISZERO ISZERO SWAP1 POP SWAP2 SWAP1 POP JUMP JUMPDEST PUSH2 0x7D6 DUP2 PUSH2 0x7C1 JUMP JUMPDEST DUP3 MSTORE POP POP JUMP JUMPDEST PUSH1 0x0 PUSH1 0x20 DUP3 ADD SWAP1 POP PUSH2 0x7F1 PUSH1 0x0 DUP4 ADD DUP5 PUSH2 0x7CD JUMP JUMPDEST SWAP3 SWAP2 POP POP JUMP JUMPDEST PUSH1 0x0 PUSH12 0xFFFFFFFFFFFFFFFFFFFFFFFF DUP3 AND SWAP1 POP SWAP2 SWAP1 POP JUMP JUMPDEST PUSH2 0x818 DUP2 PUSH2 0x7F7 JUMP JUMPDEST DUP3 MSTORE POP POP JUMP JUMPDEST PUSH1 0x0 PUSH1 0x20 DUP3 ADD SWAP1 POP PUSH2 0x833 PUSH1 0x0 DUP4 ADD DUP5 PUSH2 0x80F JUMP JUMPDEST SWAP3 SWAP2 POP POP JUMP JUMPDEST PUSH1 0x0 PUSH16 0xFFFFFFFFFFFFFFFFFFFFFFFFFFFFFFFF DUP3 AND SWAP1 POP SWAP2 SWAP1 POP JUMP JUMPDEST PUSH2 0x85E DUP2 PUSH2 0x839 JUMP JUMPDEST DUP3 MSTORE POP POP JUMP JUMPDEST PUSH1 0x0 PUSH1 0x20 DUP3 ADD SWAP1 POP PUSH2 0x879 PUSH1 0x0 DUP4 ADD DUP5 PUSH2 0x855 JUMP JUMPDEST SWAP3 SWAP2 POP POP JUMP JUMPDEST PUSH1 0x0 DUP1 PUSH1 0x40 DUP4 DUP6 SUB SLT ISZERO PUSH2 0x896 JUMPI PUSH2 0x895 PUSH2 0x59E JUMP JUMPDEST JUMPDEST PUSH1 0x0 PUSH2 0x8A4 DUP6 DUP3 DUP7 ADD PUSH2 0x6A5 JUMP JUMPDEST SWAP3 POP POP PUSH1 0x20 PUSH2 0x8B5 DUP6 DUP3 DUP7 ADD PUSH2 0x6A5 JUMP JUMPDEST SWAP2 POP POP SWAP3 POP SWAP3 SWAP1 POP JUMP JUMPDEST PUSH1 0x0 PUSH2 0xFFFF DUP3 AND SWAP1 POP SWAP2 SWAP1 POP JUMP JUMPDEST PUSH2 0x8D6 DUP2 PUSH2 0x8BF JUMP JUMPDEST DUP3 MSTORE POP POP JUMP JUMPDEST PUSH1 0x0 PUSH1 0x20 DUP3 ADD SWAP1 POP PUSH2 0x8F1 PUSH1 0x0 DUP4 ADD DUP5 PUSH2 0x8CD JUMP JUMPDEST SWAP3 SWAP2 POP POP JUMP JUMPDEST PUSH32 0x4E487B7100000000000000000000000000000000000000000000000000000000 PUSH1 0x0 MSTORE PUSH1 0x32 PUSH1 0x4 MSTORE PUSH1 0x24 PUSH1 0x0 REVERT JUMPDEST PUSH1 0x0 DUP2 SWAP1 POP SWAP3 SWAP2 POP POP JUMP JUMPDEST DUP3 DUP2 DUP4 CALLDATACOPY PUSH1 0x0 DUP4 DUP4 ADD MSTORE POP POP POP JUMP JUMPDEST PUSH1 0x0 PUSH2 0x94C DUP4 DUP6 PUSH2 0x926 JUMP JUMPDEST SWAP4 POP PUSH2 0x959 DUP4 DUP6 DUP5 PUSH2 0x931 JUMP JUMPDEST DUP3 DUP5 ADD SWAP1 POP SWAP4 SWAP3 POP POP POP JUMP JUMPDEST PUSH1 0x0 PUSH2 0x972 DUP3 DUP5 DUP7 PUSH2 0x940 JUMP JUMPDEST SWAP2 POP DUP2 SWAP1 POP SWAP4 SWAP3 POP POP POP JUMP JUMPDEST PUSH32 0x4E487B7100000000000000000000000000000000000000000000000000000000 PUSH1 0x0 MSTORE PUSH1 0x11 PUSH1 0x4 MSTORE PUSH1 0x24 PUSH1 0x0 REVERT JUMPDEST PUSH1 0x0 PUSH2 0x9B8 DUP3 PUSH2 0x65A JUMP JUMPDEST SWAP2 POP PUSH32 0xFFFFFFFFFFFFFFFFFFFFFFFFFFFFFFFFFFFFFFFFFFFFFFFFFFFFFFFFFFFFFFFF DUP3 SUB PUSH2 0x9EA JUMPI PUSH2 0x9E9 PUSH2 0x97E JUMP JUMPDEST JUMPDEST PUSH1 0x1 DUP3 ADD SWAP1 POP SWAP2 SWAP1 POP JUMP JUMPDEST PUSH1 0x0 DUP2 SWAP1 POP SWAP2 SWAP1 POP JUMP JUMPDEST PUSH2 0xA10 PUSH2 0xA0B DUP3 PUSH2 0x65A JUMP JUMPDEST PUSH2 0x9F5 JUMP JUMPDEST DUP3 MSTORE POP POP JUMP JUMPDEST PUSH1 0x0 PUSH2 0xA22 DUP3 DUP5 PUSH2 0x9FF JUMP JUMPDEST PUSH1 0x20 DUP3 ADD SWAP2 POP DUP2 SWAP1 POP SWAP3 SWAP2 POP POP JUMP INVALID LOG2 PUSH5 0x6970667358 0x22 SLT KECCAK256 POP 0xC4 PUSH20 0xF23790E6BCD10812577C3FB23DCE8353AE6C3DFA 0xA8 JUMPDEST 0x4E GT 0xB2 0xE3 0xB9 SMOD 0xB7 PUSH5 0x736F6C6343 STOP ADDMOD LT STOP CALLER "
				},
				"gasEstimates": {
					"creation": {
						"codeDepositCost": "532600",
						"executionCost": "568",
						"totalCost": "533168"
					},
					"external": {
						"HASH()": "353",
						"addMultipleValues(uint256[])": "infinite",
						"bigNumber()": "2497",
						"complexCheck(uint256,uint256)": "infinite",
						"fixedArray(uint256)": "infinite",
						"flag()": "2544",
						"number1()": "2490",
						"number2()": "2566",
						"number3()": "2587",
						"number4()": "2610",
						"processArray(uint256[])": "806",
						"processString(string)": "infinite",
						"smallNumber()": "2516",
						"sumArray(uint256[])": "infinite",
						"values(uint256)": "infinite"
					},
					"internal": {
						"complexOperation(uint256)": "infinite"
					}
				},
				"methodIdentifiers": {
					"HASH()": "0322ed08",
					"addMultipleValues(uint256[])": "bc56fd47",
					"bigNumber()": "45964e9e",
					"complexCheck(uint256,uint256)": "c6cfdbd1",
					"fixedArray(uint256)": "9a5009ac",
					"flag()": "890eba68",
					"number1()": "c223a39e",
					"number2()": "90c52443",
					"number3()": "d6980dfd",
					"number4()": "86c72429",
					"processArray(uint256[])": "e7e23780",
					"processString(string)": "7c216809",
					"smallNumber()": "6670cde0",
					"sumArray(uint256[])": "1e2aea06",
					"values(uint256)": "5e383d21"
				}
			},
			"storageLayout": {
				"storage": [
					{
						"astId": 3,
						"contract": "contracts/vds.sol:GasOptimization",
						"label": "number1",
						"offset": 0,
						"slot": "0",
						"type": "t_uint128"
					},
					{
						"astId": 5,
						"contract": "contracts/vds.sol:GasOptimization",
						"label": "number2",
						"offset": 16,
						"slot": "0",
						"type": "t_uint96"
					},
					{
						"astId": 7,
						"contract": "contracts/vds.sol:GasOptimization",
						"label": "number3",
						"offset": 28,
						"slot": "0",
						"type": "t_uint16"
					},
					{
						"astId": 9,
						"contract": "contracts/vds.sol:GasOptimization",
						"label": "number4",
						"offset": 30,
						"slot": "0",
						"type": "t_uint8"
					},
					{
						"astId": 11,
						"contract": "contracts/vds.sol:GasOptimization",
						"label": "flag",
						"offset": 31,
						"slot": "0",
						"type": "t_bool"
					},
					{
						"astId": 13,
						"contract": "contracts/vds.sol:GasOptimization",
						"label": "bigNumber",
						"offset": 0,
						"slot": "1",
						"type": "t_uint256"
					},
					{
						"astId": 15,
						"contract": "contracts/vds.sol:GasOptimization",
						"label": "smallNumber",
						"offset": 0,
						"slot": "2",
						"type": "t_uint8"
					},
					{
						"astId": 19,
						"contract": "contracts/vds.sol:GasOptimization",
						"label": "fixedArray",
						"offset": 0,
						"slot": "3",
						"type": "t_array(t_uint256)10_storage"
					},
					{
						"astId": 131,
						"contract": "contracts/vds.sol:GasOptimization",
						"label": "values",
						"offset": 0,
						"slot": "13",
						"type": "t_array(t_uint256)dyn_storage"
					}
				],
				"types": {
					"t_array(t_uint256)10_storage": {
						"base": "t_uint256",
						"encoding": "inplace",
						"label": "uint256[10]",
						"numberOfBytes": "320"
					},
					"t_array(t_uint256)dyn_storage": {
						"base": "t_uint256",
						"encoding": "dynamic_array",
						"label": "uint256[]",
						"numberOfBytes": "32"
					},
					"t_bool": {
						"encoding": "inplace",
						"label": "bool",
						"numberOfBytes": "1"
					},
					"t_uint128": {
						"encoding": "inplace",
						"label": "uint128",
						"numberOfBytes": "16"
					},
					"t_uint16": {
						"encoding": "inplace",
						"label": "uint16",
						"numberOfBytes": "2"
					},
					"t_uint256": {
						"encoding": "inplace",
						"label": "uint256",
						"numberOfBytes": "32"
					},
					"t_uint8": {
						"encoding": "inplace",
						"label": "uint8",
						"numberOfBytes": "1"
					},
					"t_uint96": {
						"encoding": "inplace",
						"label": "uint96",
						"numberOfBytes": "12"
					}
				}
			},
			"userdoc": {
				"kind": "user",
				"methods": {},
				"version": 1
			}
		}
	}
}