{
	"contracts/ExampleInt.sol": {
		"ExampleUint": {
			"abi": [
				{
					"inputs": [],
					"name": "decrementUint",
					"outputs": [],
					"stateMutability": "nonpayable",
					"type": "function"
				},
				{
					"inputs": [],
					"name": "incrementInt",
					"outputs": [],
					"stateMutability": "nonpayable",
					"type": "function"
				},
				{
					"inputs": [],
					"name": "incrementUint8",
					"outputs": [],
					"stateMutability": "nonpayable",
					"type": "function"
				},
				{
					"inputs": [],
					"name": "myInt",
					"outputs": [
						{
							"internalType": "int256",
							"name": "",
							"type": "int256"
						}
					],
					"stateMutability": "view",
					"type": "function"
				},
				{
					"inputs": [],
					"name": "myUint",
					"outputs": [
						{
							"internalType": "uint256",
							"name": "",
							"type": "uint256"
						}
					],
					"stateMutability": "view",
					"type": "function"
				},
				{
					"inputs": [],
					"name": "myUint8",
					"outputs": [
						{
							"internalType": "uint8",
							"name": "",
							"type": "uint8"
						}
					],
					"stateMutability": "view",
					"type": "function"
				},
				{
					"inputs": [],
					"name": "myUint8_EXP",
					"outputs": [
						{
							"internalType": "uint8",
							"name": "",
							"type": "uint8"
						}
					],
					"stateMutability": "view",
					"type": "function"
				},
				{
					"inputs": [
						{
							"internalType": "uint256",
							"name": "_myUint",
							"type": "uint256"
						}
					],
					"name": "setMyUint",
					"outputs": [],
					"stateMutability": "nonpayable",
					"type": "function"
				}
			],
			"devdoc": {
				"kind": "dev",
				"methods": {},
				"version": 1
			},
			"evm": {
				"assembly": "    /* \"contracts/ExampleInt.sol\":63:589  contract ExampleUint {... */\n  mstore(0x40, 0x80)\n    /* \"contracts/ExampleInt.sol\":161:164  250 */\n  0xfa\n    /* \"contracts/ExampleInt.sol\":138:164  uint8 public myUint8 = 250 */\n  0x01\n  exp(0x0100, 0x00)\n  dup2\n  sload\n  dup2\n  0xff\n  mul\n  not\n  and\n  swap1\n  dup4\n  0xff\n  and\n  mul\n  or\n  swap1\n  sstore\n  pop\n    /* \"contracts/ExampleInt.sol\":201:205  2**4 */\n  0x10\n    /* \"contracts/ExampleInt.sol\":174:205  uint8 public myUint8_EXP = 2**4 */\n  0x01\n  dup1\n  0x0100\n  exp\n  dup2\n  sload\n  dup2\n  0xff\n  mul\n  not\n  and\n  swap1\n  dup4\n  0xff\n  and\n  mul\n  or\n  swap1\n  sstore\n  pop\n    /* \"contracts/ExampleInt.sol\":272:275  -10 */\n  0xfffffffffffffffffffffffffffffffffffffffffffffffffffffffffffffff6\n    /* \"contracts/ExampleInt.sol\":253:275  int public myInt = -10 */\n  0x02\n  sstore\n    /* \"contracts/ExampleInt.sol\":63:589  contract ExampleUint {... */\n  callvalue\n  dup1\n  iszero\n  tag_1\n  jumpi\n  0x00\n  dup1\n  revert\ntag_1:\n  pop\n  dataSize(sub_0)\n  dup1\n  dataOffset(sub_0)\n  0x00\n  codecopy\n  0x00\n  return\nstop\n\nsub_0: assembly {\n        /* \"contracts/ExampleInt.sol\":63:589  contract ExampleUint {... */\n      mstore(0x40, 0x80)\n      callvalue\n      dup1\n      iszero\n      tag_1\n      jumpi\n      0x00\n      dup1\n      revert\n    tag_1:\n      pop\n      jumpi(tag_2, lt(calldatasize, 0x04))\n      shr(0xe0, calldataload(0x00))\n      dup1\n      0xda50eaee\n      gt\n      tag_11\n      jumpi\n      dup1\n      0xda50eaee\n      eq\n      tag_7\n      jumpi\n      dup1\n      0xe2a4b2af\n      eq\n      tag_8\n      jumpi\n      dup1\n      0xe492fd84\n      eq\n      tag_9\n      jumpi\n      dup1\n      0xf102a71d\n      eq\n      tag_10\n      jumpi\n      jump(tag_2)\n    tag_11:\n      dup1\n      0x06540f7e\n      eq\n      tag_3\n      jumpi\n      dup1\n      0x2cb777a6\n      eq\n      tag_4\n      jumpi\n      dup1\n      0x84ea3606\n      eq\n      tag_5\n      jumpi\n      dup1\n      0x9fa39ec8\n      eq\n      tag_6\n      jumpi\n    tag_2:\n      0x00\n      dup1\n      revert\n        /* \"contracts/ExampleInt.sol\":91:112  uint256 public myUint */\n    tag_3:\n      tag_12\n      tag_13\n      jump\t// in\n    tag_12:\n      mload(0x40)\n      tag_14\n      swap2\n      swap1\n      tag_15\n      jump\t// in\n    tag_14:\n      mload(0x40)\n      dup1\n      swap2\n      sub\n      swap1\n      return\n        /* \"contracts/ExampleInt.sol\":253:275  int public myInt = -10 */\n    tag_4:\n      tag_16\n      tag_17\n      jump\t// in\n    tag_16:\n      mload(0x40)\n      tag_18\n      swap2\n      swap1\n      tag_19\n      jump\t// in\n    tag_18:\n      mload(0x40)\n      dup1\n      swap2\n      sub\n      swap1\n      return\n        /* \"contracts/ExampleInt.sol\":459:520  function incrementUint8() public {... */\n    tag_5:\n      tag_20\n      tag_21\n      jump\t// in\n    tag_20:\n      stop\n        /* \"contracts/ExampleInt.sol\":174:205  uint8 public myUint8_EXP = 2**4 */\n    tag_6:\n      tag_22\n      tag_23\n      jump\t// in\n    tag_22:\n      mload(0x40)\n      tag_24\n      swap2\n      swap1\n      tag_25\n      jump\t// in\n    tag_24:\n      mload(0x40)\n      dup1\n      swap2\n      sub\n      swap1\n      return\n        /* \"contracts/ExampleInt.sol\":391:450  function decrementUint() public {... */\n    tag_7:\n      tag_26\n      tag_27\n      jump\t// in\n    tag_26:\n      stop\n        /* \"contracts/ExampleInt.sol\":138:164  uint8 public myUint8 = 250 */\n    tag_8:\n      tag_28\n      tag_29\n      jump\t// in\n    tag_28:\n      mload(0x40)\n      tag_30\n      swap2\n      swap1\n      tag_25\n      jump\t// in\n    tag_30:\n      mload(0x40)\n      dup1\n      swap2\n      sub\n      swap1\n      return\n        /* \"contracts/ExampleInt.sol\":307:382  function setMyUint(uint _myUint) public {... */\n    tag_9:\n      tag_31\n      0x04\n      dup1\n      calldatasize\n      sub\n      dup2\n      add\n      swap1\n      tag_32\n      swap2\n      swap1\n      tag_33\n      jump\t// in\n    tag_32:\n      tag_34\n      jump\t// in\n    tag_31:\n      stop\n        /* \"contracts/ExampleInt.sol\":529:586  function incrementInt() public {... */\n    tag_10:\n      tag_35\n      tag_36\n      jump\t// in\n    tag_35:\n      stop\n        /* \"contracts/ExampleInt.sol\":91:112  uint256 public myUint */\n    tag_13:\n      sload(0x00)\n      dup2\n      jump\t// out\n        /* \"contracts/ExampleInt.sol\":253:275  int public myInt = -10 */\n    tag_17:\n      sload(0x02)\n      dup2\n      jump\t// out\n        /* \"contracts/ExampleInt.sol\":459:520  function incrementUint8() public {... */\n    tag_21:\n        /* \"contracts/ExampleInt.sol\":503:510  myUint8 */\n      0x01\n      0x00\n        /* \"contracts/ExampleInt.sol\":503:512  myUint8++ */\n      dup2\n      dup2\n      swap1\n      sload\n      swap1\n      0x0100\n      exp\n      swap1\n      div\n      0xff\n      and\n      dup1\n      swap3\n      swap2\n      swap1\n      tag_38\n      swap1\n      tag_39\n      jump\t// in\n    tag_38:\n      swap2\n      swap1\n      0x0100\n      exp\n      dup2\n      sload\n      dup2\n      0xff\n      mul\n      not\n      and\n      swap1\n      dup4\n      0xff\n      and\n      mul\n      or\n      swap1\n      sstore\n      pop\n      pop\n        /* \"contracts/ExampleInt.sol\":459:520  function incrementUint8() public {... */\n      jump\t// out\n        /* \"contracts/ExampleInt.sol\":174:205  uint8 public myUint8_EXP = 2**4 */\n    tag_23:\n      0x01\n      dup1\n      sload\n      swap1\n      0x0100\n      exp\n      swap1\n      div\n      0xff\n      and\n      dup2\n      jump\t// out\n        /* \"contracts/ExampleInt.sol\":391:450  function decrementUint() public {... */\n    tag_27:\n        /* \"contracts/ExampleInt.sol\":434:440  myUint */\n      0x00\n      dup1\n        /* \"contracts/ExampleInt.sol\":434:442  myUint-- */\n      dup2\n      sload\n      dup1\n      swap3\n      swap2\n      swap1\n      tag_41\n      swap1\n      tag_42\n      jump\t// in\n    tag_41:\n      swap2\n      swap1\n      pop\n      sstore\n      pop\n        /* \"contracts/ExampleInt.sol\":391:450  function decrementUint() public {... */\n      jump\t// out\n        /* \"contracts/ExampleInt.sol\":138:164  uint8 public myUint8 = 250 */\n    tag_29:\n      0x01\n      0x00\n      swap1\n      sload\n      swap1\n      0x0100\n      exp\n      swap1\n      div\n      0xff\n      and\n      dup2\n      jump\t// out\n        /* \"contracts/ExampleInt.sol\":307:382  function setMyUint(uint _myUint) public {... */\n    tag_34:\n        /* \"contracts/ExampleInt.sol\":367:374  _myUint */\n      dup1\n        /* \"contracts/ExampleInt.sol\":358:364  myUint */\n      0x00\n        /* \"contracts/ExampleInt.sol\":358:374  myUint = _myUint */\n      dup2\n      swap1\n      sstore\n      pop\n        /* \"contracts/ExampleInt.sol\":307:382  function setMyUint(uint _myUint) public {... */\n      pop\n      jump\t// out\n        /* \"contracts/ExampleInt.sol\":529:586  function incrementInt() public {... */\n    tag_36:\n        /* \"contracts/ExampleInt.sol\":571:576  myInt */\n      0x02\n      0x00\n        /* \"contracts/ExampleInt.sol\":571:578  myInt++ */\n      dup2\n      sload\n      dup1\n      swap3\n      swap2\n      swap1\n      tag_45\n      swap1\n      tag_46\n      jump\t// in\n    tag_45:\n      swap2\n      swap1\n      pop\n      sstore\n      pop\n        /* \"contracts/ExampleInt.sol\":529:586  function incrementInt() public {... */\n      jump\t// out\n        /* \"#utility.yul\":7:84   */\n    tag_47:\n        /* \"#utility.yul\":44:51   */\n      0x00\n        /* \"#utility.yul\":73:78   */\n      dup2\n        /* \"#utility.yul\":62:78   */\n      swap1\n      pop\n        /* \"#utility.yul\":7:84   */\n      swap2\n      swap1\n      pop\n      jump\t// out\n        /* \"#utility.yul\":90:208   */\n    tag_48:\n        /* \"#utility.yul\":177:201   */\n      tag_62\n        /* \"#utility.yul\":195:200   */\n      dup2\n        /* \"#utility.yul\":177:201   */\n      tag_47\n      jump\t// in\n    tag_62:\n        /* \"#utility.yul\":172:175   */\n      dup3\n        /* \"#utility.yul\":165:202   */\n      mstore\n        /* \"#utility.yul\":90:208   */\n      pop\n      pop\n      jump\t// out\n        /* \"#utility.yul\":214:436   */\n    tag_15:\n        /* \"#utility.yul\":307:311   */\n      0x00\n        /* \"#utility.yul\":345:347   */\n      0x20\n        /* \"#utility.yul\":334:343   */\n      dup3\n        /* \"#utility.yul\":330:348   */\n      add\n        /* \"#utility.yul\":322:348   */\n      swap1\n      pop\n        /* \"#utility.yul\":358:429   */\n      tag_64\n        /* \"#utility.yul\":426:427   */\n      0x00\n        /* \"#utility.yul\":415:424   */\n      dup4\n        /* \"#utility.yul\":411:428   */\n      add\n        /* \"#utility.yul\":402:408   */\n      dup5\n        /* \"#utility.yul\":358:429   */\n      tag_48\n      jump\t// in\n    tag_64:\n        /* \"#utility.yul\":214:436   */\n      swap3\n      swap2\n      pop\n      pop\n      jump\t// out\n        /* \"#utility.yul\":442:518   */\n    tag_49:\n        /* \"#utility.yul\":478:485   */\n      0x00\n        /* \"#utility.yul\":507:512   */\n      dup2\n        /* \"#utility.yul\":496:512   */\n      swap1\n      pop\n        /* \"#utility.yul\":442:518   */\n      swap2\n      swap1\n      pop\n      jump\t// out\n        /* \"#utility.yul\":524:639   */\n    tag_50:\n        /* \"#utility.yul\":609:632   */\n      tag_67\n        /* \"#utility.yul\":626:631   */\n      dup2\n        /* \"#utility.yul\":609:632   */\n      tag_49\n      jump\t// in\n    tag_67:\n        /* \"#utility.yul\":604:607   */\n      dup3\n        /* \"#utility.yul\":597:633   */\n      mstore\n        /* \"#utility.yul\":524:639   */\n      pop\n      pop\n      jump\t// out\n        /* \"#utility.yul\":645:863   */\n    tag_19:\n        /* \"#utility.yul\":736:740   */\n      0x00\n        /* \"#utility.yul\":774:776   */\n      0x20\n        /* \"#utility.yul\":763:772   */\n      dup3\n        /* \"#utility.yul\":759:777   */\n      add\n        /* \"#utility.yul\":751:777   */\n      swap1\n      pop\n        /* \"#utility.yul\":787:856   */\n      tag_69\n        /* \"#utility.yul\":853:854   */\n      0x00\n        /* \"#utility.yul\":842:851   */\n      dup4\n        /* \"#utility.yul\":838:855   */\n      add\n        /* \"#utility.yul\":829:835   */\n      dup5\n        /* \"#utility.yul\":787:856   */\n      tag_50\n      jump\t// in\n    tag_69:\n        /* \"#utility.yul\":645:863   */\n      swap3\n      swap2\n      pop\n      pop\n      jump\t// out\n        /* \"#utility.yul\":869:955   */\n    tag_51:\n        /* \"#utility.yul\":904:911   */\n      0x00\n        /* \"#utility.yul\":944:948   */\n      0xff\n        /* \"#utility.yul\":937:942   */\n      dup3\n        /* \"#utility.yul\":933:949   */\n      and\n        /* \"#utility.yul\":922:949   */\n      swap1\n      pop\n        /* \"#utility.yul\":869:955   */\n      swap2\n      swap1\n      pop\n      jump\t// out\n        /* \"#utility.yul\":961:1073   */\n    tag_52:\n        /* \"#utility.yul\":1044:1066   */\n      tag_72\n        /* \"#utility.yul\":1060:1065   */\n      dup2\n        /* \"#utility.yul\":1044:1066   */\n      tag_51\n      jump\t// in\n    tag_72:\n        /* \"#utility.yul\":1039:1042   */\n      dup3\n        /* \"#utility.yul\":1032:1067   */\n      mstore\n        /* \"#utility.yul\":961:1073   */\n      pop\n      pop\n      jump\t// out\n        /* \"#utility.yul\":1079:1293   */\n    tag_25:\n        /* \"#utility.yul\":1168:1172   */\n      0x00\n        /* \"#utility.yul\":1206:1208   */\n      0x20\n        /* \"#utility.yul\":1195:1204   */\n      dup3\n        /* \"#utility.yul\":1191:1209   */\n      add\n        /* \"#utility.yul\":1183:1209   */\n      swap1\n      pop\n        /* \"#utility.yul\":1219:1286   */\n      tag_74\n        /* \"#utility.yul\":1283:1284   */\n      0x00\n        /* \"#utility.yul\":1272:1281   */\n      dup4\n        /* \"#utility.yul\":1268:1285   */\n      add\n        /* \"#utility.yul\":1259:1265   */\n      dup5\n        /* \"#utility.yul\":1219:1286   */\n      tag_52\n      jump\t// in\n    tag_74:\n        /* \"#utility.yul\":1079:1293   */\n      swap3\n      swap2\n      pop\n      pop\n      jump\t// out\n        /* \"#utility.yul\":1380:1497   */\n    tag_54:\n        /* \"#utility.yul\":1489:1490   */\n      0x00\n        /* \"#utility.yul\":1486:1487   */\n      dup1\n        /* \"#utility.yul\":1479:1491   */\n      revert\n        /* \"#utility.yul\":1626:1748   */\n    tag_56:\n        /* \"#utility.yul\":1699:1723   */\n      tag_79\n        /* \"#utility.yul\":1717:1722   */\n      dup2\n        /* \"#utility.yul\":1699:1723   */\n      tag_47\n      jump\t// in\n    tag_79:\n        /* \"#utility.yul\":1692:1697   */\n      dup2\n        /* \"#utility.yul\":1689:1724   */\n      eq\n        /* \"#utility.yul\":1679:1742   */\n      tag_80\n      jumpi\n        /* \"#utility.yul\":1738:1739   */\n      0x00\n        /* \"#utility.yul\":1735:1736   */\n      dup1\n        /* \"#utility.yul\":1728:1740   */\n      revert\n        /* \"#utility.yul\":1679:1742   */\n    tag_80:\n        /* \"#utility.yul\":1626:1748   */\n      pop\n      jump\t// out\n        /* \"#utility.yul\":1754:1893   */\n    tag_57:\n        /* \"#utility.yul\":1800:1805   */\n      0x00\n        /* \"#utility.yul\":1838:1844   */\n      dup2\n        /* \"#utility.yul\":1825:1845   */\n      calldataload\n        /* \"#utility.yul\":1816:1845   */\n      swap1\n      pop\n        /* \"#utility.yul\":1854:1887   */\n      tag_82\n        /* \"#utility.yul\":1881:1886   */\n      dup2\n        /* \"#utility.yul\":1854:1887   */\n      tag_56\n      jump\t// in\n    tag_82:\n        /* \"#utility.yul\":1754:1893   */\n      swap3\n      swap2\n      pop\n      pop\n      jump\t// out\n        /* \"#utility.yul\":1899:2228   */\n    tag_33:\n        /* \"#utility.yul\":1958:1964   */\n      0x00\n        /* \"#utility.yul\":2007:2009   */\n      0x20\n        /* \"#utility.yul\":1995:2004   */\n      dup3\n        /* \"#utility.yul\":1986:1993   */\n      dup5\n        /* \"#utility.yul\":1982:2005   */\n      sub\n        /* \"#utility.yul\":1978:2010   */\n      slt\n        /* \"#utility.yul\":1975:2094   */\n      iszero\n      tag_84\n      jumpi\n        /* \"#utility.yul\":2013:2092   */\n      tag_85\n      tag_54\n      jump\t// in\n    tag_85:\n        /* \"#utility.yul\":1975:2094   */\n    tag_84:\n        /* \"#utility.yul\":2133:2134   */\n      0x00\n        /* \"#utility.yul\":2158:2211   */\n      tag_86\n        /* \"#utility.yul\":2203:2210   */\n      dup5\n        /* \"#utility.yul\":2194:2200   */\n      dup3\n        /* \"#utility.yul\":2183:2192   */\n      dup6\n        /* \"#utility.yul\":2179:2201   */\n      add\n        /* \"#utility.yul\":2158:2211   */\n      tag_57\n      jump\t// in\n    tag_86:\n        /* \"#utility.yul\":2148:2211   */\n      swap2\n      pop\n        /* \"#utility.yul\":2104:2221   */\n      pop\n        /* \"#utility.yul\":1899:2228   */\n      swap3\n      swap2\n      pop\n      pop\n      jump\t// out\n        /* \"#utility.yul\":2234:2414   */\n    tag_58:\n        /* \"#utility.yul\":2282:2359   */\n      0x4e487b7100000000000000000000000000000000000000000000000000000000\n        /* \"#utility.yul\":2279:2280   */\n      0x00\n        /* \"#utility.yul\":2272:2360   */\n      mstore\n        /* \"#utility.yul\":2379:2383   */\n      0x11\n        /* \"#utility.yul\":2376:2377   */\n      0x04\n        /* \"#utility.yul\":2369:2384   */\n      mstore\n        /* \"#utility.yul\":2403:2407   */\n      0x24\n        /* \"#utility.yul\":2400:2401   */\n      0x00\n        /* \"#utility.yul\":2393:2408   */\n      revert\n        /* \"#utility.yul\":2420:2587   */\n    tag_39:\n        /* \"#utility.yul\":2457:2460   */\n      0x00\n        /* \"#utility.yul\":2480:2502   */\n      tag_89\n        /* \"#utility.yul\":2496:2501   */\n      dup3\n        /* \"#utility.yul\":2480:2502   */\n      tag_51\n      jump\t// in\n    tag_89:\n        /* \"#utility.yul\":2471:2502   */\n      swap2\n      pop\n        /* \"#utility.yul\":2524:2528   */\n      0xff\n        /* \"#utility.yul\":2517:2522   */\n      dup3\n        /* \"#utility.yul\":2514:2529   */\n      sub\n        /* \"#utility.yul\":2511:2552   */\n      tag_90\n      jumpi\n        /* \"#utility.yul\":2532:2550   */\n      tag_91\n      tag_58\n      jump\t// in\n    tag_91:\n        /* \"#utility.yul\":2511:2552   */\n    tag_90:\n        /* \"#utility.yul\":2579:2580   */\n      0x01\n        /* \"#utility.yul\":2572:2577   */\n      dup3\n        /* \"#utility.yul\":2568:2581   */\n      add\n        /* \"#utility.yul\":2561:2581   */\n      swap1\n      pop\n        /* \"#utility.yul\":2420:2587   */\n      swap2\n      swap1\n      pop\n      jump\t// out\n        /* \"#utility.yul\":2593:2764   */\n    tag_42:\n        /* \"#utility.yul\":2632:2635   */\n      0x00\n        /* \"#utility.yul\":2655:2679   */\n      tag_93\n        /* \"#utility.yul\":2673:2678   */\n      dup3\n        /* \"#utility.yul\":2655:2679   */\n      tag_47\n      jump\t// in\n    tag_93:\n        /* \"#utility.yul\":2646:2679   */\n      swap2\n      pop\n        /* \"#utility.yul\":2701:2705   */\n      0x00\n        /* \"#utility.yul\":2694:2699   */\n      dup3\n        /* \"#utility.yul\":2691:2706   */\n      sub\n        /* \"#utility.yul\":2688:2729   */\n      tag_94\n      jumpi\n        /* \"#utility.yul\":2709:2727   */\n      tag_95\n      tag_58\n      jump\t// in\n    tag_95:\n        /* \"#utility.yul\":2688:2729   */\n    tag_94:\n        /* \"#utility.yul\":2756:2757   */\n      0x01\n        /* \"#utility.yul\":2749:2754   */\n      dup3\n        /* \"#utility.yul\":2745:2758   */\n      sub\n        /* \"#utility.yul\":2738:2758   */\n      swap1\n      pop\n        /* \"#utility.yul\":2593:2764   */\n      swap2\n      swap1\n      pop\n      jump\t// out\n        /* \"#utility.yul\":2770:3001   */\n    tag_46:\n        /* \"#utility.yul\":2808:2811   */\n      0x00\n        /* \"#utility.yul\":2831:2854   */\n      tag_97\n        /* \"#utility.yul\":2848:2853   */\n      dup3\n        /* \"#utility.yul\":2831:2854   */\n      tag_49\n      jump\t// in\n    tag_97:\n        /* \"#utility.yul\":2822:2854   */\n      swap2\n      pop\n        /* \"#utility.yul\":2876:2942   */\n      0x7fffffffffffffffffffffffffffffffffffffffffffffffffffffffffffffff\n        /* \"#utility.yul\":2869:2874   */\n      dup3\n        /* \"#utility.yul\":2866:2943   */\n      sub\n        /* \"#utility.yul\":2863:2966   */\n      tag_98\n      jumpi\n        /* \"#utility.yul\":2946:2964   */\n      tag_99\n      tag_58\n      jump\t// in\n    tag_99:\n        /* \"#utility.yul\":2863:2966   */\n    tag_98:\n        /* \"#utility.yul\":2993:2994   */\n      0x01\n        /* \"#utility.yul\":2986:2991   */\n      dup3\n        /* \"#utility.yul\":2982:2995   */\n      add\n        /* \"#utility.yul\":2975:2995   */\n      swap1\n      pop\n        /* \"#utility.yul\":2770:3001   */\n      swap2\n      swap1\n      pop\n      jump\t// out\n\n    auxdata: 0xa2646970667358221220545e05bb57ed06098b1428eb6e14bbec84ac066a3875e15e4f017adc9c09ba4e64736f6c634300080e0033\n}\n",
				"bytecode": {
					"linkReferences": {},
					"object": "608060405260fa600160006101000a81548160ff021916908360ff16021790555060106001806101000a81548160ff021916908360ff1602179055507ffffffffffffffffffffffffffffffffffffffffffffffffffffffffffffffff660025534801561006b57600080fd5b506103e28061007b6000396000f3fe608060405234801561001057600080fd5b50600436106100885760003560e01c8063da50eaee1161005b578063da50eaee146100f1578063e2a4b2af146100fb578063e492fd8414610119578063f102a71d1461013557610088565b806306540f7e1461008d5780632cb777a6146100ab57806384ea3606146100c95780639fa39ec8146100d3575b600080fd5b61009561013f565b6040516100a291906101ff565b60405180910390f35b6100b3610145565b6040516100c09190610233565b60405180910390f35b6100d161014b565b005b6100db610185565b6040516100e8919061026a565b60405180910390f35b6100f9610196565b005b6101036101af565b604051610110919061026a565b60405180910390f35b610133600480360381019061012e91906102b6565b6101c2565b005b61013d6101cc565b005b60005481565b60025481565b6001600081819054906101000a900460ff168092919061016a90610312565b91906101000a81548160ff021916908360ff16021790555050565b60018054906101000a900460ff1681565b6000808154809291906101a89061033b565b9190505550565b600160009054906101000a900460ff1681565b8060008190555050565b600260008154809291906101df90610364565b9190505550565b6000819050919050565b6101f9816101e6565b82525050565b600060208201905061021460008301846101f0565b92915050565b6000819050919050565b61022d8161021a565b82525050565b60006020820190506102486000830184610224565b92915050565b600060ff82169050919050565b6102648161024e565b82525050565b600060208201905061027f600083018461025b565b92915050565b600080fd5b610293816101e6565b811461029e57600080fd5b50565b6000813590506102b08161028a565b92915050565b6000602082840312156102cc576102cb610285565b5b60006102da848285016102a1565b91505092915050565b7f4e487b7100000000000000000000000000000000000000000000000000000000600052601160045260246000fd5b600061031d8261024e565b915060ff82036103305761032f6102e3565b5b600182019050919050565b6000610346826101e6565b915060008203610359576103586102e3565b5b600182039050919050565b600061036f8261021a565b91507f7fffffffffffffffffffffffffffffffffffffffffffffffffffffffffffffff82036103a1576103a06102e3565b5b60018201905091905056fea2646970667358221220545e05bb57ed06098b1428eb6e14bbec84ac066a3875e15e4f017adc9c09ba4e64736f6c634300080e0033",
					"opcodes": "PUSH1 0x80 PUSH1 0x40 MSTORE PUSH1 0xFA PUSH1 0x1 PUSH1 0x0 PUSH2 0x100 EXP DUP2 SLOAD DUP2 PUSH1 0xFF MUL NOT AND SWAP1 DUP4 PUSH1 0xFF AND MUL OR SWAP1 SSTORE POP PUSH1 0x10 PUSH1 0x1 DUP1 PUSH2 0x100 EXP DUP2 SLOAD DUP2 PUSH1 0xFF MUL NOT AND SWAP1 DUP4 PUSH1 0xFF AND MUL OR SWAP1 SSTORE POP PUSH32 0xFFFFFFFFFFFFFFFFFFFFFFFFFFFFFFFFFFFFFFFFFFFFFFFFFFFFFFFFFFFFFFF6 PUSH1 0x2 SSTORE CALLVALUE DUP1 ISZERO PUSH2 0x6B JUMPI PUSH1 0x0 DUP1 REVERT JUMPDEST POP PUSH2 0x3E2 DUP1 PUSH2 0x7B PUSH1 0x0 CODECOPY PUSH1 0x0 RETURN INVALID PUSH1 0x80 PUSH1 0x40 MSTORE CALLVALUE DUP1 ISZERO PUSH2 0x10 JUMPI PUSH1 0x0 DUP1 REVERT JUMPDEST POP PUSH1 0x4 CALLDATASIZE LT PUSH2 0x88 JUMPI PUSH1 0x0 CALLDATALOAD PUSH1 0xE0 SHR DUP1 PUSH4 0xDA50EAEE GT PUSH2 0x5B JUMPI DUP1 PUSH4 0xDA50EAEE EQ PUSH2 0xF1 JUMPI DUP1 PUSH4 0xE2A4B2AF EQ PUSH2 0xFB JUMPI DUP1 PUSH4 0xE492FD84 EQ PUSH2 0x119 JUMPI DUP1 PUSH4 0xF102A71D EQ PUSH2 0x135 JUMPI PUSH2 0x88 JUMP JUMPDEST DUP1 PUSH4 0x6540F7E EQ PUSH2 0x8D JUMPI DUP1 PUSH4 0x2CB777A6 EQ PUSH2 0xAB JUMPI DUP1 PUSH4 0x84EA3606 EQ PUSH2 0xC9 JUMPI DUP1 PUSH4 0x9FA39EC8 EQ PUSH2 0xD3 JUMPI JUMPDEST PUSH1 0x0 DUP1 REVERT JUMPDEST PUSH2 0x95 PUSH2 0x13F JUMP JUMPDEST PUSH1 0x40 MLOAD PUSH2 0xA2 SWAP2 SWAP1 PUSH2 0x1FF JUMP JUMPDEST PUSH1 0x40 MLOAD DUP1 SWAP2 SUB SWAP1 RETURN JUMPDEST PUSH2 0xB3 PUSH2 0x145 JUMP JUMPDEST PUSH1 0x40 MLOAD PUSH2 0xC0 SWAP2 SWAP1 PUSH2 0x233 JUMP JUMPDEST PUSH1 0x40 MLOAD DUP1 SWAP2 SUB SWAP1 RETURN JUMPDEST PUSH2 0xD1 PUSH2 0x14B JUMP JUMPDEST STOP JUMPDEST PUSH2 0xDB PUSH2 0x185 JUMP JUMPDEST PUSH1 0x40 MLOAD PUSH2 0xE8 SWAP2 SWAP1 PUSH2 0x26A JUMP JUMPDEST PUSH1 0x40 MLOAD DUP1 SWAP2 SUB SWAP1 RETURN JUMPDEST PUSH2 0xF9 PUSH2 0x196 JUMP JUMPDEST STOP JUMPDEST PUSH2 0x103 PUSH2 0x1AF JUMP JUMPDEST PUSH1 0x40 MLOAD PUSH2 0x110 SWAP2 SWAP1 PUSH2 0x26A JUMP JUMPDEST PUSH1 0x40 MLOAD DUP1 SWAP2 SUB SWAP1 RETURN JUMPDEST PUSH2 0x133 PUSH1 0x4 DUP1 CALLDATASIZE SUB DUP2 ADD SWAP1 PUSH2 0x12E SWAP2 SWAP1 PUSH2 0x2B6 JUMP JUMPDEST PUSH2 0x1C2 JUMP JUMPDEST STOP JUMPDEST PUSH2 0x13D PUSH2 0x1CC JUMP JUMPDEST STOP JUMPDEST PUSH1 0x0 SLOAD DUP2 JUMP JUMPDEST PUSH1 0x2 SLOAD DUP2 JUMP JUMPDEST PUSH1 0x1 PUSH1 0x0 DUP2 DUP2 SWAP1 SLOAD SWAP1 PUSH2 0x100 EXP SWAP1 DIV PUSH1 0xFF AND DUP1 SWAP3 SWAP2 SWAP1 PUSH2 0x16A SWAP1 PUSH2 0x312 JUMP JUMPDEST SWAP2 SWAP1 PUSH2 0x100 EXP DUP2 SLOAD DUP2 PUSH1 0xFF MUL NOT AND SWAP1 DUP4 PUSH1 0xFF AND MUL OR SWAP1 SSTORE POP POP JUMP JUMPDEST PUSH1 0x1 DUP1 SLOAD SWAP1 PUSH2 0x100 EXP SWAP1 DIV PUSH1 0xFF AND DUP2 JUMP JUMPDEST PUSH1 0x0 DUP1 DUP2 SLOAD DUP1 SWAP3 SWAP2 SWAP1 PUSH2 0x1A8 SWAP1 PUSH2 0x33B JUMP JUMPDEST SWAP2 SWAP1 POP SSTORE POP JUMP JUMPDEST PUSH1 0x1 PUSH1 0x0 SWAP1 SLOAD SWAP1 PUSH2 0x100 EXP SWAP1 DIV PUSH1 0xFF AND DUP2 JUMP JUMPDEST DUP1 PUSH1 0x0 DUP2 SWAP1 SSTORE POP POP JUMP JUMPDEST PUSH1 0x2 PUSH1 0x0 DUP2 SLOAD DUP1 SWAP3 SWAP2 SWAP1 PUSH2 0x1DF SWAP1 PUSH2 0x364 JUMP JUMPDEST SWAP2 SWAP1 POP SSTORE POP JUMP JUMPDEST PUSH1 0x0 DUP2 SWAP1 POP SWAP2 SWAP1 POP JUMP JUMPDEST PUSH2 0x1F9 DUP2 PUSH2 0x1E6 JUMP JUMPDEST DUP3 MSTORE POP POP JUMP JUMPDEST PUSH1 0x0 PUSH1 0x20 DUP3 ADD SWAP1 POP PUSH2 0x214 PUSH1 0x0 DUP4 ADD DUP5 PUSH2 0x1F0 JUMP JUMPDEST SWAP3 SWAP2 POP POP JUMP JUMPDEST PUSH1 0x0 DUP2 SWAP1 POP SWAP2 SWAP1 POP JUMP JUMPDEST PUSH2 0x22D DUP2 PUSH2 0x21A JUMP JUMPDEST DUP3 MSTORE POP POP JUMP JUMPDEST PUSH1 0x0 PUSH1 0x20 DUP3 ADD SWAP1 POP PUSH2 0x248 PUSH1 0x0 DUP4 ADD DUP5 PUSH2 0x224 JUMP JUMPDEST SWAP3 SWAP2 POP POP JUMP JUMPDEST PUSH1 0x0 PUSH1 0xFF DUP3 AND SWAP1 POP SWAP2 SWAP1 POP JUMP JUMPDEST PUSH2 0x264 DUP2 PUSH2 0x24E JUMP JUMPDEST DUP3 MSTORE POP POP JUMP JUMPDEST PUSH1 0x0 PUSH1 0x20 DUP3 ADD SWAP1 POP PUSH2 0x27F PUSH1 0x0 DUP4 ADD DUP5 PUSH2 0x25B JUMP JUMPDEST SWAP3 SWAP2 POP POP JUMP JUMPDEST PUSH1 0x0 DUP1 REVERT JUMPDEST PUSH2 0x293 DUP2 PUSH2 0x1E6 JUMP JUMPDEST DUP2 EQ PUSH2 0x29E JUMPI PUSH1 0x0 DUP1 REVERT JUMPDEST POP JUMP JUMPDEST PUSH1 0x0 DUP2 CALLDATALOAD SWAP1 POP PUSH2 0x2B0 DUP2 PUSH2 0x28A JUMP JUMPDEST SWAP3 SWAP2 POP POP JUMP JUMPDEST PUSH1 0x0 PUSH1 0x20 DUP3 DUP5 SUB SLT ISZERO PUSH2 0x2CC JUMPI PUSH2 0x2CB PUSH2 0x285 JUMP JUMPDEST JUMPDEST PUSH1 0x0 PUSH2 0x2DA DUP5 DUP3 DUP6 ADD PUSH2 0x2A1 JUMP JUMPDEST SWAP2 POP POP SWAP3 SWAP2 POP POP JUMP JUMPDEST PUSH32 0x4E487B7100000000000000000000000000000000000000000000000000000000 PUSH1 0x0 MSTORE PUSH1 0x11 PUSH1 0x4 MSTORE PUSH1 0x24 PUSH1 0x0 REVERT JUMPDEST PUSH1 0x0 PUSH2 0x31D DUP3 PUSH2 0x24E JUMP JUMPDEST SWAP2 POP PUSH1 0xFF DUP3 SUB PUSH2 0x330 JUMPI PUSH2 0x32F PUSH2 0x2E3 JUMP JUMPDEST JUMPDEST PUSH1 0x1 DUP3 ADD SWAP1 POP SWAP2 SWAP1 POP JUMP JUMPDEST PUSH1 0x0 PUSH2 0x346 DUP3 PUSH2 0x1E6 JUMP JUMPDEST SWAP2 POP PUSH1 0x0 DUP3 SUB PUSH2 0x359 JUMPI PUSH2 0x358 PUSH2 0x2E3 JUMP JUMPDEST JUMPDEST PUSH1 0x1 DUP3 SUB SWAP1 POP SWAP2 SWAP1 POP JUMP JUMPDEST PUSH1 0x0 PUSH2 0x36F DUP3 PUSH2 0x21A JUMP JUMPDEST SWAP2 POP PUSH32 0x7FFFFFFFFFFFFFFFFFFFFFFFFFFFFFFFFFFFFFFFFFFFFFFFFFFFFFFFFFFFFFFF DUP3 SUB PUSH2 0x3A1 JUMPI PUSH2 0x3A0 PUSH2 0x2E3 JUMP JUMPDEST JUMPDEST PUSH1 0x1 DUP3 ADD SWAP1 POP SWAP2 SWAP1 POP JUMP INVALID LOG2 PUSH5 0x6970667358 0x22 SLT KECCAK256 SLOAD 0x5E SDIV 0xBB JUMPI 0xED MOD MULMOD DUP12 EQ 0x28 0xEB PUSH15 0x14BBEC84AC066A3875E15E4F017ADC SWAP13 MULMOD 0xBA 0x4E PUSH5 0x736F6C6343 STOP ADDMOD 0xE STOP CALLER "
				},
				"gasEstimates": {
					"creation": {
						"codeDepositCost": "198800",
						"executionCost": "70935",
						"totalCost": "269735"
					},
					"external": {
						"decrementUint()": "24501",
						"incrementInt()": "24567",
						"incrementUint8()": "26744",
						"myInt()": "2452",
						"myUint()": "2430",
						"myUint8()": "2493",
						"myUint8_EXP()": "2585",
						"setMyUint(uint256)": "22564"
					}
				},
				"methodIdentifiers": {
					"decrementUint()": "da50eaee",
					"incrementInt()": "f102a71d",
					"incrementUint8()": "84ea3606",
					"myInt()": "2cb777a6",
					"myUint()": "06540f7e",
					"myUint8()": "e2a4b2af",
					"myUint8_EXP()": "9fa39ec8",
					"setMyUint(uint256)": "e492fd84"
				}
			},
			"storageLayout": {
				"storage": [
					{
						"astId": 3,
						"contract": "contracts/ExampleInt.sol:ExampleUint",
						"label": "myUint",
						"offset": 0,
						"slot": "0",
						"type": "t_uint256"
					},
					{
						"astId": 6,
						"contract": "contracts/ExampleInt.sol:ExampleUint",
						"label": "myUint8",
						"offset": 0,
						"slot": "1",
						"type": "t_uint8"
					},
					{
						"astId": 11,
						"contract": "contracts/ExampleInt.sol:ExampleUint",
						"label": "myUint8_EXP",
						"offset": 1,
						"slot": "1",
						"type": "t_uint8"
					},
					{
						"astId": 15,
						"contract": "contracts/ExampleInt.sol:ExampleUint",
						"label": "myInt",
						"offset": 0,
						"slot": "2",
						"type": "t_int256"
					}
				],
				"types": {
					"t_int256": {
						"encoding": "inplace",
						"label": "int256",
						"numberOfBytes": "32"
					},
					"t_uint256": {
						"encoding": "inplace",
						"label": "uint256",
						"numberOfBytes": "32"
					},
					"t_uint8": {
						"encoding": "inplace",
						"label": "uint8",
						"numberOfBytes": "1"
					}
				}
			},
			"userdoc": {
				"kind": "user",
				"methods": {},
				"version": 1
			}
		}
	}
}