{
	"data": {
		"bytecode": {
			"linkReferences": {},
			"object": "608060405234801561001057600080fd5b506106ea806100206000396000f3fe608060405234801561001057600080fd5b50600436106100625760003560e01c806318db62fb146100675780632a2e13201461009757806381d73423146100c7578063d39fa233146100e5578063d4b87c0214610115578063fce6802314610145575b600080fd5b610081600480360381019061007c9190610471565b610161565b60405161008e919061052e565b60405180910390f35b6100b160048036038101906100ac9190610471565b61022c565b6040516100be919061052e565b60405180910390f35b6100cf6102bb565b6040516100dc919061055f565b60405180910390f35b6100ff60048036038101906100fa9190610471565b610319565b60405161010c919061055f565b60405180910390f35b61012f600480360381019061012a9190610471565b61033d565b60405161013c919061055f565b60405180910390f35b61015f600480360381019061015a9190610471565b61040a565b005b606060648211156101a9576040518060400160405280601081526020017f47726561746572207468616e20313030000000000000000000000000000000008152509050610227565b606482036101ee576040518060400160405280600c81526020017f457175616c20746f2031303000000000000000000000000000000000000000008152509050610227565b6040518060400160405280600d81526020017f4c657373207468616e203130300000000000000000000000000000000000000081525090505b919050565b6060600060028361023d91906105a9565b1461027d576040518060400160405280600381526020017f4f646400000000000000000000000000000000000000000000000000000000008152506102b4565b6040518060400160405280600481526020017f4576656e000000000000000000000000000000000000000000000000000000008152505b9050919050565b6000806000905060005b60008054905081101561031157600081815481106102e6576102e56105da565b5b9060005260206000200154826102fc9190610638565b915080806103099061066c565b9150506102c5565b508091505090565b6000818154811061032957600080fd5b906000526020600020016000915090505481565b600080600090505b6000805490508110156103cf576000808281548110610367576103666105da565b5b90600052602060002001540361038a5780806103829061066c565b915050610345565b600083600083815481106103a1576103a06105da565b5b90600052602060002001546103b691906105a9565b03156103cf5780806103c79061066c565b915050610345565b60008054905081106103e2576000610402565b600081815481106103f6576103f56105da565b5b90600052602060002001545b915050919050565b600081908060018154018082558091505060019003906000526020600020016000909190919091505550565b600080fd5b6000819050919050565b61044e8161043b565b811461045957600080fd5b50565b60008135905061046b81610445565b92915050565b60006020828403121561048757610486610436565b5b60006104958482850161045c565b91505092915050565b600081519050919050565b600082825260208201905092915050565b60005b838110156104d85780820151818401526020810190506104bd565b60008484015250505050565b6000601f19601f8301169050919050565b60006105008261049e565b61050a81856104a9565b935061051a8185602086016104ba565b610523816104e4565b840191505092915050565b6000602082019050818103600083015261054881846104f5565b905092915050565b6105598161043b565b82525050565b60006020820190506105746000830184610550565b92915050565b7f4e487b7100000000000000000000000000000000000000000000000000000000600052601260045260246000fd5b60006105b48261043b565b91506105bf8361043b565b9250826105cf576105ce61057a565b5b828206905092915050565b7f4e487b7100000000000000000000000000000000000000000000000000000000600052603260045260246000fd5b7f4e487b7100000000000000000000000000000000000000000000000000000000600052601160045260246000fd5b60006106438261043b565b915061064e8361043b565b925082820190508082111561066657610665610609565b5b92915050565b60006106778261043b565b91507fffffffffffffffffffffffffffffffffffffffffffffffffffffffffffffffff82036106a9576106a8610609565b5b60018201905091905056fea264697066735822122080047c9c5b8c4d62c3fd37234cfa4b07e44e6d8bf94e2ce8d4d065836057231f64736f6c63430008100033",
			"opcodes": "PUSH1 0x80 PUSH1 0x40 MSTORE CALLVALUE DUP1 ISZERO PUSH2 0x10 JUMPI PUSH1 0x0 DUP1 REVERT JUMPDEST POP PUSH2 0x6EA DUP1 PUSH2 0x20 PUSH1 0x0 CODECOPY PUSH1 0x0 RETURN INVALID PUSH1 0x80 PUSH1 0x40 MSTORE CALLVALUE DUP1 ISZERO PUSH2 0x10 JUMPI PUSH1 0x0 DUP1 REVERT JUMPDEST POP PUSH1 0x4 CALLDATASIZE LT PUSH2 0x62 JUMPI PUSH1 0x0 CALLDATALOAD PUSH1 0xE0 SHR DUP1 PUSH4 0x18DB62FB EQ PUSH2 0x67 JUMPI DUP1 PUSH4 0x2A2E1320 EQ PUSH2 0x97 JUMPI DUP1 PUSH4 0x81D73423 EQ PUSH2 0xC7 JUMPI DUP1 PUSH4 0xD39FA233 EQ PUSH2 0xE5 JUMPI DUP1 PUSH4 0xD4B87C02 EQ PUSH2 0x115 JUMPI DUP1 PUSH4 0xFCE68023 EQ PUSH2 0x145 JUMPI JUMPDEST PUSH1 0x0 DUP1 REVERT JUMPDEST PUSH2 0x81 PUSH1 0x4 DUP1 CALLDATASIZE SUB DUP2 ADD SWAP1 PUSH2 0x7C SWAP2 SWAP1 PUSH2 0x471 JUMP JUMPDEST PUSH2 0x161 JUMP JUMPDEST PUSH1 0x40 MLOAD PUSH2 0x8E SWAP2 SWAP1 PUSH2 0x52E JUMP JUMPDEST PUSH1 0x40 MLOAD DUP1 SWAP2 SUB SWAP1 RETURN JUMPDEST PUSH2 0xB1 PUSH1 0x4 DUP1 CALLDATASIZE SUB DUP2 ADD SWAP1 PUSH2 0xAC SWAP2 SWAP1 PUSH2 0x471 JUMP JUMPDEST PUSH2 0x22C JUMP JUMPDEST PUSH1 0x40 MLOAD PUSH2 0xBE SWAP2 SWAP1 PUSH2 0x52E JUMP JUMPDEST PUSH1 0x40 MLOAD DUP1 SWAP2 SUB SWAP1 RETURN JUMPDEST PUSH2 0xCF PUSH2 0x2BB JUMP JUMPDEST PUSH1 0x40 MLOAD PUSH2 0xDC SWAP2 SWAP1 PUSH2 0x55F JUMP JUMPDEST PUSH1 0x40 MLOAD DUP1 SWAP2 SUB SWAP1 RETURN JUMPDEST PUSH2 0xFF PUSH1 0x4 DUP1 CALLDATASIZE SUB DUP2 ADD SWAP1 PUSH2 0xFA SWAP2 SWAP1 PUSH2 0x471 JUMP JUMPDEST PUSH2 0x319 JUMP JUMPDEST PUSH1 0x40 MLOAD PUSH2 0x10C SWAP2 SWAP1 PUSH2 0x55F JUMP JUMPDEST PUSH1 0x40 MLOAD DUP1 SWAP2 SUB SWAP1 RETURN JUMPDEST PUSH2 0x12F PUSH1 0x4 DUP1 CALLDATASIZE SUB DUP2 ADD SWAP1 PUSH2 0x12A SWAP2 SWAP1 PUSH2 0x471 JUMP JUMPDEST PUSH2 0x33D JUMP JUMPDEST PUSH1 0x40 MLOAD PUSH2 0x13C SWAP2 SWAP1 PUSH2 0x55F JUMP JUMPDEST PUSH1 0x40 MLOAD DUP1 SWAP2 SUB SWAP1 RETURN JUMPDEST PUSH2 0x15F PUSH1 0x4 DUP1 CALLDATASIZE SUB DUP2 ADD SWAP1 PUSH2 0x15A SWAP2 SWAP1 PUSH2 0x471 JUMP JUMPDEST PUSH2 0x40A JUMP JUMPDEST STOP JUMPDEST PUSH1 0x60 PUSH1 0x64 DUP3 GT ISZERO PUSH2 0x1A9 JUMPI PUSH1 0x40 MLOAD DUP1 PUSH1 0x40 ADD PUSH1 0x40 MSTORE DUP1 PUSH1 0x10 DUP2 MSTORE PUSH1 0x20 ADD PUSH32 0x47726561746572207468616E2031303000000000000000000000000000000000 DUP2 MSTORE POP SWAP1 POP PUSH2 0x227 JUMP JUMPDEST PUSH1 0x64 DUP3 SUB PUSH2 0x1EE JUMPI PUSH1 0x40 MLOAD DUP1 PUSH1 0x40 ADD PUSH1 0x40 MSTORE DUP1 PUSH1 0xC DUP2 MSTORE PUSH1 0x20 ADD PUSH32 0x457175616C20746F203130300000000000000000000000000000000000000000 DUP2 MSTORE POP SWAP1 POP PUSH2 0x227 JUMP JUMPDEST PUSH1 0x40 MLOAD DUP1 PUSH1 0x40 ADD PUSH1 0x40 MSTORE DUP1 PUSH1 0xD DUP2 MSTORE PUSH1 0x20 ADD PUSH32 0x4C657373207468616E2031303000000000000000000000000000000000000000 DUP2 MSTORE POP SWAP1 POP JUMPDEST SWAP2 SWAP1 POP JUMP JUMPDEST PUSH1 0x60 PUSH1 0x0 PUSH1 0x2 DUP4 PUSH2 0x23D SWAP2 SWAP1 PUSH2 0x5A9 JUMP JUMPDEST EQ PUSH2 0x27D JUMPI PUSH1 0x40 MLOAD DUP1 PUSH1 0x40 ADD PUSH1 0x40 MSTORE DUP1 PUSH1 0x3 DUP2 MSTORE PUSH1 0x20 ADD PUSH32 0x4F64640000000000000000000000000000000000000000000000000000000000 DUP2 MSTORE POP PUSH2 0x2B4 JUMP JUMPDEST PUSH1 0x40 MLOAD DUP1 PUSH1 0x40 ADD PUSH1 0x40 MSTORE DUP1 PUSH1 0x4 DUP2 MSTORE PUSH1 0x20 ADD PUSH32 0x4576656E00000000000000000000000000000000000000000000000000000000 DUP2 MSTORE POP JUMPDEST SWAP1 POP SWAP2 SWAP1 POP JUMP JUMPDEST PUSH1 0x0 DUP1 PUSH1 0x0 SWAP1 POP PUSH1 0x0 JUMPDEST PUSH1 0x0 DUP1 SLOAD SWAP1 POP DUP2 LT ISZERO PUSH2 0x311 JUMPI PUSH1 0x0 DUP2 DUP2 SLOAD DUP2 LT PUSH2 0x2E6 JUMPI PUSH2 0x2E5 PUSH2 0x5DA JUMP JUMPDEST JUMPDEST SWAP1 PUSH1 0x0 MSTORE PUSH1 0x20 PUSH1 0x0 KECCAK256 ADD SLOAD DUP3 PUSH2 0x2FC SWAP2 SWAP1 PUSH2 0x638 JUMP JUMPDEST SWAP2 POP DUP1 DUP1 PUSH2 0x309 SWAP1 PUSH2 0x66C JUMP JUMPDEST SWAP2 POP POP PUSH2 0x2C5 JUMP JUMPDEST POP DUP1 SWAP2 POP POP SWAP1 JUMP JUMPDEST PUSH1 0x0 DUP2 DUP2 SLOAD DUP2 LT PUSH2 0x329 JUMPI PUSH1 0x0 DUP1 REVERT JUMPDEST SWAP1 PUSH1 0x0 MSTORE PUSH1 0x20 PUSH1 0x0 KECCAK256 ADD PUSH1 0x0 SWAP2 POP SWAP1 POP SLOAD DUP2 JUMP JUMPDEST PUSH1 0x0 DUP1 PUSH1 0x0 SWAP1 POP JUMPDEST PUSH1 0x0 DUP1 SLOAD SWAP1 POP DUP2 LT ISZERO PUSH2 0x3CF JUMPI PUSH1 0x0 DUP1 DUP3 DUP2 SLOAD DUP2 LT PUSH2 0x367 JUMPI PUSH2 0x366 PUSH2 0x5DA JUMP JUMPDEST JUMPDEST SWAP1 PUSH1 0x0 MSTORE PUSH1 0x20 PUSH1 0x0 KECCAK256 ADD SLOAD SUB PUSH2 0x38A JUMPI DUP1 DUP1 PUSH2 0x382 SWAP1 PUSH2 0x66C JUMP JUMPDEST SWAP2 POP POP PUSH2 0x345 JUMP JUMPDEST PUSH1 0x0 DUP4 PUSH1 0x0 DUP4 DUP2 SLOAD DUP2 LT PUSH2 0x3A1 JUMPI PUSH2 0x3A0 PUSH2 0x5DA JUMP JUMPDEST JUMPDEST SWAP1 PUSH1 0x0 MSTORE PUSH1 0x20 PUSH1 0x0 KECCAK256 ADD SLOAD PUSH2 0x3B6 SWAP2 SWAP1 PUSH2 0x5A9 JUMP JUMPDEST SUB ISZERO PUSH2 0x3CF JUMPI DUP1 DUP1 PUSH2 0x3C7 SWAP1 PUSH2 0x66C JUMP JUMPDEST SWAP2 POP POP PUSH2 0x345 JUMP JUMPDEST PUSH1 0x0 DUP1 SLOAD SWAP1 POP DUP2 LT PUSH2 0x3E2 JUMPI PUSH1 0x0 PUSH2 0x402 JUMP JUMPDEST PUSH1 0x0 DUP2 DUP2 SLOAD DUP2 LT PUSH2 0x3F6 JUMPI PUSH2 0x3F5 PUSH2 0x5DA JUMP JUMPDEST JUMPDEST SWAP1 PUSH1 0x0 MSTORE PUSH1 0x20 PUSH1 0x0 KECCAK256 ADD SLOAD JUMPDEST SWAP2 POP POP SWAP2 SWAP1 POP JUMP JUMPDEST PUSH1 0x0 DUP2 SWAP1 DUP1 PUSH1 0x1 DUP2 SLOAD ADD DUP1 DUP3 SSTORE DUP1 SWAP2 POP POP PUSH1 0x1 SWAP1 SUB SWAP1 PUSH1 0x0 MSTORE PUSH1 0x20 PUSH1 0x0 KECCAK256 ADD PUSH1 0x0 SWAP1 SWAP2 SWAP1 SWAP2 SWAP1 SWAP2 POP SSTORE POP JUMP JUMPDEST PUSH1 0x0 DUP1 REVERT JUMPDEST PUSH1 0x0 DUP2 SWAP1 POP SWAP2 SWAP1 POP JUMP JUMPDEST PUSH2 0x44E DUP2 PUSH2 0x43B JUMP JUMPDEST DUP2 EQ PUSH2 0x459 JUMPI PUSH1 0x0 DUP1 REVERT JUMPDEST POP JUMP JUMPDEST PUSH1 0x0 DUP2 CALLDATALOAD SWAP1 POP PUSH2 0x46B DUP2 PUSH2 0x445 JUMP JUMPDEST SWAP3 SWAP2 POP POP JUMP JUMPDEST PUSH1 0x0 PUSH1 0x20 DUP3 DUP5 SUB SLT ISZERO PUSH2 0x487 JUMPI PUSH2 0x486 PUSH2 0x436 JUMP JUMPDEST JUMPDEST PUSH1 0x0 PUSH2 0x495 DUP5 DUP3 DUP6 ADD PUSH2 0x45C JUMP JUMPDEST SWAP2 POP POP SWAP3 SWAP2 POP POP JUMP JUMPDEST PUSH1 0x0 DUP2 MLOAD SWAP1 POP SWAP2 SWAP1 POP JUMP JUMPDEST PUSH1 0x0 DUP3 DUP3 MSTORE PUSH1 0x20 DUP3 ADD SWAP1 POP SWAP3 SWAP2 POP POP JUMP JUMPDEST PUSH1 0x0 JUMPDEST DUP4 DUP2 LT ISZERO PUSH2 0x4D8 JUMPI DUP1 DUP3 ADD MLOAD DUP2 DUP5 ADD MSTORE PUSH1 0x20 DUP2 ADD SWAP1 POP PUSH2 0x4BD JUMP JUMPDEST PUSH1 0x0 DUP5 DUP5 ADD MSTORE POP POP POP POP JUMP JUMPDEST PUSH1 0x0 PUSH1 0x1F NOT PUSH1 0x1F DUP4 ADD AND SWAP1 POP SWAP2 SWAP1 POP JUMP JUMPDEST PUSH1 0x0 PUSH2 0x500 DUP3 PUSH2 0x49E JUMP JUMPDEST PUSH2 0x50A DUP2 DUP6 PUSH2 0x4A9 JUMP JUMPDEST SWAP4 POP PUSH2 0x51A DUP2 DUP6 PUSH1 0x20 DUP7 ADD PUSH2 0x4BA JUMP JUMPDEST PUSH2 0x523 DUP2 PUSH2 0x4E4 JUMP JUMPDEST DUP5 ADD SWAP2 POP POP SWAP3 SWAP2 POP POP JUMP JUMPDEST PUSH1 0x0 PUSH1 0x20 DUP3 ADD SWAP1 POP DUP2 DUP2 SUB PUSH1 0x0 DUP4 ADD MSTORE PUSH2 0x548 DUP2 DUP5 PUSH2 0x4F5 JUMP JUMPDEST SWAP1 POP SWAP3 SWAP2 POP POP JUMP JUMPDEST PUSH2 0x559 DUP2 PUSH2 0x43B JUMP JUMPDEST DUP3 MSTORE POP POP JUMP JUMPDEST PUSH1 0x0 PUSH1 0x20 DUP3 ADD SWAP1 POP PUSH2 0x574 PUSH1 0x0 DUP4 ADD DUP5 PUSH2 0x550 JUMP JUMPDEST SWAP3 SWAP2 POP POP JUMP JUMPDEST PUSH32 0x4E487B7100000000000000000000000000000000000000000000000000000000 PUSH1 0x0 MSTORE PUSH1 0x12 PUSH1 0x4 MSTORE PUSH1 0x24 PUSH1 0x0 REVERT JUMPDEST PUSH1 0x0 PUSH2 0x5B4 DUP3 PUSH2 0x43B JUMP JUMPDEST SWAP2 POP PUSH2 0x5BF DUP4 PUSH2 0x43B JUMP JUMPDEST SWAP3 POP DUP3 PUSH2 0x5CF JUMPI PUSH2 0x5CE PUSH2 0x57A JUMP JUMPDEST JUMPDEST DUP3 DUP3 MOD SWAP1 POP SWAP3 SWAP2 POP POP JUMP JUMPDEST PUSH32 0x4E487B7100000000000000000000000000000000000000000000000000000000 PUSH1 0x0 MSTORE PUSH1 0x32 PUSH1 0x4 MSTORE PUSH1 0x24 PUSH1 0x0 REVERT JUMPDEST PUSH32 0x4E487B7100000000000000000000000000000000000000000000000000000000 PUSH1 0x0 MSTORE PUSH1 0x11 PUSH1 0x4 MSTORE PUSH1 0x24 PUSH1 0x0 REVERT JUMPDEST PUSH1 0x0 PUSH2 0x643 DUP3 PUSH2 0x43B JUMP JUMPDEST SWAP2 POP PUSH2 0x64E DUP4 PUSH2 0x43B JUMP JUMPDEST SWAP3 POP DUP3 DUP3 ADD SWAP1 POP DUP1 DUP3 GT ISZERO PUSH2 0x666 JUMPI PUSH2 0x665 PUSH2 0x609 JUMP JUMPDEST JUMPDEST SWAP3 SWAP2 POP POP JUMP JUMPDEST PUSH1 0x0 PUSH2 0x677 DUP3 PUSH2 0x43B JUMP JUMPDEST SWAP2 POP PUSH32 0xFFFFFFFFFFFFFFFFFFFFFFFFFFFFFFFFFFFFFFFFFFFFFFFFFFFFFFFFFFFFFFFF DUP3 SUB PUSH2 0x6A9 JUMPI PUSH2 0x6A8 PUSH2 0x609 JUMP JUMPDEST JUMPDEST PUSH1 0x1 DUP3 ADD SWAP1 POP SWAP2 SWAP1 POP JUMP INVALID LOG2 PUSH5 0x6970667358 0x22 SLT KECCAK256 DUP1 DIV PUSH29 0x9C5B8C4D62C3FD37234CFA4B07E44E6D8BF94E2CE8D4D065836057231F PUSH5 0x736F6C6343 STOP ADDMOD LT STOP CALLER "
		},
		"gasEstimates": {
			"creation": {
				"codeDepositCost": "354000",
				"executionCost": "393",
				"totalCost": "354393"
			},
			"external": {
				"addNumber(uint256)": "46917",
				"checkValue(uint256)": "infinite",
				"findFirstMultipleOf(uint256)": "infinite",
				"isEven(uint256)": "infinite",
				"numbers(uint256)": "infinite",
				"sumArray()": "infinite"
			}
		},
		"methodIdentifiers": {
			"addNumber(uint256)": "fce68023",
			"checkValue(uint256)": "18db62fb",
			"findFirstMultipleOf(uint256)": "d4b87c02",
			"isEven(uint256)": "2a2e1320",
			"numbers(uint256)": "d39fa233",
			"sumArray()": "81d73423"
		}
	},
	"abi": [
		{
			"inputs": [
				{
					"internalType": "uint256",
					"name": "_number",
					"type": "uint256"
				}
			],
			"name": "addNumber",
			"outputs": [],
			"stateMutability": "nonpayable",
			"type": "function"
		},
		{
			"inputs": [
				{
					"internalType": "uint256",
					"name": "_value",
					"type": "uint256"
				}
			],
			"name": "checkValue",
			"outputs": [
				{
					"internalType": "string",
					"name": "",
					"type": "string"
				}
			],
			"stateMutability": "pure",
			"type": "function"
		},
		{
			"inputs": [
				{
					"internalType": "uint256",
					"name": "_number",
					"type": "uint256"
				}
			],
			"name": "findFirstMultipleOf",
			"outputs": [
				{
					"internalType": "uint256",
					"name": "",
					"type": "uint256"
				}
			],
			"stateMutability": "view",
			"type": "function"
		},
		{
			"inputs": [
				{
					"internalType": "uint256",
					"name": "_number",
					"type": "uint256"
				}
			],
			"name": "isEven",
			"outputs": [
				{
					"internalType": "string",
					"name": "",
					"type": "string"
				}
			],
			"stateMutability": "pure",
			"type": "function"
		},
		{
			"inputs": [
				{
					"internalType": "uint256",
					"name": "",
					"type": "uint256"
				}
			],
			"name": "numbers",
			"outputs": [
				{
					"internalType": "uint256",
					"name": "",
					"type": "uint256"
				}
			],
			"stateMutability": "view",
			"type": "function"
		},
		{
			"inputs": [],
			"name": "sumArray",
			"outputs": [
				{
					"internalType": "uint256",
					"name": "",
					"type": "uint256"
				}
			],
			"stateMutability": "view",
			"type": "function"
		}
	]
}