{
	"data": {
		"bytecode": {
			"linkReferences": {},
			"object": "608060405260fa6000806101000a81548160ff021916908360ff16021790555034801561002b57600080fd5b5061011e8061003b6000396000f3fe6080604052348015600f57600080fd5b5060043610603c5760003560e01c80632baeceb7146041578063d09de08a146049578063e2a4b2af146051575b600080fd5b60476070565b005b604f60a4565b005b605760d7565b604051808260ff16815260200191505060405180910390f35b60008081819054906101000a900460ff16809291906001900391906101000a81548160ff021916908360ff16021790555050565b60008081819054906101000a900460ff168092919060010191906101000a81548160ff021916908360ff16021790555050565b60008054906101000a900460ff168156fea26469706673582212202af2098327b668e57c80d2318df679a2675f146d6a5727a945e82fed306e106964736f6c63430007000033",
			"opcodes": "PUSH1 0x80 PUSH1 0x40 MSTORE PUSH1 0xFA PUSH1 0x0 DUP1 PUSH2 0x100 EXP DUP2 SLOAD DUP2 PUSH1 0xFF MUL NOT AND SWAP1 DUP4 PUSH1 0xFF AND MUL OR SWAP1 SSTORE POP CALLVALUE DUP1 ISZERO PUSH2 0x2B JUMPI PUSH1 0x0 DUP1 REVERT JUMPDEST POP PUSH2 0x11E DUP1 PUSH2 0x3B PUSH1 0x0 CODECOPY PUSH1 0x0 RETURN INVALID PUSH1 0x80 PUSH1 0x40 MSTORE CALLVALUE DUP1 ISZERO PUSH1 0xF JUMPI PUSH1 0x0 DUP1 REVERT JUMPDEST POP PUSH1 0x4 CALLDATASIZE LT PUSH1 0x3C JUMPI PUSH1 0x0 CALLDATALOAD PUSH1 0xE0 SHR DUP1 PUSH4 0x2BAECEB7 EQ PUSH1 0x41 JUMPI DUP1 PUSH4 0xD09DE08A EQ PUSH1 0x49 JUMPI DUP1 PUSH4 0xE2A4B2AF EQ PUSH1 0x51 JUMPI JUMPDEST PUSH1 0x0 DUP1 REVERT JUMPDEST PUSH1 0x47 PUSH1 0x70 JUMP JUMPDEST STOP JUMPDEST PUSH1 0x4F PUSH1 0xA4 JUMP JUMPDEST STOP JUMPDEST PUSH1 0x57 PUSH1 0xD7 JUMP JUMPDEST PUSH1 0x40 MLOAD DUP1 DUP3 PUSH1 0xFF AND DUP2 MSTORE PUSH1 0x20 ADD SWAP2 POP POP PUSH1 0x40 MLOAD DUP1 SWAP2 SUB SWAP1 RETURN JUMPDEST PUSH1 0x0 DUP1 DUP2 DUP2 SWAP1 SLOAD SWAP1 PUSH2 0x100 EXP SWAP1 DIV PUSH1 0xFF AND DUP1 SWAP3 SWAP2 SWAP1 PUSH1 0x1 SWAP1 SUB SWAP2 SWAP1 PUSH2 0x100 EXP DUP2 SLOAD DUP2 PUSH1 0xFF MUL NOT AND SWAP1 DUP4 PUSH1 0xFF AND MUL OR SWAP1 SSTORE POP POP JUMP JUMPDEST PUSH1 0x0 DUP1 DUP2 DUP2 SWAP1 SLOAD SWAP1 PUSH2 0x100 EXP SWAP1 DIV PUSH1 0xFF AND DUP1 SWAP3 SWAP2 SWAP1 PUSH1 0x1 ADD SWAP2 SWAP1 PUSH2 0x100 EXP DUP2 SLOAD DUP2 PUSH1 0xFF MUL NOT AND SWAP1 DUP4 PUSH1 0xFF AND MUL OR SWAP1 SSTORE POP POP JUMP JUMPDEST PUSH1 0x0 DUP1 SLOAD SWAP1 PUSH2 0x100 EXP SWAP1 DIV PUSH1 0xFF AND DUP2 JUMP INVALID LOG2 PUSH5 0x6970667358 0x22 SLT KECCAK256 0x2A CALLCODE MULMOD DUP4 0x27 0xB6 PUSH9 0xE57C80D2318DF679A2 PUSH8 0x5F146D6A5727A945 0xE8 0x2F 0xED ADDRESS PUSH15 0x106964736F6C634300070000330000 "
		},
		"gasEstimates": {
			"creation": {
				"codeDepositCost": "57200",
				"executionCost": "20972",
				"totalCost": "78172"
			},
			"external": {
				"decrement()": "21854",
				"increment()": "21873",
				"myUint8()": "1066"
			}
		},
		"methodIdentifiers": {
			"decrement()": "2baeceb7",
			"increment()": "d09de08a",
			"myUint8()": "e2a4b2af"
		}
	},
	"abi": [
		{
			"inputs": [],
			"name": "decrement",
			"outputs": [],
			"stateMutability": "nonpayable",
			"type": "function"
		},
		{
			"inputs": [],
			"name": "increment",
			"outputs": [],
			"stateMutability": "nonpayable",
			"type": "function"
		},
		{
			"inputs": [],
			"name": "myUint8",
			"outputs": [
				{
					"internalType": "uint8",
					"name": "",
					"type": "uint8"
				}
			],
			"stateMutability": "view",
			"type": "function"
		}
	]
}