{
	"data": {
		"bytecode": {
			"linkReferences": {},
			"object": "608060405234801561001057600080fd5b506101da806100206000396000f3fe60806040526004361061002d5760003560e01c806320d68c5e14610039578063700d9df31461006257610034565b3661003457005b600080fd5b34801561004557600080fd5b50610060600480360381019061005b9190610177565b61008b565b005b34801561006e57600080fd5b5061008960048036038101906100849190610177565b6100c9565b005b60008173ffffffffffffffffffffffffffffffffffffffff166108fc600a9081150290604051600060405180830381858888f1935050505090505050565b8073ffffffffffffffffffffffffffffffffffffffff166108fc600a9081150290604051600060405180830381858888f19350505050158015610110573d6000803e3d6000fd5b5050565b600080fd5b600073ffffffffffffffffffffffffffffffffffffffff82169050919050565b600061014482610119565b9050919050565b61015481610139565b811461015f57600080fd5b50565b6000813590506101718161014b565b92915050565b60006020828403121561018d5761018c610114565b5b600061019b84828501610162565b9150509291505056fea264697066735822122031b4097f26825e8124d9c94ed2748a7de3c868561b4f6b14d26305106cc6270f64736f6c634300080f0033",
			"opcodes": "PUSH1 0x80 PUSH1 0x40 MSTORE CALLVALUE DUP1 ISZERO PUSH2 0x10 JUMPI PUSH1 0x0 DUP1 REVERT JUMPDEST POP PUSH2 0x1DA DUP1 PUSH2 0x20 PUSH1 0x0 CODECOPY PUSH1 0x0 RETURN INVALID PUSH1 0x80 PUSH1 0x40 MSTORE PUSH1 0x4 CALLDATASIZE LT PUSH2 0x2D JUMPI PUSH1 0x0 CALLDATALOAD PUSH1 0xE0 SHR DUP1 PUSH4 0x20D68C5E EQ PUSH2 0x39 JUMPI DUP1 PUSH4 0x700D9DF3 EQ PUSH2 0x62 JUMPI PUSH2 0x34 JUMP JUMPDEST CALLDATASIZE PUSH2 0x34 JUMPI STOP JUMPDEST PUSH1 0x0 DUP1 REVERT JUMPDEST CALLVALUE DUP1 ISZERO PUSH2 0x45 JUMPI PUSH1 0x0 DUP1 REVERT JUMPDEST POP PUSH2 0x60 PUSH1 0x4 DUP1 CALLDATASIZE SUB DUP2 ADD SWAP1 PUSH2 0x5B SWAP2 SWAP1 PUSH2 0x177 JUMP JUMPDEST PUSH2 0x8B JUMP JUMPDEST STOP JUMPDEST CALLVALUE DUP1 ISZERO PUSH2 0x6E JUMPI PUSH1 0x0 DUP1 REVERT JUMPDEST POP PUSH2 0x89 PUSH1 0x4 DUP1 CALLDATASIZE SUB DUP2 ADD SWAP1 PUSH2 0x84 SWAP2 SWAP1 PUSH2 0x177 JUMP JUMPDEST PUSH2 0xC9 JUMP JUMPDEST STOP JUMPDEST PUSH1 0x0 DUP2 PUSH20 0xFFFFFFFFFFFFFFFFFFFFFFFFFFFFFFFFFFFFFFFF AND PUSH2 0x8FC PUSH1 0xA SWAP1 DUP2 ISZERO MUL SWAP1 PUSH1 0x40 MLOAD PUSH1 0x0 PUSH1 0x40 MLOAD DUP1 DUP4 SUB DUP2 DUP6 DUP9 DUP9 CALL SWAP4 POP POP POP POP SWAP1 POP POP POP JUMP JUMPDEST DUP1 PUSH20 0xFFFFFFFFFFFFFFFFFFFFFFFFFFFFFFFFFFFFFFFF AND PUSH2 0x8FC PUSH1 0xA SWAP1 DUP2 ISZERO MUL SWAP1 PUSH1 0x40 MLOAD PUSH1 0x0 PUSH1 0x40 MLOAD DUP1 DUP4 SUB DUP2 DUP6 DUP9 DUP9 CALL SWAP4 POP POP POP POP ISZERO DUP1 ISZERO PUSH2 0x110 JUMPI RETURNDATASIZE PUSH1 0x0 DUP1 RETURNDATACOPY RETURNDATASIZE PUSH1 0x0 REVERT JUMPDEST POP POP JUMP JUMPDEST PUSH1 0x0 DUP1 REVERT JUMPDEST PUSH1 0x0 PUSH20 0xFFFFFFFFFFFFFFFFFFFFFFFFFFFFFFFFFFFFFFFF DUP3 AND SWAP1 POP SWAP2 SWAP1 POP JUMP JUMPDEST PUSH1 0x0 PUSH2 0x144 DUP3 PUSH2 0x119 JUMP JUMPDEST SWAP1 POP SWAP2 SWAP1 POP JUMP JUMPDEST PUSH2 0x154 DUP2 PUSH2 0x139 JUMP JUMPDEST DUP2 EQ PUSH2 0x15F JUMPI PUSH1 0x0 DUP1 REVERT JUMPDEST POP JUMP JUMPDEST PUSH1 0x0 DUP2 CALLDATALOAD SWAP1 POP PUSH2 0x171 DUP2 PUSH2 0x14B JUMP JUMPDEST SWAP3 SWAP2 POP POP JUMP JUMPDEST PUSH1 0x0 PUSH1 0x20 DUP3 DUP5 SUB SLT ISZERO PUSH2 0x18D JUMPI PUSH2 0x18C PUSH2 0x114 JUMP JUMPDEST JUMPDEST PUSH1 0x0 PUSH2 0x19B DUP5 DUP3 DUP6 ADD PUSH2 0x162 JUMP JUMPDEST SWAP2 POP POP SWAP3 SWAP2 POP POP JUMP INVALID LOG2 PUSH5 0x6970667358 0x22 SLT KECCAK256 BALANCE 0xB4 MULMOD PUSH32 0x26825E8124D9C94ED2748A7DE3C868561B4F6B14D26305106CC6270F64736F6C PUSH4 0x4300080F STOP CALLER "
		},
		"gasEstimates": {
			"creation": {
				"codeDepositCost": "94800",
				"executionCost": "141",
				"totalCost": "94941"
			},
			"external": {
				"withdrawSend(address)": "infinite",
				"withdrawTransfer(address)": "infinite"
			}
		},
		"methodIdentifiers": {
			"withdrawSend(address)": "20d68c5e",
			"withdrawTransfer(address)": "700d9df3"
		}
	},
	"abi": [
		{
			"inputs": [
				{
					"internalType": "address payable",
					"name": "_to",
					"type": "address"
				}
			],
			"name": "withdrawSend",
			"outputs": [],
			"stateMutability": "nonpayable",
			"type": "function"
		},
		{
			"inputs": [
				{
					"internalType": "address payable",
					"name": "_to",
					"type": "address"
				}
			],
			"name": "withdrawTransfer",
			"outputs": [],
			"stateMutability": "nonpayable",
			"type": "function"
		},
		{
			"stateMutability": "payable",
			"type": "receive"
		}
	]
}